:020000040800F2
:1000000000000220097F0008D9720008DB72000896
:10001000DD720008DF720008E172000800000000D5
:10002000000000000000000000000000E372000873
:10003000E572000800000000E7720008E97200089D
:10004000597F0008597F0008597F0008597F000830
:10005000597F0008597F0008597F0008597F000820
:10006000597F0008597F0008597F0008597F000810
:10007000597F0008597F0008597F0008597F000800
:10008000597F0008597F0008597F0008597F0008F0
:10009000597F0008597F0008597F0008597F0008E0
:1000A000597F0008597F0008597F0008597F0008D0
:1000B000597F0008597F0008597F0008597F0008C0
:1000C000597F0008F172000801730008597F000889
:1000D000597F00081173000821730008317300086C
:1000E000597F0008597F0008597F0008597F000890
:1000F000597F0008597F0008597F0008597F000880
:10010000597F0008597F0008597F0008597F00086F
:10011000597F0008597F0008417300085173000897
:10012000597F0008597F0008597F0008597F00084F
:10013000597F00080000000000000000597F0008FF
:10014000597F0008597F0008597F00086173000833
:10015000597F0008597F0008597F00087173000813
:10016000597F0008597F0008597F0008597F00080F
:10017000597F0008597F00080000000000000000BF
:08018000597F0008597F0008B7
:1001900010B5054C237833B9044B13B10448AFF3C1
:1001A00000800123237010BDF80200200000000031
:1001B000BC8F000808B5034B1BB103490348AFF3DC
:1001C000008008BD00000000FC020020BC8F000879
:1001D00053B94AB9002908BF00281CBF4FF0FF31AE
:1001E0004FF0FF3000F072B9ADF1080C6DE904CEAC
:1001F00000F006F8DDF804E0DDE9022304B0704702
:100200002DE9F047089E04468846002B4BD18A42D0
:10021000154667D9B2FA82F24AB1C2F1200701FA53
:1002200002F320FA07F7954047EA030894404FEAA3
:10023000154E230CB8FBFEF71FFA85FC0EFB178842
:1002400043EA084307FB0CF1994209D9EB1807F17F
:10025000FF3080F01B81994240F21881023F2B440D
:100260005B1AA4B2B3FBFEF00EFB103344EA034466
:1002700000FB0CFCA44509D92C1900F1FF3380F0D8
:100280000781A44540F2048102382C4440EA07402B
:10029000A4EB0C0400271EB1D4400023C6E90043A0
:1002A0003946BDE8F0878B4209D9002E00F0EB807B
:1002B0000027C6E9000138463946BDE8F087B3FAA1
:1002C00083F7002F47D18B4202D3824200F2FA809B
:1002D000841A61EB030301209846002EE0D0C6E9A2
:1002E0000048DDE702B9FFDEB2FA82F2002A40F0F0
:1002F0008F80491B4FEA154E1FFA85F80127B1FB85
:10030000FEFC230C0EFB1C1143EA014308FB0CF11D
:10031000994207D9EB180CF1FF3002D2994200F252
:10032000CD808446591AA3B2B1FBFEF00EFB101427
:1003300043EA044408FB00F8A04507D92C1900F152
:10034000FF3302D2A04500F2B6801846A4EB0804A1
:1003500040EA0C409FE7C7F1200CBB4022FA0CFE9C
:100360004EEA030E01FA07F420FA0CF521FA0CF319
:100370004FEA1E482543B3FBF8F92C0C08FB193350
:100380001FFA8EFA44EA034309FB0AF49C4202FA7C
:1003900007F200FA07F10BD91EEB030309F1FF3056
:1003A00080F087809C4240F28480A9F10209734466
:1003B0001B1BADB2B3FBF8F008FB103345EA034456
:1003C00000FB0AFAA24508D91EEB040400F1FF3332
:1003D0006BD2A24569D90238744440EA0940A0FBB7
:1003E0000289A4EB0A044C45C2464B4654D351D073
:1003F000002E69D0B1EB0A0564EB030404FA0CFC8F
:10040000FD40FC404CEA0505C6E90054002747E7DB
:10041000C2F1200320FA03F7954001FA02F021FA15
:1004200003F34FEA154E3843010CB3FBFEF71FFAF6
:1004300085F80EFB173341EA034107FB08F38B42B3
:1004400004FA02F407D9691807F1FF3C2FD28B4256
:100450002DD9023F2944CB1A81B2B3FBFEF00EFB2B
:10046000103341EA034100FB08F38B4207D96918B6
:1004700000F1FF3C17D28B4215D902382944C91A22
:1004800040EA07473BE73746304609E70746E7E6D5
:100490001846FBE64145ABD2B8EB020A69EB0E0207
:1004A00001381346A4E76046E9E7184695E7674632
:1004B000D1E781467CE702382C4447E7ACF1020CD7
:1004C0002B442FE7384608E73746E9E6704700BF78
:1004D00001F0FF01102A2BDB10F0070F08D010F8F5
:1004E000013B013A8B422DD010F0070F42B3F6D1F9
:1004F000F0B441EA012141EA014122F007047FF012
:1005000000070023F0E80256083C85EA010586EA68
:10051000010685FA47F5A3FA87F586FA47F6A5FAA4
:1005200087F68EB9EED1F0BC01F0FF0102F00702B0
:1005300032B110F8013B013A83EA010313B1F8D15B
:100540000020704701387047002D06BF354603383C
:10055000073815F0010F07D1013015F4807F02BF75
:10056000013015F4C03F0130F0BC0138704700BFC6
:1005700070B5044601700025457020263246294694
:10058000043007F087FD84F8245084F8255084F85F
:10059000265084F827503246294604F1280007F0F7
:1005A00079FD84F848504FF0FF33A370E370204684
:1005B00070BD4AF6BA3082B110B40B78D32404FB74
:1005C000030080B280EA2020013A92B20131002A71
:1005D000F3D1C0B25DF8044B7047C0B2704708B5A4
:1005E0002322FFF7E6FF08BD24230B80013070476C
:1005F00010B50C46FFF7F3FF94F82330834214BF85
:100600000020012010BD013188B200B901207047DF
:1006100003784BB1012B01D000207047C08C884279
:1006200014BF0020012070470120704710B5044618
:100630004378AB2B0CBF0120002005D018B1611C02
:100640002046FFF7D5FF10BD61882046FFF7E0FF89
:10065000F4E770B505460E461446FFF7E7FF01467E
:1006600070B123881F2B0FD8002322889A4208D903
:100670001F2B06D8EA181279F25401339BB2F4E723
:1006800000232380084670BD00210B46F9E708B51A
:1006900003781BB1012B03D0002000E0408808BD87
:1006A000C18CFFF7B0FFFAE7F8B5202A94BF012606
:1006B000002622D815460F460446AB2380F8253085
:1006C000FFF7E5FFE0840023AB4206D2F85CE218B6
:1006D00082F8280001339BB2F6E71F2B06D8E218F8
:1006E000002182F8281001339BB2F6E704F12501BE
:1006F0002046FFF774FF84F848003046F8BD10B478
:10070000038A827F042A0AD0827F062A19D0008AAF
:10071000984294BF002001205DF8044B704733B12C
:1007200082899A420AD9046A026B944206D282688C
:100730005C1C0482D15400220262E5E70622827723
:10074000E2E700220262E2E74B1E9BB2F62B00D8E2
:100750004177407F884214BF00200120704700008D
:10076000B2B900221344DBB20933DBB2094AB2FB4F
:10077000F1F103FB01F18162C1EBC1035B08C362CC
:1007800001EB41035B080363081C18BF012070479D
:100790000122E7E740420F004162081C18BF012018
:1007A000704790F83430007E984294BF00200120BA
:1007B0007047000010B50446024B036000F044FE91
:1007C000204610BDDC8F000810B50446FFF7F2FF8D
:1007D0003821204607F0DAFB204610BD08B5037F1C
:1007E000042B10D04368A3B18368C3B18389E3B1FC
:1007F00009BB00238377037E80F83430807F00308C
:1008000018BF012008BD0F4B0F4A3F210F4807F0CA
:10081000C9FB0F4B0C4A40210C4807F0C3FB0D4BA2
:10082000094A4121094807F0BDFB0B4B064A42210A
:10083000064807F0B7FB0123837700230382036296
:10084000DCE700BF389500081490000848950008C0
:1008500064950008789500088895000808B58368B5
:10086000C28913440B60837F022B04D1038A0322C5
:100870008277184608BD034B034AAD21034807F0B1
:1008800091FB00BF9495000840900008489500082F
:1008900008B5837F032B00D023B9032B08D0012395
:1008A000837708BD064B074AB921074807F07AFB52
:1008B0000023C3810382036204238377F1E700BF2F
:1008C000AC9500087090000848950008032901D8ED
:1008D0000177704708B5034B034A40F229110348DA
:1008E00007F060FBE49500089C900008489500081C
:1008F00010B5044600F096FD0B4B23600B4B636173
:10090000052222764FF48073638304232377FF2329
:1009100063770023A37723626362A362E3622363A6
:1009200084F83420204610BDDC8F0008400D030001
:1009300090F83430027E934202D2013380F8343092
:100940007047837F4BB310B5026A41698A4202D275
:10095000446A224402620446042B03D0A37F062B80
:1009600011D010BD038A3BB9036A9942F6D801231E
:100970008377FFF7DDFFF1E7026AC36A9A42EDD998
:1009800005238377EAE7226AE36A9A42E9D30123DF
:10099000A3772046FFF7CCFFE3E7704710B5AAB175
:1009A0001046052B19D8029A1278EAB1421E92B26B
:1009B00014120C704A7098421DD81B1ADBB2013316
:1009C000DBB21A128A70CB70042010BD0D4B0E4A98
:1009D00040F23B110D4807F0E5FA0D4B0A4A4FF47F
:1009E0009E710A4807F0DEFA0A4B074A40F23D11B1
:1009F000064807F0D7FA084B034A40F2451103486E
:100A000007F0D0FAF4950008C8900008489500084F
:100A1000089600081C96000820960008F8B50A29D8
:100A200021D906461446142924D813784BB3A1F1D2
:100A30000B039BB2092B01D9002313702378002BE1
:100A400000F0DE80A1F10B039BB2092B20D8C9B2C4
:100A50000B39092900F2CA80DFE801F0214A5E68FB
:100A6000727CA4ADB6BF674B674A4FF4C671674846
:100A700007F098FA664B644A40F28D11634807F01C
:100A800091FA644B604A4FF4C771604807F08AFAE4
:100A9000614B5D4A40F299115C4807F083FA2346A6
:100AA000327F0121706800F0C9FAB0FA80F77F093F
:100AB000BDB2237873B90123227812B32346327F63
:100AC0000221706800F0BAFAC04345EA002085B2FE
:100AD000022316E02346327F0021706800F0AEFA50
:100AE00020B1002040EA07050023E5E70220F9E7EE
:100AF0002346327F0321706800F0A0FAC04385B21C
:100B00000323227822B1B3F10A0218BF0122227016
:100B10000A2B6ED02846F8BD2346327F0321706829
:100B200000F08CFAC043050C0323EAE72346327F2A
:100B30000421706800F082FAC04385B20423E0E724
:100B40002346327F0421706800F078FAC043050C18
:100B50000423D6E72346327F0121706800F06EFA45
:100B600088B10125237883B901232278002AC8D0CF
:100B70002346327F0221706800F060FA45EA0025C2
:100B8000ADB20223BDE70025ECE72346327F00210A
:100B9000706800F053FA18B102231D430023E4E704
:100BA0000023FAE72346327F0321706800F046FAFB
:100BB00085B20323A5E72346327F0321706800F046
:100BC0003DFA050C03239CE72346327F042170681D
:100BD00000F034FA85B2042393E72346327F0421E0
:100BE000706800F02BFA050C04238AE70A2300251D
:100BF00087E70A4B044A40F2E311044807F0D2F9B0
:100C0000002587E72C9600081491000848950008F5
:100C1000449600081C9600085C960008949600080C
:100C20002DE9F047DDF820800A2A30D982460F46A8
:100C30009146142B32D898F80020002A35D009F1BB
:100C4000FF3292B2111239707A70A3EB0906F6B234
:100C50000136F6B23312BB70FE7073003B71002494
:100C60000525B44228D209EB0401424689B2504618
:100C7000FFF7D4FE98F80030F3B102126B1C9BB260
:100C80007A550235ADB2F8540134E4B2E9E70C4BC1
:100C90000C4A40F253110C4807F084F90B4B094AF7
:100CA0004FF4AA71084807F07DF9094B054A40F254
:100CB0005511054807F076F92846BDE8F08700BFD2
:100CC000A89600085891000848950008C0960008AA
:100CD0001C96000870B51C782CB1541EA4B2042CCC
:100CE00001D900241C701C78002C5CD01C460646E0
:100CF0000B784D7805EB0325ADB2531E9BB2042B48
:100D000008D8D2B2013A042A44D8DFE802F00A1720
:100D1000222D3800254B264A4FF40571254807F04F
:100D200041F92B460725327F2946706800F0B4FA56
:100D30000A2D31D001232370022070BD2346027F8B
:100D40000821406800F07AF9000C00042B180825EF
:100D5000E9E72D042346027F0821406800F06EF980
:100D600015FA80F30825DEE72346027F0921406853
:100D700000F064F9000C00042B180925D3E72D04BA
:100D80002346027F0921406800F058F915FA80F3E4
:100D90000925C8E70A25CBE7074B054A4FF40E7132
:100DA000044807F0FFF80020C7E700BFD49600080A
:100DB000A491000848950008949600082DE9F84F82
:100DC0008246894693461A460B9F3B78C3B1BDF8CD
:100DD0002880A8EB02085FFA88F808F101085FFA9A
:100DE00088F809784FEA4803994203D000233B7002
:100DF000012408E0BBF800108B42F7DC012402E07C
:100E00004FF0000844463B7893B10025A8450FD920
:100E1000561CB6B23B4609EB04015046FFF75AFF99
:100E20000444A4B23B781BB10135EDB23246EDE784
:100E3000BBF800301B1BABF800302046BDE8F88F34
:100E400030B41846002494420CD2C3B20D5D5D400C
:100E5000054B03EB4503B3F91C3283EA202080B233
:100E60000134F0E730BC7047D48F000870B584B00F
:100E70000446837F012B06D0A07F022814BF0020E8
:100E8000012004B070BD012204AE06F8012D836874
:100E9000417F197083681721597081680096052376
:100EA0000231FFF77BFD023085B2A1680096142362
:100EB0000B2229442046FFF7B3FE0544ADB29DF84E
:100EC0000F30002BD8D0A6684FF6FF732A46314664
:100ED0002046FFF7B5FF6B1C9BB270550012A2684D
:100EE0000235ADB2D054638BAB4208D9002DC3D0CC
:100EF00025820023E38123620223A377BCE7034B0F
:100F0000034A9921034807F04DF800BF08970008ED
:100F1000F09300084895000870B51C78ECB10D7886
:100F2000447FA54201D000241C701D46134614883E
:100F3000013CA4B214800E5D013CA2B21A808C5C0C
:100F400004EB0624A4B24FF6FF73FFF779FFA0422B
:100F500005D000232B70012000E0002070BD01208F
:100F6000FCE7837F052B01D00020704730B585B0AA
:100F7000044601238DF80D30038AADF80E300DF1D3
:100F80000D030DF10E028168FFF7C6FF9DF80D30CD
:100F900053B1A568431C99B22B5C032B0DD0172BC2
:100FA00018D0002384F834309DF80D30FBB19DF843
:100FB0000D000123A37705B030BD0DF10D030193A2
:100FC0000523009301230DF10E0229442046FFF76B
:100FD000F5FEE6E70DF10D030193052300930123D0
:100FE0000DF10E0229442046FFF7E8FED9E720461E
:100FF000FFF79EFCDBE70000004870471403002069
:1010000008B5092906D801EB81018A00054B134474
:10101000587808BD044B054A40F24911044806F0CF
:10102000C1FF00BF040000202097000814940008AE
:10103000349700080120704701207047F0B583B055
:101040001E460023019309291BD805460C46174666
:10105000FFF7F0FF0346D8B933707BB10F4AA30006
:101060001819810008461144496801910244136926
:1010700023B101AA3946284698473070019803B039
:10108000F0BD074B074A4FF4B071074806F08AFFDE
:1010900021462846FFF7B4FF0346DDE704000020A1
:1010A00020970008489400083497000810B582B0D3
:1010B00001238DF80730032903D09DF8070002B003
:1010C00010BD14460A460DF107030121FFF7B6FFD4
:1010D0009DF80730002BF0D00028EED04FF0FF3302
:1010E0002360EAE710B582B000238DF8073031B1F4
:1010F0000B46032907D09DF8070002B010BD01235D
:101100008DF80730F7E711680029F4D01946144626
:101110000DF107030A460021FFF790FF9DF8073005
:10112000002BE8D010F0FF0F02D000232360E2E78D
:101130000123FBE770B582B000238DF8073031B191
:101140000C46032907D09DF8070002B070BD0123AB
:101150008DF80730F7E711680029F4D015460646E8
:101160000DF1070322460021FFF768FF9DF80730C5
:1011700013B110B1002300E000238DF80730002BDD
:10118000E1D00DF10703224601213046FFF756FF5B
:101190009DF80730002BD6D010B901232B60D2E781
:1011A0000023FBE770B582B000238DF8073031B122
:1011B0000C46032907D09DF8070002B070BD01233B
:1011C0008DF80730F7E711680029F4D01546064678
:1011D0000DF1070322460021FFF730FF9DF807308D
:1011E00013B110B1002300E000238DF80730002B6D
:1011F000E1D00DF10703224603213046FFF71EFF21
:101200009DF80720002AD6D02B6843402B60D2E7F8
:1012100070B582B000238DF8073031B10C46032938
:1012200007D09DF8070002B070BD01238DF807308C
:10123000F7E711680029F4D0154606460DF10703BB
:1012400022460021FFF7FAFE9DF8073013B110B1D6
:10125000002300E000238DF80730002BE1D00DF1D2
:101260000703224604213046FFF7E8FE9DF80720D9
:10127000002AD6D02B6843402B60D2E730B4054C0F
:101280008B005D18A80020448260426001234370F7
:1012900030BC704704000020F0B583B001930929E9
:1012A0001BD805460C461646FFF7C6FE074688B112
:1012B00004EB84039A000C4B1344DB682BB101AAA6
:1012C000314628469847074620B1019A21462846CC
:1012D000FFF7D4FF384603B0F0BD044B044A4FF487
:1012E000BA71044806F05EFE040000202097000852
:1012F0008894000834970008F0B583B000238DF877
:101300000730032903D09DF8070003B0F0BD16464F
:101310000C4605460821FFF773FE18B901238DF826
:101320000730F0E737680DF1070322460821284609
:10133000FFF784FE8742F1D0336822460321284616
:10134000FFF7AAFFEAE7F0B583B000238DF8073076
:10135000032903D09DF8070003B0F0BD16460C46E4
:1013600005460921FFF74CFE18B901238DF8073017
:10137000F0E737680DF10703224609212846FFF7F9
:101380005DFE8742F1D03368224604212846FFF7EC
:1013900083FFEAE72DE9F04182B000238DF80730A2
:1013A000032904D09DF8070002B0BDE8F08116467D
:1013B0000C4605460721FFF723FE18B901238DF8D7
:1013C0000730EFE7D6F800800DF10703224607212A
:1013D0002846FFF733FE88EA00078045EED017F075
:1013E000010F0CD117F0020F12D117F47F4FE5D087
:1013F0007378224602212846FFF74EFFDEE7336866
:1014000003F00103224601212846FFF745FFE9E7E3
:10141000336803F00203224600212846FFF73CFF11
:10142000E3E7000010B50446064B03600023436069
:1014300083608381C3810382FFF7DEFD6060204605
:1014400010BD00BFD0940008704782818160704752
:1014500010B504460E4B18784FF47A73B3FBF0F3D3
:101460000C4A1068B0FBF3F000F0EEF868B90F2CEE
:1014700001D901200AE0002221464FF0FF3000F0A0
:1014800069F8034B5C60002000E0012010BD00BF44
:10149000CC0000201402002008B50B4B1A6842F45F
:1014A00000721A601A6842F480621A601A6842F484
:1014B00080721A60032000F02FF80020FFF7C8FFA9
:1014C00005F038FD002008BD003C0240034A1168C9
:1014D000034B1B780B441360704700BFC406002009
:1014E000CC000020014B1868704700BFC4060020E4
:1014F00038B50446FFF7F6FF0546B4F1FF3F02D0CA
:10150000044B1B781C44FFF7EDFF401BA042FAD3AD
:1015100038BD00BFCC00002010B50446C31E042B0C
:101520000FD80A4AD36823F4E0631B041B0C24027F
:1015300004F4E064234343F0BF6343F40033D36017
:1015400010BD9221024805F0EBFCEAE700ED00E057
:101550005097000870B505460C4616460F2A25D848
:101560000F2C28D81B4BDB68C3F30223C3F10702FF
:10157000042A28BF0422191D062921D9033B4FF054
:10158000FF3101FA02F224EA02049C4001FA03F35B
:1015900026EA03063443002D14DB2401E4B205F1EE
:1015A000604505F5614585F8004370BDAA210A48EC
:1015B00005F0B6FCD4E7AB21074805F0B1FCD1E754
:1015C0000023DCE705F00F052401E4B2034B5C5572
:1015D000EBE700BF00ED00E05097000814ED00E0DD
:1015E00010B5041E0ADB002C07DB04F01F0264099F
:1015F00001239340044A42F8243010BDBE21034821
:1016000005F08EFCEFE700BF00E100E05097000816
:1016100010B5041E0FDB002C0CDB04F01F02640964
:10162000012393402034064A42F82430BFF34F8F01
:10163000BFF36F8F10BDCE21024805F071FCEAE7C1
:1016400000E100E0509700080138B0F1807F0AD235
:10165000064B5860064AF02182F82310002098605B
:1016600007221A6070470120704700BF10E000E0B9
:1016700000ED00E090F83530DBB2022B03D0802380
:10168000436501207047052380F8353002681368F0
:1016900023F0010313600020704790F83500704775
:1016A0002DE9F04383B080460E46B34B984223D0D9
:1016B00003F5806398421FD003F5806398421BD0E6
:1016C00003F58063984217D003F58063984213D0E6
:1016D00003F5806398420FD003F5806398420BD0E6
:1016E00003F58063984207D003F58063984203D0E6
:1016F000B321A24805F014FC33689AB212B11B0C56
:101700001B041BB1B4219D4805F00AFC7368012B32
:101710001ED9112B1CD0022B1AD0122B18D0984A8C
:10172000934215D002F58012934211D002F5801237
:1017300093420DD0A2F5F812934209D002F580121F
:10174000934205D002F58012934201D0032B04D1BD
:10175000B368022B06D800244AE0B521874805F07B
:10176000DFFBF5E7B621854805F0DAFBF3E7C82192
:10177000824805F0D5FB4FE0E021804805F0D0FB22
:1017800090E0072300E000238B40034302327D49B1
:1017900041F822307C4B1A68FB4303EA020170686F
:1017A00010F4803F01D047EA0201774A1160526885
:1017B00003EA0201706810F4003F01D047EA020119
:1017C000714A5160926803EA0201706810F4801F48
:1017D00001D047EA02016C4A9160D26813407168F7
:1017E00011F4001F01D047EA0203674AD3600134B5
:1017F0000F2C00F2BD800125A54037682F40BD4267
:10180000F5D173685A1E012A03D9112B01D0122B6E
:1018100019D1F368032BAAD8D8F808206100032354
:101820008B4022EA0302F3688B401343C8F8083068
:10183000D8F8042022EA05027368C3F30015A54016
:101840001543C8F80450D8F80C204FEA4409032582
:1018500005FA09F5ED432A40B36803FA09F3134387
:10186000C8F80C307368022B01D0122B2AD13369CF
:10187000C3B1092B16D0012B14D0022B12D0032B8D
:1018800010D0042B0ED0052B0CD0062B0AD0072B22
:1018900008D0082B06D00A2B04D00C2B02D00F2B1B
:1018A0007FF46AAFE208083258F8220004F0070318
:1018B00099000F238B4020EA030033698B400343D8
:1018C00048F82230D8F800301D40736803F0030355
:1018D00003FA09F31D43C8F80050736813F0805FE2
:1018E00085D000230193294B5A6C42F480425A64FC
:1018F0005B6C03F480430193019BA208911C214B74
:1019000053F8210004F0030399000F238B4020EAD1
:101910000300194B98453FF436AF03F580639845B3
:101920001AD003F58063984518D003F58063984575
:1019300016D003F58063984514D003F5806398456D
:1019400012D003F58063984510D003F58063984565
:101950003FF417AF082317E7012315E7022313E726
:10196000032311E704230FE705230DE706230BE705
:1019700003B0BDE8F08300BF000002408C97000870
:101980000000111000380140003C014000380240C6
:10199000F8B504460D46584B984224D003F58063B1
:1019A000984220D003F5806398421CD003F58063F1
:1019B000984218D003F58063984214D003F58063F1
:1019C000984210D003F5806398420CD003F58063F1
:1019D000984208D003F58063984204D04FF4987180
:1019E000464805F09DFA002327E0072700E000277E
:1019F00007FA00F0B04265D020685E000321B140D4
:101A0000C94308402060D808083054F8206003F02B
:101A100007074FEA870C0F2707FA0CF726EA070695
:101A200044F82060E0680840E060606820EA020254
:101A30006260A2681140A16001330F2B5AD80122C5
:101A40009A4002EA05018A42F6D14FEA930E0EF15E
:101A500002062B4850F8266003F0030080004FF088
:101A60000F0C0CFA00FC0CEA0606234FBC42BED059
:101A700007F58067BC4219D007F58067BC4217D0D4
:101A800007F58067BC4215D007F58067BC4213D0CC
:101A900007F58067BC4211D007F58067BC420FD0C4
:101AA00007F58067BC42A0D00827A1E701279FE780
:101AB00002279DE703279BE7042799E7052797E778
:101AC000062795E70F480668C9430E40066046683A
:101AD0000E40466086680E408660C6683140C16030
:101AE000074E0EF1020156F8210020EA0C0046F8DC
:101AF000210081E7F8BD00BF000002408C9700087C
:101B000000380140003C014038B505460C4621B183
:101B10002B691C4207D1002038BD4FF4BF71034828
:101B200005F0FEF9F4E70120F6E700BF8C97000806
:101B300070B5064615460C4629B1012D09D875B970
:101B40002404B46170BD40F29F11064805F0E8F925
:101B5000F3E74FF4D071034805F0E2F9EFE7B46121
:101B6000F0E700BF8C97000838B505460C4629B150
:101B70006B6934EA030307D0AC6138BD4FF4DB7105
:101B8000034805F0CDF9F3E72404AC61F5E700BFA5
:101B90008C97000890F83E30DBB2402B0AD00369E6
:101BA000B3F5804F15D0036D002B34D0036D012B9E
:101BB0003BD07047036D2BB9436C026803F0FE0302
:101BC00013617047436C026843F00103DBB2136199
:101BD000704790F83D30DBB2212B0FD0436C026888
:101BE00043F00103DBB21361436B6BB1DB6B5BB1A1
:101BF0000268536843F4006353607047436C0268A3
:101C000003F0FE031361EFE7836B002BD1D0DB6B96
:101C1000002BEDD1CDE7436CC3F3C813026803F08A
:101C2000060343F0F00313617047436CC3F3C8131A
:101C3000026803F0060343F0F1031361B9E7436C54
:101C40000268DBB21361436B3BB1DB6B4BB10268E3
:101C5000536843F4006353607047826B002AF4D1E9
:101C6000FAE7836BDB6B002BF1D1F5E710B48BB097
:101C700090F83E30DAB2C16A046B90F83D30DBB2C6
:101C8000222B0BD00023099303685A6909929B69A0
:101C90000993099B0BB05DF8044B7047036D0BB9BA
:101CA000402A17D0036D1BB90369B3F5404F19D013
:101CB000438D9BB2002B25D1029303685A6902928F
:101CC0009A690292029A1A6842F400721A6000231A
:101CD0000365DFE7009303685A6900929B690093EC
:101CE000009BD7E70023019303685A6901929A6920
:101CF0000192019A1A6842F480721A60036D0133EE
:101D00000365C7E7438D9BB2012B25D0438D9BB262
:101D1000022B7BD00268136843F48063136003686E
:101D20005A6812F4006F0ED011F5803F07D00129D8
:101D300005D0082903D0102901D0202903D15A68E1
:101D400042F480525A600023089303685A6908924B
:101D50009B690893089BBAE711F5803F11D00829C9
:101D600034D0202932D0122C2ED0042940D0022980
:101D70003ED010293CD00268136823F480631360BE
:101D80003BE00268136823F48063136003685A68B9
:101D900012F4006F0CD01A6822F480621A600023DB
:101DA000039303685A6903929B690393039B8EE72D
:101DB000002204925A6904929A690492049A1A6859
:101DC00042F400721A6082E70129CED002681368DB
:101DD00023F4806313600023069303685A69069214
:101DE0009A690692069A1A6842F400721A606EE7BF
:101DF0000268136843F4806313600023059303684B
:101E00005A6905929B690593059B60E704290ED0EA
:101E100002290CD010290AD00268136823F48063C9
:101E200013600268136843F40063136004E00268FF
:101E3000136843F48063136003685A6812F4006FF8
:101E40000ED011F5803F07D0012905D0082903D015
:101E5000102901D0202903D15A6842F480525A60D7
:101E60000023079303685A6907929B690793079BAE
:101E70002DE7438D9BB253B1426A036812781A6111
:101E8000436A01334362438D013B9BB243857047F4
:101E9000438D9BB253B103681A69436A1A70436A4F
:101EA00001334362438D013B9BB243857047000081
:101EB00082B0002301930E4B1B68DB080D4AA2FB86
:101EC00003231B0A03EB83030193019B013B019353
:101ED000019B33B103681B6813F4007FF5D1002028
:101EE00004E0036C43F020030364012002B0704758
:101EF0001402002089B5F814C36AB3F52A0F04D080
:101F0000C36AB3F12A4F03D070470123C3627047FD
:101F10000823C362F8E70000002800F03B81F8B511
:101F2000044603689D4A93420CD002F580629342B6
:101F300008D002F58062934204D040F2BF11984865
:101F400004F0EEFF6368013B964A934200F2A580DD
:101F5000A3681BB1B3F5804F40F0A580E36823F47C
:101F60007F7323F00303002B40F0A3802369B3F5B4
:101F7000804F03D0B3F5404F40F0A1806369012B3F
:101F800000F2A380A36933F0FE0340F0A480E3696C
:101F900013B1402B40F0A580236A13B1802B40F091
:101FA000A68094F83D30002B00F0A780242384F80D
:101FB0003D302268136823F0010313602268136820
:101FC00043F4004313602268136823F40043136052
:101FD00002F094F96268744B9A4200F29480734B59
:101FE00098428CBF00230123002B40F0D580704B1A
:101FF000A3FB00239B0C21684A6822F03F021A438E
:102000004A6025682A6A22F03F02666866498E4265
:102010007FD8013313432B622568E96921F44F41CE
:1020200021F0FF016368604A93427CD801385B006D
:10203000B0FBF3F30133C3F30B03042B38BF0423CA
:102040000B43EB6121680B6823F0C003E269206A4F
:10205000024313430B6021688B6823F4034323F08E
:10206000FF032269E068024313438B602168CB6859
:1020700023F0FF036269A06902431343CB60226827
:10208000136843F00103136000202064202384F8C8
:102090003D30206384F83E00F8BD4FF4E0714048C5
:1020A00004F03EFF54E740F2C1113D4804F038FF10
:1020B00054E74FF4E1713A4804F032FF56E740F23A
:1020C000C311374804F02CFF58E74FF4E27134484D
:1020D00004F026FF56E740F2C511314804F020FF16
:1020E00055E74FF4E3712E4804F01AFF54E740F22D
:1020F000C7112B4804F014FF53E784F83C30204606
:1021000004F034FF52E72B4B98428CBF002301238D
:102110006AE74FF4967101FB03F32749A1FB031310
:102120009B09013376E7A268BAB9461E03EB430761
:10213000B6FBF7F60136C6F30B06B6FA86F6760955
:1021400036BBC2B9013803EB4303B0FBF3F30133F1
:10215000C3F30B0242F4004372E7461E03EB83070E
:1021600007EB8707B6FBF7F60136C6F30B06B6FAA0
:1021700086F67609E4E7013803EB830303EB830378
:10218000B0FBF3F20132C2F30B0242F4404357E7D3
:10219000012355E70120704701207DE700540040EE
:1021A000C89700087F1A0600A08601007F841E00E1
:1021B00083DE1B43FF083D00D34D621038B310B5DA
:1021C00004460368134A93420CD002F5806293429E
:1021D00008D002F58062934204D040F22F210E48CD
:1021E00004F09EFE242384F83D302268136823F017
:1021F00001031360204604F003FF0020206484F8EC
:102200003D00206384F83E0084F83C0010BD0120AE
:10221000704700BF00540040C897000890F83D3058
:10222000DBB2202B37D1002937D0002A37D090F8E5
:102230003C30012B35D010B4012380F83C300368CA
:102240001C6814F0010F03D11C6844F001041C60E9
:102250000468236823F400632360212380F83D3061
:10226000202380F83E300023036441624285428D82
:1022700002850D4AC26201680A6842F480620A60FF
:1022800080F83C3001684A6842F4E0624A601846CF
:102290005DF8044B70470220704701207047012011
:1022A00070470220704700BF0000FFFF90F83D30EC
:1022B000DBB2202B37D1002937D0002A37D090F855
:1022C0003C30012B35D010B4012380F83C3003683A
:1022D0001C6814F0010F03D11C6844F001041C6059
:1022E0000468236823F400632360222380F83D30D0
:1022F000202380F83E300023036441624285428DF2
:1023000002850D4AC26201680A6842F480620A606E
:1023100080F83C3001684A6842F4E0624A6018463E
:102320005DF8044B70470220704701207047012080
:1023300070470220704700BF0000FFFF704708B5DC
:10234000C26A90F83D30DBB2212B00D008BD438D2E
:102350009BB2D3B9082A04D0202A02D012F5803FBC
:102360001FD10268536823F4E06353600268136866
:1023700043F40073136000230363202280F83D20A0
:1023800080F83E30FFF7DAFFE0E7426A0368127830
:102390001A61436A01334362438D013B9BB243851B
:1023A000D4E70268536823F4E063536011230363A6
:1023B000002380F83E30202380F83D30FFF7BEFF39
:1023C000C4E7704708B590F83D30DAB2438D9BB250
:1023D0007BB1416A036809781961436A013343623A
:1023E000438D013B9BB24385438D9BB20BB9292A98
:1023F00000D008BD0268536823F480635360212332
:102400000363282380F83D3005F098FBF1E708B519
:1024100090F83D30DAB2438D9BB27BB10368196905
:10242000436A1970436A01334362438D013B9BB297
:102430004385438D9BB20BB92A2A00D008BD0268A0
:10244000536823F48063536022230363282380F8B6
:102450003D3005F059FBF1E7704708B590F83D3085
:1024600003F02803282B07D003686FF002025A619B
:10247000002380F83C3008BD0268536823F4806371
:10248000536011F0040F0BD0002311F0800F09D11D
:102490008289002180F83C101946FFF7DDFFEAE74A
:1024A0000123F2E7028BF4E77047000008B590F8CB
:1024B0003D30DBB2C26A082A01D0202A01D1282B84
:1024C00006D0212B1ED003686FF480625A6108BDCC
:1024D0001A4BC3620268536823F4E06353600368D5
:1024E0006FF480625A610268136823F4806313609A
:1024F00000230363202280F83D2080F83E30FFF760
:10250000D3FFE4E70D4BC36221230363202380F84C
:102510003D30002380F83E300268536823F4E063C6
:10252000536003686FF480625A610268136823F491
:102530008063136005F002FBC9E700BF0000FFFFE6
:10254000704708B590F83D30026D9AB9C36C012B05
:1025500008D0836CC3F3072302681361036D013352
:10256000036508BD836C0268DBB21361036D02333F
:102570000365F6E7DBB2026D012A23D0026D022A61
:10258000EFD1222B26D0428D92B20AB1212B27D037
:10259000428D92B2002AE4D1212BE2D10268536825
:1025A00023F4E06353600268136843F4007313601C
:1025B00000230363202280F83D2080F83E30FFF79F
:1025C000BFFFCEE7836C0268DBB21361036D01339A
:1025D0000365C6E70268136843F480731360C0E7BD
:1025E000426A036812781A61436A01334362438D79
:1025F000013B9BB24385B4E710B590F83D30DBB2A8
:1026000090F83E20D2B2C46A018D09B9212B04D0C2
:10261000212B3BD0402A37D010BD082C04D0202CD1
:1026200002D014F5803F19D10268536823F4E063A7
:1026300053600268136843F400731360002303635C
:10264000202380F83D3090F83E30DBB2402B15D08F
:10265000002380F83E30FFF771FEDDE70268536823
:1026600023F4E063536011230363002380F83E30BA
:10267000202380F83D30FFF761FECDE7002380F88E
:102680003E30FFF75DFFC7E7222BC5D1438D9BB2DC
:1026900083B190F83E30DBB2402B11D0426A036820
:1026A00012781A61436A01334362438D013B9BB246
:1026B0004385B1E70268536823F480635360ABE756
:1026C000FFF73FFFA8E7704708B5C26A438D9BB28A
:1026D000042B13D0438D9BB2032B20D0438D9BB290
:1026E000022B36D003681A69436A1A70436A0133B1
:1026F0004362438D013B9BB243850FE00268536800
:1027000023F48063536003681A69436A1A70436A4A
:1027100001334362438D013B9BB2438508BD016891
:102720004B6823F480634B60042A06D0022A04D04D
:102730000268136823F48063136003681A69436AAC
:102740001A70436A01334362438D013B9BB2438558
:10275000E4E7012A0BD0102A09D0042A36D0022A35
:1027600034D00268136843F40073136004E0026815
:10277000136823F48063136003681A69436A1A704C
:10278000426A531C4362438D013B9BB243850368FD
:102790001B695370436A01334362438D013B9BB213
:1027A00043850268536823F440735360202380F804
:1027B0003D3090F83E30DBB2402B0DD0002380F846
:1027C0003E3012230363FFF7FCFDA7E7026813689E
:1027D00043F480631360CFE7002380F83E30036347
:1027E000FFF771FF9AE790F83D30DBB2222B00D063
:1027F0007047438D9BB2032B14D903681A69436A4F
:102800001A70436A01334362438D013B9BB2438597
:10281000438D9BB2032BEBD10268536823F4806392
:1028200053607047C26A022AE2D0012BE0D810B58B
:102830000446FFF73DFB68BB2268136823F48063FE
:1028400013602268536823F4E063536023681A69B5
:10285000636A1A70636A01336362638D013B9BB2E2
:102860006385202384F83D3094F83E30DBB2402B62
:1028700008D0002384F83E30122323632046FFF75C
:10288000A0FD10BD002384F83E3023632046FFF7EF
:102890001AFFF6E72268536823F4E0635360236865
:1028A0001A69636A1A70636A01336362638D013B5C
:1028B0009BB26385202384F83D30002384F83E30AA
:1028C000204605F055F9DCE700B583B000230193FD
:1028D000806B90F83D20D2B2324B1B68DB08324946
:1028E000A1FB03131B0A03EB8303C3EBC303019395
:1028F000019B43B1019B013B019303681B6813F4E7
:10290000007FF5D103E0036C43F020030364436BC5
:102910000BB10021D963836B0BB10021D96301682E
:102920000B6823F480630B6000234385436B0BB17A
:1029300000211965836B0BB10021196501680B68D3
:1029400023F001030B6090F83D30DBB2602B0ED01A
:1029500002F02802282A14D0202380F83D300023DA
:1029600080F83E3005F004F903B05DF804FB202345
:1029700080F83D30002380F83E30036405F01CF9F8
:10298000F2E70268136843F00103136002681368FA
:1029900043F48063136000230363282380F83D30F1
:1029A000E0E700BF1402002089B5F81410B5044612
:1029B00090F83D30DBB290F83E20D2B2102A36D0EB
:1029C000402A34D003F02802282A38D022685268DE
:1029D00012F4006F07D1602B05D0202384F83D301E
:1029E000002384F83E300023236323685A6812F4DE
:1029F000006F48D05A6822F400625A60626B92F805
:102A00003530DBB2012B20D0444B1365606BFEF7F1
:102A100031FE002849D02268136823F001031360B7
:102A2000202384F83D30606B036D98473DE0222BF6
:102A3000C8D121680A6822F400620A60C2E7002354
:102A40002363282384F83D30CFE7A36B334A1A650C
:102A5000A06BFEF70FFE40B323685A6912F0400FD7
:102A600005D01A69636A1A70636A01336362226867
:102A7000136823F001031360202384F83D30A06B1A
:102A8000036D984711E094F83D20D2B2602A1FD020
:102A90005A6912F0400F05D01A69636A1A70636AA6
:102AA00001336362204605F063F8236C13F00F0FC7
:102AB00004D02268536823F4E063536094F83D30F7
:102AC000DBB2226C12F0040F01D0282B18D010BDFD
:102AD000202284F83D20002222645A6912F0400F1F
:102AE00005D01A69636A1A70636A013363622268E7
:102AF000136823F001031360204605F05DF8D4E766
:102B0000074BE36200232363202284F83D2084F8EE
:102B10003E302046FFF7C8FCD9E700BFC9280008AF
:102B20000000FFFF30B583B0044690F83D50EDB291
:102B30000268536823F4E063536000230193036841
:102B40005A6901921A6842F001021A60019B0268F8
:102B5000136823F48063136003685A6812F4006FEB
:102B600038D0222D21D02A2D1FD0426B12685268F6
:102B700092B24285428D92B21AB1026C42F00402C6
:102B800002645A6822F400625A60606BFEF785FDA9
:102B900001281FD0636B434A1A65606BFEF76AFD1C
:102BA000C0B1606B036D984714E0A26B1268526865
:102BB00092B26285628D92B21AB1226C42F0040226
:102BC00022645A6822F400625A60A06BFEF765FD29
:102BD000012840D1638D9BB223B323685A6912F058
:102BE000040F09D01A69636A1A70636A0133636259
:102BF000638D013B9BB2638523685A6912F0400FD5
:102C000009D01A69636A1A70636A01336362638D5B
:102C1000013B9BB26385638D9BB21BB1236C43F078
:102C200004032364236C13BB2A2D25D094F83D3074
:102C3000DBB2282B29D0236B222B01D0222D19D1D6
:102C400000232363202284F83D2084F83E30204670
:102C500004F05AFF0EE0A36B124A1A65A06BFEF750
:102C600009FD0028B6D0A06B036D9847B2E7204657
:102C7000FFF79CFE03B030BD00232363282384F8B4
:102C80003D30204604F040FFD0E7074BE3620023CD
:102C90002363202284F83D2084F83E302046FFF74D
:102CA00003FCE7E7C92800080000FFFFF8B5044669
:102CB00002685568C66A90F83E30DBB290F83D1065
:102CC000102B14D0C8B2402B11D0236C002B77D01E
:102CD0005369002113F0020F75D015F4007F72D0F4
:102CE000236C03B191692046FFF7B7FBF8BD9769E4
:102CF000516911F0010005D1B6F52A0FF6D0B6F1F1
:102D00002A4FF3D010B115F4007F27D111F0080F2E
:102D100002D015F4007F28D111F0020F02D015F473
:102D2000007F26D117F0040F2FD0526812F4006FE5
:102D3000DCD111F0800F05D015F4806F02D011F0B6
:102D4000040F1AD011F0040FD0D015F4007FCDD0AD
:102D5000102B16D02046FFF7F4FBC7E72046FFF7FD
:102D6000CBF82046FEF716FFC0E72046FEF767FFC8
:102D7000BCE72046FEF77AFFB8E72046FFF73CFCA9
:102D8000B4E72046FFF7DBFAB0E7536813F4006FAF
:102D9000ACD111F0400F05D015F4806F02D011F0C6
:102DA000040F09D011F0040FA0D015F4007F9DD0BE
:102DB0002046FFF789FC99E72046FFF714FD95E7C9
:102DC0009169536986E713F0100F02D015F4007F64
:102DD00018D121281AD0292818D013F0400F05D077
:102DE00015F4806F02D013F0040F28D013F0040FF5
:102DF0003FF47CAF15F4007F3FF478AF2046FFF737
:102E000047F873E72046FFF78DFE6FE713F0800F5A
:102E100005D015F4806F02D013F0040F0BD013F01F
:102E2000040F3FF463AF15F4007F3FF45FAF20461B
:102E3000FFF71FF85AE72046FFF7C4FA56E7204687
:102E4000FFF7E5FA52E7F8B5044603685D695F6885
:102E500090F83E20D2B215F4807F07D017F4807F1F
:102E60003CD06FF480715961012600E0002615F412
:102E7000007F08D017F4807F05D046F00206236853
:102E80006FF40071596115F4806F19D017F4807FC9
:102E900016D0638D99B294F83D30DBB2206B202AB6
:102EA0001ED023686FF48061596146F00406102A31
:102EB00001D0402A04D12268136843F400731360E0
:102EC00015F4006F08D017F4807F05D046F008068F
:102ED00023686FF400625A6186B9F8BD0026C6E720
:102EE0000029DED1212B05D0292B03D0282BD8D1C6
:102EF0002128D6D12046FFF7D9FAE1E7236C1E43FB
:102F000026642046FFF752FDE7E7006C704700009B
:102F100000283AD038B5044602681D4B9A4203D0C7
:102F20009E211C4803F0FCFF6368062B1ED8A36893
:102F3000B3F5805F1FD223684CF6CC421A60236839
:102F400045F255521A60236862685A602368A26885
:102F50009A60FEF7C7FA05462368DA6882B1FEF781
:102F6000C1FA401B3028F7D903200DE09F21094802
:102F700003F0D6FFDBE7A021064803F0D1FFDAE734
:102F80004AF6AA221A60002038BD0120704700BF0F
:102F9000003000400098000803684AF6AA221A6030
:102FA000002070472DE9F04782B00768CA00521A26
:102FB000930003445A6D1B6D9A4257D8B8469B1A2A
:102FC000C1EBC104A2000244526C9A4200D31A46DB
:102FD0000C46064602F1030A4FEA9A0A16E009F186
:102FE000030A4FEA9A0AE3001B1B9D003544A96CB3
:102FF000337C00931FFA89F3E2B2384602F09EFB5D
:10300000AB6C4B44AB646B6D4B446B6508EB44138A
:1030100003F510639B699BB2534513D3E3001B1B5D
:103020009A003244516D136D99420BD253B15B1A21
:10303000C4EBC4018A003244D2F844909945CED3FF
:103040009946CCE7E3001B1B98000644326D736D74
:103050009A420FD804F00F040121A140D7F8344858
:1030600024EA0104C7F83448002000E0012002B03F
:10307000BDE8F0870020FAE7F0B58BB0002800F03B
:10308000968004460368B3F1A04F06D0494A9342A4
:1030900003D08721484803F043FF256894F8BD33E7
:1030A00023B3032384F8BD33EB6B13F4807F01D18A
:1030B00000232361206802F0D5F8254655F8107BDF
:1030C0006E460FCD0FC60FCD0FC695E8030086E8FC
:1030D0000300231D0ECB384602F002F860B1022334
:1030E00084F8BD33012528460BB0F0BD84F8BC330D
:1030F000204604F0EDF9D4E70021206802F0B8F88A
:10310000002315E0D900C81A82002244012082F869
:103110003D0082F83C30A2F84230002082F83F00A7
:1031200050649064CA1A9100214408650133DBB2EF
:103130006568AB42E6D3002315E0D800C11A8A00C7
:103140002244002182F8FD1182F8FC3182F8FF113F
:10315000C2F80412C2F80812C21A90002044C0F843
:1031600010120133DBB29D42E7D8254655F8107B9B
:103170006E460FCD0FC60FCD0FC695E8030086E84B
:103180000300231D0ECB384602F0B8F8054620B1E7
:10319000022384F8BD330125A5E7002384F83830E5
:1031A000012384F8BD33206802F077FC9BE70125FA
:1031B00099E700BF000004403C980008026890F8BE
:1031C000BC33012B19D010B5012380F8BC33836ABE
:1031D000012B0AD00446006802F03EF8206802F095
:1031E0004EFC002084F8BC0310BD8369012BF1D094
:1031F000936B43F480339363ECE702207047000045
:1032000070B504460D460068066C00EB411303F5EB
:1032100030639A682169012911D037498E4254D010
:103220003DB9C5EBC50293002344D3F81032002BFF
:103230005CD0E9B2204604F095F9002070BD12F090
:10324000080F09D02D498E42F7D912F4004FF4D05F
:103250004FF400429A60F0E712F0200F28D112F0EC
:10326000280FEAD125498E4202D912F4004F22D10B
:10327000E900491B8A002244D2F804121B69C3F3F7
:103280001203C91AC2F81412D2F80412D2F8083282
:103290000B44C2F8083235B9C5EBC502930023448C
:1032A000D3F810325BB1E9B2204604F05BF9C4E711
:1032B00020229A60C1E74FF400429A60BDE704F50E
:1032C0007172012102F03CFCEDE712F4004F09D1CC
:1032D00012F0200F01D020229A60E9B2204604F0BB
:1032E00041F9AAE74FF400429A60A6E704F571722B
:1032F000002102F025FC9CE70A31544F0A30544F5C
:1033000038B5044603681D6C03EB4111D1F8082B56
:103310000E4B9D4207D901F5306112F4004F02D0E7
:103320004FF400438B60204604F014F9074B9D4294
:1033300002D92369012B01D0002038BD04F5717238
:103340000121206802F0FCFBF6E700BF0A30544F71
:103350002DE9F84F04460568284602F0DDFB08B168
:10336000BDE8F88F2F460646206802F0A4FB00282F
:10337000F6D0206802F09FFB10F0020F04D0226804
:10338000536903F002035361206802F094FB10F0CC
:10339000100F14D02268936923F010039361D5F8BD
:1033A000208008F00F09C8F34343022B68D0062B96
:1033B00000F088802268936943F0100393612068CD
:1033C00002F079FB10F4002F40F09080206802F0AA
:1033D00072FB10F4802F40F0D480206802F06BFB69
:1033E0000028C0F24281206802F065FB10F4006FF3
:1033F0000AD0D5F8083813F0010F40F05081226848
:10340000536903F400635361206802F054FB10F425
:10341000805F40F04881206802F04DFB10F4005FAF
:1034200040F0A781206802F046FB10F0080F40F042
:10343000B881206802F03FFB10F4801F40F0BA8191
:10344000206802F038FB10F4001F40F0BD812068B6
:1034500002F031FB10F0804F40F0C081206802F094
:103460002AFB10F0040F3FF47BAF23685D6815F072
:10347000040F40F0BC81226853682B4353606FE710
:1034800047F6F07318EA030F94D04FEAC90BABEB81
:1034900009034FEA830AA2444FEA1818C8F30A0244
:1034A000DAF80812284602F06BFAC8F30A08DAF8CC
:1034B00008324344CAF80832DAF814324344CAF8EE
:1034C000143277E7082204F57171284602F058FAA1
:1034D000C8F30A184FEAC903A3EB09018A00224482
:1034E000D2F814324344C2F8143263E7206802F081
:1034F000E6FA8046B14617E007EB49130122C3F80C
:10350000082B49462046FFF77BFE1DE007EB4913D9
:103510000822C3F8082B49462046FFF7F1FE16E0C3
:1035200009F101094FEA5808B8F1000F3FF44EAF16
:1035300018F0010FF4D05FFA89F1206802F0CFFA99
:10354000824610F0010FD7D11AF0080FDED11AF021
:10355000100F04D007EB49131022C3F8082B1AF000
:10356000200F04D007EB49132022C3F8082B1AF4CC
:10357000005FD5D007EB49134FF40052C3F8082B76
:10358000CEE7206802F0A3FA8046B1462AE0594609
:10359000204603F0F3FF1AF0080F04D007EB49139D
:1035A0000822C3F808291AF0100F04D007EB4913BA
:1035B0001022C3F808291AF0400F04D007EB491372
:1035C0004022C3F808291AF0020F04D007EB491370
:1035D0000222C3F808291AF0800F41D109F101092C
:1035E0004FEA5808B8F1000F3FF4F7AE18F0010F9A
:1035F000F4D05FFA89FB5946206802F079FA8246D6
:1036000010F0010FC7D009F00F03012101FA03F2F6
:10361000D7F8343823EA0203C7F8343807EB4913E4
:10362000C3F8081923698B42B1D14FEAC902A2EB52
:10363000090293002344596C9A6C0A449A64B9F1C4
:10364000000FA4D1C9EBC902930023441B6D002BCA
:103650009DD104F571720121206802F071FA96E79C
:1036600049462046FFF79EFCB8E7D5F8043823F01A
:103670000103C5F8043894F8F433012B08D0204630
:1036800003F0BCFF2268536903F000435361AAE6CC
:10369000002184F8F413204600F03AFAF2E72046BD
:1036A00003F094FFABE605F50068D8F8043023F08A
:1036B0000103C8F804301021206801F0F1FD20E07A
:1036C00007EB46134FF67F31C3F80819D3F80029EA
:1036D00022F40012C3F80029D3F8002942F0006256
:1036E000C3F80029C3F8081BD3F8002B22F40012FA
:1036F000C3F8002BD3F8002B42F00062C3F8002B74
:1037000001366368B342DBD8D8F81C3043F00113AC
:10371000C8F81C30236BEBB1D8F8843043F00B03AE
:10372000C8F88430D8F8443043F00B03C8F844306C
:10373000D5F8003823F4FE63C5F8003804F571723B
:10374000217C206802F0FCF92268536903F480535D
:10375000536160E6D8F8143043F4005343F02B0370
:10376000C8F81430D8F8103043F00B03C8F8103004
:10377000DEE7206802F0D4F9206801F087FEE060FF
:10378000256800F0B5FD227B0146284601F0EEFCDD
:10379000204603F004FF2268536903F40053536189
:1037A00040E6204603F0F5FE2268536903F0080363
:1037B00053613EE60021204603F02CFF2268536946
:1037C00003F4801353613BE60021204603F01CFF05
:1037D0002268536903F40013536138E6204603F06E
:1037E0001FFF2268536903F08043536136E6204689
:1037F00003F01CFF3FE690F8BC33012B0DD010B551
:103800000446012380F8BC3380F83810006802F0C9
:1038100026F9002084F8BC0310BD02207047F8B5DB
:1038200011F0800F28D101F00F06F500AF1BBC008E
:10383000274604F5FC74044404343E46064400253F
:1038400086F8FD5101F00F012170A260E3706278EB
:1038500002B1E180022B1ED090F8BC33012B1DD0A9
:103860000546012380F8BC332146006801F01FFEA5
:10387000002085F8BC03F8BD01F00F06F500AF1B72
:10388000BC0027463834044404343E46064401252F
:1038900086F83D50D6E700232371DDE70220EAE7F2
:1038A00038B511F0800F21D101F00F05EA00541B4B
:1038B000A3001C4603F5FC7303440433254605446A
:1038C000002285F8FD2101F00F01197090F8BC234A
:1038D000012A1AD00446012280F8BC231946006848
:1038E00001F030FE002084F8BC0338BD01F00F0465
:1038F000E200151BAB001D463833034404332C464D
:103900000444012284F83D20DDE70220EDE770B594
:1039100001F00F05EE00711B8C0004F5FC740444EB
:10392000211D761BB4000444C4F80822C4F81032E8
:103930000023C4F8143284F8FD3184F8FC51036983
:10394000012B06D065B1DAB2006801F00BFF002050
:1039500070BDC5EBC506B4000444C4F80C22F1E701
:10396000DAB2006801F05CFEF1E701F00F01C1EB93
:10397000C1018B001844D0F81402704770B501F0F3
:103980000F05EE00711B8C0038340444211D761B9A
:10399000B4000444A264236500236365012384F812
:1039A0003D3084F83C500369012B06D05DB1DAB29A
:1039B000006801F0D7FE002070BDC5EBC506B4005D
:1039C0000444E264F2E7DAB2006801F029FEF2E7AB
:1039D00038B501F00F0543689D4236D811F0800FCD
:1039E00020D1CA00541AA3001C4603F5FC730344FB
:1039F000043322460244002182F8FD1101229A700C
:103A00001D7090F8BC23012A21D00446012280F8C1
:103A1000BC231946006801F0C7FF7DB1002084F87F
:103A2000BC0313E0EA00511B8B00194638330344F2
:103A300004330144012281F83D20DFE704F571726F
:103A4000217C206802F07CF8E8E7012038BD0220E4
:103A5000FCE710B501F00F0443689C422CD811F02C
:103A6000800F1DD1E3001A1B91000A4601F5FC717D
:103A7000014404310244002382F8FD3100238B709D
:103A80000C7090F8BC33012B18D00446012380F849
:103A9000BC33006801F0B5FF002084F8BC030CE0E3
:103AA000E3001A1B91000A463831014404310244F4
:103AB000012382F83D30E1E7012010BD0220FCE740
:103AC00030B40468606A29B10D46A36A00EB134064
:103AD00000230CE040EA0240A06212E003F1400142
:103AE00004EB8101496800EB11400133DBB2691E30
:103AF0008B42F3D340EA024005F13F0104EB810120
:103B00004860002030BC704703685962002070474D
:103B100070470000002800F0648270B582B004464F
:103B200003680F2B39D8236813F0010F4DD0636859
:103B30002BB1B3F5803F02D0B3F5A02F32D1A54B06
:103B40009B6803F00C03042B36D0A24B9B6803F058
:103B50000C03082B2BD06368B3F5803F5FD0B3F51F
:103B6000A02F62D09B4B1A6822F480321A601A6828
:103B700022F480221A606368002B60D0FDF7B2FC4B
:103B80000546944B1B6813F4003F1ED1FDF7AAFCB9
:103B9000401B6428F5D9032028E2E8218E4803F071
:103BA000BFF9C0E7ED218C4803F0BAF9C7E7894BAC
:103BB0005B6813F4800FCED0864B1B6813F4003F74
:103BC00003D06368002B00F00E82236813F0020F0D
:103BD00067D0E368012B41D823691F2B44D87D4B64
:103BE0009B6813F00C0F4AD07A4B9B6803F00C03D0
:103BF000082B3FD0E368002B77D0784B01221A6066
:103C0000FDF770FC0546734B1B6813F0020F63D180
:103C1000FDF768FC401B0228F5D90320E6E16D4A58
:103C2000136843F480331360A5E76A4B1A6842F4C3
:103C300080221A601A6842F480321A609BE7FDF70E
:103C400051FC0546634B1B6813F4003FBDD0FDF7E4
:103C500049FC401B6428F5D90320C7E140F21F113D
:103C60005D4803F05DF9B7E74FF490715A4803F0EF
:103C700057F9B4E7574B5B6813F4800FBAD1554B33
:103C80001B6813F0020F04D0E368012B01D0012060
:103C9000ACE1504A136823F0F803216943EAC103F9
:103CA0001360236813F0080F49D06369012B2ED8E5
:103CB000636993B34A4B01221A60FDF713FC054672
:103CC000444B5B6F13F0020F39D1FDF70BFC401B27
:103CD0000228F5D9032089E13E4A136823F0F8034E
:103CE000216943EAC1031360DBE73C4B00221A6001
:103CF000FDF7F8FB0546374B1B6813F0020FD0D0D9
:103D0000FDF7F0FB401B0228F5D903206EE14FF4CC
:103D1000B071314803F004F9CAE7314B00221A6050
:103D2000FDF7E0FB05462B4B5B6F13F0020F06D04F
:103D3000FDF7D8FB401B0228F5D9032056E1236884
:103D400013F0040F00F08780A368012B01D9052B25
:103D500038D1204B1B6C13F0805F39D100230193C5
:103D60001C4B1A6C42F080521A641B6C03F0805397
:103D70000193019B01251B4B1B6813F4807F33D0FB
:103D8000A368012B44D0052B48D0124B1A6F22F0A8
:103D900001021A671A6F22F004021A67A368002B47
:103DA00046D0FDF79FFB06460A4B1B6F13F0020F30
:103DB0004FD1FDF797FB801B41F288339842F3D92E
:103DC000032013E14FF4C671034803F0A9F8C0E7DC
:103DD0000025D0E7003802407498000800004742F0
:103DE000800E474200700040834A136843F480739A
:103DF0001360FDF777FB06467F4B1B6813F4807F4B
:103E0000BED1FDF76FFB801B0228F5D90320EDE042
:103E10007A4A136F43F001031367BFE7774B1A6FBA
:103E200042F004021A671A6F42F001021A67B5E7FE
:103E3000FDF758FB0646714B1B6F13F0020F08D0BD
:103E4000FDF750FB801B41F288339842F3D90320E1
:103E5000CCE0002D3BD1A369022B3ED8A369002BF7
:103E600000F0C380654A926802F00C02082A00F054
:103E70009080022B79D1E36913B1B3F5800F32D171
:103E8000236A3F2B35D8636A323BB3F5BF7F36D800
:103E9000A36A022B05D0042B03D0062B01D0082BDC
:103EA00033D1E36A023B0D2B35D8554B00221A6003
:103EB000FDF718FB0546514B1B6813F0007F30D00F
:103EC000FDF710FB401B0228F5D903208EE04B4A7A
:103ED000136C23F080531364BDE740F2CF114948BF
:103EE00003F01EF8BAE74FF4EC71464803F018F8F7
:103EF000C6E740F2D911434803F012F8C3E74FF484
:103F0000ED71404803F00CF8C2E740F2DB113D4888
:103F100003F006F8C5E74FF4EE713A4803F000F8F5
:103F2000C3E7E369226A1343626A43EA8213A26A1F
:103F30005208013A43EA0243E26A43EA02632F4A23
:103F400053602F4B01221A60FDF7CCFA04462B4B2D
:103F50001B6813F0007F06D1FDF7C4FA001B02288E
:103F6000F5D9032042E0002040E0254B00221A60F2
:103F7000FDF7B8FA0446214B1B6813F0007F06D00A
:103F8000FDF7B0FA001B0228F5D903202EE000202F
:103F90002CE0012B2CD0194B5B6803F48001E26903
:103FA000914201D0012021E003F03F02216A8A42C0
:103FB00001D001201AE0616A47F6C0721A408A42B5
:103FC00001D0012012E003F44032A16A8A4201D0FC
:103FD00001200BE003F07063E26A93420AD00120F3
:103FE00004E001207047012000E0002002B070BD15
:103FF0000120FBE70020F9E7007000400038024094
:104000006000474274980008304B9B6803F00C0333
:10401000082B58D12DE9F04B2C4B5A6802F03F0287
:104020005B6813F4800F2BD0284B5B68C3F38813B5
:104030001E4600275C010025E41A65EB0705A9016F
:1040400041EA9461A001001B61EB0501CB0043EA4A
:104050005073C400A01943EB07018B0243EA90534D
:104060008402204619460023FCF7B2F8174B5B6820
:10407000C3F3014301335B00B0FBF3F0BDE8F08B09
:10408000124B5B68C3F388131E4600275C010025B2
:10409000E41A65EB0705A90141EA9461A001001B40
:1040A00061EB0501CB0043EA5073C400A01943EB58
:1040B00007018B0243EA90538402204619460023ED
:1040C000FCF786F8D2E70248704700BF003802408C
:1040D0000024F400002800F0FA8070B504460D4674
:1040E0000368013B0E2B11D8072D15D87A4B1B689E
:1040F00003F00F03AB4215D2EBB2774A137013688B
:1041000003F00F03AB420DD0012070BD40F25121EE
:10411000724802F005FFE7E740F252216F4802F0D3
:10412000FFFEE3E7236813F0020F29D013F0040F1A
:1041300004D06B4A936843F4E0539360236813F010
:10414000080F04D0664A936843F460439360A36801
:104150007BB1802B0DD0902B0BD0A02B09D0B02B96
:1041600007D0C02B05D0D02B03D0E02B01D0F02BF3
:1041700033D15B4A936823F0F003A1680B4393604B
:10418000236813F0010F42D06368032B2BD86368B8
:10419000012B2ED09A1E012A32D9514A126812F0F0
:1041A000020F00F096804E498A6822F00302134302
:1041B0008B60FDF797F90646494B9B6803F00C03AB
:1041C0006268B3EB820F22D0FDF78CF9801B41F2BD
:1041D00088339842F0D9032097E740F275213F4891
:1041E00002F09EFEC5E74FF41F713C4802F098FEB6
:1041F000CDE73B4A126812F4003FD4D1012084E796
:10420000374A126812F0007FCDD101207DE7324B92
:104210001B6803F00F03AB4209D9EAB22E4B1A70A8
:104220001B6803F00F03AB4201D001206DE7236848
:1042300013F0040F14D0E3685BB1B3F5805F08D0CE
:10424000B3F5A05F05D0B3F5C05F02D0B3F5E05F72
:1042500031D1234A936823F4E053E1680B43936020
:10426000236813F0080F15D023695BB1B3F5805FA5
:1042700008D0B3F5A05F05D0B3F5C05F02D0B3F5A9
:10428000E05F1ED1164A936823F46043216943EA34
:10429000C1039360FFF7B8FE114B9B68C3F3031390
:1042A000104AD35CD840104B1860104B1868FDF7CB
:1042B000CFF8002029E740F2BA21084802F030FE8A
:1042C000C7E740F2C121054802F02AFEDAE70120E3
:1042D0007047012019E700BF003C024074980008B5
:1042E000003802400895000814020020D000002089
:1042F000014B1868704700BF1402002008B5FFF793
:10430000F7FF044B9B68C3F38223034AD35CD84076
:1043100008BD00BF003802401895000808B5FFF737
:10432000E7FF044B9B68C3F34233034AD35CD84096
:1043300008BD00BF0038024018950008002800F0B2
:10434000C08010B5044603685F4A93420CD0A2F5C2
:104350007842934208D002F58062934204D04FF431
:10436000A1715A4802F0DCFD636813B1B3F5827F96
:104370006BD1A3682BB1B3F5806F02D0B3F5004FBA
:1043800069D1E368B3F5006F01D0002B69D1A3694F
:10439000B3F5007F03D013B1B3F5802F67D1E36984
:1043A0006BB1082B0BD0102B09D0182B07D0202B6A
:1043B00005D0282B03D0302B01D0382B5DD1236AB8
:1043C0000BB1802B5FD1636A0BB1102B61D1636A93
:1043D00033B923690BB1022B61D16369012B64D816
:1043E0000023A36294F85130002B64D0022384F898
:1043F00051302268136823F0400313606368A26899
:104400001343E26813432269134362691343A269A9
:1044100002F400721343E2691343226A1343A16A50
:1044200022680B431360638B03F00403616A226804
:104430000B4353602268D36923F40063D3610020E7
:104440006065012384F8513010BD40F243111F48CC
:1044500002F066FD8DE74FF4A2711C4802F060FD8A
:104460008FE740F24511194802F05AFD8FE74FF4EB
:10447000A371164802F054FD91E740F2471113482A
:1044800002F04EFD9BE74FF4A471104802F048FD86
:1044900099E740F249110D4802F042FD97E74FF4C9
:1044A000A6710A4802F03CFD97E740F24D1107481B
:1044B00002F036FD94E784F85030204602F0C4FD47
:1044C00094E70120704700BF00300140AC9800081D
:1044D00010B504460368264A934237D0B3F1804FA3
:1044E00034D0A2F57C42934230D002F580629342F0
:1044F0002CD002F58062934228D002F5806293426C
:1045000024D002F58062934220D002F5704293429B
:104510001CD002F57052934218D002F5806293428B
:1045200014D002F58062934210D0A2F598329342E3
:104530000CD002F58062934208D002F5806293426B
:1045400004D040F2B9110B4802F0EAFC2268D368AB
:1045500043F00103D3602268936803F00703062B3E
:1045600003D0136843F001031360002010BD00BFA7
:1045700000000140E498000870477047704770479A
:1045800010B5044603681A6912F0020F11D0DA68F8
:1045900012F0020F0DD06FF002021A6101230377AF
:1045A00003689B6913F0030F70D0FFF7E6FF002349
:1045B000237723681A6912F0040F12D0DA6812F018
:1045C000040F0ED06FF004021A61022323772368D0
:1045D0009B6913F4407F5FD02046FFF7CEFF002396
:1045E000237723681A6912F0080F12D0DA6812F0E4
:1045F000080F0ED06FF008021A6104232377236896
:10460000DB6913F0030F4ED02046FFF7B6FF0023FF
:10461000237723681A6912F0100F12D0DA6812F0AB
:10462000100F0ED06FF010021A6108232377236851
:10463000DB6913F4407F3DD02046FFF79EFF002347
:10464000237723681A6912F0010F03D0DA6812F099
:10465000010F36D123681A6912F0800F03D0DA688F
:1046600012F0800F34D123681A6912F0400F03D082
:10467000DA6812F0400F32D123681A6912F0200F65
:1046800003D0DA6812F0200F30D110BDFFF774FFAD
:104690002046FFF773FF8AE72046FFF76DFF2046AD
:1046A000FFF76CFF9BE72046FFF766FF2046FFF70A
:1046B00065FFACE72046FFF75FFF2046FFF75EFF90
:1046C000BDE76FF001021A61204603F02FFBC1E73E
:1046D0006FF080021A61204600F085F9C3E76FF0A1
:1046E00040021A612046FFF74AFFC5E76FF020023B
:1046F0001A61204600F076F9C7E700000368304AE7
:10470000904212D0B0F1804F0FD0A2F57C4290427F
:104710000BD002F58062904207D002F58062904291
:1047200003D002F57842904203D123F070034A6827
:104730001343234A90422AD0B0F1804F27D0A2F5EC
:104740007C42904223D002F5806290421FD002F555
:10475000806290421BD002F57842904217D002F559
:104760007052904213D002F5806290420FD002F551
:10477000806290420BD0A2F59832904207D002F5A9
:104780008062904203D002F58062904203D123F40C
:104790004073CA68134323F080034A6913430360DC
:1047A0008B68C3620B688362054B984203D003F5A4
:1047B0008063984201D10B69036301234361704711
:1047C0000000014000287AD010B5044603683D4A35
:1047D000934237D0B3F1804F34D0A2F57C4293425C
:1047E00030D002F5806293422CD002F58062934271
:1047F00028D002F58062934224D002F58062934271
:1048000020D002F5704293421CD002F570529342C0
:1048100018D002F58062934214D002F58062934270
:1048200010D0A2F5983293420CD002F580629342E8
:1048300008D002F58062934204D04FF48971224877
:1048400002F06EFBA3683BB1102B05D0202B03D0E8
:10485000402B01D0602B1AD123692BB1B3F5807F97
:1048600002D0B3F5007F18D1A3690BB1802B1AD108
:1048700094F83D30EBB1022384F83D30211D2068CF
:10488000FFF73CFF012384F83D30002010BD40F2CB
:1048900013110D4802F044FBDEE74FF48A710A4819
:1048A00002F03EFBE0E740F21511074802F038FB4A
:1048B000DEE784F83C30204602F0FEFBDBE7012017
:1048C000704700BF00000140E498000838B5044676
:1048D0000D460368414A93421FD0B3F1804F1CD06C
:1048E000A2F57C42934218D002F58062934214D024
:1048F00002F58062934210D002F5806293420CD0A0
:1049000002F58062934208D002F57042934204D0CF
:1049100040F26461324802F003FB2B686BB1102B4C
:104920000BD0202B09D0302B07D0402B05D0502B9B
:1049300003D0602B01D0702B41D16B68802B01D04C
:10494000002B42D194F83C30012B44D0012384F851
:104950003C30022384F83D3023685968986821F080
:1049600070012A680A435A6023681C4A93421AD08D
:10497000B3F1804F17D0A2F57C42934213D002F5D9
:10498000806293420FD002F5806293420BD002F511
:104990007842934207D002F57052934203D0A2F5B9
:1049A0009432934204D120F080006A6810439860EA
:1049B000012384F83D30002084F83C0038BD40F2EB
:1049C0006561074802F0ACFAB7E740F26661044857
:1049D00002F0A6FAB6E70220F0E700BF00000140AF
:1049E0001C990008704770470268D36823F49073DD
:1049F000D3600268536923F001035361202380F8D8
:104A00003A30704790F83930DBB2212B2AD18368D5
:104A1000B3F5805F16D0036A5A1C02621A780368E5
:104A20005A60C38C013B9BB2C384EBB90268D36864
:104A300023F08003D3600268D36843F04003D3605F
:104A400000207047036A1B880268C3F308035360A1
:104A500003691BB9036A02330362E2E7036A0133A5
:104A60000362DEE702207047002070472DE9F04B1B
:104A700004464268984B9A4274D8E36813B1B3F580
:104A8000005F75D123692BB1B3F5806F02D0B3F508
:104A9000C06F73D163694FF6F372134200D123B92B
:104AA00040F6FE318D4802F03BFA2268136923F488
:104AB0004053E1680B431361A368226913436269A1
:104AC0001343E2691A432168CB6823F4164323F0A9
:104AD0000C031343CB602268536923F44073A1692C
:104AE0000B435361E369B3F5004F4DD023687C4A13
:104AF000934200F0BD8002F58062934200F0B880DE
:104B0000FFF7FCFB4FF00009061849EB090716EB0D
:104B1000000B47EB090C4FEACC0343EA5B734FEA07
:104B2000CB0293469C4663689A009B0F10EB0B00E8
:104B300049EB0C01FBF74CFB6A4DA5FB0032510918
:104B4000642202FB110213013233A5FB03235B092C
:104B500003F0F00202EB011203F00F03216813448B
:104B60008B60B6E040F6FB315C4802F0D9F984E78F
:104B700040F6FC31594802F0D3F983E740F6FD31A5
:104B8000564802F0CDF985E72368554A934239D05B
:104B900002F58062934235D0FFF7B0FB83464FF0B9
:104BA000000C06184CEB0C0716EB000847EB0C0941
:104BB0004FEAC90343EA58734FEAC8029046994640
:104BC00062680021921841EB01031BEB08004CEBDB
:104BD0000901FBF7FDFA434DA5FB003251096422A0
:104BE00002FB1102D3003233A5FB03235B095A00F9
:104BF00002F4F87202EB011203F007032168134478
:104C00008B6066E0FFF78AFB80464FF000090618CC
:104C100049EB090716EB000B47EB090C4FEACC03F5
:104C200043EA5B734FEACB0293469C4662680021DD
:104C3000921841EB010318EB0B0049EB0C01FBF759
:104C4000C7FA284DA5FB00325109642202FB11026C
:104C5000D3003233A5FB03235B095A0002F4F87238
:104C600002EB011203F00703216813448B6030E06C
:104C7000FFF754FB4FF00009061849EB090716EB44
:104C8000000B47EB090C4FEACC0343EA5B734FEA96
:104C9000CB0293469C4663689A009B0F10EB0B0077
:104CA00049EB0C01FBF794FA0E4DA5FB00325109BC
:104CB000642202FB110213013233A5FB03235B09BB
:104CC00003F0F00202EB011203F00F03216813441A
:104CD0008B60BDE8F08B00BFA037A000589900089A
:104CE000001001401F85EB51002800F08B8010B5AB
:104CF00004468369002B55D00368434A934210D081
:104D0000A2F54C4293420CD002F58062934208D047
:104D100002F54C42934204D040F24B113B4802F062
:104D2000FFF8A36943B1B3F5807F05D0B3F5007FE9
:104D300002D0B3F5407F2FD1A36813B1B3F5805FE4
:104D40004ED1E36913B1B3F5004F4FD194F8393028
:104D5000002B51D0242384F839302268D36823F4FF
:104D60000053D3602046FFF781FE2268136923F4C5
:104D7000904313612268536923F02A035361226828
:104D8000D36843F40053D3600020E063202384F809
:104D9000393084F83A3010BD4FF4A6711B4802F048
:104DA000BFF8C9E70368184A9342C5D0A2F54C4240
:104DB0009342C1D002F580629342BDD002F5806279
:104DC0009342B9D002F580629342B5D002F54442D5
:104DD0009342B1D04FF4A8710C4802F0A1F8ABE7B0
:104DE0004FF4A971094802F09BF8AAE740F2531169
:104DF000064802F095F8A9E784F83830204602F01A
:104E000095F9A7E701207047001001405899000864
:104E100090F83930DBB2202B16D1B9B1C2B190F87D
:104E20003830012B16D001628284C2840023C36310
:104E3000212280F8392080F838300168CA6842F0B1
:104E40008002CA60184670470220704701207047F0
:104E5000012070470220704790F83A30DBB2202BD7
:104E600020D109B312B390F83830012B20D08162E1
:104E70008285C2850023C363222280F83A2080F80D
:104E800038300168CA6842F48072CA6001684A69B1
:104E900042F001024A610168CA6842F02002CA6019
:104EA0001846704702207047012070470120704764
:104EB0000220704708B50168CB6823F04003CB603F
:104EC000202380F8393002F01BFF002008BD08B510
:104ED00090F83A30DBB2222B45D18368B3F5805F7E
:104EE0000ED0036903BB03685A68836A591C816248
:104EF0001A70C38D013B9BB2C385F3B1002033E030
:104F0000826A036943B903685B68C3F308031380CB
:104F1000836A02338362ECE703685B68DBB2138069
:104F2000836A01338362E4E703685B68826A511C29
:104F3000816203F07F031370DBE70268D36823F01C
:104F40002003D3600268D36823F48073D3600268BF
:104F5000536923F001035361202380F83A3002F0B3
:104F6000BBFD002000E0022008BD704710B50446DC
:104F700002681368D168526913F00F0005D113F06D
:104F8000200F02D011F0200F56D100286AD012F065
:104F9000010202D111F4907F64D013F0010F06D00A
:104FA00011F4807F03D0E06B40F00100E06313F068
:104FB000040F04D01AB1E06B40F00200E06313F07C
:104FC000020F04D01AB1E06B40F00400E06313F06C
:104FD000080F07D011F0200F00D11AB1E26B42F098
:104FE0000802E263E26B002A48D013F0200F02D0DF
:104FF00011F0200F24D123685B6903F04003E26BBA
:1050000012F0080F00D13BB32046FFF7EDFC2368F8
:105010005A6912F0400F1BD05A6922F040025A61BF
:10502000636B8BB11A4A1A65606BFCF723FB28B3DC
:10503000606B036D984721E02046FFF748FF1DE0B5
:105040002046FFF744FFD6E72046FFF78EFF15E026
:105050002046FFF78AFF11E02046FFF786FF002376
:10506000E3630BE013F0800F02D011F0800F06D144
:1050700013F0400F02D011F0400F04D110BD2046B4
:10508000FFF7C0FCFAE72046FFF714FFF6E700BF82
:105090009550000808B5806B0023C385C384FFF7D3
:1050A00064FF08BD002301330C4A934211D8026902
:1050B000002AF8DA036943F0010303610023013396
:1050C000064A934207D8026912F0010FF7D1002077
:1050D0007047032070470320704700BF400D030056
:1050E00084B010B5044603A880E80E00089B012B8D
:1050F0001FD1A36B23F48033A363E36823F48403F9
:1051000023F04003E360E36823F44013E3600F9B64
:10511000012B09D02046FFF7C5FF069B012B1BD0B2
:10512000BDE8104004B07047E36843F48013E360C7
:10513000F0E7E36843F04003E3602046FFF7B2FF87
:105140000C9B23B9A36B43F48033A363E5E7A36B04
:1051500023F48033A363E0E7A36843F00603A3606E
:10516000A36843F02003A360DAE70000022A0AD014
:105170000921C26822F47052C260C36843EA8123E5
:10518000C360002070472A4B0B442A4A93423FD900
:10519000294B0B44294A93423CD9A1F57403A3F54A
:1051A0001053274A934237D9A1F18373A3F5E743FC
:1051B00002F5C332A032934230D9224B0B44224A2B
:1051C00093422DD9214B0B4402F5922202F57872BD
:1051D000934227D91E4B0B4402F5C32202F52072DD
:1051E000934221D9A1F1B773A3F5585302F5B71231
:1051F00002F55872934219D9164B0B4402F512224C
:1052000002F5F862934201D90621B2E70721B0E71F
:105210000F21AEE70E21ACE70D21AAE70C21A8E78C
:105220000B21A6E70A21A4E70921A2E70821A0E7AC
:10523000405327FFFF340C00401E1BFF3F420F006E
:105240007F4F120060B6E5FE5FE3160000D3CEFE8E
:10525000C05BB3FEE05459FE836843F001038360F2
:1052600000207047836823F00103836000207047AB
:1052700008B5C36823F0C043C360012909D069B9E8
:10528000C36843F08043C3603220FCF731F900204B
:1052900008BDC36843F00053C360F5E70120F7E79A
:1052A000890141F02001016100230133054A934245
:1052B00005D8026912F0200FF7D1002070470320B3
:1052C000704700BF400D030010230361002301332A
:1052D000054A934205D8026912F0100FF7D1002059
:1052E00070470320704700BF400D0300D0F800381E
:1052F0001943C0F8001800207047000084B02DE961
:10530000F041044607A880E80E002546002306E089
:1053100003F1400204EB82020021516001330E2BA5
:10532000F6D9119B23BBD4F8043843F00203C4F828
:105330000438A36B43F40013A363A36B23F400238B
:10534000A363A36B23F48023A3630023C4F8003E6C
:1053500004F50066D4F80038C4F800380C9B012B23
:1053600014D1099B6BB900212046FFF7BFFF11E064
:10537000A36B23F40013A363A36B43F40023A36381
:10538000E3E701212046FFF7B1FF03E003212046B8
:10539000FFF7ACFF10212046FFF782FF804608B1DF
:1053A0004FF001082046FFF78FFF08B14FF00108CA
:1053B000002333617361F3610AE0C3B94FF0006009
:1053C000C2F8000900220A614FF67F328A60013379
:1053D0000799994210D905EB431202F51061D2F8F2
:1053E00000090028E9DB0020C2F80009EAE74FF0D5
:1053F0009040C2F80009E5E700230AE0BBB14FF096
:105400009047C2F8007B002202614FF67F32826033
:105410000133994210D905EB431202F53060D2F8FE
:10542000007B002FEADB0027C2F8007BEBE74FF0A0
:105430000067C2F8007BE6E7336923F480733361C9
:105440000023A3616FF0804363610A9B1BB9A369CA
:1054500043F01003A361A2690B4B1343A3610D9B9F
:105460001BB1A36943F00803A361119B012B04D076
:105470004046BDE8F04104B07047A36943F0804363
:1054800043F00403A361F3E700383C80D0F8083808
:1054900013F0060307D0022B07D0062B01D00F20F4
:1054A000704702207047002070470220704770B498
:1054B0000B784A78012A22D0D0F81C2803F00F0676
:1054C0000124B44042EA0442C0F81C2800EB431017
:1054D000D0F8003B13F4004F0ED1D0F8003B8A689F
:1054E000C2F30A02C97842EA8142134343F080536F
:1054F00043F40043C0F8003B002070BC7047D0F874
:105500001C4803F00F06B24092B22243C0F81C2898
:1055100000EB4310D0F8002912F4004FECD1D0F882
:1055200000298C68C4F30A04C97844EA814444EA37
:105530008353134343F0805343F40043C0F80039CE
:10554000DAE7000030B40B784A78012A24D000EB67
:105550004313D3F8002B002A50DBD0F83C580A78CC
:1055600002F00F02012404FA02F225EA0242C0F816
:105570003C28D0F81C28097801F00F018C4022EA61
:105580000444C0F81C48D3F8001B234A0A40C3F85F
:10559000002B002030BC704700EB4313D3F80029E8
:1055A000002A1EDBD0F83C580A7802F00F020124D2
:1055B00004FA02F292B225EA0202C0F83C28D0F8BE
:1055C0001C28097801F00F018C40A4B222EA0404DF
:1055D000C0F81C48D3F80019104A0A40C3F8002943
:1055E000D7E7D3F8002942F00062C3F80029D3F8C6
:1055F000002942F08042C3F80029D3E7D3F8002BFA
:1056000042F00062C3F8002BD3F8002B42F0804236
:10561000C3F8002BA1E700BF0078F3EF007833EC6C
:1056200070B40B784C78012C26D000EB431000F5B9
:1056300030631C69E40CE4041C611C6924F0FF5411
:1056400024F4C0141C614C690CB18C684C611C6959
:1056500044F400241C611C698D68C5F312052C43B9
:105660001C61012A65D0D0F8003B43F00443C0F828
:10567000003B002070BC70474C696CBB00EB4314CE
:10568000D4F8105925F0FF5525F4C015C4F8105969
:10569000D4F8105945F40025C4F81059D4F810591D
:1056A000ED0CED04C4F81059012A33D000EB43137C
:1056B000D3F8002942F00442C3F800294B69002BBB
:1056C000D7D0D0F83428097801F00F040121A14087
:1056D0000A43C0F83428CCE700EB431404F5106407
:1056E0002569ED0CED042561256925F0FF5525F4AC
:1056F000C01525614E698D68AE4200D94D6125699E
:1057000045F40025256125694E69C6F31206354327
:105710002561C9E70A691AB100EB4311C1F81429E0
:1057200000EB4310D0F8002942F00442C0F80029F1
:105730009FE7CA68002A96D05A6194E770B49DF832
:105740000C4064B903339D0807E000EB023303F516
:10575000805351F8046B1E600134AC42F5D3002035
:1057600070BC7047F0B583B00B784C78012C2BD00F
:1057700000EB431303F530642569ED0CED0425615E
:10578000256925F0FF5525F4C01525614D69002DCB
:1057900040F0C58025698E68C6F312063543256141
:1057A000256945F400252561012A00F0CD80CA78DD
:1057B000012A00F0CF80D3F8002B42F00442C3F856
:1057C000002B002003B0F0BD4C6984BB00EB4314F8
:1057D000D4F8105925F0FF5525F4C015C4F8105918
:1057E000D4F8105945F40025C4F81059D4F81059CC
:1057F000ED0CED04C4F81059012A4CD000EB431312
:10580000D3F8004944F00444C3F80049CC78012C93
:105810006AD04B69002BD4D0D0F83428097801F035
:105820000F040121A1400A43C0F83428C9E700EB66
:105830004314D4F81059ED0CED04C4F81059D4F801
:10584000105925F0FF5525F4C015C4F81059D4F8A7
:1058500010694D698F683D44013DB5FBF7F5474F31
:1058600007EAC5453543C4F81059D4F810594E69B4
:10587000C6F312063543C4F8105904F51064CD7808
:10588000012DB9D1256925F0C0452561256945F06F
:1058900000552561B0E70A691AB100EB4314C4F85A
:1058A0001429CA78012A08D000EB4313D3F8002941
:1058B00042F00442C3F8002983E7D0F8082812F424
:1058C000807F08D100EB4311D1F8002942F000524B
:1058D000C1F80029E8E700EB4311D1F8002942F0B4
:1058E0008052C1F80029DFE7D0F8084814F4807F1F
:1058F0000ED1D3F8004944F00054C3F800491446CF
:105900000B46C9681A789B8A0094FFF717FF58E77F
:10591000D3F8004944F08054C3F80049EFE78E689B
:105920003544013DB5FBF6F52669144F07EAC54736
:105930003E43266127698E68ADB206FB05F5C5F3C7
:1059400012053D4325612FE7CA68002A3FF42FAFB7
:1059500062612CE7D0F8082812F4807F06D1D3F8D2
:10596000002B42F00052C3F8002B24E7D3F8002BA1
:1059700042F08052C3F8002B1DE700BF0000F81F63
:1059800003329208002393420CD210B400F58054E5
:10599000246841F8044B01339342F7D308465DF87D
:1059A000044B7047084670470B784A78012A14D098
:1059B00000EB4310D0F8002B002A06DB2BB1D0F807
:1059C000003B23F08043C0F8003BD0F8003B43F499
:1059D0000013C0F8003B0020704700EB4310D0F8E4
:1059E0000029002A06DB2BB1D0F8003923F08043D0
:1059F000C0F80039D0F8003943F40013C0F800397A
:105A0000E9E70B784A78012A0ED000EB4310D0F872
:105A1000003B23F40013C0F8003BCB78023BDBB221
:105A2000012B15D90020704700EB4310D0F8003946
:105A300023F40013C0F80039CB78023BDBB2012B12
:105A4000F0D8D0F8003943F08053C0F80039E9E7C6
:105A5000D0F8003B43F08053C0F8003BE2E7D0F8B9
:105A6000003823F4FE63C0F80038D0F8003809018C
:105A700001F4FE610B43C0F8003800207047D0F8F5
:105A8000003E23F00303C0F8003ED0F8043823F0B2
:105A90000203C0F8043800207047D0F8003E23F01D
:105AA0000303C0F8003ED0F8043843F00203C0F806
:105AB0000438002070474269806910407047D0F870
:105AC000183800F50060C0691840000C7047D0F825
:105AD000183800F50060C069184080B2704700EBCC
