:020000040800F2
:1000000000000220B98A0008197D00081B7D000845
:100010001D7D00081F7D0008217D000800000000F4
:10002000000000000000000000000000237D000828
:10003000257D000800000000277D0008297D0008BC
:10004000098B0008098B0008098B0008098B000840
:10005000098B0008098B0008098B0008098B000830
:10006000098B0008098B0008098B0008098B000820
:10007000098B0008098B0008098B0008098B000810
:10008000098B0008098B0008098B0008098B000800
:10009000098B0008098B0008098B0008098B0008F0
:1000A000098B0008098B0008098B0008098B0008E0
:1000B000098B0008098B0008098B0008098B0008D0
:1000C000098B0008317D0008417D0008098B00087C
:1000D000098B0008517D0008617D0008717D0008D2
:1000E000098B0008098B0008098B0008098B0008A0
:1000F000098B0008098B0008098B0008098B000890
:10010000098B0008098B0008098B0008098B00087F
:10011000098B0008098B0008817D0008917D00088B
:10012000098B0008098B0008098B0008098B00085F
:10013000098B00080000000000000000098B000887
:10014000098B0008098B0008098B0008A17D0008B5
:10015000098B0008098B0008098B0008B17D000895
:10016000098B0008098B0008098B0008098B00081F
:10017000098B0008098B0008000000000000000047
:08018000098B0008098B00083F
:1001900010B5054C237833B9044B13B10448AFF3C1
:1001A00000800123237010BD200400200000000007
:1001B0006C9B000808B5034B1BB103490348AFF320
:1001C000008008BD00000000240400206C9B000893
:1001D00053B94AB9002908BF00281CBF4FF0FF31AE
:1001E0004FF0FF3000F072B9ADF1080C6DE904CEAC
:1001F00000F006F8DDF804E0DDE9022304B0704702
:100200002DE9F047089E04468846002B4BD18A42D0
:10021000154667D9B2FA82F24AB1C2F1200701FA53
:1002200002F320FA07F7954047EA030894404FEAA3
:10023000154E230CB8FBFEF71FFA85FC0EFB178842
:1002400043EA084307FB0CF1994209D9EB1807F17F
:10025000FF3080F01B81994240F21881023F2B440D
:100260005B1AA4B2B3FBFEF00EFB103344EA034466
:1002700000FB0CFCA44509D92C1900F1FF3380F0D8
:100280000781A44540F2048102382C4440EA07402B
:10029000A4EB0C0400271EB1D4400023C6E90043A0
:1002A0003946BDE8F0878B4209D9002E00F0EB807B
:1002B0000027C6E9000138463946BDE8F087B3FAA1
:1002C00083F7002F47D18B4202D3824200F2FA809B
:1002D000841A61EB030301209846002EE0D0C6E9A2
:1002E0000048DDE702B9FFDEB2FA82F2002A40F0F0
:1002F0008F80491B4FEA154E1FFA85F80127B1FB85
:10030000FEFC230C0EFB1C1143EA014308FB0CF11D
:10031000994207D9EB180CF1FF3002D2994200F252
:10032000CD808446591AA3B2B1FBFEF00EFB101427
:1003300043EA044408FB00F8A04507D92C1900F152
:10034000FF3302D2A04500F2B6801846A4EB0804A1
:1003500040EA0C409FE7C7F1200CBB4022FA0CFE9C
:100360004EEA030E01FA07F420FA0CF521FA0CF319
:100370004FEA1E482543B3FBF8F92C0C08FB193350
:100380001FFA8EFA44EA034309FB0AF49C4202FA7C
:1003900007F200FA07F10BD91EEB030309F1FF3056
:1003A00080F087809C4240F28480A9F10209734466
:1003B0001B1BADB2B3FBF8F008FB103345EA034456
:1003C00000FB0AFAA24508D91EEB040400F1FF3332
:1003D0006BD2A24569D90238744440EA0940A0FBB7
:1003E0000289A4EB0A044C45C2464B4654D351D073
:1003F000002E69D0B1EB0A0564EB030404FA0CFC8F
:10040000FD40FC404CEA0505C6E90054002747E7DB
:10041000C2F1200320FA03F7954001FA02F021FA15
:1004200003F34FEA154E3843010CB3FBFEF71FFAF6
:1004300085F80EFB173341EA034107FB08F38B42B3
:1004400004FA02F407D9691807F1FF3C2FD28B4256
:100450002DD9023F2944CB1A81B2B3FBFEF00EFB2B
:10046000103341EA034100FB08F38B4207D96918B6
:1004700000F1FF3C17D28B4215D902382944C91A22
:1004800040EA07473BE73746304609E70746E7E6D5
:100490001846FBE64145ABD2B8EB020A69EB0E0207
:1004A00001381346A4E76046E9E7184695E7674632
:1004B000D1E781467CE702382C4447E7ACF1020CD7
:1004C0002B442FE7384608E73746E9E6704700BF78
:1004D00001F0FF01102A2BDB10F0070F08D010F8F5
:1004E000013B013A8B422DD010F0070F42B3F6D1F9
:1004F000F0B441EA012141EA014122F007047FF012
:1005000000070023F0E80256083C85EA010586EA68
:10051000010685FA47F5A3FA87F586FA47F6A5FAA4
:1005200087F68EB9EED1F0BC01F0FF0102F00702B0
:1005300032B110F8013B013A83EA010313B1F8D15B
:100540000020704701387047002D06BF354603383C
:10055000073815F0010F07D1013015F4807F02BF75
:10056000013015F4C03F0130F0BC0138704700BFC6
:1005700070B5044601700025457020263246294694
:10058000043008F05FFB84F8245084F8255084F888
:10059000265084F827503246294604F1280008F0F6
:1005A00051FB84F848504FF0FF33A370E3702046AE
:1005B00070BD4AF6BA3082B110B40B78D32404FB74
:1005C000030080B280EA2020013A92B20131002A71
:1005D000F3D1C0B25DF8044B7047C0B2704708B5A4
:1005E0002322FFF7E6FF08BD24230B80013070476C
:1005F00010B50C46FFF7F3FF94F82330834214BF85
:100600000020012010BD013188B200B901207047DF
:1006100003784BB1012B01D000207047C08C884279
:1006200014BF0020012070470120704710B5044618
:100630004378AB2B0CBF0120002005D018B1611C02
:100640002046FFF7D5FF10BD61882046FFF7E0FF89
:10065000F4E770B505460E461446FFF7E7FF01467E
:1006600070B123881F2B0FD8002322889A4208D903
:100670001F2B06D8EA181279F25401339BB2F4E723
:1006800000232380084670BD00210B46F9E708B51A
:1006900003781BB1012B03D0002000E0408808BD87
:1006A000C18CFFF7B0FFFAE7F8B5202A94BF012606
:1006B000002622D815460F460446AB2380F8253085
:1006C000FFF7E5FFE0840023AB4206D2F85CE218B6
:1006D00082F8280001339BB2F6E71F2B06D8E218F8
:1006E000002182F8281001339BB2F6E704F12501BE
:1006F0002046FFF774FF84F848003046F8BD00003C
:10070000004870473C04002008B5182906D801EBC2
:1007100081018A00054B1344587808BD044B054AF3
:1007200040F20921044808F015FA00BF0400002037
:10073000D8A40008849B0008ECA40008012070479E
:1007400001207047F0B583B01D460023019318299E
:100750001BD807460C461646FFF7F0FF0346D8B9EC
:100760002B707BB10F4AA300181981000846114471
:10077000496801910244136923B101AA3146204618
:1007800098472870019803B0F0BD074B074A40F224
:100790002121074808F0DEF921463846FFF7B4FF6B
:1007A0000346DDE704000020D8A40008B89B000839
:1007B000ECA4000830B583B00C46154600238DF834
:1007C0000730FFF79DFF032C03D09DF8070003B00F
:1007D00030BD0DF1070322461021FFF7B3FF9DF84E
:1007E0000730002BF1D00028EFD04FF0FF332B6003
:1007F000EBE70000F0B583B005460C461646002333
:100800008DF80730FFF77CFF102D07D107465CB14C
:10081000032C0DD09DF8070003B0F0BD174B184A0C
:100820004D21184808F096F901238DF80730F1E7BB
:100830003368002BEED00DF1070322460F21FFF79E
:1008400081FF9DF8073013B110B1002300E00023B1
:100850008DF80730002BDDD00DF107032246102163
:100860003846FFF76FFF9DF80730002BD2D010B944
:1008700001233360CEE70023FBE700BF08A5000893
:10088000F89B0008ECA40008F0B583B005460C46C0
:10089000164600238DF80730FFF732FFA5F112034B
:1008A000DBB2012B07D807465CB1032C0DD09DF8B5
:1008B000070003B0F0BD204B204A7B21204808F000
:1008C00049F901238DF80730F1E73368002BEED0AA
:1008D0000DF1070322460F21FFF734FF9DF8073083
:1008E00013B110B1002300E000238DF8073093B955
:1008F0009DF80730002BDAD00DF107032246294678
:100900003846FFF71FFF9DF80720002ACFD0336835
:1009100043403360CBE70DF10703224610213846F0
:10092000FFF710FF9DF8073013B110B1002300E06E
:1009300000238DF80730DBE724A50008389C000869
:10094000ECA40008F0B583B007460C46154600231A
:100950008DF80730FFF7D4FE06462CB1032C22D0C9
:100960009DF8070003B0F0BD3946FFF7CDFE28B96A
:1009700000232B6001238DF80730F1E70DF1070309
:10098000224639463046FFF7DDFE9DF8073023B199
:100990002B6820EA03002860E2E7284B284AD3218D
:1009A000284808F0D7F82B68002BD9D00DF10703A1
:1009B00022460F21FFF7C6FE9DF8073013B110B194
:1009C000002300E000238DF80730002BC8D00DF184
:1009D0000703224639463046FFF7B4FE9DF807303C
:1009E0002BB340F00100286002AB002203F8022D77
:1009F000224601213046FFF7A5FE9DF8063023B1BF
:100A000018B12B6843F002032B600DF10603224658
:100A100002213046FFF796FE9DF80630002B9FD04E
:100A200000289DD02B6843F002032B6098E7034B0E
:100A3000034AE521034808F08DF800BF6CA50008C3
:100A4000749C0008ECA4000870B582B006460C4601
:100A5000154600238DF80730FFF752FE2CB1032C0A
:100A600007D09DF8070002B070BD01238DF8073054
:100A7000F7E72B68002BF4D00DF10703224631462F
:100A8000FFF760FE9DF80730002BEAD010F0FF0F53
:100A900002D000232B60E4E70123FBE730B4054CD0
:100AA0008B005D18A80020448260426001234370DF
:100AB00030BC70470400002070B505460C46164651
:100AC000FFF71EFE25B94CB1032C1BD0002070BDD2
:100AD0000E4B0F4A2C210F4808F03CF8316899B1B1
:100AE00000231C4601229A40114202D10133DBB29D
:100AF000F7E721EA02022946FFF7D0FF013434600C
:100B00000120E4E70120E2E70120E0E770A500080A
:100B1000109D0008ECA40008F0B583B005460F4610
:100B2000144601238DF80730FFF7EAFD06462468D6
:100B3000092D14D19DF807300BB1032D17D19DF865
:100B400007300BB1052D1BD19DF807300BB1072DD8
:100B50001FD19DF807302BBB012003B0F0BD0DF174
:100B600007033A460921FFF7EDFD0443E2E70DF1E3
:100B700007033A4603213046FFF7E4FD0443DEE76E
:100B80000DF107033A4605213046FFF7DBFD04432C
:100B9000DAE70DF107033A4607213046FFF7D2FDA9
:100BA0000443D6E7224601213046FFF777FFD3E71B
:100BB000F0B583B005460F46144601238DF8073083
:100BC000FFF79EFD064624680A2D14D19DF80730D4
:100BD0000BB1042D17D19DF807300BB1062D1BD199
:100BE0009DF807300BB1082D1FD19DF807302BBBA6
:100BF000012003B0F0BD0DF107033A460A21FFF7CB
:100C0000A1FD0443E2E70DF107033A460421304613
:100C1000FFF798FD0443DEE70DF107033A4606218E
:100C20003046FFF78FFD0443DAE70DF107033A463C
:100C300008213046FFF786FD0443D6E7224602210D
:100C40003046FFF72BFFD3E710B504460023182BDF
:100C500011D803EB83018A000A49895CDAB2914218
:100C600002D101339BB2F2E7074B084A40F2F91177
:100C7000074807F06FFF002211462046FFF70EFFDE
:100C8000204610BD0400002088A500084C9D0008E7
:100C9000ECA40008012800D0704708B54FF6FF7398
:100CA000994200D008BD0248FFF7CEFFFAE700BF27
:100CB0003C040020F0B583B0019318291BD80746E7
:100CC0000C461546FFF73CFD064688B104EB84034D
:100CD0009A000C4B1344DB682BB101AA294620462D
:100CE0009847064620B1019A21463846FFF7D6FEBE
:100CF000304603B0F0BD044B044A40F2462104489C
:100D000007F028FF04000020D8A40008649D000814
:100D1000ECA40008F0B583B004460D461746002346
:100D20008DF80730FFF7ECFCA4F11703DBB2012BC1
:100D300006D80646032D09D09DF8070003B0F0BD84
:100D40000F4B104AA321104807F004FF0DF10703D1
:100D50002A462146FFF7F6FC3B68834303D0172C55
:100D60000BD0132C03D001238DF80730E4E71321B7
:100D70002A463046FFF79EFFF5E71221F8E700BF4D
:100D8000B4A50008A49D0008ECA400082DE9F041DA
:100D900082B00C46164600238DF80730FFF7B0FCF2
:100DA000032C04D09DF8070002B0BDE8F081054691
:100DB0001621FFF7A9FC18B901238DF80730F1E7D8
:100DC000D6F800800DF10703224616212846FFF7CA
:100DD000B9FC88EA00078045EED017F0010F0FD16B
:100DE00017F0020F15D117F0040F1BD117F47F4F26
:100DF000E2D07378224611212846FFF75BFFDBE73C
:100E0000336803F00103224610212846FFF752FF02
:100E1000E6E7336803F0020322460F212846FFF776
:100E200049FFE0E7336803F0040322460021284627
:100E3000FFF740FFDAE708B54FF6FF710120FFF733
:100E400029FF08BD82689378312B01D000207047BC
:100E500070B50446D378132B06D80425A268D3783E
:100E60001B2B5AD8002070BD1179537903EB012355
:100E700090F82C2003214068FFF71CFFA2689179AD
:100E8000D37903EB012394F82C2004216068FFF749
:100E900011FFA268117A537A03EB012394F82C20F6
:100EA00005216068FFF706FFA268917AD37A03EB09
:100EB000012394F82C2006216068FFF7FBFEA2684E
:100EC000117B537B03EB012394F82C2007216068EE
:100ED000FFF7F0FEA268917BD37B03EB012394F82C
:100EE0002C2008216068FFF7E5FEA268117C537C86
:100EF00003EB012394F82C2009216068FFF7DAFE48
:100F0000A268917CD37C03EB012394F82C200A2166
:100F10006068FFF7CFFE1825A0E76B1C515DAE1C83
:100F2000D35C03EB012394F82C200B216068FFF7BE
:100F3000C1FEA268EB1C915D2E1DD35C03EB012367
:100F400094F82C200C216068FFF7B4FEA2686B1D9A
:100F5000915DAE1DD35C03EB012394F82C200D2191
:100F60006068FFF7A7FEA268EB1D915DD35C03EB01
:100F7000012394F82C200E216068FFF79BFE182DAA
:100F80003FF470AF024B034A5321034807F0E2FDE0
:100F9000F8A50008DC9D000810A6000810B504465E
:100FA000024B036000F058FE204610BD109E000862
:100FB00010B50446044B036000F04EFE302120467D
:100FC00007F0BCFD204610BD109E000810B5044679
:100FD00000F028FE014B2360204610BD109E000843
:100FE00010B5032909D80446C9B202290BD0032938
:100FF00018D0012911D000200EE00F4B0F4A5F21BD
:101000000F4807F0A7FD722100F04FFE00220121DA
:10101000204600F051FE012010BD9A2100F045FE4F
:101020000120F9E7722100F040FE00220121204654
:1010300000F042FE0120EFE734A60008549E0008AD
:1010400010A6000810B582B00446002102AB03F8D8
:10105000011D90F82C204068FFF774FB9DF80730C5
:1010600013B110B9002300E000238DF8073033B925
:101070009DF8073053B19DF8070002B010BD01463E
:101080002046FFF7ADFF8DF80700F1E7312120463C
:1010900000F00BFE01238DF80730ECE790F82D00EF
:1010A000003018BF0120704790F82D30052B00D07C
:1010B0007047062380F82D3000238361F8E790F80D
:1010C0002D30042B08D0002390F82D20062A26D09E
:1010D000181C18BF0120704710B4C28932B183892F
:1010E000934214D98469436B9C4210D28468531C88
:1010F0009BB2A15400228261C38190F82D20062A60
:101100000AD0181C18BF01205DF8044B7047062355
:1011100080F82D300023EFE700228261F1E7002202
:101120008261D5E74B1E9BB2F62B00D88174807C80
:10113000884214BF002001207047036AC3EBC3023A
:101140005208026303EB430252084263181C18BFA3
:101150000120704790F82D303BB190F8382090F87E
:1011600028309A4203D300207047002070470120A6
:101170007047000010B50446044B0360FF21FFF7E1
:10118000D1FF204600F038FE204610BD8C9E00089E
:1011900010B50446FFF7EEFF3C21204607F0CEFCD9
:1011A000204610BD08B590F82C30042B13D04368AE
:1011B000BBB18368DBB18389FBB121BB002380F81D
:1011C0002D3090F8283080F8383090F82D0000301D
:1011D00018BF012008BD0F4B0F4A3D210F4807F0F3
:1011E000B9FC0F4B0C4A3E210C4807F0B3FC0D4BE9
:1011F000094A3F21094807F0ADFC0B4B064A402144
:10120000064807F0A7FC012380F82D300023038255
:101210008361DAE748A60008C89E000858A60008BF
:1012200080A6000894A60008A4A6000808B5836854
:101230000B6090F82D30022B05D1038A032280F831
:101240002D20184608BD034B034ABF21034807F071
:1012500081FC00BFB0A60008F89E000858A6000850
:1012600008B590F82D30032B00D02BB9032B09D0F3
:10127000012380F82D3008BD064B074ACB210748D3
:1012800007F068FC00230382C3818361042380F894
:101290002D30F0E7C8A60008289F000858A60008CF
:1012A000032902D880F82C10704708B5034B044A74
:1012B00040F23711034807F04DFC00BF00A70008BB
:1012C000549F000858A6000810B5044600F07EFDA3
:1012D0000A4B23600A4B6362052284F828204FF4EE
:1012E00080736385042384F82C30002384F82D3028
:1012F0002363636384F83820204610BD8C9E000869
:10130000400D030090F8383090F82820934202D224
:10131000013380F83830704790F82D308BB310B51A
:101320008369426A934202D2C1690B4483610446D5
:1013300083699A4208D994F82D30042B0AD094F886
:101340002D30062B12D010BD012380F82D30FFF771
:10135000D9FFF0E7E389002BF1D0A169226B91421C
:10136000EDD92382052384F82D30E8E7A269236BA9
:101370009A42E8D3012384F82D302046FFF7C2FFBC
:10138000E1E7704710B5AAB11046052B19D8029AAB
:101390001278EAB1421E92B214120C704A7098424E
:1013A0001DD81B1ADBB20133DBB21A128A70CB7064
:1013B000042010BD0D4B0E4A40F249110D4807F0B4
:1013C000C9FB0D4B0A4A4FF4A5710A4807F0C2FB4E
:1013D0000A4B074A40F24B11064807F0BBFB084B8B
:1013E000034A40F25311034807F0B4FB10A700086A
:1013F000849F000858A6000824A700086CA50008D0
:1014000038A70008F8B50A2921D906461446142938
:1014100024D813784BB3A1F10B039BB2092B01D94C
:10142000002313702378002B00F0EC80A1F10B0354
:101430009BB2092B20D8C9B20B39092900F2D880F8
:10144000DFE801F0214D626D7883AEB8C2CC6E4BFF
:101450006E4A4FF4CD716E4807F07CFB6D4B6B4AC2
:1014600040F29B116A4807F075FB6B4B674A4FF4DB
:10147000CE71674807F06EFB684B644A40F2A711D3
:10148000634807F067FB234696F82C20102170680C
:10149000FFF758F9B0FA80F77F09BDB223787BB91E
:1014A000102322782AB3234696F82C201121706845
:1014B000FFF748F9C04345EA002085B2112318E040
:1014C000234696F82C200F217068FFF73BF920B1D6
:1014D000002040EA07050F23E3E70220F9E723464F
:1014E00096F82C2012217068FFF72CF9C04385B2C2
:1014F0001223227822B1B3F1190218BF01222270FF
:10150000192B78D02846F8BD234696F82C201221B6
:101510007068FFF717F9C043050C1223E9E723466B
:1015200096F82C2013217068FFF70CF9C04385B2A0
:101530001323DEE7234696F82C2013217068FFF76B
:1015400001F9C043050C1323D3E7234696F82C205A
:1015500010217068FFF7F6F890B1012523788BB958
:1015600010232278002AC4D0234696F82C2011217B
:101570007068FFF7E7F845EA0025ADB21123B8E738
:101580000025EBE7234696F82C200F217068FFF723
:10159000D9F818B102231D430F23E2E70023FAE72D
:1015A000234696F82C2012217068FFF7CBF885B2FD
:1015B00012239EE7234696F82C2012217068FFF72D
:1015C000C1F8050C122394E7234696F82C2013212A
:1015D0007068FFF7B7F885B213238AE7234696F8B9
:1015E0002C2013217068FFF7ADF8050C132380E75A
:1015F000192300257DE70A4B044A40F2F111044803
:1016000007F0A8FA00257DE744A70008D09F00084E
:1016100058A600085CA700086CA5000874A700087D
:10162000ACA700082DE9F047DDF820800A2A30D960
:1016300082460F469146142B32D898F80020002A93
:1016400035D009F1FF3292B2111239707A70A3EBE2
:101650000906F6B20136F6B23312BB70FE707300A3
:101660003B7100240525B44228D209EB040142460F
:1016700089B25046FFF7C6FE98F80030F3B1021267
:101680006B1C9BB27A550235ADB2F8540134E4B20A
:10169000E9E70C4B0C4A40F261110C4807F05AFA8A
:1016A0000B4B094A4FF4B171084807F053FA094B44
:1016B000054A40F26311054807F04CFA2846BDE898
:1016C000F08700BFC0A7000814A0000858A60008B3
:1016D000D8A700086CA5000870B51C782CB1541E62
:1016E000A4B2042C01D900241C701C78002C61D0F9
:1016F0001C4606460B784D7805EB0325ADB2531E0C
:101700009BB2042B08D8D2B2013A042A49D8DFE8A8
:1017100002F00A1824303C00274B284A40F22221CC
:10172000274807F017FA2B46162596F82C2029464D
:101730007068FFF7BFFA192D35D0012323700220FE
:1017400070BD234690F82C2017214068FEF7FAFF61
:10175000000C00042B181725E7E72D04234690F80A
:101760002C2017214068FEF7EDFF15FA80F31725AE
:10177000DBE7234690F82C2018214068FEF7E2FFB3
:10178000000C00042B181825CFE72D04234690F8F1
:101790002C2018214068FEF7D5FF15FA80F3182594
:1017A000C3E71925C7E7074B044A40F2462104481E
:1017B00007F0D0F90020C3E7ECA7000864A00008F8
:1017C00058A60008ACA700082DE9F84F82468946C4
:1017D00093461A460B9F3B78C3B1BDF82880A8EB0F
:1017E00002085FFA88F808F101085FFA88F80978BA
:1017F0004FEA4803994203D000233B70012408E0DC
:10180000BBF800108B42F7DC012402E04FF0000827
:1018100044463B7893B10025A8450FD9561CB6B273
:101820003B4609EB04015046FFF756FF0444A4B2BF
:101830003B781BB10135EDB23246EDE7BBF8003025
:101840001B1BABF800302046BDE8F88F30B41846BB
:10185000002494420CD2C3B20D5D5D40054B03EBF6
:101860004503B3F92C3283EA202080B20134F0E73B
:1018700030BC7047849E000870B584B0044690F870
:101880002D30012B07D094F82D00022814BF002022
:10189000012004B070BD012204AE06F8012D83685A
:1018A000817C19708368172159708168009605231F
:1018B0000231FFF767FD023085B2A168009614235C
:1018C0000B2229442046FFF7ADFE0544ADB29DF83A
:1018D0000F30002BD7D0A6684FF6FF732A4631464B
:1018E0002046FFF7B3FF6B1C9BB270550012A26835
:1018F0000235ADB2D054638DAB4208D9002DC2D0B1
:1019000025820023A361022384F82D30BBE7034B1B
:10191000034AAC21034807F01DF900BF20A80008C6
:10192000B0A2000858A6000870B51C78ECB10D787C
:10193000847CA54201D000241C701D4613461488E7
:10194000013CA4B214800E5D013CA2B21A808C5CF2
:1019500004EB0624A4B24FF6FF73FFF777FFA04213
:1019600005D000232B70012000E0002070BD012075
:10197000FCE790F82D30052B01D00020704730B5E2
:1019800085B0044601238DF80D30038AADF80E3082
:101990000DF10D030DF10E028168FFF7C5FF9DF8F3
:1019A0000D3053B1A568431C99B22B5C032B0ED0AC
:1019B000172B19D0002384F838309DF80D3003B36D
:1019C0009DF80D00012384F82D3005B030BD0DF1D8
:1019D0000D0301930523009301230DF10E02294409
:1019E0002046FFF7F1FEE5E70DF10D030193052316
:1019F000009301230DF10E0229442046FFF7E4FE77
:101A0000D8E72046FFF77EFCDAE790F82D0000309B
:101A100018BF0120704790F82D30052B00D070477B
:101A2000062380F82D3000238361F8E790F82D30ED
:101A3000042B08D0002390F82D20062A42D0181C31
:101A400018BF01207047C3898268D15443B9552912
:101A500003D000228261C381EDE701339BB2F8E736
:101A6000012B0AD0032B11D001339BB2028A9A4278
:101A7000EFD8052280F82D20EBE7AA2903D0002318
:101A8000428D0282E5E701339BB2F9E710B4848905
:101A9000428D0A44944213DB028A114401820133CD
:101AA0009BB200228261C38190F82D20062A01D1C9
:101AB00000228261181C18BF01205DF8044B70479A
:101AC0000023EEE700228261B9E7CBB283748B4238
:101AD00014BF002001207047006A003018BF0120A9
:101AE000704790F82D303BB190F82E2090F82830B8
:101AF0009A4203D3002070470020704701207047AE
:101B000008B590F82C30042B13D04368BBB1836820
:101B1000DBB18389FBB121BB002380F82D3090F825
:101B2000283080F82E3090F82D00003018BF0120AA
:101B300008BD0F4B0F4A16210F4807F00BF80F4B4B
:101B40000C4A17210C4807F005F80D4B094A1821DB
:101B5000094806F0FFFF0B4B064A1921064806F01C
:101B6000F9FF012380F82D30002303828361DAE737
:101B700048A60008D8A2000838A8000880A60008D7
:101B800094A60008A4A6000808B58368C289134477
:101B90000B6090F82D30022B05D1038A032280F8C8
:101BA0002D20184608BD034B034A7621034806F052
:101BB000D1FF00BFB0A600080CA3000838A8000899
:101BC00008B590F82D30032B00D02BB9032B09D08A
:101BD000012380F82D3008BD064B074A82210748B3
:101BE00006F0B8FF0023C38103828361042380F8D9
:101BF0002D30F0E764A8000844A3000838A80008C6
:101C0000032902D880F82C10704708B5024B034A0C
:101C1000E121034806F09EFF00A7000878A3000812
:101C200038A8000810B5044600F0D0F8084B23602F
:101C3000084B6362052384F828306385042284F806
:101C40002C20002284F82D2084F82E30204610BD50
:101C5000B4A30008E093040010B50446024B0360EF
:101C600000F0CAF8204610BDB4A3000890F82E304A
:101C700090F82820934202D2013380F82E3070472A
:101C800008B590F82D304BB18369426A934202D275
:101C9000C1690B44836183699A4200D908BD01235D
:101CA00080F82D30FFF7E2FFF8E7836899708368CA
:101CB0000022DA707047000010B57AB1013A92B292
:101CC0008389448D1B1B9A420CDA8368DC78A2421C
:101CD00000DDDA7083680332995410BD8368DA78C6
:101CE0000132EDE7024B034AFA21034806F032FFC6
:101CF000A0A80008F8A3000838A8000810B41846E7
:101D00000024944204D20B5D1844C0B20134F8E7B9
:101D10005DF8044B704738B590F82D30052B02D094
:101D20000025284638BD04468168028A013A92B2ED
:101D300002828D5C0023023A0231FFF7DFFFA842E6
:101D400005D0002565B1012384F82D30E9E723682B
:101D50001B6C204698470546002384F82E30F1E797
:101D60002046FFF783FFEEE7F8B5044690F82D30E4
:101D7000012B06D094F82D00022814BF002001206A
:101D8000F8BD002303820368DB6B98470028F1D07D
:101D9000A36855221A70A368AA225A70658DA76895
:101DA000FB781D44ADB26E1EB6B20023B21EB91C44
:101DB0002046FFF7A3FFB855002DDBD02582002376
:101DC000E381A361022384F82D30D3E710B50446E4
:101DD000084B03600023436083608381C3810382D7
:101DE000FF2282744361C3610362FEF789FC606075
:101DF000204610BD38A40008704708B5C38903B950
:101E0000436103681B6B984708BD0000C16109B1BD
:101E10000120704708B5034B034A2821034806F008
:101E200099FE00BFC0A8000874A40008D0A800084C
:101E300038B515467AB900221A44D2B20932D2B264
:101E4000064CB4FBF1F402FB04F202620268946BEC
:101E50002A46A04738BD0122EEE700BF40420F00EE
:101E600008B54369C169064A521A934205D20B4428
:101E7000436103685B6B984708BD014BF8E700BFFF
:101E800080969800828181607047000010B50446FA
:101E90000E4B18784FF47A73B3FBF0F30C4A1068CA
:101EA000B0FBF3F000F0EEF868B90F2C01D9012077
:101EB0000AE0002221464FF0FF3000F069F8034BA2
:101EC0005C60002000E0012010BD00BFF801002090
:101ED0004003002008B50B4B1A6842F400721A60E8
:101EE0001A6842F480621A601A6842F480721A60BA
:101EF000032000F02FF80020FFF7C8FF05F03AFD9F
:101F0000002008BD003C0240034A1168034B1B78C7
:101F10000B441360704700BFAC090020F80100209B
:101F2000014B1868704700BFAC09002038B5044663
:101F3000FFF7F6FF0546B4F1FF3F02D0044B1B78D4
:101F40001C44FFF7EDFF401BA042FAD338BD00BF91
:101F5000F801002010B50446C31E042B0FD80A4A0E
:101F6000D36823F4E0631B041B0C240204F4E06434
:101F7000234343F0BF6343F40033D36010BD922189
:101F8000024805F0EDFCEAE700ED00E0FCA80008DF
:101F900070B505460C4616460F2A25D80F2C28D8B2
:101FA0001B4BDB68C3F30223C3F10702042A28BFDB
:101FB0000422191D062921D9033B4FF0FF3101FAF4
:101FC00002F224EA02049C4001FA03F326EA030623
:101FD0003443002D14DB2401E4B205F1604505F51E
:101FE000614585F8004370BDAA210A4805F0B8FC98
:101FF000D4E7AB21074805F0B3FCD1E70023DCE7C9
:1020000005F00F052401E4B2034B5C55EBE700BF7C
:1020100000ED00E0FCA8000814ED00E010B5041E7F
:102020000ADB002C07DB04F01F0264090123934044
:10203000044A42F8243010BDBE21034805F090FC4C
:10204000EFE700BF00E100E0FCA8000810B5041EA7
:102050000FDB002C0CDB04F01F026409012393400A
:102060002034064A42F82430BFF34F8FBFF36F8FFE
:1020700010BDCE21024805F073FCEAE700E100E064
:10208000FCA800080138B0F1807F0AD2064B5860E6
:10209000064AF02182F823100020986007221A6077
:1020A00070470120704700BF10E000E000ED00E045
:1020B00090F83530DBB2022B03D08023436501203A
:1020C0007047052380F835300268136823F0010358
:1020D00013600020704790F8350070472DE9F043F9
:1020E00083B080460E46B34B984223D003F58063FD
:1020F00098421FD003F5806398421BD003F580639C
:10210000984217D003F58063984213D003F580639B
:1021100098420FD003F5806398420BD003F580639B
:10212000984207D003F58063984203D0B321A248B8
:1021300005F016FC33689AB212B11B0C1B041BB1DC
:10214000B4219D4805F00CFC7368012B1ED9112B9E
:102150001CD0022B1AD0122B18D0984A934215D0BB
:1021600002F58012934211D002F5801293420DD0F5
:10217000A2F5F812934209D002F58012934205D0DD
:1021800002F58012934201D0032B04D1B368022BD5
:1021900006D800244AE0B521874805F0E1FBF5E7C1
:1021A000B621854805F0DCFBF3E7C821824805F03D
:1021B000D7FB4FE0E021804805F0D2FB90E00723F9
:1021C00000E000238B40034302327D4941F8223076
:1021D0007C4B1A68FB4303EA0201706810F4803FED
:1021E00001D047EA0201774A1160526803EA02010E
:1021F000706810F4003F01D047EA0201714A516053
:10220000926803EA0201706810F4801F01D047EA67
:1022100002016C4A9160D2681340716811F4001F8A
:1022200001D047EA0203674AD36001340F2C00F261
:10223000BD800125A54037682F40BD42F5D17368A8
:102240005A1E012A03D9112B01D0122B19D1F36880
:10225000032BAAD8D8F80820610003238B4022EA78
:102260000302F3688B401343C8F80830D8F8042001
:1022700022EA05027368C3F30015A5401543C8F8A8
:102280000450D8F80C204FEA4409032505FA09F553
:10229000ED432A40B36803FA09F31343C8F80C303E
:1022A0007368022B01D0122B2AD13369C3B1092BD9
:1022B00016D0012B14D0022B12D0032B10D0042BDC
:1022C0000ED0052B0CD0062B0AD0072B08D0082BDC
:1022D00006D00A2B04D00C2B02D00F2B7FF46AAF50
:1022E000E208083258F8220004F0070399000F238F
:1022F0008B4020EA030033698B40034348F82230C7
:10230000D8F800301D40736803F0030303FA09F3A3
:102310001D43C8F80050736813F0805F85D0002318
:102320000193294B5A6C42F480425A645B6C03F46B
:1023300080430193019BA208911C214B53F821007B
:1023400004F0030399000F238B4020EA0300194B8C
:1023500098453FF436AF03F5806398451AD003F5EE
:102360008063984518D003F58063984516D003F52F
:102370008063984514D003F58063984512D003F527
:102380008063984510D003F5806398453FF417AFFC
:10239000082317E7012315E7022313E7032311E7B7
:1023A00004230FE705230DE706230BE703B0BDE881
:1023B000F08300BF0000024038A90008000011109F
:1023C00000380140003C014000380240F8B50446A6
:1023D0000D46584B984224D003F58063984220D094
:1023E00003F5806398421CD003F58063984218D0AF
:1023F00003F58063984214D003F58063984210D0AF
:1024000003F5806398420CD003F58063984208D0AE
:1024100003F58063984204D04FF49871464805F064
:102420009FFA002327E0072700E0002707FA00F0C3
:10243000B04265D020685E000321B140C943084026
:102440002060D808083054F8206003F007074FEAEE
:10245000870C0F2707FA0CF726EA070644F82060D6
:10246000E0680840E060606820EA02026260A268FA
:102470001140A16001330F2B5AD801229A4002EA81
:1024800005018A42F6D14FEA930E0EF102062B485F
:1024900050F8266003F0030080004FF00F0C0CFA98
:1024A00000FC0CEA0606234FBC42BED007F580674D
:1024B000BC4219D007F58067BC4217D007F580678A
:1024C000BC4215D007F58067BC4213D007F5806782
:1024D000BC4211D007F58067BC420FD007F580677A
:1024E000BC42A0D00827A1E701279FE702279DE76C
:1024F00003279BE7042799E7052797E7062795E732
:102500000F480668C9430E40066046680E404660A4
:1025100086680E408660C6683140C160074E0EF185
:10252000020156F8210020EA0C0046F8210081E75C
:10253000F8BD00BF0000024038A900080038014083
:10254000003C014038B505460C4621B12B691C42C0
:1025500007D1002038BD4FF4BF71034805F000FAE1
:10256000F4E70120F6E700BF38A9000870B5064679
:1025700015460C4629B1012D09D875B92404B4615A
:1025800070BD40F29F11064805F0EAF9F3E74FF4F9
:10259000D071034805F0E4F9EFE7B461F0E700BF5C
:1025A00038A9000838B505460C4629B16B6934EAEC
:1025B000030307D0AC6138BD4FF4DB71034805F06D
:1025C000CFF9F3E72404AC61F5E700BF38A90008B0
:1025D00090F83E30DBB2402B0AD00369B3F5804F50
:1025E00015D0036D002B34D0036D012B3BD0704709
:1025F000036D2BB9436C026803F0FE03136170474F
:10260000436C026843F00103DBB21361704790F83A
:102610003D30DBB2212B0FD0436C026843F0010345
:10262000DBB21361436B6BB1DB6B5BB10268536868
:1026300043F4006353607047436C026803F0FE0389
:102640001361EFE7836B002BD1D0DB6B002BEDD157
:10265000CDE7436CC3F3C813026803F0060343F0ED
:10266000F00313617047436CC3F3C813026803F0AF
:10267000060343F0F1031361B9E7436C0268DBB270
:102680001361436B3BB1DB6B4BB10268536843F49E
:10269000006353607047826B002AF4D1FAE7836BC2
:1026A000DB6B002BF1D1F5E710B48BB090F83E3026
:1026B000DAB2C16A046B90F83D30DBB2222B0BD04A
:1026C0000023099303685A6909929B690993099B3E
:1026D0000BB05DF8044B7047036D0BB9402A17D05F
:1026E000036D1BB90369B3F5404F19D0438D9BB2FD
:1026F000002B25D1029303685A6902929A690292CB
:10270000029A1A6842F400721A6000230365DFE738
:10271000009303685A6900929B690093009BD7E776
:102720000023019303685A6901929A690192019A00
:102730001A6842F480721A60036D01330365C7E7BB
:10274000438D9BB2012B25D0438D9BB2022B7BD0B6
:102750000268136843F48063136003685A6812F4D4
:10276000006F0ED011F5803F07D0012905D0082950
:1027700003D0102901D0202903D15A6842F4805295
:102780005A600023089303685A6908929B6908936A
:10279000089BBAE711F5803F11D0082934D02029D1
:1027A00032D0122C2ED0042940D002293ED010293C
:1027B0003CD00268136823F4806313603BE0026836
:1027C000136823F48063136003685A6812F4006F7F
:1027D0000CD01A6822F480621A6000230393036805
:1027E0005A6903929B690393039B8EE7002204922C
:1027F0005A6904929A690492049A1A6842F400721F
:102800001A6082E70129CED00268136823F480633E
:1028100013600023069303685A6906929A69069228
:10282000069A1A6842F400721A606EE7026813682A
:1028300043F4806313600023059303685A6905928B
:102840009B690593059B60E704290ED002290CD0F3
:1028500010290AD00268136823F4806313600268A9
:10286000136843F40063136004E00268136843F4E0
:102870008063136003685A6812F4006F0ED011F57C
:10288000803F07D0012905D0082903D0102901D0A5
:10289000202903D15A6842F480525A6000230793DA
:1028A00003685A6907929B690793079B2DE7438D3D
:1028B0009BB253B1426A036812781A61436A0133CA
:1028C0004362438D013B9BB243857047438D9BB26E
:1028D00053B103681A69436A1A70436A0133436249
:1028E000438D013B9BB243857047000082B00023BB
:1028F00001930E4B1B68DB080D4AA2FB03231B0A46
:1029000003EB83030193019B013B0193019B33B1D3
:1029100003681B6813F4007FF5D1002004E0036C0A
:1029200043F020030364012002B0704740030020FD
:1029300089B5F814C36AB3F52A0F04D0C36AB3F19A
:102940002A4F03D070470123C36270470823C36234
:10295000F8E70000002800F03B81F8B50446036862
:102960009D4A93420CD002F58062934208D002F552
:102970008062934204D040F2BF11984804F0F0FF07
:102980006368013B964A934200F2A580A3681BB19D
:10299000B3F5804F40F0A580E36823F47F7323F004
:1029A0000303002B40F0A3802369B3F5804F03D0CD
:1029B000B3F5404F40F0A1806369012B00F2A38082
:1029C000A36933F0FE0340F0A480E36913B1402B08
:1029D00040F0A580236A13B1802B40F0A68094F8C4
:1029E0003D30002B00F0A780242384F83D3022687E
:1029F000136823F0010313602268136843F4004353
:102A000013602268136823F40043136002F094F902
:102A10006268744B9A4200F29480734B98428CBF68
:102A200000230123002B40F0D580704BA3FB002333
:102A30009B0C21684A6822F03F021A434A602568CD
:102A40002A6A22F03F02666866498E427FD80133C7
:102A500013432B622568E96921F44F4121F0FF01FE
:102A60006368604A93427CD801385B00B0FBF3F3A3
:102A70000133C3F30B03042B38BF04230B43EB6177
:102A800021680B6823F0C003E269206A0243134304
:102A90000B6021688B6823F4034323F0FF03226952
:102AA000E068024313438B602168CB6823F0FF0387
:102AB0006269A06902431343CB602268136843F044
:102AC0000103136000202064202384F83D3020633C
:102AD00084F83E00F8BD4FF4E071404804F040FF38
:102AE00054E740F2C1113D4804F03AFF54E74FF477
:102AF000E1713A4804F034FF56E740F2C311374819
:102B000004F02EFF58E74FF4E271344804F028FF38
:102B100056E740F2C511314804F022FF55E74FF463
:102B2000E3712E4804F01CFF54E740F2C7112B4814
:102B300004F016FF53E784F83C30204604F036FFDB
:102B400052E72B4B98428CBF002301236AE74FF4D6
:102B5000967101FB03F32749A1FB03139B09013382
:102B600076E7A268BAB9461E03EB4307B6FBF7F651
:102B70000136C6F30B06B6FA86F6760936BBC2B93D
:102B8000013803EB4303B0FBF3F30133C3F30B0250
:102B900042F4004372E7461E03EB830707EB870707
:102BA000B6FBF7F60136C6F30B06B6FA86F67609DB
:102BB000E4E7013803EB830303EB8303B0FBF3F299
:102BC0000132C2F30B0242F4404357E7012355E7B9
:102BD0000120704701207DE70054004074A90008DF
:102BE0007F1A0600A08601007F841E0083DE1B433F
:102BF000FF083D00D34D621038B310B5044603689A
:102C0000134A93420CD002F58062934208D002F539
:102C10008062934204D040F22F210E4804F0A0FEBF
:102C2000242384F83D302268136823F001031360E5
:102C3000204604F005FF0020206484F83D00206356
:102C400084F83E0084F83C0010BD0120704700BFAE
:102C50000054004074A9000890F83D30DBB2202BEE
:102C600037D1002937D0002A37D090F83C30012BDB
:102C700035D010B4012380F83C3003681C6814F090
:102C8000010F03D11C6844F001041C600468236830
:102C900023F400632360212380F83D30202380F853
:102CA0003E300023036441624285428D02850D4A15
:102CB000C26201680A6842F480620A6080F83C30AF
:102CC00001684A6842F4E0624A6018465DF8044BC5
:102CD0007047022070470120704701207047022092
:102CE000704700BF0000FFFF90F83D30DBB2202BA3
:102CF00037D1002937D0002A37D090F83C30012B4B
:102D000035D010B4012380F83C3003681C6814F0FF
:102D1000010F03D11C6844F001041C60046823689F
:102D200023F400632360222380F83D30202380F8C1
:102D30003E300023036441624285428D02850D4A84
:102D4000C26201680A6842F480620A6080F83C301E
:102D500001684A6842F4E0624A6018465DF8044B34
:102D60007047022070470120704701207047022001
:102D7000704700BF0000FFFF704708B5C26A90F8B7
:102D80003D30DBB2212B00D008BD438D9BB2D3B9BF
:102D9000082A04D0202A02D012F5803F1FD10268F1
:102DA000536823F4E06353600268136843F40073CC
:102DB000136000230363202280F83D2080F83E301A
:102DC000FFF7DAFFE0E7426A036812781A61436AA4
:102DD00001334362438D013B9BB24385D4E70268D4
:102DE000536823F4E063536011230363002380F8E6
:102DF0003E30202380F83D30FFF7BEFFC4E7704728
:102E000008B590F83D30DAB2438D9BB27BB1416A90
:102E1000036809781961436A01334362438D013BBA
:102E20009BB24385438D9BB20BB9292A00D008BDC4
:102E30000268536823F480635360212303632823CB
:102E400080F83D3005F0C8FCF1E708B590F83D305A
:102E5000DAB2438D9BB27BB103681969436A19707A
:102E6000436A01334362438D013B9BB24385438DEB
:102E70009BB20BB92A2A00D008BD0268536823F41C
:102E80008063536022230363282380F83D3005F0DC
:102E900089FCF1E7704708B590F83D3003F028034E
:102EA000282B07D003686FF002025A61002380F8D4
:102EB0003C3008BD0268536823F48063536011F00E
:102EC000040F0BD0002311F0800F09D1828900215B
:102ED00080F83C101946FFF7DDFFEAE70123F2E72F
:102EE000028BF4E77047000008B590F83D30DBB284
:102EF000C26A082A01D0202A01D1282B06D0212B12
:102F00001ED003686FF480625A6108BD1A4BC36219
:102F10000268536823F4E063536003686FF48062CF
:102F20005A610268136823F480631360002303630B
:102F3000202280F83D2080F83E30FFF7D3FFE4E701
:102F40000D4BC36221230363202380F83D3000230F
:102F500080F83E300268536823F4E06353600368EE
:102F60006FF480625A610268136823F4806313600F
:102F700005F032FCC9E700BF0000FFFF704708B54D
:102F800090F83D30026D9AB9C36C012B08D0836C68
:102F9000C3F3072302681361036D0133036508BDA2
:102FA000836C0268DBB21361036D02330365F6E7DD
:102FB000DBB2026D012A23D0026D022AEFD1222B4F
:102FC00026D0428D92B20AB1212B27D0428D92B2E7
:102FD000002AE4D1212BE2D10268536823F4E06394
:102FE00053600268136843F40073136000230363A3
:102FF000202280F83D2080F83E30FFF7BFFFCEE76B
:10300000836C0268DBB21361036D01330365C6E7AD
:103010000268136843F480731360C0E7426A036870
:1030200012781A61436A01334362438D013B9BB2BC
:103030004385B4E710B590F83D30DBB290F83E2000
:10304000D2B2C46A018D09B9212B04D0212B3BD007
:10305000402A37D010BD082C04D0202C02D014F503
:10306000803F19D10268536823F4E063536002681B
:10307000136843F40073136000230363202380F874
:103080003D3090F83E30DBB2402B15D0002380F865
:103090003E30FFF771FEDDE70268536823F4E0631A
:1030A000536011230363002380F83E30202380F80F
:1030B0003D30FFF761FECDE7002380F83E30FFF79B
:1030C0005DFFC7E7222BC5D1438D9BB283B190F83A
:1030D0003E30DBB2402B11D0426A036812781A618D
:1030E000436A01334362438D013B9BB24385B1E7A1
:1030F0000268536823F480635360ABE7FFF73FFF38
:10310000A8E7704708B5C26A438D9BB2042B13D061
:10311000438D9BB2032B20D0438D9BB2022B36D024
:1031200003681A69436A1A70436A01334362438D24
:10313000013B9BB243850FE00268536823F4806330
:10314000536003681A69436A1A70436A0133436221
:10315000438D013B9BB2438508BD01684B6823F456
:1031600080634B60042A06D0022A04D002681368E8
:1031700023F48063136003681A69436A1A70436A10
:1031800001334362438D013B9BB24385E4E7012A4F
:103190000BD0102A09D0042A36D0022A34D0026873
:1031A000136843F40073136004E00268136823F4A7
:1031B0008063136003681A69436A1A70426A531C79
:1031C0004362438D013B9BB2438503681B69537087
:1031D000436A01334362438D013B9BB243850268DE
:1031E000536823F440735360202380F83D3090F8F7
:1031F0003E30DBB2402B0DD0002380F83E3012234E
:103200000363FFF7FCFDA7E70268136843F48063DC
:103210001360CFE7002380F83E300363FFF771FFB0
:103220009AE790F83D30DBB2222B00D07047438DF7
:103230009BB2032B14D903681A69436A1A70436A54
:1032400001334362438D013B9BB24385438D9BB267
:10325000032BEBD10268536823F4806353607047FB
:10326000C26A022AE2D0012BE0D810B50446FFF76B
:103270003DFB68BB2268136823F4806313602268F7
:10328000536823F4E063536023681A69636A1A7011
:10329000636A01336362638D013B9BB263852023C4
:1032A00084F83D3094F83E30DBB2402B08D0002348
:1032B00084F83E30122323632046FFF7A0FD10BDA3
:1032C000002384F83E3023632046FFF71AFFF6E719
:1032D0002268536823F4E063536023681A69636AC1
:1032E0001A70636A01336362638D013B9BB263852D
:1032F000202384F83D30002384F83E30204605F03A
:1033000085FADCE700B583B000230193806B90F869
:103310003D20D2B2324B1B68DB083249A1FB0313BC
:103320001B0A03EB8303C3EBC3030193019B43B16C
:10333000019B013B019303681B6813F4007FF5D1E7
:1033400003E0036C43F020030364436B0BB10021E3
:10335000D963836B0BB10021D96301680B6823F437
:1033600080630B6000234385436B0BB1002119651B
:10337000836B0BB10021196501680B6823F0010311
:103380000B6090F83D30DBB2602B0ED002F02802CB
:10339000282A14D0202380F83D30002380F83E30C6
:1033A00005F034FA03B05DF804FB202380F83D30CB
:1033B000002380F83E30036405F04CFAF2E702681F
:1033C000136843F0010313600268136843F48063D9
:1033D000136000230363282380F83D30E0E700BF3B
:1033E0004003002089B5F81410B5044690F83D302C
:1033F000DBB290F83E20D2B2102A36D0402A34D028
:1034000003F02802282A38D02268526812F4006F8C
:1034100007D1602B05D0202384F83D30002384F8A9
:103420003E300023236323685A6812F4006F48D0AB
:103430005A6822F400625A60626B92F83530DBB24F
:10344000012B20D0444B1365606BFEF731FE002842
:1034500049D02268136823F001031360202384F805
:103460003D30606B036D98473DE0222BC8D1216849
:103470000A6822F400620A60C2E70023236328235B
:1034800084F83D30CFE7A36B334A1A65A06BFEF793
:103490000FFE40B323685A6912F0400F05D01A6935
:1034A000636A1A70636A013363622268136823F0E7
:1034B00001031360202384F83D30A06B036D98470F
:1034C00011E094F83D20D2B2602A1FD05A6912F060
:1034D000400F05D01A69636A1A70636A0133636228
:1034E000204605F093F9236C13F00F0F04D02268E7
:1034F000536823F4E063536094F83D30DBB2226CF0
:1035000012F0040F01D0282B18D010BD202284F80F
:103510003D20002222645A6912F0400F05D01A693A
:10352000636A1A70636A013363622268136823F066
:1035300001031360204605F08DF9D4E7074BE362E1
:1035400000232363202284F83D2084F83E30204667
:10355000FFF7C8FCD9E700BF053300080000FFFFF4
:1035600030B583B0044690F83D50EDB20268536820
:1035700023F4E06353600023019303685A690192C6
:103580001A6842F001021A60019B0268136823F472
:103590008063136003685A6812F4006F38D0222DDC
:1035A00021D02A2D1FD0426B1268526892B24285F8
:1035B000428D92B21AB1026C42F0040202645A685F
:1035C00022F400625A60606BFEF785FD01281FD06F
:1035D000636B434A1A65606BFEF76AFDC0B1606BAE
:1035E000036D984714E0A26B1268526892B262852C
:1035F000628D92B21AB1226C42F0040222645A68BF
:1036000022F400625A60A06BFEF765FD012840D1EC
:10361000638D9BB223B323685A6912F0040F09D05B
:103620001A69636A1A70636A01336362638D013BCE
:103630009BB2638523685A6912F0400F09D01A695A
:10364000636A1A70636A01336362638D013B9BB2E4
:103650006385638D9BB21BB1236C43F00403236429
:10366000236C13BB2A2D25D094F83D30DBB2282BD8
:1036700029D0236B222B01D0222D19D100232363C3
:10368000202284F83D2084F83E30204605F08AF858
:103690000EE0A36B124A1A65A06BFEF709FD002825
:1036A000B6D0A06B036D9847B2E72046FFF79CFEAB
:1036B00003B030BD00232363282384F83D30204627
:1036C00005F070F8D0E7074BE36200232363202264
:1036D00084F83D2084F83E302046FFF703FCE7E7FE
:1036E000053300080000FFFFF8B50446026855687E
:1036F000C66A90F83E30DBB290F83D10102B14D023
:10370000C8B2402B11D0236C002B77D05369002115
:1037100013F0020F75D015F4007F72D0236C03B143
:1037200091692046FFF7B7FBF8BD9769516911F021
:10373000010005D1B6F52A0FF6D0B6F12A4FF3D025
:1037400010B115F4007F27D111F0080F02D015F445
:10375000007F28D111F0020F02D015F4007F26D18E
:1037600017F0040F2FD0526812F4006FDCD111F063
:10377000800F05D015F4806F02D011F0040F1AD01D
:1037800011F0040FD0D015F4007FCDD0102B16D03F
:103790002046FFF7F4FBC7E72046FFF7CBF82046AB
:1037A000FEF716FFC0E72046FEF767FFBCE720469E
:1037B000FEF77AFFB8E72046FFF73CFCB4E7204667
:1037C000FFF7DBFAB0E7536813F4006FACD111F0E8
:1037D000400F05D015F4806F02D011F0040F09D00E
:1037E00011F0040FA0D015F4007F9DD02046FFF704
:1037F00089FC99E72046FFF714FD95E79169536925
:1038000086E713F0100F02D015F4007F18D121289D
:103810001AD0292818D013F0400F05D015F4806F66
:1038200002D013F0040F28D013F0040F3FF47CAF44
:1038300015F4007F3FF478AF2046FFF747F873E7B1
:103840002046FFF78DFE6FE713F0800F05D015F4CB
:10385000806F02D013F0040F0BD013F0040F3FF46D
:1038600063AF15F4007F3FF45FAF2046FFF71FF80A
:103870005AE72046FFF7C4FA56E72046FFF7E5FA75
:1038800052E7F8B5044603685D695F6890F83E202A
:10389000D2B215F4807F07D017F4807F3CD06FF44C
:1038A00080715961012600E0002615F4007F08D0E0
:1038B00017F4807F05D046F0020623686FF400718C
:1038C000596115F4806F19D017F4807F16D0638D7D
:1038D00099B294F83D30DBB2206B202A1ED02368C9
:1038E0006FF48061596146F00406102A01D0402A25
:1038F00004D12268136843F40073136015F4006F59
:1039000008D017F4807F05D046F0080623686FF4CE
:1039100000625A6186B9F8BD0026C6E70029DED1EB
:10392000212B05D0292B03D0282BD8D12128D6D163
:103930002046FFF7D9FAE1E7236C1E4326642046B0
:10394000FFF752FDE7E7006C7047000000283AD00F
:1039500038B5044602681D4B9A4203D09E211C488C
:1039600003F0FEFF6368062B1ED8A368B3F5805FE3
:103970001FD223684CF6CC421A60236845F2555298
:103980001A60236862685A602368A2689A60FEF72A
:10399000C7FA05462368DA6882B1FEF7C1FA401B10
:1039A0003028F7D903200DE09F21094803F0D8FF04
:1039B000DBE7A021064803F0D3FFDAE74AF6AA22A4
:1039C0001A60002038BD0120704700BF0030004061
:1039D000ACA9000803684AF6AA221A6000207047C2
:1039E0002DE9F04782B00768CA00521A93000344D9
:1039F0005A6D1B6D9A4257D8B8469B1AC1EBC10449
:103A0000A2000244526C9A4200D31A460C46064663
:103A100002F1030A4FEA9A0A16E009F1030A4FEA93
:103A20009A0AE3001B1B9D003544A96C337C00936C
:103A30001FFA89F3E2B2384602F09EFBAB6C4B44AE
:103A4000AB646B6D4B446B6508EB441303F510637B
:103A50009B699BB2534513D3E3001B1B9A0032446E
:103A6000516D136D99420BD253B15B1AC4EBC40173
:103A70008A003244D2F844909945CED39946CCE797
:103A8000E3001B1B98000644326D736D9A420FD8F9
:103A900004F00F040121A140D7F8344824EA0104BE
:103AA000C7F83448002000E0012002B0BDE8F087EC
:103AB0000020FAE7F0B58BB0002800F096800446AD
:103AC0000368B3F1A04F06D0494A934203D087213F
:103AD000484803F045FF256894F8BD3323B303231A
:103AE00084F8BD33EB6B13F4807F01D10023236195
:103AF000206802F0D5F8254655F8107B6E460FCDAC
:103B00000FC60FCD0FC695E8030086E80300231DFE
:103B10000ECB384602F002F860B1022384F8BD33C0
:103B2000012528460BB0F0BD84F8BC33204604F0D4
:103B3000EFF9D4E70021206802F0B8F8002315E07F
:103B4000D900C81A82002244012082F83D0082F880
:103B50003C30A2F84230002082F83F00506490646C
:103B6000CA1A9100214408650133DBB26568AB4293
:103B7000E6D3002315E0D800C11A8A0022440021B0
:103B800082F8FD1182F8FC3182F8FF11C2F80412AC
:103B9000C2F80812C21A90002044C0F81012013373
:103BA000DBB29D42E7D8254655F8107B6E460FCD17
:103BB0000FC60FCD0FC695E8030086E80300231D4E
:103BC0000ECB384602F0B8F8054620B1022384F83F
:103BD000BD330125A5E7002384F83830012384F89C
:103BE000BD33206802F077FC9BE7012599E700BF11
:103BF00000000440E8A90008026890F8BC33012BDB
:103C000019D010B5012380F8BC33836A012B0AD088
:103C10000446006802F03EF8206802F04EFC0020E6
:103C200084F8BC0310BD8369012BF1D0936B43F47E
:103C300080339363ECE702207047000070B50446C0
:103C40000D460068066C00EB411303F530639A687B
:103C50002169012911D037498E4254D03DB9C5EBB5
:103C6000C50293002344D3F81032002B5CD0E9B294
:103C7000204604F097F9002070BD12F0080F09D01B
:103C80002D498E42F7D912F4004FF4D04FF4004280
:103C90009A60F0E712F0200F28D112F0280FEAD135
:103CA00025498E4202D912F4004F22D1E900491B66
:103CB0008A002244D2F804121B69C3F31203C91A02
:103CC000C2F81412D2F80412D2F808320B44C2F827
:103CD000083235B9C5EBC50293002344D3F810323E
:103CE0005BB1E9B2204604F05DF9C4E720229A6096
:103CF000C1E74FF400429A60BDE704F571720121FB
:103D000002F03CFCEDE712F4004F09D112F0200F55
:103D100001D020229A60E9B2204604F043F9AAE7D4
:103D20004FF400429A60A6E704F57172002102F098
:103D300025FC9CE70A31544F0A30544F38B50446ED
:103D400003681D6C03EB4111D1F8082B0E4B9D420B
:103D500007D901F5306112F4004F02D04FF400434F
:103D60008B60204604F016F9074B9D4202D9236967
:103D7000012B01D0002038BD04F5717201212068AB
:103D800002F0FCFBF6E700BF0A30544F2DE9F84F74
:103D900004460568284602F0DDFB08B1BDE8F88F4F
:103DA0002F460646206802F0A4FB0028F6D02068C3
:103DB00002F09FFB10F0020F04D02268536903F059
:103DC00002035361206802F094FB10F0100F14D02E
:103DD0002268936923F010039361D5F8208008F0DE
:103DE0000F09C8F34343022B68D0062B00F08880EC
:103DF0002268936943F010039361206802F079FB15
:103E000010F4002F40F09080206802F072FB10F454
:103E1000802F40F0D480206802F06BFB0028C0F2B5
:103E20004281206802F065FB10F4006F0AD0D5F8DB
:103E3000083813F0010F40F050812268536903F4F1
:103E400000635361206802F054FB10F4805F40F07F
:103E50004881206802F04DFB10F4005F40F0A7811C
:103E6000206802F046FB10F0080F40F0B88120688F
:103E700002F03FFB10F4801F40F0BA81206802F08E
:103E800038FB10F4001F40F0BD81206802F031FBC8
:103E900010F0804F40F0C081206802F02AFB10F043
:103EA000040F3FF47BAF23685D6815F0040F40F00A
:103EB000BC81226853682B4353606FE747F6F07369
:103EC00018EA030F94D04FEAC90BABEB09034FEA92
:103ED000830AA2444FEA1818C8F30A02DAF8081253
:103EE000284602F06BFAC8F30A08DAF808324344AD
:103EF000CAF80832DAF814324344CAF8143277E7C1
:103F0000082204F57171284602F058FAC8F30A181D
:103F10004FEAC903A3EB09018A002244D2F8143204
:103F20004344C2F8143263E7206802F0E6FA8046A0
:103F3000B14617E007EB49130122C3F8082B4946A5
:103F40002046FFF77BFE1DE007EB49130822C3F86C
:103F5000082B49462046FFF7F1FE16E009F101095A
:103F60004FEA5808B8F1000F3FF44EAF18F0010FB8
:103F7000F4D05FFA89F1206802F0CFFA824610F09F
:103F8000010FD7D11AF0080FDED11AF0100F04D0AC
:103F900007EB49131022C3F8082B1AF0200F04D0A6
:103FA00007EB49132022C3F8082B1AF4005FD5D081
:103FB00007EB49134FF40052C3F8082BCEE72068F3
:103FC00002F0A3FA8046B1462AE05946204603F0A3
:103FD000F5FF1AF0080F04D007EB49130822C3F8C5
:103FE00008291AF0100F04D007EB49131022C3F868
:103FF00008291AF0400F04D007EB49134022C3F8F8
:1040000008291AF0020F04D007EB49130222C3F863
:1040100008291AF0800F41D109F101094FEA580827
:10402000B8F1000F3FF4F7AE18F0010FF4D05FFACB
:1040300089FB5946206802F079FA824610F0010F98
:10404000C7D009F00F03012101FA03F2D7F8343881
:1040500023EA0203C7F8343807EB4913C3F80819F9
:1040600023698B42B1D14FEAC902A2EB0902930046
:104070002344596C9A6C0A449A64B9F1000FA4D194
:10408000C9EBC902930023441B6D002B9DD104F59D
:1040900071720121206802F071FA96E749462046C4
:1040A000FFF79EFCB8E7D5F8043823F00103C5F804
:1040B000043894F8F433012B08D0204603F0BEFFF7
:1040C0002268536903F000435361AAE6002184F893
:1040D000F413204600F03AFAF2E7204603F096FF88
:1040E000ABE605F50068D8F8043023F00103C8F802
:1040F00004301021206801F0F1FD20E007EB4613A9
:104100004FF67F31C3F80819D3F8002922F40012C2
:10411000C3F80029D3F8002942F00062C3F800294F
:10412000C3F8081BD3F8002B22F40012C3F8002BAD
:10413000D3F8002B42F00062C3F8002B013663680D
:10414000B342DBD8D8F81C3043F00113C8F81C3058
:10415000236BEBB1D8F8843043F00B03C8F88430FC
:10416000D8F8443043F00B03C8F84430D5F8003891
:1041700023F4FE63C5F8003804F57172217C2068D1
:1041800002F0FCF92268536903F48053536160E63E
:10419000D8F8143043F4005343F02B03C8F814301C
:1041A000D8F8103043F00B03C8F81030DEE7206871
:1041B00002F0D4F9206801F087FEE060256800F085
:1041C000B5FD227B0146284601F0EEFC204603F0B7
:1041D00006FF2268536903F40053536140E620460A
:1041E00003F0F7FE2268536903F0080353613EE6CB
:1041F0000021204603F02EFF2268536903F4801348
:1042000053613BE60021204603F01EFF22685369FC
:1042100003F40013536138E6204603F021FF2268BF
:10422000536903F08043536136E6204603F01EFFD6
:104230003FE690F8BC33012B0DD010B504460123A6
:1042400080F8BC3380F83810006802F026F90020AE
:1042500084F8BC0310BD02207047F8B511F0800F40
:1042600028D101F00F06F500AF1BBC00274604F56E
:10427000FC74044404343E460644002586F8FD518F
:1042800001F00F012170A260E370627802B1E18059
:10429000022B1ED090F8BC33012B1DD00546012304
:1042A00080F8BC332146006801F01FFE002085F82D
:1042B000BC03F8BD01F00F06F500AF1BBC0027469C
:1042C0003834044404343E460644012586F83D5003
:1042D000D6E700232371DDE70220EAE738B511F0C5
:1042E000800F21D101F00F05EA00541BA3001C46EA
:1042F00003F5FC730344043325460544002285F886
:10430000FD2101F00F01197090F8BC23012A1AD089
:104310000446012280F8BC231946006801F030FEF3
:10432000002084F8BC0338BD01F00F04E200151B27
:10433000AB001D463833034404332C4604440122A9
:1043400084F83D20DDE70220EDE770B501F00F05B0
:10435000EE00711B8C0004F5FC740444211D761BD7
:10436000B4000444C4F80822C4F810320023C4F88E
:10437000143284F8FD3184F8FC510369012B06D016
:1043800065B1DAB2006801F00BFF002070BDC5EB2B
:10439000C506B4000444C4F80C22F1E7DAB20068A0
:1043A00001F05CFEF1E701F00F01C1EBC1018B00F0
:1043B0001844D0F81402704770B501F00F05EE00F4
:1043C000711B8C0038340444211D761BB400044456
:1043D000A264236500236365012384F83D3084F8DB
:1043E0003C500369012B06D05DB1DAB2006801F0E0
:1043F000D7FE002070BDC5EBC506B4000444E264DE
:10440000F2E7DAB2006801F029FEF2E738B501F010
:104410000F0543689D4236D811F0800F20D1CA00A5
:10442000541AA3001C4603F5FC73034404332246CC
:104430000244002182F8FD1101229A701D7090F84B
:10444000BC23012A21D00446012280F8BC2319464E
:10445000006801F0C7FF7DB1002084F8BC0313E0C1
:10446000EA00511B8B0019463833034404330144DE
:10447000012281F83D20DFE704F57172217C20687C
:1044800002F07CF8E8E7012038BD0220FCE710B517
:1044900001F00F0443689C422CD811F0800F1DD10D
:1044A000E3001A1B91000A4601F5FC710144043136
:1044B0000244002382F8FD3100238B700C7090F8C9
:1044C000BC33012B18D00446012380F8BC330068AC
:1044D00001F0B5FF002084F8BC030CE0E3001A1BD8
:1044E00091000A463831014404310244012382F824
:1044F0003D30E1E7012010BD0220FCE730B4046844
:10450000606A29B10D46A36A00EB134000230CE05A
:1045100040EA0240A06212E003F1400104EB810195
:10452000496800EB11400133DBB2691E8B42F3D3C3
:1045300040EA024005F13F0104EB810148600020A0
:1045400030BC704703685962002070477047000014
:10455000002800F0648270B582B0044603680F2B17
:1045600039D8236813F0010F4DD063682BB1B3F530
:10457000803F02D0B3F5A02F32D1A54B9B6803F04A
:104580000C03042B36D0A24B9B6803F00C03082BC2
:104590002BD06368B3F5803F5FD0B3F5A02F62D016
:1045A0009B4B1A6822F480321A601A6822F4802227
:1045B0001A606368002B60D0FDF7B2FC0546944B8F
:1045C0001B6813F4003F1ED1FDF7AAFC401B6428B2
:1045D000F5D9032028E2E8218E4803F0C1F9C0E7AD
:1045E000ED218C4803F0BCF9C7E7894B5B6813F4F5
:1045F000800FCED0864B1B6813F4003F03D0636856
:10460000002B00F00E82236813F0020F67D0E368DE
:10461000012B41D823691F2B44D87D4B9B6813F095
:104620000C0F4AD07A4B9B6803F00C03082B3FD049
:10463000E368002B77D0784B01221A60FDF770FCFD
:104640000546734B1B6813F0020F63D1FDF768FC3E
:10465000401B0228F5D90320E6E16D4A136843F4B4
:1046600080331360A5E76A4B1A6842F480221A600F
:104670001A6842F480321A609BE7FDF751FC054648
:10468000634B1B6813F4003FBDD0FDF749FC401B92
:104690006428F5D90320C7E140F21F115D4803F0FB
:1046A0005FF9B7E74FF490715A4803F059F9B4E74E
:1046B000574B5B6813F4800FBAD1554B1B6813F04E
:1046C000020F04D0E368012B01D00120ACE1504A75
:1046D000136823F0F803216943EAC10313602368D8
:1046E00013F0080F49D06369012B2ED8636993B387
:1046F0004A4B01221A60FDF713FC0546444B5B6FE1
:1047000013F0020F39D1FDF70BFC401B0228F5D93D
:10471000032089E13E4A136823F0F803216943EA44
:10472000C1031360DBE73C4B00221A60FDF7F8FB86
:104730000546374B1B6813F0020FD0D0FDF7F0FB96
:10474000401B0228F5D903206EE14FF4B0713148C7
:1047500003F006F9CAE7314B00221A60FDF7E0FBCF
:1047600005462B4B5B6F13F0020F06D0FDF7D8FB0D
:10477000401B0228F5D9032056E1236813F0040FEB
:1047800000F08780A368012B01D9052B38D1204B7D
:104790001B6C13F0805F39D1002301931C4B1A6C02
:1047A00042F080521A641B6C03F080530193019B0A
:1047B00001251B4B1B6813F4807F33D0A368012BAA
:1047C00044D0052B48D0124B1A6F22F001021A6711
:1047D0001A6F22F004021A67A368002B46D0FDF777
:1047E0009FFB06460A4B1B6F13F0020F4FD1FDF7DC
:1047F00097FB801B41F288339842F3D9032013E1E1
:104800004FF4C671034803F0ABF8C0E70025D0E7CA
:104810000038024020AA000800004742800E4742AC
:1048200000700040834A136843F480731360FDF7FF
:1048300077FB06467F4B1B6813F4807FBED1FDF7E4
:104840006FFB801B0228F5D90320EDE07A4A136F35
:1048500043F001031367BFE7774B1A6F42F004027E
:104860001A671A6F42F001021A67B5E7FDF758FBA5
:104870000646714B1B6F13F0020F08D0FDF750FB7B
:10488000801B41F288339842F3D90320CCE0002DFD
:104890003BD1A369022B3ED8A369002B00F0C38053
:1048A000654A926802F00C02082A00F09080022B00
:1048B00079D1E36913B1B3F5800F32D1236A3F2B6D
:1048C00035D8636A323BB3F5BF7F36D8A36A022B73
:1048D00005D0042B03D0062B01D0082B33D1E36A7B
:1048E000023B0D2B35D8554B00221A60FDF718FB03
:1048F0000546514B1B6813F0007F30D0FDF710FBCD
:10490000401B0228F5D903208EE04B4A136C23F09C
:1049100080531364BDE740F2CF11494803F020F8FB
:10492000BAE74FF4EC71464803F01AF8C6E740F2D4
:10493000D911434803F014F8C3E74FF4ED71404830
:1049400003F00EF8C2E740F2DB113D4803F008F82F
:10495000C5E74FF4EE713A4803F002F8C3E7E369A4
:10496000226A1343626A43EA8213A26A5208013A36
:1049700043EA0243E26A43EA02632F4A53602F4B41
:1049800001221A60FDF7CCFA04462B4B1B6813F08A
:10499000007F06D1FDF7C4FA001B0228F5D90320D9
:1049A00042E0002040E0254B00221A60FDF7B8FAF3
:1049B0000446214B1B6813F0007F06D0FDF7B0FAC8
:1049C000001B0228F5D903202EE000202CE0012B4B
:1049D0002CD0194B5B6803F48001E269914201D04D
:1049E000012021E003F03F02216A8A4201D0012028
:1049F0001AE0616A47F6C0721A408A4201D001206B
:104A000012E003F44032A16A8A4201D001200BE097
:104A100003F07063E26A93420AD0012004E00120AF
:104A20007047012000E0002002B070BD0120FBE7CC
:104A30000020F9E700700040003802406000474263
:104A400020AA0008304B9B6803F00C03082B58D1B8
:104A50002DE9F04B2C4B5A6802F03F025B6813F4CF
:104A6000800F2BD0284B5B68C3F388131E460027AA
:104A70005C010025E41A65EB0705A90141EA946190
:104A8000A001001B61EB0501CB0043EA5073C40099
:104A9000A01943EB07018B0243EA9053840220469E
:104AA00019460023FBF794FB174B5B68C3F30143E4
:104AB00001335B00B0FBF3F0BDE8F08B124B5B6899
:104AC000C3F388131E4600275C010025E41A65EB3A
:104AD0000705A90141EA9461A001001B61EB0501F2
:104AE000CB0043EA5073C400A01943EB07018B02CB
:104AF00043EA90538402204619460023FBF768FBE3
:104B0000D2E70248704700BF003802400024F4009A
:104B1000002800F0FA8070B504460D460368013B9A
:104B20000E2B11D8072D15D87A4B1B6803F00F03F5
:104B3000AB4215D2EBB2774A1370136803F00F0340
:104B4000AB420DD0012070BD40F25121724802F0FD
:104B500007FFE7E740F252216F4802F001FFE3E769
:104B6000236813F0020F29D013F0040F04D06B4A0E
:104B7000936843F4E0539360236813F0080F04D064
:104B8000664A936843F460439360A3687BB1802BCB
:104B90000DD0902B0BD0A02B09D0B02B07D0C02B61
:104BA00005D0D02B03D0E02B01D0F02B33D15B4AC2
:104BB000936823F0F003A1680B439360236813F01C
:104BC000010F42D06368032B2BD86368012B2ED0D2
:104BD0009A1E012A32D9514A126812F0020F00F0CF
:104BE00096804E498A6822F0030213438B60FDF7DA
:104BF00097F90646494B9B6803F00C036268B3EBD8
:104C0000820F22D0FDF78CF9801B41F28833984245
:104C1000F0D9032097E740F275213F4802F0A0FE4B
:104C2000C5E74FF41F713C4802F09AFECDE73B4ABE
:104C3000126812F4003FD4D1012084E7374A126889
:104C400012F0007FCDD101207DE7324B1B6803F0CD
:104C50000F03AB4209D9EAB22E4B1A701B6803F05E
:104C60000F03AB4201D001206DE7236813F0040F5E
:104C700014D0E3685BB1B3F5805F08D0B3F5A05FF3
:104C800005D0B3F5C05F02D0B3F5E05F31D1234A60
:104C9000936823F4E053E1680B439360236813F0B7
:104CA000080F15D023695BB1B3F5805F08D0B3F569
:104CB000A05F05D0B3F5C05F02D0B3F5E05F1ED1B1
:104CC000164A936823F46043216943EAC103936061
:104CD000FFF7B8FE114B9B68C3F30313104AD35C74
:104CE000D840104B1860104B1868FDF7CFF8002023
:104CF00029E740F2BA21084802F032FEC7E740F245
:104D0000C121054802F02CFEDAE70120704701209E
:104D100019E700BF003C024020AA0008003802400A
:104D2000A8A4000840030020FC010020014B1868E3
:104D3000704700BF4003002008B5FFF7F7FF044BA2
:104D40009B68C3F38223034AD35CD84008BD00BFED
:104D500000380240B8A4000808B5FFF7E7FF044B8D
:104D60009B68C3F34233034AD35CD84008BD00BFFD
:104D700000380240B8A40008002800F0C08010B538
:104D8000044603685F4A93420CD0A2F578429342EE
:104D900008D002F58062934204D04FF4A1715A48C2
:104DA00002F0DEFD636813B1B3F5827F6BD1A368B7
:104DB0002BB1B3F5806F02D0B3F5004F69D1E36832
:104DC000B3F5006F01D0002B69D1A369B3F5007F63
:104DD00003D013B1B3F5802F67D1E3696BB1082B12
:104DE0000BD0102B09D0182B07D0202B05D0282B47
:104DF00003D0302B01D0382B5DD1236A0BB1802B2F
:104E00005FD1636A0BB1102B61D1636A33B9236937
:104E10000BB1022B61D16369012B64D80023A3621B
:104E200094F85130002B64D0022384F8513022686A
:104E3000136823F0400313606368A2681343E268B9
:104E400013432269134362691343A26902F4007297
:104E50001343E2691343226A1343A16A22680B4396
:104E60001360638B03F00403616A22680B43536091
:104E70002268D36923F40063D361002060650123B5
:104E800084F8513010BD40F243111F4802F068FD14
:104E90008DE74FF4A2711C4802F062FD8FE740F2EB
:104EA0004511194802F05CFD8FE74FF4A3711648D5
:104EB00002F056FD91E740F24711134802F050FD11
:104EC0009BE74FF4A471104802F04AFD99E740F2C5
:104ED00049110D4802F044FD97E74FF4A6710A48C6
:104EE00002F03EFD97E740F24D11074802F038FD11
:104EF00094E784F85030204602F0C6FD94E7012084
:104F0000704700BF0030014058AA000810B50446A1
:104F10000368264A934237D0B3F1804F34D0A2F5CC
:104F20007C42934230D002F5806293422CD002F54D
:104F30008062934228D002F58062934224D002F529
:104F40008062934220D002F5704293421CD002F559
:104F50007052934218D002F58062934214D002F549
:104F60008062934210D0A2F5983293420CD002F5A1
:104F70008062934208D002F58062934204D040F2EE
:104F8000B9110B4802F0ECFC2268D36843F001032E
:104F9000D3602268936803F00703062B03D01368DD
:104FA00043F001031360002010BD00BF000001406A
:104FB00090AA0008704770477047704710B50446C4
:104FC00003681A6912F0020F11D0DA6812F0020FAA
:104FD0000DD06FF002021A610123037703689B6909
:104FE00013F0030F70D0FFF7E6FF00232377236849
:104FF0001A6912F0040F12D0DA6812F0040F0ED002
:105000006FF004021A610223237723689B6913F46B
:10501000407F5FD02046FFF7CEFF00232377236831
:105020001A6912F0080F12D0DA6812F0080F0ED0C9
:105030006FF008021A61042323772368DB6913F0F9
:10504000030F4ED02046FFF7B6FF002323772368D7
:105050001A6912F0100F12D0DA6812F0100F0ED089
:105060006FF010021A61082323772368DB6913F4B9
:10507000407F3DD02046FFF79EFF00232377236823
:105080001A6912F0010F03D0DA6812F0010F36D15D
:1050900023681A6912F0800F03D0DA6812F0800FCB
:1050A00034D123681A6912F0400F03D0DA6812F085
:1050B000400F32D123681A6912F0200F03D0DA684A
:1050C00012F0200F30D110BDFFF774FF2046FFF71C
:1050D00073FF8AE72046FFF76DFF2046FFF76CFF5E
:1050E0009BE72046FFF766FF2046FFF765FFACE72A
:1050F0002046FFF75FFF2046FFF75EFFBDE76FF03A
:1051000001021A61204603F0D3FAC1E76FF0800272
:105110001A61204600F085F9C3E76FF040021A617A
:105120002046FFF74AFFC5E76FF020021A612046CC
:1051300000F076F9C7E700000368304A904212D0C9
:10514000B0F1804F0FD0A2F57C4290420BD002F517
:105150008062904207D002F58062904203D002F54F
:105160007842904203D123F070034A681343234AE4
:1051700090422AD0B0F1804F27D0A2F57C429042D5
:1051800023D002F5806290421FD002F580629042E7
:105190001BD002F57842904217D002F5705290422F
:1051A00013D002F5806290420FD002F580629042E7
:1051B0000BD0A2F59832904207D002F5806290425F
:1051C00003D002F58062904203D123F44073CA6891
:1051D000134323F080034A69134303608B68C3625F
:1051E0000B688362054B984203D003F580639842B5
:1051F00001D10B6903630123436170470000014043
:1052000000287AD010B5044603683D4A934237D04F
:10521000B3F1804F34D0A2F57C42934230D002F5F6
:10522000806293422CD002F58062934228D002F52E
:105230008062934224D002F58062934220D002F52E
:10524000704293421CD002F57052934218D002F57E
:105250008062934214D002F58062934210D0A2F58E
:10526000983293420CD002F58062934208D002F546
:105270008062934204D04FF48971224802F070FB9F
:10528000A3683BB1102B05D0202B03D0402B01D0BD
:10529000602B1AD123692BB1B3F5807F02D0B3F50F
:1052A000007F18D1A3690BB1802B1AD194F83D303F
:1052B000EBB1022384F83D30211D2068FFF73CFF4D
:1052C000012384F83D30002010BD40F213110D4839
:1052D00002F046FBDEE74FF48A710A4802F040FB19
:1052E000E0E740F21511074802F03AFBDEE784F8E8
:1052F0003C30204602F000FCDBE70120704700BF95
:105300000000014090AA000838B504460D46036825
:10531000414A93421FD0B3F1804F1CD0A2F57C428A
:10532000934218D002F58062934214D002F5806255
:10533000934210D002F5806293420CD002F5806255
:10534000934208D002F57042934204D040F2646167
:10535000324802F005FB2B686BB1102B0BD0202BD1
:1053600009D0302B07D0402B05D0502B03D0602B19
:1053700001D0702B41D16B68802B01D0002B42D122
:1053800094F83C30012B44D0012384F83C300223B4
:1053900084F83D3023685968986821F070012A68C4
:1053A0000A435A6023681C4A93421AD0B3F1804FD3
:1053B00017D0A2F57C42934213D002F5806293424B
:1053C0000FD002F5806293420BD002F578429342EF
:1053D00007D002F57052934203D0A2F59432934263
:1053E00004D120F080006A6810439860012384F89B
:1053F0003D30002084F83C0038BD40F2656107482C
:1054000002F0AEFAB7E740F26661044802F0A8FA8B
:10541000B6E70220F0E700BF00000140C8AA00087C
:10542000704770470268D36823F49073D3600268B2
:10543000536923F001035361202380F83A30704709
:1054400090F83930DBB2212B2AD18368B3F5805F25
:1054500016D0036A5A1C02621A7803685A60C38C19
:10546000013B9BB2C384EBB90268D36823F080038D
:10547000D3600268D36843F04003D36000207047D4
:10548000036A1B880268C3F30803536003691BB9EE
:10549000036A02330362E2E7036A01330362DEE771
:1054A00002207047002070472DE9F04B0446426807
:1054B000984B9A4274D8E36813B1B3F5005F75D185
:1054C00023692BB1B3F5806F02D0B3F5C06F73D1F0
:1054D00063694FF6F372134200D123B940F6FE31EF
:1054E0008D4802F03DFA2268136923F44053E168C5
:1054F0000B431361A3682269134362691343E26992
:105500001A432168CB6823F4164323F00C0313439A
:10551000CB602268536923F44073A1690B43536144
:10552000E369B3F5004F4DD023687C4A934200F005
:10553000BD8002F58062934200F0B880FFF7FCFB6B
:105540004FF00009061849EB090716EB000B47EB73
:10555000090C4FEACC0343EA5B734FEACB02934654
:105560009C4663689A009B0F10EB0B0049EB0C0103
:10557000FAF72EFE6A4DA5FB00325109642202FBA8
:10558000110213013233A5FB03235B0903F0F00280
:1055900002EB011203F00F03216813448B60B6E0A5
:1055A00040F6FB315C4802F0DBF984E740F6FC3161
:1055B000594802F0D5F983E740F6FD31564802F02C
:1055C000CFF985E72368554A934239D002F58062C6
:1055D000934235D0FFF7B0FB83464FF0000C06181E
:1055E0004CEB0C0716EB000847EB0C094FEAC9031C
:1055F00043EA58734FEAC802904699466268002110
:10560000921841EB01031BEB08004CEB0901FAF780
:10561000DFFD434DA5FB00325109642202FB11025C
:10562000D3003233A5FB03235B095A0002F4F8725E
:1056300002EB011203F00703216813448B6066E05C
:10564000FFF78AFB80464FF00009061849EB09076F
:1056500016EB000B47EB090C4FEACC0343EA5B73F4
:105660004FEACB0293469C4662680021921841EBB8
:10567000010318EB0B0049EB0C01FAF7A9FD284DCB
:10568000A5FB00325109642202FB1102D300323320
:10569000A5FB03235B095A0002F4F87202EB011226
:1056A00003F00703216813448B6030E0FFF754FBDD
:1056B0004FF00009061849EB090716EB000B47EB02
:1056C000090C4FEACC0343EA5B734FEACB029346E3
:1056D0009C4663689A009B0F10EB0B0049EB0C0192
:1056E000FAF776FD0E4DA5FB00325109642202FB4C
:1056F000110213013233A5FB03235B0903F0F0020F
:1057000002EB011203F00F03216813448B60BDE824
:10571000F08B00BFA037A00004AB000800100140D0
:105720001F85EB51002800F08B8010B5044683697B
:10573000002B55D00368434A934210D0A2F54C4247
:1057400093420CD002F58062934208D002F54C429D
:10575000934204D040F24B113B4802F001F9A36997
:1057600043B1B3F5807F05D0B3F5007F02D0B3F528
:10577000407F2FD1A36813B1B3F5805F4ED1E369A9
:1057800013B1B3F5004F4FD194F83930002B51D0FD
:10579000242384F839302268D36823F40053D3607B
:1057A0002046FFF781FE2268136923F490431361BA
:1057B0002268536923F02A0353612268D36843F4B3
:1057C0000053D3600020E063202384F8393084F84C
:1057D0003A3010BD4FF4A6711B4802F0C1F8C9E77A
:1057E0000368184A9342C5D0A2F54C429342C1D0F7
:1057F00002F580629342BDD002F580629342B9D037
:1058000002F580629342B5D002F544429342B1D092
:105810004FF4A8710C4802F0A3F8ABE74FF4A9715C
:10582000094802F09DF8AAE740F25311064802F039
:1058300097F8A9E784F83830204602F097F9A7E7EF
:10584000012070470010014004AB000890F8393087
:10585000DBB2202B16D1B9B1C2B190F83830012B90
:1058600016D001628284C2840023C363212280F89F
:10587000392080F838300168CA6842F08002CA6076
:10588000184670470220704701207047012070477A
:105890000220704790F83A30DBB2202B20D109B3B8
:1058A00012B390F83830012B20D081628285C285F6
:1058B0000023C363222280F83A2080F83830016840
:1058C000CA6842F48072CA6001684A6942F0010203
:1058D0004A610168CA6842F02002CA6018467047EF
:1058E0000220704701207047012070470220704756
:1058F00008B50168CB6823F04003CB60202380F813
:10590000393002F06DFE002008BD08B590F83A303D
:10591000DBB2222B45D18368B3F5805F0ED00369DB
:1059200003BB03685A68836A591C81621A70C38D6D
:10593000013B9BB2C385F3B1002033E0826A036967
:1059400043B903685B68C3F308031380836A0233B7
:105950008362ECE703685B68DBB21380836A013320
:105960008362E4E703685B68826A511C816203F02A
:105970007F031370DBE70268D36823F02003D36052
:105980000268D36823F48073D3600268536923F0FC
:1059900001035361202380F83A3002F049FE0020D1
:1059A00000E0022008BD000010B50446026813683C
:1059B000D168526913F00F0005D113F0200F02D007
:1059C00011F0200F56D100286AD012F0010202D146
:1059D00011F4907F64D013F0010F06D011F4807F92
:1059E00003D0E06B40F00100E06313F0040F04D03B
:1059F0001AB1E06B40F00200E06313F0020F04D034
:105A00001AB1E06B40F00400E06313F0080F07D018
:105A100011F0200F00D11AB1E26B42F00802E263EC
:105A2000E26B002A48D013F0200F02D011F0200FB3
:105A300024D123685B6903F04003E26B12F0080F86
:105A400000D13BB32046FFF7EDFC23685A6912F002
:105A5000400F1BD05A6922F040025A61636B8BB130
:105A60001A4A1A65606BFCF723FB28B3606B036D61
:105A7000984721E02046FFF748FF1DE02046FFF74A
:105A800044FFD6E7204602F0FDFD15E0204602F077
:105A9000F9FD11E0204602F0F5FD0023E3630BE081
:105AA00013F0800F02D011F0800F06D113F0400FD9
:105AB00002D011F0400F04D110BD2046FFF7C0FC0A
:105AC000FAE72046FFF714FFF6E700BFD15A0008B7
:105AD00008B5806B0023C385C38402F0D3FD08BDE5
