:020000040800F2
:10000000000002208D660008F95C0008FB5C000817
:10001000FD5C0008FF5C0008015D000800000000B6
:10002000000000000000000000000000035D000868
:10003000055D000800000000075D0008095D00087C
:10004000DD660008DD660008DD660008DD66000884
:10005000DD660008DD660008DD660008DD66000874
:10006000DD660008DD660008DD660008DD66000864
:10007000DD660008DD660008DD660008DD66000854
:10008000DD660008DD660008DD660008DD66000844
:10009000DD660008DD660008DD660008DD66000834
:1000A000DD660008DD660008DD660008DD66000824
:1000B000DD660008DD660008DD660008DD66000814
:1000C000DD660008115D0008215D0008DD6600089E
:1000D000DD660008DD660008DD660008DD660008F4
:1000E000DD660008DD660008DD660008DD660008E4
:1000F000DD660008DD660008DD660008DD660008D4
:10010000DD660008DD660008DD660008DD660008C3
:10011000DD660008DD660008315D0008DD66000868
:10012000DD660008DD660008DD660008DD660008A3
:10013000DD6600080000000000000000DD66000829
:10014000DD660008DD660008DD660008415D000828
:10015000DD660008DD660008DD660008DD66000873
:10016000DD660008DD660008DD660008DD66000863
:10017000DD660008DD6600080000000000000000E9
:08018000DD660008DD660008E1
:1001900010B5054C237833B9044B13B10448AFF3C1
:1001A00000800123237010BDE40100200000000046
:1001B000F475000808B5034B1BB103490348AFF3BE
:1001C000008008BD00000000E8010020F475000870
:1001D00053B94AB9002908BF00281CBF4FF0FF31AE
:1001E0004FF0FF3000F072B9ADF1080C6DE904CEAC
:1001F00000F006F8DDF804E0DDE9022304B0704702
:100200002DE9F047089E04468846002B4BD18A42D0
:10021000154667D9B2FA82F24AB1C2F1200701FA53
:1002200002F320FA07F7954047EA030894404FEAA3
:10023000154E230CB8FBFEF71FFA85FC0EFB178842
:1002400043EA084307FB0CF1994209D9EB1807F17F
:10025000FF3080F01B81994240F21881023F2B440D
:100260005B1AA4B2B3FBFEF00EFB103344EA034466
:1002700000FB0CFCA44509D92C1900F1FF3380F0D8
:100280000781A44540F2048102382C4440EA07402B
:10029000A4EB0C0400271EB1D4400023C6E90043A0
:1002A0003946BDE8F0878B4209D9002E00F0EB807B
:1002B0000027C6E9000138463946BDE8F087B3FAA1
:1002C00083F7002F47D18B4202D3824200F2FA809B
:1002D000841A61EB030301209846002EE0D0C6E9A2
:1002E0000048DDE702B9FFDEB2FA82F2002A40F0F0
:1002F0008F80491B4FEA154E1FFA85F80127B1FB85
:10030000FEFC230C0EFB1C1143EA014308FB0CF11D
:10031000994207D9EB180CF1FF3002D2994200F252
:10032000CD808446591AA3B2B1FBFEF00EFB101427
:1003300043EA044408FB00F8A04507D92C1900F152
:10034000FF3302D2A04500F2B6801846A4EB0804A1
:1003500040EA0C409FE7C7F1200CBB4022FA0CFE9C
:100360004EEA030E01FA07F420FA0CF521FA0CF319
:100370004FEA1E482543B3FBF8F92C0C08FB193350
:100380001FFA8EFA44EA034309FB0AF49C4202FA7C
:1003900007F200FA07F10BD91EEB030309F1FF3056
:1003A00080F087809C4240F28480A9F10209734466
:1003B0001B1BADB2B3FBF8F008FB103345EA034456
:1003C00000FB0AFAA24508D91EEB040400F1FF3332
:1003D0006BD2A24569D90238744440EA0940A0FBB7
:1003E0000289A4EB0A044C45C2464B4654D351D073
:1003F000002E69D0B1EB0A0564EB030404FA0CFC8F
:10040000FD40FC404CEA0505C6E90054002747E7DB
:10041000C2F1200320FA03F7954001FA02F021FA15
:1004200003F34FEA154E3843010CB3FBFEF71FFAF6
:1004300085F80EFB173341EA034107FB08F38B42B3
:1004400004FA02F407D9691807F1FF3C2FD28B4256
:100450002DD9023F2944CB1A81B2B3FBFEF00EFB2B
:10046000103341EA034100FB08F38B4207D96918B6
:1004700000F1FF3C17D28B4215D902382944C91A22
:1004800040EA07473BE73746304609E70746E7E6D5
:100490001846FBE64145ABD2B8EB020A69EB0E0207
:1004A00001381346A4E76046E9E7184695E7674632
:1004B000D1E781467CE702382C4447E7ACF1020CD7
:1004C0002B442FE7384608E73746E9E6704700BF78
:1004D00001F0FF01102A2BDB10F0070F08D010F8F5
:1004E000013B013A8B422DD010F0070F42B3F6D1F9
:1004F000F0B441EA012141EA014122F007047FF012
:1005000000070023F0E80256083C85EA010586EA68
:10051000010685FA47F5A3FA87F586FA47F6A5FAA4
:1005200087F68EB9EED1F0BC01F0FF0102F00702B0
:1005300032B110F8013B013A83EA010313B1F8D15B
:100540000020704701387047002D06BF354603383C
:10055000073815F0010F07D1013015F4807F02BF75
:10056000013015F4C03F0130F0BC0138704700BFC6
:1005700010B504460E4B18784FF47A73B3FBF0F3C2
:100580000C4A1068B0FBF3F000F0EEF868B90F2CDD
:1005900001D901200AE0002221464FF0FF3000F08F
:1005A00069F8034B5C60002000E0012010BD00BF33
:1005B000000000201801002008B50B4B1A6842F417
:1005C00000721A601A6842F480621A601A6842F473
:1005D00080721A60032000F02FF80020FFF7C8FF98
:1005E00005F0F0F9002008BD003C0240034A116804
:1005F000034B1B780B441360704700BF540200206C
:1006000000000020014B1868704700BF5402002012
:1006100038B50446FFF7F6FF0546B4F1FF3F02D0B8
:10062000044B1B781C44FFF7EDFF401BA042FAD39C
:1006300038BD00BF0000002010B50446C31E042BC7
:100640000FD80A4AD36823F4E0631B041B0C24026E
:1006500004F4E064234343F0BF6343F40033D36006
:1006600010BD9221024805F0A3F9EAE700ED00E091
:100670002476000870B505460C4616460F2A25D884
:100680000F2C28D81B4BDB68C3F30223C3F10702EE
:10069000042A28BF0422191D062921D9033B4FF043
:1006A000FF3101FA02F224EA02049C4001FA03F34A
:1006B00026EA03063443002D14DB2401E4B205F1DD
:1006C000604505F5614585F8004370BDAA210A48DB
:1006D00005F06EF9D4E7AB21074805F069F9D1E7D9
:1006E0000023DCE705F00F052401E4B2034B5C5561
:1006F000EBE700BF00ED00E02476000814ED00E019
:1007000010B5041E0ADB002C07DB04F01F0264098D
:1007100001239340044A42F8243010BDBE2103480F
:1007200005F046F9EFE700BF00E100E0247600089D
:1007300010B5041E0FDB002C0CDB04F01F02640953
:10074000012393402034064A42F82430BFF34F8FF0
:10075000BFF36F8F10BDCE21024805F029F9EAE7FB
:1007600000E100E0247600080138B0F1807F0AD271
:10077000064B5860064AF02182F82310002098604A
:1007800007221A6070470120704700BF10E000E0A8
:1007900000ED00E090F83530DBB2022B03D080236F
:1007A000436501207047052380F8353002681368DF
:1007B00023F0010313600020704790F83500704764
:1007C0002DE9F04383B080460E46B34B984223D0C8
:1007D00003F5806398421FD003F5806398421BD0D5
:1007E00003F58063984217D003F58063984213D0D5
:1007F00003F5806398420FD003F5806398420BD0D5
:1008000003F58063984207D003F58063984203D0D4
:10081000B321A24805F0CCF833689AB212B11B0C90
:100820001B041BB1B4219D4805F0C2F87368012B6D
:100830001ED9112B1CD0022B1AD0122B18D0984A7B
:10084000934215D002F58012934211D002F5801226
:1008500093420DD0A2F5F812934209D002F580120E
:10086000934205D002F58012934201D0032B04D1AC
:10087000B368022B06D800244AE0B521874805F06A
:1008800097F8F5E7B621854805F092F8F3E7C82117
:10089000824805F08DF84FE0E021804805F088F8A7
:1008A00090E0072300E000238B40034302327D49A0
:1008B00041F822307C4B1A68FB4303EA020170685E
:1008C00010F4803F01D047EA0201774A1160526874
:1008D00003EA0201706810F4003F01D047EA020108
:1008E000714A5160926803EA0201706810F4801F37
:1008F00001D047EA02016C4A9160D26813407168E6
:1009000011F4001F01D047EA0203674AD3600134A3
:100910000F2C00F2BD800125A54037682F40BD4255
:10092000F5D173685A1E012A03D9112B01D0122B5D
:1009300019D1F368032BAAD8D8F808206100032343
:100940008B4022EA0302F3688B401343C8F8083057
:10095000D8F8042022EA05027368C3F30015A54005
:100960001543C8F80450D8F80C204FEA4409032571
:1009700005FA09F5ED432A40B36803FA09F3134376
:10098000C8F80C307368022B01D0122B2AD13369BE
:10099000C3B1092B16D0012B14D0022B12D0032B7C
:1009A00010D0042B0ED0052B0CD0062B0AD0072B11
:1009B00008D0082B06D00A2B04D00C2B02D00F2B0A
:1009C0007FF46AAFE208083258F8220004F0070307
:1009D00099000F238B4020EA030033698B400343C7
:1009E00048F82230D8F800301D40736803F0030344
:1009F00003FA09F31D43C8F80050736813F0805FD1
:100A000085D000230193294B5A6C42F480425A64EA
:100A10005B6C03F480430193019BA208911C214B62
:100A200053F8210004F0030399000F238B4020EAC0
:100A30000300194B98453FF436AF03F580639845A2
:100A40001AD003F58063984518D003F58063984564
:100A500016D003F58063984514D003F5806398455C
:100A600012D003F58063984510D003F58063984554
:100A70003FF417AF082317E7012315E7022313E715
:100A8000032311E704230FE705230DE706230BE7F4
:100A900003B0BDE8F08300BF0000024060760008AC
:100AA0000000111000380140003C014000380240B5
:100AB000F8B504460D46584B984224D003F58063A0
:100AC000984220D003F5806398421CD003F58063E0
:100AD000984218D003F58063984214D003F58063E0
:100AE000984210D003F5806398420CD003F58063E0
:100AF000984208D003F58063984204D04FF498716F
:100B0000464804F055FF002327E0072700E00027B0
:100B100007FA00F0B04265D020685E000321B140C2
:100B2000C94308402060D808083054F8206003F01A
:100B300007074FEA870C0F2707FA0CF726EA070684
:100B400044F82060E0680840E060606820EA020243
:100B50006260A2681140A16001330F2B5AD80122B4
:100B60009A4002EA05018A42F6D14FEA930E0EF14D
:100B700002062B4850F8266003F0030080004FF077
:100B80000F0C0CFA00FC0CEA0606234FBC42BED048
:100B900007F58067BC4219D007F58067BC4217D0C3
:100BA00007F58067BC4215D007F58067BC4213D0BB
:100BB00007F58067BC4211D007F58067BC420FD0B3
:100BC00007F58067BC42A0D00827A1E701279FE76F
:100BD00002279DE703279BE7042799E7052797E767
:100BE000062795E70F480668C9430E400660466829
:100BF0000E40466086680E408660C6683140C1601F
:100C0000074E0EF1020156F8210020EA0C0046F8CA
:100C1000210081E7F8BD00BF0000024060760008B7
:100C200000380140003C014038B505460C4621B172
:100C30002B691C4207D1002038BD4FF4BF71034817
:100C400004F0B6FEF4E70120F6E700BF6076000886
:100C500070B5064615460C4629B1012D09D875B95F
:100C60002404B46170BD40F29F11064804F0A0FE58
:100C7000F3E74FF4D071034804F09AFEEFE7B46154
:100C8000F0E700BF6076000838B505460C4629B18C
:100C90006B6934EA030307D0AC6138BD4FF4DB71F4
:100CA000034804F085FEF3E72404AC61F5E700BFD8
:100CB00060760008036D9BB9C36C012B08D0836C70
:100CC000C3F3072302681361036D013303657047A3
:100CD000836C0268DBB21361036D023303657047F6
:100CE000036D012B03D0036D022B08D07047836C7A
:100CF0000268DBB21361036D01330365704790F83E
:100D00003D30DBB2222B10D090F83D30DBB2212BEE
:100D1000ECD1426A036812781A61436A0133436274
:100D2000438D013B9BB24385E0E70268136843F4BF
:100D300080731360704790F83E30DBB2402B0AD0CE
:100D40000369B3F5804F15D0036D002B34D0036DCC
:100D5000012B3BD07047036D2BB9436C026803F045
:100D6000FE0313617047436C026843F00103DBB27A
:100D70001361704790F83D30DBB2212B0FD0436CEC
:100D8000026843F00103DBB21361436B6BB1DB6BB1
:100D90005BB10268536843F4006353607047436C6F
:100DA000026803F0FE031361EFE7836B002BD1D0E1
:100DB000DB6B002BEDD1CDE7436CC3F3C8130268A6
:100DC00003F0060343F0F00313617047436CC3F371
:100DD000C813026803F0060343F0F1031361B9E797
:100DE000436C0268DBB21361436B3BB1DB6B4BB10D
:100DF0000268536843F4006353607047826B002AB3
:100E0000F4D1FAE7836BDB6B002BF1D1F5E710B47B
:100E10008BB090F83E30DAB2C16A046B90F83D3086
:100E2000DBB2222B0BD00023099303685A69099285
:100E30009B690993099B0BB05DF8044B7047036DE8
:100E40000BB9402A17D0036D1BB90369B3F5404FA6
:100E500019D0438D9BB2002B25D1029303685A69A8
:100E600002929A690292029A1A6842F400721A6017
:100E700000230365DFE7009303685A6900929B69CA
:100E80000093009BD7E70023019303685A690192FE
:100E90009A690192019A1A6842F480721A60036D8D
:100EA00001330365C7E7438D9BB2012B25D0438DEA
:100EB0009BB2022B7BD00268136843F480631360FB
:100EC00003685A6812F4006F0ED011F5803F07D006
:100ED000012905D0082903D0102901D0202903D1E8
:100EE0005A6842F480525A600023089303685A6992
:100EF00008929B690893089BBAE711F5803F11D0CF
:100F0000082934D0202932D0122C2ED0042940D0E8
:100F100002293ED010293CD00268136823F4806374
:100F200013603BE00268136823F480631360036876
:100F30005A6812F4006F0CD01A6822F480621A60AA
:100F40000023039303685A6903929B690393039BED
:100F50008EE7002204925A6904929A690492049AD4
:100F60001A6842F400721A6082E70129CED0026842
:100F7000136823F4806313600023069303685A699F
:100F800006929A690692069A1A6842F400721A60EA
:100F90006EE70268136843F48063136000230593CF
:100FA00003685A6905929B690593059B60E70429CC
:100FB0000ED002290CD010290AD00268136823F43D
:100FC000806313600268136843F40063136004E0F5
:100FD0000268136843F48063136003685A6812F46C
:100FE000006F0ED011F5803F07D0012905D00829E8
:100FF00003D0102901D0202903D15A6842F480522D
:101000005A600023079303685A6907929B69079304
:10101000079B2DE7438D9BB253B1426A0368127858
:101020001A61436A01334362438D013B9BB243859E
:101030007047438D9BB253B103681A69436A1A70B3
:10104000436A01334362438D013B9BB24385704742
:10105000C36AB3F52A0F04D0C36AB3F12A4F03D091
:1010600070470123C36270470823C362F8E700009A
:10107000002800F03B81F8B5044603689D4A93427E
:101080000CD002F58062934208D002F58062934250
:1010900004D040F2BD11984804F08AFC6368013B1B
:1010A000964A934200F2A580A3681BB1B3F5804F26
:1010B00040F0A580E36823F47F7323F00303002B43
:1010C00040F0A3802369B3F5804F03D0B3F5404FC0
:1010D00040F0A1806369012B00F2A380A36933F083
:1010E000FE0340F0A480E36913B1402B40F0A580DB
:1010F000236A13B1802B40F0A68094F83D30002B7A
:1011000000F0A780242384F83D302268136823F080
:10111000010313602268136843F4004313602268DC
:10112000136823F40043136002F016F96268744BED
:101130009A4200F29480734B98428CBF00230123A3
:10114000002B40F0D580704BA3FB00239B0C216843
:101150004A6822F03F021A434A6025682A6A22F050
:101160003F02666866498E427FD8013313432B6283
:101170002568E96921F44F4121F0FF016368604A65
:1011800093427CD801385B00B0FBF3F30133C3F327
:101190000B03042B38BF04230B43EB6121680B685E
:1011A00023F0C003E269206A024313430B60216805
:1011B0008B6823F4034323F0FF032269E0680243B2
:1011C00013438B602168CB6823F0FF036269A06939
:1011D00002431343CB602268136843F0010313609A
:1011E00000202064202384F83D30206384F83E00F2
:1011F000F8BD4FF4DF71404804F0DAFB54E740F2E9
:10120000BF113D4804F0D4FB54E74FF4E0713A4875
:1012100004F0CEFB56E740F2C111374804F0C8FB9A
:1012200058E74FF4E171344804F0C2FB56E740F24E
:10123000C311314804F0BCFB55E74FF4E2712E486E
:1012400004F0B6FB54E740F2C5112B4804F0B0FBA4
:1012500053E784F83C30204604F0D0FB52E72B4B98
:1012600098428CBF002301236AE74FF4967101FB7B
:1012700003F32749A1FB03139B09013376E7A26817
:10128000BAB9461E03EB4307B6FBF7F60136C6F3C1
:101290000B06B6FA86F6760936BBC2B9013803EBFF
:1012A0004303B0FBF3F30133C3F30B0242F40043F7
:1012B00072E7461E03EB830707EB8707B6FBF7F6DB
:1012C0000136C6F30B06B6FA86F67609E4E701386E
:1012D00003EB830303EB8303B0FBF3F20132C2F3AE
:1012E0000B0242F4404357E7012355E701207047C2
:1012F00001207DE7005400409C7600087F1A06001C
:10130000A08601007F841E0083DE1B43FF083D0092
:10131000D34D621038B310B504460368134A9342A4
:101320000CD002F58062934208D002F580629342AD
:1013300004D040F22D210E4804F03AFB242384F817
:101340003D302268136823F001031360204604F047
:101350009FFB0020206484F83D00206384F83E0059
:1013600084F83C0010BD0120704700BF00540040CD
:101370009C760008F0B583B004460E4617461D461D
:10138000013B012B0DD9042D0BD0082D09D0202DA8
:1013900007D0102D05D0B5F52A0F02D0B5F12A4F90
:1013A00039D194F83D3003F02803282B39D1002E91
:1013B0003AD0002F3AD094F83C30012B38D001239A
:1013C00084F83C3023681A6812F0010F03D11A68C0
:1013D00042F001021A602268136823F4006313606C
:1013E000292384F83D30202384F83E3000202064F7
:1013F00066626785638D2385E562019023685A697B
:1014000001929A690192019A84F83C005A6842F468
:10141000E0625A6006E040F6A171064804F0C8FA9E
:10142000BFE7022003B0F0BD0120FBE70120F9E790
:101430000220F7E79C760008F0B583B004460E461C
:1014400017461D46013B012B0DD9042D0BD0082D4D
:1014500009D0202D07D0102D05D0B5F52A0F02D0C8
:10146000B5F12A4F39D194F83D3003F02803282BE9
:1014700039D1002E3AD0002F3AD094F83C30012BCD
:1014800038D0012384F83C3023681A6812F0010F29
:1014900003D11A6842F001021A602268136823F42B
:1014A000006313602A2384F83D30202384F83E3003
:1014B0000020206466626785638D2385E562019064
:1014C00023685A6901929A690192019A84F83C0052
:1014D0005A6842F4E0625A6006E04FF484510648CC
:1014E00004F066FABFE7022003B0F0BD0120FBE77D
:1014F0000120F9E70220F7E79C76000890F83D30DC
:10150000DBB2202B17D1282380F83D3003681A68FE
:1015100012F0010F03D11A6842F001021A6002684A
:10152000136843F4806313600268536843F44073A4
:10153000536000207047022070477047704708B51D
:1015400090F83D30DAB2438D9BB27BB1416A0368BB
:1015500009781961436A01334362438D013B9BB2B1
:101560004385438D9BB20BB9292A00D008BD026880
:10157000536823F48063536021230363282380F896
:101580003D3004F065FFF1E708B590F83D30DAB280
:10159000438D9BB27BB103681969436A1970436A32
:1015A00001334362438D013B9BB24385438D9BB224
:1015B0000BB92A2A00D008BD0268536823F480635F
:1015C000536022230363282380F83D3004F02AFF70
:1015D000F1E708B590F83D3003F02803282B07D039
:1015E00003686FF002025A61002380F83C3008BDA6
:1015F0000268536823F48063536011F0040F0BD02A
:10160000002311F0800F09D18289002180F83C105D
:10161000194604F0D7FFEAE70123F2E7028BF4E76B
:101620007047000008B590F83D30DBB2C26A082A66
:1016300001D0202A01D1282B06D0212B1ED00368EF
:101640006FF480625A6108BD1A4BC3620268536826
:1016500023F4E063536003686FF480625A610268A8
:10166000136823F48063136000230363202280F84F
:101670003D2080F83E30FFF7D3FFE4E70D4BC36217
:1016800021230363202380F83D30002380F83E307F
:101690000268536823F4E063536003686FF4806268
:1016A0005A610268136823F48063136004F0D0FE6B
:1016B000C9E700BF0000FFFF704710B590F83D304C
:1016C000DBB290F83E20D2B2C46A018D09B9212B59
:1016D00004D0212B3BD0402A37D010BD082C04D099
:1016E000202C02D014F5803F19D10268536823F4EE
:1016F000E06353600268136843F4007313600023CF
:101700000363202380F83D3090F83E30DBB2402B5D
:1017100015D0002380F83E30FFF70FFFDDE70268A9
:10172000536823F4E063536011230363002380F8BC
:101730003E30202380F83D30FFF7FFFECDE7002349
:1017400080F83E30FFF7B8FFC7E7222BC5D1438DA5
:101750009BB283B190F83E30DBB2402B11D0426A8D
:10176000036812781A61436A01334362438D013B77
:101770009BB24385B1E70268536823F480635360EA
:10178000ABE7FFF797FAA8E708B5C26A90F83D30D3
:10179000DBB2212B05D090F83E30DBB2402B46D097
:1017A00008BD438D9BB203BB082A04D0202A02D077
:1017B00012F5803F25D10268536823F4E06353603B
:1017C0000268136843F4007313600023036320234B
:1017D00080F83D3090F83E30DBB2402B21D0002322
:1017E00080F83E30FFF7A9FEDAE7426A0368127814
:1017F0001A61436A01334362438D013B9BB24385C7
:10180000CEE70268536823F4E06353601123036357
:10181000002380F83E30202380F83D30FFF78DFE16
:10182000BEE7002380F83E30FFF746FFB8E7FFF73A
:1018300041FAB5E7704708B590F83D30DBB2222B8E
:1018400000D008BD438D9BB2032B14D903681A69DD
:10185000436A1A70436A01334362438D013B9BB272
:101860004385438D9BB2032BEBD10268536823F46D
:1018700080635360E5E7C26A022AE2D0012BE0D818
:101880000268136823F4806313600268536823F4CA
:10189000E063536003681A69436A1A70436A01334C
:1018A0004362438D013B9BB24385202380F83D304A
:1018B00090F83E30DBB2402B07D0002380F83E305A
:1018C00012230363FFF73AFEBBE7002380F83E30A4
:1018D0000363FFF7AFFFB4E708B5C26A438D9BB25D
:1018E000042B13D0438D9BB2032B20D0438D9BB28E
:1018F000022B36D003681A69436A1A70436A0133AF
:101900004362438D013B9BB243850FE002685368FD
:1019100023F48063536003681A69436A1A70436A48
:1019200001334362438D013B9BB2438508BD01688F
:101930004B6823F480634B60042A06D0022A04D04B
:101940000268136823F48063136003681A69436AAA
:101950001A70436A01334362438D013B9BB2438556
:10196000E4E7012A0BD0102A09D0042A36D0022A33
:1019700034D00268136843F40073136004E0026813
:10198000136823F48063136003681A69436A1A704A
:10199000426A531C4362438D013B9BB243850368FB
:1019A0001B695370436A01334362438D013B9BB211
:1019B00043850268536823F440735360202380F802
:1019C0003D3090F83E30DBB2402B0DD0002380F844
:1019D0003E3012230363FFF7B1FDA7E702681368E7
:1019E00043F480631360CFE7002380F83E30036345
:1019F000FFF720FF9AE708B5806B90F83D30DBB227
:101A0000426B0AB10021D163826B0AB10021D1631C
:101A100001680A6822F480620A6000224285426BF3
:101A20000AB100211165826B0AB1002111650168BC
:101A30000A6822F001020A6090F83D20D2B2602AC2
:101A40000CD003F02803282B12D0202380F83D303F
:101A5000002380F83E3004F07DFD08BD202380F88F
:101A60003D30002380F83E30036404F0E7FBF4E7E8
:101A70000268136843F0010313600268136843F4BB
:101A80008063136000230363282380F83D30E2E77E
:101A900010B5044690F83D30DBB290F83E20D2B24B
:101AA000102A33D003F02802282A37D0226852683F
:101AB00012F4006F04D1602B02D0202384F83D3053
:101AC0000023236384F83E3023685A6812F4006FC1
:101AD00048D05A6822F400625A60626B92F835303E
:101AE000DBB2012B20D0444B1365606BFEF752FE36
:101AF000002849D02268136823F0010313602023D3
:101B000084F83D30606B036D98473DE0222BC9D1CE
:101B100001680A6822F400620A60C3E700232363B5
:101B2000282384F83D30CFE7A36B334A1A65A06BB6
:101B3000FEF730FE40B323685A6912F0400F05D01B
:101B40001A69636A1A70636A0133636222681368F0
:101B500023F001031360202384F83D30A06B036D54
:101B6000984711E094F83D20D2B2602A1FD05A69FC
:101B700012F0400F05D01A69636A1A70636A013364
:101B80006362204604F0E6FC236C13F00F0F04D0D0
:101B90002268536823F4E063536094F83D30DBB26D
:101BA000226C12F0040F01D0282B18D010BD202277
:101BB00084F83D20002222645A6912F0400F05D0BB
:101BC0001A69636A1A70636A013363622268136870
:101BD00023F001031360204604F030FBD4E7074BE9
:101BE000E36200232363202284F83D2084F83E3002
:101BF0002046FFF715FDD9E7F71900080000FFFFA1
:101C000030B583B0044690F83D50EDB20268536899
:101C100023F4E06353600023019303685A6901923F
:101C20001A6842F001021A60019B0268136823F4EB
:101C30008063136003685A6812F4006F38D0222D55
:101C400021D02A2D1FD0426B1268526892B2428571
:101C5000428D92B21AB1026C42F0040202645A68D8
:101C600022F400625A60606BFEF7A7FD01281FD0C6
:101C7000636B434A1A65606BFEF78CFDC0B1606B05
:101C8000036D984714E0A26B1268526892B26285A5
:101C9000628D92B21AB1226C42F0040222645A6838
:101CA00022F400625A60A06BFEF787FD012840D144
:101CB000638D9BB223B323685A6912F0040F09D0D5
:101CC0001A69636A1A70636A01336362638D013B48
:101CD0009BB2638523685A6912F0400F09D01A69D4
:101CE000636A1A70636A01336362638D013B9BB25E
:101CF0006385638D9BB21BB1236C43F004032364A3
:101D0000236C13BB2A2D25D094F83D30DBB2282B51
:101D100029D0236B222B01D0222D19D1002323633C
:101D2000202284F83D2084F83E30204604F07AFBDF
:101D30000EE0A36B124A1A65A06BFEF72BFD00287C
:101D4000B6D0A06B036D9847B2E72046FFF7A0FE20
:101D500003B030BD00232363282384F83D302046A0
:101D600004F060FBD0E7074BE362002323632022EB
:101D700084F83D2084F83E302046FFF751FCE7E729
:101D8000F71900080000FFFF70B5044602685568A7
:101D9000C66A90F83E30DBB290F83D10102B14D09C
:101DA000C8B2402B11D0236C002B71D05369002195
:101DB00013F0020F6FD015F4007F6CD0236C03B1C9
:101DC00091692046FFF705FC70BD9069536913F0D7
:101DD000010105D1B6F52A0FF6D0B6F12A4FF3D09E
:101DE00011B115F4007F25D113F0080F02D015F4BE
:101DF000007F26D113F0020F02D015F4007F24D10A
:101E000010F0040F29D0526812F4006FDCD113F0E7
:101E1000800F05D015F4806F02D013F0040F18D096
:101E200013F0040FD0D015F4007FCDD02046FFF77B
:101E3000ABFCC9E72046FFF70BF92046FEF77BFF16
:101E4000C2E72046FEF7CCFFBEE72046FEF7DFFFE5
:101E5000BAE72046FFF731FCB6E7526812F4006F8C
:101E6000B2D113F0400F05D015F4806F02D013F0FB
:101E7000040F09D013F0040FA6D015F4007FA3D0EF
:101E80002046FFF729FD9FE72046FFF7D4FC9BE79C
:101E9000916953698CE713F0100F02D015F4007F9D
:101EA00017D1212819D0292817D013F0400F05D0B9
:101EB00015F4806F02D013F0040F27D013F0040F35
:101EC00082D015F4007F3FF47FAF2046FFF7B1F8D2
:101ED0007AE72046FFF794FE76E713F0800F05D0EF
:101EE00015F4806F02D013F0040F0BD013F0040F21
:101EF0003FF46AAF15F4007F3FF466AF2046FFF76A
:101F000089F861E72046FFF71AFB5DE72046FFF7F7
:101F10003BFB59E7F8B5044603685D695F6890F8D4
:101F20003E20D2B215F4807F07D017F4807F3CD0DA
:101F30006FF480715961012600E0002615F4007FDE
:101F400008D017F4807F05D046F0020623686FF4AE
:101F50000071596115F4806F19D017F4807F16D085
:101F6000638D99B294F83D30DBB2206B202A1ED0ED
:101F700023686FF48061596146F00406102A01D08D
:101F8000402A04D12268136843F40073136015F4E7
:101F9000006F08D017F4807F05D046F0080623684C
:101FA0006FF400625A6186B9F8BD0026C6E70029C1
:101FB000DED1212B05D0292B03D0282BD8D12128E5
:101FC000D6D12046FFF72EFBE1E7236C1E432664A3
:101FD0002046FFF75DFDE7E790F83D00704790F879
:101FE0003E007047006C704703684AF6AA221A60E8
:101FF000002070472DE9F04782B00768CA00521AE6
:10200000930003445A6D1B6D9A4257D8B8469B1AE9
:10201000C1EBC104A2000244526C9A4200D31A469A
:102020000C46064602F1030A4FEA9A0A16E009F145
:10203000030A4FEA9A0AE3001B1B9D003544A96C72
:10204000337C00931FFA89F3E2B2384602F0FAF9C2
:10205000AB6C4B44AB646B6D4B446B6508EB44134A
:1020600003F510639B699BB2534513D3E3001B1B1D
:102070009A003244516D136D99420BD253B15B1AE1
:10208000C4EBC4018A003244D2F844909945CED3BF
:102090009946CCE7E3001B1B98000644326D736D34
:1020A0009A420FD804F00F040121A140D7F8344818
:1020B00024EA0104C7F83448002000E0012002B0FF
:1020C000BDE8F0870020FAE7F0B58BB0002800F0FB
:1020D000968004460368B3F1A04F06D0494A934264
:1020E00003D08721484803F063FC256894F8BD338A
:1020F00023B3032384F8BD33EB6B13F4807F01D14A
:1021000000232361206801F04FFF254655F8107B1E
:102110006E460FCD0FC60FCD0FC695E8030086E8BB
:102120000300231D0ECB384601F07CFE60B1022374
:1021300084F8BD33012528460BB0F0BD84F8BC33CC
:10214000204603F09BFED4E70021206801F032FF17
:10215000002315E0D900C81A82002244012082F829
:102160003D0082F83C30A2F84230002082F83F0067
:1021700050649064CA1A9100214408650133DBB2AF
:102180006568AB42E6D3002315E0D800C11A8A0087
:102190002244002182F8FD1182F8FC3182F8FF11FF
:1021A000C2F80412C2F80812C21A90002044C0F803
:1021B00010120133DBB29D42E7D8254655F8107B5B
:1021C0006E460FCD0FC60FCD0FC695E8030086E80B
:1021D0000300231D0ECB384601F032FF054620B127
:1021E000022384F8BD330125A5E7002384F83830A5
:1021F000012384F8BD33206802F0D1FA9BE7012562
:1022000099E700BF00000440D4760008026890F807
:10221000BC33012B19D010B5012380F8BC33836A7D
:10222000012B0AD00446006802F0ADFA206801F0E4
:10223000B5FE002084F8BC0310BD8369012BF1D0EA
:10224000936B43F480339363ECE702207047000004
:1022500070B505460E460368196C03EB461303F58B
:102260003064A3680269012A0FD0354A914261D1D6
:1022700013F4004F5AD113F0200F01D02023A36094
:10228000F1B2284603F040FE57E013F0080F14D0D7
:102290002C4A914205D913F4004F02D04FF4004369
:1022A000A360284603F028FE05F571720121286815
:1022B00002F0D2FA0823A3603FE013F0200F2ED1E2
:1022C00013F0280F39D11F4A914202D913F4004F5D
:1022D00028D1F200921B93002B44D3F804222169E9
:1022E000C1F31201521AC3F81422D3F80412D3F81E
:1022F00008220A44C3F80822F1B2284603F004FE7B
:10230000DEB9C6EBC606B3002B44D3F81032A3B92E
:1023100005F571720121286802F09EFA0DE0202374
:10232000A3600AE04FF40043A36006E04FF40043CB
:10233000A36002E0F1B203F0E7FD002070BD00BF32
:102340000A31544F0A30544F38B5044603681D6CA7
:1023500003EB411101F530618A680369012B0DD04F
:10236000124B9D4214D0204603F0C6FD104B9D42F7
:1023700002D92369012B12D0002038BD0C4B9D429D
:10238000F1D912F4004FEED04FF400438B60EAE72E
:1023900012F4004FE7D04FF400438B60E3E704F5FD
:1023A00071720121206802F057FAE5E70A31544FB3
:1023B0000A30544F2DE9F84F04460568284602F0CC
:1023C0002BFA08B1BDE8F88F2F460646206802F0C8
:1023D000F2F90028F6D0206802F0EDF910F0020FB3
:1023E00004D02268536903F002035361206802F0AD
:1023F000E2F910F4002F74D1206802F0DCF910F437
:10240000802F40F0C280206802F0D5F90028C0F289
:102410003481206802F0CFF910F4006F0AD0D5F8AB
:10242000083813F0010F40F042812268536903F429
:1024300000635361206802F0BEF910F4805F40F041
:102440003A81206802F0B7F910F4005F40F08D8106
:10245000206802F0B0F910F0100F14D022689369D0
:1024600023F0100393612E6A06F00F07C6F343436F
:10247000022B00F09281062B00F0B0812268936954
:1024800043F010039361206802F095F910F0080FF3
:1024900040F0B681206802F08EF910F4801F40F001
:1024A000B881206802F087F910F4001F40F0BB816A
:1024B000206802F080F910F0804F40F0BE81206863
:1024C00002F079F910F0040F3FF47CAF23685D68E7
:1024D00015F0040F40F0BA81226853682B43536013
:1024E00070E7206802F06BF98046B14625E007EB03
:1024F00049130122C3F8082B49462046FFF7A8FEDE
:102500002BE049462046FFF71FFF07EB491308223F
:10251000C3F8082B24E007EB49132022C3F8082B4B
:102520001AF4005F05D007EB49134FF40052C3F8CB
:10253000082B09F101094FEA5808B8F1000F3FF4E0
:102540005BAF18F0010FF4D05FFA89F1206802F058
:1025500046F9824610F0010FC9D11AF0080FD0D108
:102560001AF0100F04D007EB49131022C3F8082B00
:102570001AF0200FD4D02369012BCCD104F571724D
:102580000121206802F068F9C5E7206802F01FF910
:102590008046B14631E04FEAC902A2EB090293003E
:1025A0002344596C9A6C0A449A6449E01AF0080F63
:1025B00004D007EB49130822C3F808291AF0100FBA
:1025C00004D007EB49131022C3F808291AF0400F72
:1025D00004D007EB49134022C3F808291AF0020F70
:1025E00004D007EB49130222C3F808291AF0800F20
:1025F0003ED109F101094FEA5808B8F1000F3FF444
:1026000002AF18F0010FF4D05FFA89FB5946206839
:1026100002F0EEF8824610F0010FC7D009F00F0368
:10262000012101FA03F2D7F8343823EA0203C7F88C
:10263000343807EB4913C3F8081923698B42AAD031
:102640005946204603F06CFC2369012BAED1B9F149
:10265000000FABD1C9EBC902930023441B6D002BC3
:10266000A4D104F571720121206802F0F5F89DE70C
:1026700049462046FFF7BEFCBBE7D5F8043823F0F7
:102680000103C5F8043894F8F433012B08D0204630
:1026900003F086FC2268536903F000435361B8E6F7
:1026A000002184F8F413204600F061FAF2E7204696
:1026B00003F05EFCB9E605F50068D8F8043023F0B5
:1026C0000103C8F804301021206801F08BFC14E0ED
:1026D00007EB46134FF67F31C3F80819D3F80029EA
:1026E00022F40012C3F80029C3F8081BD3F8002B0A
:1026F00022F40012C3F8002B01366368B342E7D816
:10270000D8F81C3043F00113C8F81C30236BEBB130
:10271000D8F8843043F00B03C8F88430D8F844303C
:1027200043F00B03C8F84430D5F8003823F4FE63B7
:10273000C5F8003804F57172217C206802F08CF82D
:102740002268536903F4805353617AE6D8F8143051
:1027500043F4005343F02B03C8F81430D8F810307A
:1027600043F00B03C8F81030DEE7206802F058F899
:10277000206801F035FDE060266800F0E7FD227B6F
:102780000146304601F094FB204603F0DAFB226854
:10279000536903F4005353615AE647F6F0731E423F
:1027A0003FF46CAE4FEAC709A9EB07034FEA830871
:1027B000A0443609C6F30A02D8F80812284601F0E8
:1027C00063FFC6F30A06D8F808323344C8F8083263
:1027D000D8F814321E44C8F814624FE6082204F5F3
:1027E0007171284601F050FFC6F30A16FB00D91B91
:1027F0008A002244D2F814321E44C2F814623DE624
:10280000204603F098FB2268536903F008035361E4
:1028100040E60021204603F0CFFB2268536903F411
:10282000801353613DE60021204603F0BFFB226880
:10283000536903F4001353613AE6204603F0C2FBE8
:102840002268536903F08043536138E6204603F061
:10285000BFFB41E690F8BC33012B0DD010B5044608
:10286000012380F8BC3380F83810006801F07BFF4A
:10287000002084F8BC0310BD02207047F8B511F0A9
:10288000800F28D101F00F06F500AF1BBC002746D2
:1028900004F5FC74044404343E460644002586F8DE
:1028A000FD5101F00F012170A260E370627802B166
:1028B000E180022B1ED090F8BC33012B1DD00546C1
:1028C000012380F8BC332146006801F09AFC002007
:1028D00085F8BC03F8BD01F00F06F500AF1BBC0086
:1028E00027463834044404343E460644012586F81D
:1028F0003D50D6E700232371DDE70220EAE738B533
:1029000011F0800F21D101F00F05EA00541BA30044
:102910001C4603F5FC73034404332546054400229A
:1029200085F8FD2101F00F01197090F8BC23012AF0
:102930001AD00446012280F8BC231946006801F031
:10294000ABFC002084F8BC0338BD01F00F04E200AA
:10295000151BAB001D463833034404332C46044496
:10296000012284F83D20DDE70220EDE770B501F09B
:102970000F05EE00711B8C0004F5FC740444211D4E
:10298000761BB4000444C4F80822C4F810320023B3
:10299000C4F8143284F8FD3184F8FC510369012B2A
:1029A00006D065B1DAB2006801F060FD002070BDAC
:1029B000C5EBC506B4000444C4F80C22F1E7DAB252
:1029C000006801F0B1FCF1E701F00F01C1EBC101BA
:1029D0008B001844D0F81402704770B501F00F0551
:1029E000EE00711B8C0038340444211D761BB400AA
:1029F0000444A264236500236365012384F83D3009
:102A000084F83C500369012B06D05DB1DAB200684E
:102A100001F02CFD002070BDC5EBC506B4000444D8
:102A2000E264F2E7DAB2006801F07EFCF2E738B562
:102A300001F00F0543689D4236D811F0800F20D178
:102A4000CA00541AA3001C4603F5FC730344043364
:102A500022460244002182F8FD1101229A701D7065
:102A600090F8BC23012A21D00446012280F8BC231F
:102A70001946006801F01CFE7DB1002084F8BC03FB
:102A800013E0EA00511B8B0019463833034404332A
:102A90000144012281F83D20DFE704F57172217CB9
:102AA000206801F0D9FEE8E7012038BD0220FCE7EC
:102AB00010B501F00F0443689C422CD811F0800F30
:102AC0001DD1E3001A1B91000A4601F5FC71014477
:102AD00004310244002382F8FD3100238B700C7016
:102AE00090F8BC33012B18D00446012380F8BC3386
:102AF000006801F00AFE002084F8BC030CE0E3004B
:102B00001A1B91000A463831014404310244012362
:102B100082F83D30E1E7012010BD0220FCE730B42F
:102B20000468606A29B10D46A36A00EB13400023D4
:102B30000CE040EA0240A06212E003F1400104EB25
:102B40008101496800EB11400133DBB2691E8B4201
:102B5000F3D340EA024005F13F0104EB81014860F4
:102B6000002030BC704703685962002070477047EE
:102B7000002800F0648270B582B0044603680F2B11
:102B800039D8236813F0010F4DD063682BB1B3F52A
:102B9000803F02D0B3F5A02F32D1A54B9B6803F044
:102BA0000C03042B36D0A24B9B6803F00C03082BBC
:102BB0002BD06368B3F5803F5FD0B3F5A02F62D010
:102BC0009B4B1A6822F480321A601A6822F4802221
:102BD0001A606368002B60D0FDF714FD0546944B26
:102BE0001B6813F4003F1ED1FDF70CFD401B642849
:102BF000F5D9032028E2E8218E4802F0D9FEC0E78B
:102C0000ED218C4802F0D4FEC7E7894B5B6813F4D2
:102C1000800FCED0864B1B6813F4003F03D063684F
:102C2000002B00F00E82236813F0020F67D0E368D8
:102C3000012B41D823691F2B44D87D4B9B6813F08F
:102C40000C0F4AD07A4B9B6803F00C03082B3FD043
:102C5000E368002B77D0784B01221A60FDF7D2FC95
:102C60000546734B1B6813F0020F63D1FDF7CAFCD6
:102C7000401B0228F5D90320E6E16D4A136843F4AE
:102C800080331360A5E76A4B1A6842F480221A6009
:102C90001A6842F480321A609BE7FDF7B3FC0546E0
:102CA000634B1B6813F4003FBDD0FDF7ABFC401B2A
:102CB0006428F5D90320C7E140F21F115D4802F0F6
:102CC00077FEB7E74FF490715A4802F071FEB4E70F
:102CD000574B5B6813F4800FBAD1554B1B6813F048
:102CE000020F04D0E368012B01D00120ACE1504A6F
:102CF000136823F0F803216943EAC10313602368D2
:102D000013F0080F49D06369012B2ED8636993B380
:102D10004A4B01221A60FDF775FC0546444B5B6F78
:102D200013F0020F39D1FDF76DFC401B0228F5D9D5
:102D3000032089E13E4A136823F0F803216943EA3E
:102D4000C1031360DBE73C4B00221A60FDF75AFC1D
:102D50000546374B1B6813F0020FD0D0FDF752FC2D
:102D6000401B0228F5D903206EE14FF4B0713148C1
:102D700002F01EFECAE7314B00221A60FDF742FC4A
:102D800005462B4B5B6F13F0020F06D0FDF73AFCA4
:102D9000401B0228F5D9032056E1236813F0040FE5
:102DA00000F08780A368012B01D9052B38D1204B77
:102DB0001B6C13F0805F39D1002301931C4B1A6CFC
:102DC00042F080521A641B6C03F080530193019B04
:102DD00001251B4B1B6813F4807F33D0A368012BA4
:102DE00044D0052B48D0124B1A6F22F001021A670B
:102DF0001A6F22F004021A67A368002B46D0FDF771
:102E000001FC06460A4B1B6F13F0020F4FD1FDF772
:102E1000F9FB801B41F288339842F3D9032013E178
:102E20004FF4C671034802F0C3FDC0E70025D0E7A8
:102E3000003802400C77000800004742800E4742ED
:102E400000700040834A136843F480731360FDF7F9
:102E5000D9FB06467F4B1B6813F4807FBED1FDF77C
:102E6000D1FB801B0228F5D90320EDE07A4A136FCD
:102E700043F001031367BFE7774B1A6F42F0040278
:102E80001A671A6F42F001021A67B5E7FDF7BAFB3D
:102E90000646714B1B6F13F0020F08D0FDF7B2FB13
:102EA000801B41F288339842F3D90320CCE0002DF7
:102EB0003BD1A369022B3ED8A369002B00F0C3804D
:102EC000654A926802F00C02082A00F09080022BFA
:102ED00079D1E36913B1B3F5800F32D1236A3F2B67
:102EE00035D8636A323BB3F5BF7F36D8A36A022B6D
:102EF00005D0042B03D0062B01D0082B33D1E36A75
:102F0000023B0D2B35D8554B00221A60FDF77AFB9A
:102F10000546514B1B6813F0007F30D0FDF772FB64
:102F2000401B0228F5D903208EE04B4A136C23F096
:102F300080531364BDE740F2CF11494802F038FDD9
:102F4000BAE74FF4EC71464802F032FDC6E740F2B2
:102F5000D911434802F02CFDC3E74FF4ED7140480E
:102F600002F026FDC2E740F2DB113D4802F020FDF1
:102F7000C5E74FF4EE713A4802F01AFDC3E7E36982
:102F8000226A1343626A43EA8213A26A5208013A30
:102F900043EA0243E26A43EA02632F4A53602F4B3B
:102FA00001221A60FDF72EFB04462B4B1B6813F021
:102FB000007F06D1FDF726FB001B0228F5D9032070
:102FC00042E0002040E0254B00221A60FDF71AFB8A
:102FD0000446214B1B6813F0007F06D0FDF712FB5F
:102FE000001B0228F5D903202EE000202CE0012B45
:102FF0002CD0194B9B6803F48001E269914201D007
:10300000012021E003F03F02216A8A4201D0012021
:103010001AE0616A47F6C0721A408A4201D0012064
:1030200012E003F44032A16A8A4201D001200BE091
:1030300003F07063E26A93420AD0012004E00120A9
:103040007047012000E0002002B070BD0120FBE7C6
:103050000020F9E70070004000380240600047425D
:103060000C770008304B9B6803F00C03082B58D1F9
:103070002DE9F04B2C4B5A6802F03F025B6813F4C9
:10308000800F2BD0284B5B68C3F388131E460027A4
:103090005C010025E41A65EB0705A90141EA94618A
:1030A000A001001B61EB0501CB0043EA5073C40093
:1030B000A01943EB07018B0243EA90538402204698
:1030C00019460023FDF784F8174B5B68C3F30143EF
:1030D00001335B00B0FBF3F0BDE8F08B124B5B6893
:1030E000C3F388131E4600275C010025E41A65EB34
:1030F0000705A90141EA9461A001001B61EB0501EC
:10310000CB0043EA5073C400A01943EB07018B02C4
:1031100043EA90538402204619460023FDF758F8ED
:10312000D2E70248704700BF003802400024F40094
:10313000002800F0FA8070B504460D460368013B94
:103140000E2B11D8072D15D87A4B1B6803F00F03EF
:10315000AB4215D2EBB2774A1370136803F00F033A
:10316000AB420DD0012070BD40F25121724802F0F7
:103170001FFCE7E740F252216F4802F019FCE3E739
:10318000236813F0020F29D013F0040F04D06B4A08
:10319000936843F4E0539360236813F0080F04D05E
:1031A000664A936843F460439360A3687BB1802BC5
:1031B0000DD0902B0BD0A02B09D0B02B07D0C02B5B
:1031C00005D0D02B03D0E02B01D0F02B33D15B4ABC
:1031D000936823F0F003A1680B439360236813F016
:1031E000010F42D06368032B2BD86368012B2ED0CC
:1031F0009A1E012A32D9514A126812F0020F00F0C9
:1032000096804E498A6822F0030213438B60FDF7D3
:10321000F9F90646494B9B6803F00C036268B3EB6F
:10322000820F22D0FDF7EEF9801B41F288339842DD
:10323000F0D9032097E740F275213F4802F0B8FB30
:10324000C5E74FF41F713C4802F0B2FBCDE73B4AA3
:10325000126812F4003FD4D1012084E7374A126883
:1032600012F0007FCDD101207DE7324B1B6803F0C7
:103270000F03AB4209D9EAB22E4B1A701B6803F058
:103280000F03AB4201D001206DE7236813F0040F58
:1032900014D0E3685BB1B3F5805F08D0B3F5A05FED
:1032A00005D0B3F5C05F02D0B3F5E05F31D1234A5A
:1032B000936823F4E053E1680B439360236813F0B1
:1032C000080F15D023695BB1B3F5805F08D0B3F563
:1032D000A05F05D0B3F5C05F02D0B3F5E05F1ED1AB
:1032E000164A936823F46043216943EAC10393605B
:1032F000FFF7B8FE114B9B68C3F30313104AD35C6E
:10330000D840104B1860104B1868FDF731F90020B9
:1033100029E740F2BA21084802F04AFBC7E740F229
:10332000C121054802F044FBDAE701207047012083
:1033300019E700BF003C02400C770008003802404B
:103340000C7600081801002004000020014B1868CA
:10335000704700BF1801002008B5FFF7F7FF044BC6
:103360009B68C3F38223034AD35CD84008BD00BFE7
:10337000003802401C76000808B5FFF7E7FF044B51
:103380009B68C3F34233034AD35CD84008BD00BFF7
:10339000003802401C760008002800F0C08010B5FC
:1033A000044603685F4A93420CD0A2F578429342E8
:1033B00008D002F58062934204D04FF4A1715A48BC
:1033C00002F0F6FA636813B1B3F5827F6BD1A3689C
:1033D0002BB1B3F5806F02D0B3F5004F69D1E3682C
:1033E000B3F5006F01D0002B69D1A369B3F5007F5D
:1033F00003D013B1B3F5802F67D1E3696BB1082B0C
:103400000BD0102B09D0182B07D0202B05D0282B40
:1034100003D0302B01D0382B5DD1236A0BB1802B28
:103420005FD1636A0BB1102B61D1636A33B9236931
:103430000BB1022B61D16369012B64D80023A36215
:1034400094F85130002B64D0022384F85130226864
:10345000136823F0400313606368A2681343E268B3
:1034600013432269134362691343A26902F4007291
:103470001343E2691343226A1343A16A22680B4390
:103480001360638B03F00403616A22680B4353608B
:103490002268D36923F40063D361002060650123AF
:1034A00084F8513010BD40F243111F4802F080FAF9
:1034B0008DE74FF4A2711C4802F07AFA8FE740F2D0
:1034C0004511194802F074FA8FE74FF4A3711648BA
:1034D00002F06EFA91E740F24711134802F068FAE1
:1034E0009BE74FF4A471104802F062FA99E740F2AA
:1034F00049110D4802F05CFA97E74FF4A6710A48AB
:1035000002F056FA97E740F24D11074802F050FAE0
:1035100094E784F85030204602F0D8FA94E701206E
:10352000704700BF003001404477000810B50446E2
:103530000368264A934237D0B3F1804F34D0A2F5C6
:103540007C42934230D002F5806293422CD002F547
:103550008062934228D002F58062934224D002F523
:103560008062934220D002F5704293421CD002F553
:103570007052934218D002F58062934214D002F543
:103580008062934210D0A2F5983293420CD002F59B
:103590008062934208D002F58062934204D040F2E8
:1035A000B9110B4802F004FA2268D36843F0010312
:1035B000D3602268936803F00703062B03D01368D7
:1035C00043F001031360002010BD00BF0000014064
:1035D0007C770008704770477047704710B5044605
:1035E00003681A6912F0020F11D0DA6812F0020FA4
:1035F0000DD06FF002021A610123037703689B6903
:1036000013F0030F70D0FFF7E6FF00232377236842
:103610001A6912F0040F12D0DA6812F0040F0ED0FB
:103620006FF004021A610223237723689B6913F465
:10363000407F5FD02046FFF7CEFF0023237723682B
:103640001A6912F0080F12D0DA6812F0080F0ED0C3
:103650006FF008021A61042323772368DB6913F0F3
:10366000030F4ED02046FFF7B6FF002323772368D1
:103670001A6912F0100F12D0DA6812F0100F0ED083
:103680006FF010021A61082323772368DB6913F4B3
:10369000407F3DD02046FFF79EFF0023237723681D
:1036A0001A6912F0010F03D0DA6812F0010F36D157
:1036B00023681A6912F0800F03D0DA6812F0800FC5
:1036C00034D123681A6912F0400F03D0DA6812F07F
:1036D000400F32D123681A6912F0200F03D0DA6844
:1036E00012F0200F30D110BDFFF774FF2046FFF716
:1036F00073FF8AE72046FFF76DFF2046FFF76CFF58
:103700009BE72046FFF766FF2046FFF765FFACE723
:103710002046FFF75FFF2046FFF75EFFBDE76FF033
:1037200001021A61204602F0C9FEC1E76FF0800273
:103730001A61204600F085F9C3E76FF040021A6174
:103740002046FFF74AFFC5E76FF020021A612046C6
:1037500000F076F9C7E700000368304A904212D0C3
:10376000B0F1804F0FD0A2F57C4290420BD002F511
:103770008062904207D002F58062904203D002F549
:103780007842904203D123F070034A681343234ADE
:1037900090422AD0B0F1804F27D0A2F57C429042CF
:1037A00023D002F5806290421FD002F580629042E1
:1037B0001BD002F57842904217D002F57052904229
:1037C00013D002F5806290420FD002F580629042E1
:1037D0000BD0A2F59832904207D002F58062904259
:1037E00003D002F58062904203D123F44073CA688B
:1037F000134323F080034A69134303608B68C36259
:103800000B688362054B984203D003F580639842AE
:1038100001D10B690363012343617047000001403C
:1038200000287AD010B5044603683D4A934237D049
:10383000B3F1804F34D0A2F57C42934230D002F5F0
:10384000806293422CD002F58062934228D002F528
:103850008062934224D002F58062934220D002F528
:10386000704293421CD002F57052934218D002F578
:103870008062934214D002F58062934210D0A2F588
:10388000983293420CD002F58062934208D002F540
:103890008062934204D04FF48971224802F088F884
:1038A000A3683BB1102B05D0202B03D0402B01D0B7
:1038B000602B1AD123692BB1B3F5807F02D0B3F509
:1038C000007F18D1A3690BB1802B1AD194F83D3039
:1038D000EBB1022384F83D30211D2068FFF73CFF47
:1038E000012384F83D30002010BD40F213110D4833
:1038F00002F05EF8DEE74FF48A710A4802F058F8E9
:10390000E0E740F21511074802F052F8DEE784F8CC
:103910003C30204602F012F9DBE70120704700BF7F
:10392000000001407C77000838B504460D46036866
:10393000414A93421FD0B3F1804F1CD0A2F57C4284
:10394000934218D002F58062934214D002F580624F
:10395000934210D002F5806293420CD002F580624F
:10396000934208D002F57042934204D040F2646161
:10397000324802F01DF82B686BB1102B0BD0202BB6
:1039800009D0302B07D0402B05D0502B03D0602B13
:1039900001D0702B41D16B68802B01D0002B42D11C
:1039A00094F83C30012B44D0012384F83C300223AE
:1039B00084F83D3023685968986821F070012A68BE
:1039C0000A435A6023681C4A93421AD0B3F1804FCD
:1039D00017D0A2F57C42934213D002F58062934245
:1039E0000FD002F5806293420BD002F578429342E9
:1039F00007D002F57052934203D0A2F5943293425D
:103A000004D120F080006A6810439860012384F894
:103A10003D30002084F83C0038BD40F26561074825
:103A200001F0C6FFB7E740F26661044801F0C0FF4D
:103A3000B6E70220F0E700BF00000140B4770008BD
:103A4000704770472DE9F04B04464268984B9A4204
:103A500074D8E36813B1B3F5005F75D123692BB156
:103A6000B3F5806F02D0B3F5C06F73D163694FF6C1
:103A7000F372134200D123B940F6FE318D4801F0B4
:103A800097FF2268136923F44053E1680B431361E5
:103A9000A3682269134362691343E2691A432168E8
:103AA000CB6823F4164323F00C031343CB60226846
:103AB000536923F44073A1690B435361E369B3F580
:103AC000004F4DD023687C4A934200F0BD8002F540
:103AD0008062934200F0B880FFF73EFC4FF000098F
:103AE000061849EB090716EB000B47EB090C4FEAE8
:103AF000CC0343EA5B734FEACB0293469C46636870
:103B00009A009B0F10EB0B0049EB0C01FCF760FBDC
:103B10006A4DA5FB00325109642202FB1102130118
:103B20003233A5FB03235B0903F0F00202EB011221
:103B300003F00F03216813448B60B6E040F6FB31BD
:103B40005C4801F035FF84E740F6FC31594801F04C
:103B50002FFF83E740F6FD31564801F029FF85E746
:103B60002368554A934239D002F58062934235D09A
:103B7000FFF7F2FB83464FF0000C06184CEB0C07E6
:103B800016EB000847EB0C094FEAC90343EA5873E8
:103B90004FEAC8029046994662680021921841EBAC
:103BA00001031BEB08004CEB0901FCF711FB434D33
:103BB000A5FB00325109642202FB1102D30032330B
:103BC000A5FB03235B095A0002F4F87202EB011211
:103BD00003F00703216813448B6066E0FFF7CCFB1A
:103BE00080464FF00009061849EB090716EB000B59
:103BF00047EB090C4FEACC0343EA5B734FEACB0275
:103C000093469C4662680021921841EB010318EB31
:103C10000B0049EB0C01FCF7DBFA284DA5FB003249
:103C20005109642202FB1102D3003233A5FB0323A6
:103C30005B095A0002F4F87202EB011203F0070369
:103C4000216813448B6030E0FFF796FB4FF00009CA
:103C5000061849EB090716EB000B47EB090C4FEA76
:103C6000CC0343EA5B734FEACB0293469C466368FE
:103C70009A009B0F10EB0B0049EB0C01FCF7A8FA24
:103C80000E4DA5FB00325109642202FB1102130103
:103C90003233A5FB03235B0903F0F00202EB0112B0
:103CA00003F00F03216813448B60BDE8F08B00BF65
:103CB000A037A000F0770008001001401F85EB51ED
:103CC000002800F08B8010B504468369002B55D086
:103CD0000368434A934210D0A2F54C4293420CD061
:103CE00002F58062934208D002F54C42934204D020
:103CF00040F24B113B4801F05BFEA36943B1B3F5C1
:103D0000807F05D0B3F5007F02D0B3F5407F2FD17F
:103D1000A36813B1B3F5805F4ED1E36913B1B3F576
:103D2000004F4FD194F83930002B51D0242384F820
:103D300039302268D36823F40053D3602046FFF75C
:103D400081FE2268136923F490431361226853694A
:103D500023F02A0353612268D36843F40053D360ED
:103D60000020E063202384F8393084F83A3010BD15
:103D70004FF4A6711B4801F01BFEC9E70368184AFF
:103D80009342C5D0A2F54C429342C1D002F5806265
:103D90009342BDD002F580629342B9D002F58062B1
:103DA0009342B5D002F544429342B1D04FF4A8718A
:103DB0000C4801F0FDFDABE74FF4A971094801F093
:103DC000F7FDAAE740F25311064801F0F1FDA9E71B
:103DD00084F83830204601F0D1FEA7E70120704773
:103DE00000100140F0770008002301330C4A934291
:103DF00011D80269002AF8DA036943F0010303616C
:103E000000230133064A934207D8026912F0010FDA
:103E1000F7D100207047032070470320704700BF90
:103E2000400D030084B010B5044603A880E80E00DE
:103E3000089B012B1FD1A36B23F48033A363E3689A
:103E400023F4840323F04003E360E36823F4401386
:103E5000E3600F9B012B09D02046FFF7C5FF069BAF
:103E6000012B1BD0BDE8104004B07047E36843F459
:103E70008013E360F0E7E36843F04003E36020462B
:103E8000FFF7B2FF0C9B23B9A36B43F48033A3630A
:103E9000E5E7A36B23F48033A363E0E7A36843F073
:103EA0000603A360A36843F02003A360DAE70000E1
:103EB000022A0AD00921C26822F47052C260C36883
:103EC00043EA8123C360002070472A4B0B442A4AEF
:103ED00093423FD9294B0B44294A93423CD9A1F53F
:103EE0007403A3F51053274A934237D9A1F1837382
:103EF000A3F5E74302F5C332A032934230D9224BF7
:103F00000B44224A93422DD9214B0B4402F59222B5
:103F100002F57872934227D91E4B0B4402F5C32257
:103F200002F52072934221D9A1F1B773A3F558533A
:103F300002F5B71202F55872934219D9164B0B4489
:103F400002F5122202F5F862934201D90621B2E786
:103F50000721B0E70F21AEE70E21ACE70D21AAE75C
:103F60000C21A8E70B21A6E70A21A4E70921A2E773
:103F70000821A0E7405327FFFF340C00401E1BFF21
:103F80003F420F007F4F120060B6E5FE5FE3160070
:103F900000D3CEFEC05BB3FEE05459FE836843F00D
:103FA0000103836000207047836823F0010383606E
:103FB0000020704708B5C36823F0C043C3600129DF
:103FC00009D069B9C36843F08043C3603220FCF76D
:103FD0001FFB002008BDC36843F00053C360F5E732
:103FE0000120F7E7890141F020010161002301333D
:103FF000054A934205D8026912F0200FF7D100203C
:1040000070470320704700BF400D03001023036179
:1040100000230133054A934205D8026912F0100FBC
:10402000F7D1002070470320704700BF400D030008
:10403000D0F800381943C0F800180020704700007D
:1040400084B02DE9F041044607A880E80E0025461B
:10405000002306E003F1400204EB820200215160DC
:1040600001330E2BF6D9119BF3B9A36B43F4001364
:10407000A363A36B23F40023A363A36B23F4802324
:10408000A3630023C4F8003E04F50066D4F80038AA
:10409000C4F800380C9B012B14D1099B6BB900218B
:1040A0002046FFF7C5FF11E0236823F400132360C7
:1040B000A36B43F40023A363E3E701212046FFF74A
:1040C000B7FF03E003212046FFF7B2FF102120468F
:1040D000FFF788FF804608B14FF001082046FFF740
:1040E00095FF08B14FF00108002333617361F3615C
:1040F0000AE0C3B94FF00060C2F8000900220A616B
:104100004FF67F328A6001330799994210D905EB47
:10411000431202F51061D2F800090028E9DB002003
:10412000C2F80009EAE74FF09040C2F80009E5E75D
:1041300000230AE0BBB14FF09047C2F8007B002299
:1041400002614FF67F3282600133994210D905EB4C
:10415000431202F53060D2F8007B002FEADB002723
:10416000C2F8007BEBE74FF00067C2F8007BE6E7A0
:10417000336923F4807333610A9B012B1BD0002227
:10418000A2616FF0804262611BB9A36943F0100322
:10419000A361A269104B1343A3610D9B1BB1A369DB
:1041A00043F00803A361119B012B0DD04046BDE8ED
:1041B000F04104B07047094A3263326B42F48032F6
:1041C00042F003023263DAE7A36943F0804343F02D
:1041D0000403A361EAE700BF00383C8000018000CF
:1041E000D0F8083813F0060307D0022B07D0062BAF
:1041F00001D00F2070470220704700207047022036
:10420000704770B40B784A78012A22D0D0F81C2865
:1042100003F00F060124B44042EA0442C0F81C280F
:1042200000EB4310D0F8003B13F4004F0ED1D0F850
:10423000003B8A68C2F30A02C97842EA814213430A
:1042400043F0805343F40043C0F8003B002070BCAF
:104250007047D0F81C4803F00F06B24092B22243D8
:10426000C0F81C2800EB4310D0F8002912F4004FCE
:10427000ECD1D0F800298C68C4F30A04C97844EA68
:10428000814444EA8353134343F0805343F400438F
:10429000C0F80039DAE7000070B40B784A78012AD8
:1042A0001FD0D0F83C5803F00F06012404FA06F69C
:1042B00025EA0645C0F83C58D0F81C58097801F0AA
:1042C0000F018C4025EA0444C0F81C4800EB431061
:1042D000D0F8002B124B1340C0F8003B002070BCFC
:1042E0007047D0F83C6803F00F0402FA04F4A4B25B
:1042F00026EA0404C0F83C48D0F81C48097801F0CC
:104300000F018A4092B224EA0202C0F81C2800EB96
:104310004310D0F80039034A1A40C0F80029DDE7FD
:104320000078F3EF007833EC70B40B784C78012C04
:1043300026D000EB431000F530631C69E40CE40464
:104340001C611C6924F0FF5424F4C0141C614C69E6
:104350000CB18C684C611C6944F400241C611C691C
:104360008D68C5F312052C431C61012A65D0D0F875
:10437000003B43F00443C0F8003B002070BC704792
:104380004C696CBB00EB4314D4F8105925F0FF5571
:1043900025F4C015C4F81059D4F8105945F4002577
:1043A000C4F81059D4F81059ED0CED04C4F81059A4
:1043B000012A33D000EB4313D3F8002942F0044222
:1043C000C3F800294B69002BD7D0D0F834280978DE
:1043D00001F00F040121A1400A43C0F83428CCE7C2
:1043E00000EB431404F510642569ED0CED04256120
:1043F000256925F0FF5525F4C01525614E698D68A6
:10440000AE4200D94D61256945F400252561256935
:104410004E69C6F3120635432561C9E70A691AB128
:1044200000EB4311C1F8142900EB4310D0F8002928
:1044300042F00442C0F800299FE7CA68002A96D0DB
:104440005A6194E770B49DF80C4064B903339D0839
:1044500007E000EB023303F5805351F8046B1E6054
:104460000134AC42F5D3002070BC7047F0B583B086
:104470000B784C78012C2BD000EB431303F5306400
:104480002569ED0CED042561256925F0FF5525F41E
:10449000C01525614D69002D40F0C58025698E68E5
:1044A000C6F3120635432561256945F400252561CB
:1044B000012A00F0CD80CA78012A00F0CF80D3F81D
:1044C000002B42F00442C3F8002B002003B0F0BDE3
:1044D0004C6984BB00EB4314D4F8105925F0FF5508
:1044E00025F4C015C4F81059D4F8105945F4002526
:1044F000C4F81059D4F81059ED0CED04C4F8105953
:10450000012A4CD000EB4313D3F8004944F0044493
:10451000C3F80049CC78012C6AD04B69002BD4D069
:10452000D0F83428097801F00F040121A1400A4392
:10453000C0F83428C9E700EB4314D4F81059ED0C47
:10454000ED04C4F81059D4F8105925F0FF5525F49E
:10455000C015C4F81059D4F810694D698F683D44EE
:10456000013DB5FBF7F5474F07EAC5453543C4F8AC
:104570001059D4F810594E69C6F312063543C4F8E1
:10458000105904F51064CD78012DB9D1256925F0B5
:10459000C0452561256945F000552561B0E70A69E8
:1045A0001AB100EB4314C4F81429CA78012A08D0C0
:1045B00000EB4313D3F8002942F00442C3F800296A
:1045C00083E7D0F8082812F4807F08D100EB43116C
:1045D000D1F8002942F00052C1F80029E8E700EBC9
:1045E0004311D1F8002942F08052C1F80029DFE7D9
:1045F000D0F8084814F4807F0ED1D3F8004944F075
:104600000054C3F8004914460B46C9681A789B8ABF
:104610000094FFF717FF58E7D3F8004944F080549F
:10462000C3F80049EFE78E683544013DB5FBF6F568
:104630002669144F07EAC5473E43266127698E68FD
:10464000ADB206FB05F5C5F312053D4325612FE725
:10465000CA68002A3FF42FAF62612CE7D0F808281F
:1046600012F4807F06D1D3F8002B42F00052C3F839
:10467000002B24E7D3F8002B42F08052C3F8002B24
:104680001DE700BF0000F81F033292080023934289
:104690000CD210B400F58054246841F8044B013367
:1046A0009342F7D308465DF8044B704708467047BD
:1046B0000B784A78012A14D000EB4310D0F8002B75
:1046C000002A06DB2BB1D0F8003B23F08043C0F872
:1046D000003BD0F8003B43F40013C0F8003B00203F
:1046E000704700EB4310D0F80029002A06DB2BB1FD
:1046F000D0F8003923F08043C0F80039D0F80039F1
:1047000043F40013C0F80039E9E70B784A78012A2E
:104710000ED000EB4310D0F8003B23F40013C0F898
:10472000003BCB78023BDBB2012B15D90020704750
:1047300000EB4310D0F8003923F40013C0F800391F
:10474000CB78023BDBB2012BF0D8D0F8003943F034
:104750008053C0F80039E9E7D0F8003B43F08053BC
:10476000C0F8003BE2E7D0F8003823F4FE63C0F85D
:104770000038D0F80038090101F4FE610B43C0F89D
:1047800000380020704708B5D0F8043823F0020341
:10479000C0F804380320FBF73BFF002008BD08B534
:1047A000D0F8043843F00203C0F804380320FBF7C4
:1047B0002FFF002008BD4269806910407047D0F883
:1047C000183800F50060C0691840000C7047D0F838
:1047D000183800F50060C069184080B2704700EBDF
:1047E0004111D1F8082B00F5006040691040704776
:1047F00010B4D0F81048D0F8343801F00F02D3408C
:10480000DB01DBB2234300EB411000F51060806850
:1048100018405DF8044B7047406900F00100704794
:10482000D0F8003923F4FF6323F00703C0F8003900
:1048300000F500639A6802F00602042A05D05A685F
:1048400042F480725A6000207047D0F8002942F08C
:104850000302C0F80029F2E710B4046C154B9C4227
:1048600003D9D0F8003B002B16DB0024C0F8104B16
:10487000D0F8104B44F40024C0F8104BD0F8104B83
:1048800044F01804C0F8104BD0F8104B44F0C0446A
:10489000C0F8104B012903D000205DF8044B70478D
:1048A000C0F8142BD0F8003B43F08023C0F8003B45
:1048B000F2E700BF0A30544F10B5D0F89042D0F85C
:1048C00094325BB194F80002FF2807D09B6894F8FB
:1048D000012221469847FF2384F80032002010BDB2
:1048E00043230380004870470800002043230380CF
:1048F000004870474C000020432303800048704765
:10490000900000200A23038000487047D400002054
:1049100038B50446D0F8905201F0ABFBC5F80C0254
:10492000D4F890324BB1D4F89432DB6805F50371BA
:10493000D5F804029847002038BD0220FCE770B586
:10494000D0F89022D0F89852FAB101EB8104A3007C
:104950000344DB694BB1C1EBC106B40025446D6C67
:10496000B3FBF5F405FB14331BB10020C2F81402AD
:1049700070BD01EB8102930003440024DC612346F7
:10498000224601F0B8FB2046F2E70220F0E770B5BE
:1049900082B005460C46D0F8906200238DF80730AF
:1049A000ADF804300B7813F0600227D0202A56D1DE
:1049B000CA883AB9D0F894329B6800224878984760
:1049C00000204FE013F0800F0CD0D0F894329B6899
:1049D000314660789847E2883146284600F07AFDF3
:1049E00000203FE04B7886F800328B7986F8013260
:1049F000CA88314600F083FD002033E04B780A2B53
:104A000014D00B2B21D01BB100F069FA022029E051
:104A100090F87432032B05D1022201A900F05AFD4F
:104A200000201FE000F05BFA02201BE090F87432D7
:104A3000032B06D101220DF1070100F04BFD0020F0
:104A400010E000F04CFA02200CE090F87432032BD6
:104A500001D1002006E000F042FA022002E000F05E
:104A60003EFA022002B070BD38B50446812101F043
:104A700022FB0025E5620121204601F01CFBC4F861
:104A800058518221204601F016FB2564D4F890325B
:104A90004BB1D4F894325B689847D4F8900201F097
:104AA00051FEC4F89052002038BD38B50446037C4E
:104AB000A3BB4FF400730222812101F0F1FA01251A
:104AC000E5624FF4007302222946204601F0E8FA1D
:104AD000C4F85851082303228221204601F0E0FA4D
:104AE000012323644FF4077001F024FE0546C4F847
:104AF000900268B3D4F894321B6898470023C5F835
:104B00001432C5F81832237CC3B14023D5F80422EF
:104B10000121204601F0F7FA002038BD402302228F
:104B2000812101F0BDFA0125E562402302222946D8
:104B3000204601F0B5FAC4F85851CBE74FF40073A2
:104B4000D5F804220121204601F0DDFA0020E4E737
:104B50000120E2E719B1C0F894120020704702204A
:104B60007047D0F89032C3F80812C3F81022002022
:104B70007047D0F89032C3F8041200207047D0F884
:104B800090229AB108B5037C3BB14023D2F80422AD
:104B9000012101F0B8FA002008BD4FF40073D2F8EB
:104BA0000422012101F0AFFA0020F5E7022070474E
:104BB00098B108B50346D0F88C0210B10020C3F8B4
:104BC0008C0209B1C3F888121846012380F87432A8
:104BD000027001F003FA002008BD0220704719B1ED
:104BE000C0F88C12002070470220704708B501F011
:104BF0004FFA002008BD08B5D0F88C3233B11B68DD
:104C0000984708B9002008BD0220FCE70220FAE717
:104C100008B5D0F88C325B689847002008BD38B5DD
:104C2000044600F52075284600F045F90123C4F834
:104C30006C32B4F88632C4F8703294F8801201F005
:104C40001F03012B0ED03BB1022B10D001F08001CD
:104C5000204601F038FA03E02946204600F0B5FA74
:104C6000002038BD2946204600F0E3FAF8E729463F
:104C7000204600F00EFBF3E738B50446A1BB104612
:104C8000D4F86C32032B03D0052B24D0002037E05E
:104C9000D4F84C31D4F8502193420DD99B1AC4F862
:104CA0004C319A4206D99AB20146204600F036FCB1
:104CB000002025E092B2F7E7D4F88C321B692BB1C3
:104CC00094F87422032A01D120469847204600F028
:104CD0002DFC002014E00025C4F86C522946204623
:104CE00001F0F1F928460BE00A46D0F88C329B69B6
:104CF0003BB190F87412032905D111469847002062
:104D000038BD0220FCE70220FAE710B5044600296E
:104D100053D11046D4F86C32022B0CD0042B00D0A7
:104D20001BB98021204601F0CEF994F87832012B8E
:104D30003FD000204DE0236A626A93421DD8E169AA
:104D4000B1FBF2F302FB13132BB98A4203D8D4F858
:104D5000703299421FD3D4F88C32DB682BB194F8AF
:104D60007422032A01D1204698478021204601F071
:104D7000AAF9204600F0E5FBD7E79A1A226292B220
:104D80000146204600F0B3FB00231A461946204690
:104D900001F0B9F9C9E700221146204600F0A7FB4F
:104DA0000021C4F870120B460A46204601F0ABF908
:104DB000BBE7002084F878020BE00A46D0F88C327A
:104DC0005B693BB190F87412032905D111469847ED
:104DD000002010BD0220FCE70220FAE770B504466F
:104DE00040230022114601F05BF90125C4F844512B
:104DF0004026C4F85061334600228021204601F04D
:104E00004FF9A561666284F874520023C4F86C32CD
:104E10006360C4F87C32D4F890322BB1D4F88C3271
:104E20005B68002120469847002070BD0174002077
:104E3000704790F8743280F87532042380F8743229
:104E40000020704790F8753280F874320020704767
:104E500008B590F87432032B01D0002008BDD0F8BB
:104E60008C32DB69002BF8D09847F6E700207047BA
:104E7000002070470020704708B5012280F8742296
:104E8000D0F88C22526801799047002008BD002399
:104E900002E00133DBB201300278002AF9D1184672
:104EA000704708B54B88012B00D008BDC0F87C3294
:104EB00000F03CFBF9E70B7803704B7843708B787C
:104EC000CA7803EB022343800B794A7903EB022370
:104ED00083808B79CA7903EB0223C380704710B5B6
:104EE0000446802101F0EFF80021204601F0EBF8A4
:104EF00010BD30B583B005460C464A88130A013B05
:104F0000062B00F28480DFE803F004162A82826612
:104F10007300D0F888321B680DF10601007C9847B9
:104F2000BDF8062012B1E388002B74D1E388002B72
:104F30007BD003B030BD037C43B9D0F88C329B6A80
:104F40000DF10600984702234370E9E7D0F88C3250
:104F5000DB6A0DF10600984702234370E0E7D2B206
:104F6000052A34D8DFE802F0030B131B232BD0F8FB
:104F700088325B680DF10601007C9847D0E7D0F8D5
:104F800088329B680DF10601007C9847C8E7D0F88D
:104F90008832DB680DF10601007C9847C0E7D0F845
:104FA00088321B690DF10601007C9847B8E7D0F8FC
:104FB00088325B690DF10601007C9847B0E7D0F8B4
:104FC00088329B690DF10601007C9847A8E72146CD
:104FD000FFF785FFADE7037C33B9D0F88C325B6B0C
:104FE0000DF1060098479BE72146FFF778FFA0E701
:104FF000037C43B9D0F88C321B6B0DF10600984747
:10500000072343708CE72146FFF769FF91E72146AC
:10501000FFF765FF8DE79A4228BF1A46ADF80620D4
:105020000146284600F056FA80E7284600F07EFA4E
:105030007FE738B504468B88F3B9CB88E3B94B8852
:105040007F2B19D803F07F0590F87432032B0CD016
:1050500080F87652294601F046F8204600F066FABC
:1050600035B1022384F8743209E0FFF738FF06E017
:10507000012384F8743202E02046FFF730FF38BD88
:1050800038B504460D468978284B197001290ED889
:1050900090F87432022B0ED0032B21D02946FFF753
:1050A0001EFF224B19782046FFF7B2FD02E0294689
:1050B000FFF715FF38BD81B14160032380F87432DA
:1050C000FFF799FD022803D0204600F02FFAF1E700
:1050D00029462046FFF703FFECE700F027FAE9E74F
:1050E00089B1436899421DD0D9B2FFF791FD0F4BAA
:1050F000197861602046FFF77EFD02280DD020461A
:1051000000F014FAD6E7022380F874324160FFF70A
:105110007FFD204600F00AFACCE729462046FFF73B
:10512000DEFEC7E700F002FAC4E700BF000200207D
:1051300008B5CB88012B0BD190F874329BB1022BB0
:1051400009D9032B0FD10122011D00F0C3F901E0A1
:10515000FFF7C5FE08BD0146002341F8083F0122C4
:1051600000F0B8F9F6E7FFF7BAFEF3E708B590F8F4
:105170007432013B022B12D8CB88022B0CD10123B5
:10518000C360D0F87C320BB10323C360022200F16C
:105190000C0100F09FF908BDFFF7A1FEFBE7FFF748
:1051A0009EFEF8E708B590F87432013B022B09D84F
:1051B0004B88012B00D008BD0023C0F87C3200F0E2
:1051C000B5F9F8E7FFF78BFEF5E708B50B7803F0C4
:1051D0006003202B05D0402B03D043B1FFF77FFEA7
:1051E00003E0D0F88C329B689847002008BD4B78CC
:1051F000092B1BD8DFE803F011171A141A08051A37
:105200000E0BFFF776FEF0E7FFF713FFEDE7FFF772
:1052100037FFEAE7FFF78CFFE7E7FFF7A7FFE4E7D1
:10522000FFF73FFEE1E7FFF7BDFFDEE7FFF757FEC1
:10523000DBE738B505460C460B7803F06003202BFE
:1052400006D0402B04D01BB1FFF749FE002038BD2B
:1052500095F87432013B022B16D82379012B0ED816
:10526000D5F88C329B68214628469847E388002B66
:10527000ECD10028EAD1284600F058F9E6E72146AB
:105280002846FFF72CFEE1E721462846FFF727FED8
:10529000DCE738B504468A880B7803F06003202BDE
:1052A00008D0D0B2402B05D05BB12046FFF717FEE7
:1052B000002005E0D4F88C329B68204698470020F7
:1052C00038BD202B05D1D4F88C329B6820469847F6
:1052D000F6E74B78012B32D0002B5ED0032B40F049
:1052E000D68094F87432022B06D0032B16D02046B9
:1052F000FFF7F5FD0020E3E708B1802804D1204640
:10530000FFF7EDFD0020DBE70146204600F0DBFE65
:105310008021204600F0D7FE0020D1E74B8823B93A
:1053200018B1802801D0CB8823B1204600F0FEF8C8
:105330000020C5E70146204600F0C5FEF5E794F8D9
:105340007432022B06D0032B16D02046FFF7C7FD80
:105350000020B5E708B1802804D12046FFF7BFFD43
:105360000020ADE70146204600F0ADFE802120463A
:1053700000F0A9FE0020A3E74B88002B40F08C80B2
:1053800010F07F0F04D1204600F0D0F8002097E7FE
:105390000146204600F09FFEF5E794F87432022B98
:1053A00006D0032B29D02046FFF799FD002087E780
:1053B00008B1802812D112F0800F14D100F07F00C4
:1053C00000EB8000830003F5A073E11800250D6059
:1053D0000222204600F07EF8284671E72046FFF7BB
:1053E0007EFD00206CE700F07F0000EB8000830072
:1053F00003F1100121440431E8E752B2002A1EDB18
:1054000000F00F0303EB83039D002544D5F84431DE
:105410001BB3002A26DB00F07F0202EB820293001E
:1054200003F5A073E51808B1802825D100232B606F
:1054300002222946204600F04DF8002040E700F007
:105440000F0303EB83039D002544AB69002BE0D1E0
:105450002046FFF744FD002032E72046FFF73FFDDE
:1054600000202DE700F07F0202EB8202930003F19F
:10547000100525440435D6E70146204600F0E2FD3C
:1054800010B101232B60D3E700232B60D0E7204627
:10549000FFF725FD002013E7002011E7C8B170B524
:1054A0000D4616460446FFF7F2FC013040003080FE
:1054B000287003236B70022307E001345A1CD2B218
:1054C000E9540233DBB20021A95421780029F4D138
:1054D00070BD704710B513460222C0F86C22C3613C
:1054E00003620A46002100F006FE002010BD08B548
:1054F00013460A46002100F0FEFD002008BD10B54D
:1055000013460322C0F86C22C0F84831C0F84C3171
:105510000A46002100F0F7FD002010BD08B5134633
:105520000A46002100F0EFFD002008BD08B5042365
:10553000C0F86C3200231A46194600F0DCFD00204A
:1055400008BD08B50523C0F86C3200231A46194679
:1055500000F0D9FD002008BD2DE9F0438BB00024F8
:10556000059406940794089409940094514B1A6B7F
:1055700042F004021A631A6B02F004020092009ACD
:1055800001941A6B42F080021A631A6B02F08002D7
:105590000192019A02941A6B42F001021A631A6B8B
:1055A00002F001020292029A03941A6B42F0020284
:1055B0001A631A6B02F002020392039A04941A6BA4
:1055C00042F008021A631B6B03F008030493049B68
:1055D000394D012202212846FBF73AFB22464FF2C1
:1055E00020112846FBF734FBDFF8D48022464FF425
:1055F00090514046FBF72CFB304F22464FF40741B9
:105600003846FBF725FBDFF8BC90224604214846CC
:10561000FBF71EFB42F23F0305930694079405A98E
:105620004046FBF7CDF8032305930694079405A99C
:105630003846FBF7C5F840F211230593069407940A
:1056400005A92846FBF7BCF847F22213059301266B
:1056500006960794089405A92846FBF7B1F84FF47D
:1056600000430593112306930794089405A928463F
:10567000FBF7A6F84FF49053059306960794089409
:1056800005A94046FBF79CF84FF40743059306969F
:105690000794089405A93846FBF792F8042305936C
:1056A00006960794089405A94846FBF789F80BB0BD
:1056B000BDE8F083003802400004024000000240D0
:1056C00000080240000C02404FF06043D3F8803ED7
:1056D00013F0010F11D04FF06043D3F8003E13F0E8
:1056E000010F01D1704700BF4FF060431B68002BD2
:1056F000F9D0C3B24FF060421370704770B51646D0
:10570000002405E04D1C0878FFF7DEFF0134294630
:10571000B442F7DB304670BD08B5024801F03EF9EF
:1057200008BD00BF2C78000808B50E480E4B03607A
:105730004FF48273436000238360C360036143615D
:105740004FF4802282610822C26103624362836255
:105750000A23C362FDF720FE00B908BDFFF7DCFF96
:10576000FBE700BFB80300200030014008B50A483D
:105770000A4B03604FF4E133436000238360C3604E
:1057800003610C2242618361C361FEF799FA00B99B
:1057900008BDFFF7C1FFFBE7F80200200010014041
:1057A00008B50A480A4B03604FF4E1334360002315
:1057B0008360C36003610C2242618361C361FEF7B1
:1057C0007FFA00B908BDFFF7A7FFFBE71004002030
:1057D0000044004008B50A480A4B03604FF4E13327
:1057E000436000238360C36003610C2242618361D4
:1057F000C361FEF765FA00B908BDFFF78DFFFBE74F
:10580000580200200048004008B50A480A4B0360CF
:105810004FF4E133436000238360C36003610C22D3
:1058200042618361C361FEF74BFA00B908BDFFF71F
:1058300073FFFBE7780300200014014000B583B03C
:105840000023009301930F480F4A026041F61F4264
:10585000426083600923C36080238361FDF7E0FF1A
:1058600050B900230093019369460648FEF75CF89F
:1058700028B903B05DF804FBFFF74EFFF1E7FFF72F
:105880004BFFF6E7380300200010004008B50C4835
:105890000C4B03600C4B4360002383607A22C26090
:1058A0004FF480420261012242617C228261C36125
:1058B0000362FBF7DDFB00B908BDFFF72DFFFBE737
:1058C000A402002000580040A086010000B595B059
:1058D0003022002108A800F03DFF00230393049329
:1058E0000593069307930193214A116C41F080516F
:1058F0001164126C02F080520192019A02931D4BC6
:105900001A6842F480421A601B6803F480430293D1
:10591000029B092308934FF48033099301230D93CD
:1059200002230E934FF480020F9208221092482215
:10593000119212930323139308A8FDF719F980B964
:105940000F23039302210491002305934FF4805207
:105950000692079303A8FDF7EBFB28B915B05DF895
:1059600004FBFFF7D9FEEBE7FFF7D6FEF6E700BF33
:10597000003802400070004008B5FAF71DFEFFF73E
:10598000A5FFFFF7E9FDFFF7CFFEFFF7EFFEFFF7FB
:1059900007FFFFF71FFFFFF737FFFFF74FFF00F08D
:1059A0001DFAFFF773FF00F063FD00F055FCFCE704
:1059B00008B50A460146024800F07CFF08BD00BF5A
:1059C0003C78000882B0002100910B4B5A6C42F4E5
:1059D00080425A645A6C02F480420092009A01910B
:1059E0001A6C42F080521A641B6C03F080530193CE
:1059F000019B02B0704700BF0038024010B588B06C
:105A000000230393049305930693079302681E4BA8
:105A10009A4201D008B010BD0024019403F5F03380
:105A20001A6C42F480021A641A6C02F48002019229
:105A3000019A02941A6B42F002021A631B6B03F084
:105A400002030293029B4FF44063039312230493D7
:105A500001230593032306930423079303A90B480B
:105A6000FAF7AEFE224621462120FAF703FE212056
:105A7000FAF746FE224621462220FAF7FBFD2220B5
:105A8000FAF73EFEC6E700BF00580040000402409F
:105A900008B502680A4B9A4200D008BD094A136C47
:105AA00023F4800313644FF440610748FBF700F8C8
:105AB0002120FAF73DFE2220FAF73AFEEDE700BF7B
:105AC00000580040003802400004024000B589B090
:105AD0000023039304930593069307930268154BE1
