:020000040800F2
:1000000000000220B5590008795000087D50000812
:100010008150000885500008895000080000000049
:100020000000000000000000000000008D500008EB
:1000300091500008000000009550000899500008F9
:10004000055A0008055A0008055A0008055A000814
:10005000055A0008055A0008055A0008055A000804
:10006000055A0008055A0008055A0008055A0008F4
:10007000055A0008055A0008055A0008055A0008E4
:10008000055A0008055A0008055A0008055A0008D4
:10009000055A0008055A0008055A0008055A0008C4
:1000A000055A0008055A0008055A0008055A0008B4
:1000B000055A0008055A0008055A0008055A0008A4
:1000C000055A00089D500008A9500008055A00086C
:1000D000055A0008055A0008055A0008055A000884
:1000E000055A0008055A0008055A0008055A000874
:1000F000055A0008055A0008055A0008055A000864
:10010000055A0008055A0008055A0008055A000853
:10011000055A0008055A0008B5500008055A00089D
:10012000055A0008055A0008055A0008055A000833
:10013000055A00080000000000000000055A0008F1
:10014000055A0008055A0008055A0008C150000861
:10015000055A0008055A0008055A0008055A000803
:10016000055A0008055A0008055A0008055A0008F3
:10017000055A0008055A00080000000000000000B1
:08018000055A0008055A0008A9
:1001900010B5054C237833B9044B13B10448AFF3C1
:1001A00000800123237010BDF0010020000000003A
:1001B0001C69000808B5034B1BB103490348AFF3A2
:1001C000008008BD00000000F40100201C69000848
:1001D00053B94AB9002908BF00281CBF4FF0FF31AE
:1001E0004FF0FF3000F072B9ADF1080C6DE904CEAC
:1001F00000F006F8DDF804E0DDE9022304B0704702
:100200002DE9F047089E04468846002B4BD18A42D0
:10021000154667D9B2FA82F24AB1C2F1200701FA53
:1002200002F320FA07F7954047EA030894404FEAA3
:10023000154E230CB8FBFEF71FFA85FC0EFB178842
:1002400043EA084307FB0CF1994209D9EB1807F17F
:10025000FF3080F01B81994240F21881023F2B440D
:100260005B1AA4B2B3FBFEF00EFB103344EA034466
:1002700000FB0CFCA44509D92C1900F1FF3380F0D8
:100280000781A44540F2048102382C4440EA07402B
:10029000A4EB0C0400271EB1D4400023C6E90043A0
:1002A0003946BDE8F0878B4209D9002E00F0EB807B
:1002B0000027C6E9000138463946BDE8F087B3FAA1
:1002C00083F7002F47D18B4202D3824200F2FA809B
:1002D000841A61EB030301209846002EE0D0C6E9A2
:1002E0000048DDE702B9FFDEB2FA82F2002A40F0F0
:1002F0008F80491B4FEA154E1FFA85F80127B1FB85
:10030000FEFC230C0EFB1C1143EA014308FB0CF11D
:10031000994207D9EB180CF1FF3002D2994200F252
:10032000CD808446591AA3B2B1FBFEF00EFB101427
:1003300043EA044408FB00F8A04507D92C1900F152
:10034000FF3302D2A04500F2B6801846A4EB0804A1
:1003500040EA0C409FE7C7F1200CBB4022FA0CFE9C
:100360004EEA030E01FA07F420FA0CF521FA0CF319
:100370004FEA1E482543B3FBF8F92C0C08FB193350
:100380001FFA8EFA44EA034309FB0AF49C4202FA7C
:1003900007F200FA07F10BD91EEB030309F1FF3056
:1003A00080F087809C4240F28480A9F10209734466
:1003B0001B1BADB2B3FBF8F008FB103345EA034456
:1003C00000FB0AFAA24508D91EEB040400F1FF3332
:1003D0006BD2A24569D90238744440EA0940A0FBB7
:1003E0000289A4EB0A044C45C2464B4654D351D073
:1003F000002E69D0B1EB0A0564EB030404FA0CFC8F
:10040000FD40FC404CEA0505C6E90054002747E7DB
:10041000C2F1200320FA03F7954001FA02F021FA15
:1004200003F34FEA154E3843010CB3FBFEF71FFAF6
:1004300085F80EFB173341EA034107FB08F38B42B3
:1004400004FA02F407D9691807F1FF3C2FD28B4256
:100450002DD9023F2944CB1A81B2B3FBFEF00EFB2B
:10046000103341EA034100FB08F38B4207D96918B6
:1004700000F1FF3C17D28B4215D902382944C91A22
:1004800040EA07473BE73746304609E70746E7E6D5
:100490001846FBE64145ABD2B8EB020A69EB0E0207
:1004A00001381346A4E76046E9E7184695E7674632
:1004B000D1E781467CE702382C4447E7ACF1020CD7
:1004C0002B442FE7384608E73746E9E6704700BF78
:1004D00001F0FF01102A2BDB10F0070F08D010F8F5
:1004E000013B013A8B422DD010F0070F42B3F6D1F9
:1004F000F0B441EA012141EA014122F007047FF012
:1005000000070023F0E80256083C85EA010586EA68
:10051000010685FA47F5A3FA87F586FA47F6A5FAA4
:1005200087F68EB9EED1F0BC01F0FF0102F00702B0
:1005300032B110F8013B013A83EA010313B1F8D15B
:100540000020704701387047002D06BF354603383C
:10055000073815F0010F07D1013015F4807F02BF75
:10056000013015F4C03F0130F0BC0138704700BFC6
:1005700070B50E4B0E4D1B682A7806464FF47A7004
:10058000B0FBF2F0B3FBF0F000F0BCF808B90F2EAE
:1005900001D9012070BD0446024631464FF0FF30BC
:1005A00000F058F86E60204670BD00BF18010020B2
:1005B0000000002008B50B4B1A6842F400721A6064
:1005C0001A6842F480621A601A6842F480721A60F3
:1005D000032000F02DF80020FFF7CAFF04F0CAFB4B
:1005E000002008BD003C0240034A044B11681B7800
:1005F0000B441360704700BF780600200000002005
:10060000014B1868704700BF7806002038B50446D3
:10061000FFF7F6FF631C054602D0044B1B781C4411
:10062000FFF7EEFF401BA042FAD338BD00000020C8
:10063000074AD3684FF6FF010B40000243F0BF6347
:1006400000F4E06043F400330343D360704700BF1D
:1006500000ED00E0184BDB68C3F3022330B4C3F1B4
:100660000705042D03F1040428BF0425062C19D91D
:10067000033B4FF0FF349C4022EA04044FF0FF326A
:10068000AA4021EA020101FA03F2224312010028E2
:10069000D2B20ADB00F1604000F5614080F800232F
:1006A00030BC704700242346E8E7044B00F00F00FD
:1006B00003441A7630BC704700ED00E0FCEC00E02B
:1006C000002807DB00F01F0101234009024A8B408C
:1006D00042F82030704700BF00E100E000280DDB49
:1006E000430920330122064900F01F0002FA00F0FE
:1006F00041F82300BFF34F8FBFF36F8F704700BFE8
:1007000000E100E00138B0F1807F0ED2084B10B458
:10071000084C5860F02084F823000022072110467E
:100720009A6019605DF8044B70470120704700BF64
:1007300010E000E000ED00E090F83530022B03D02F
:1007400080234365012070470268052380F8353017
:10075000136823F0010313600020704790F8350000
:10076000704700BF2DE9F04FD1F80080DFF8F4E1C9
:1007700083B0002403E00134102C00F08C800123AE
:10078000A34008EA03029342F5D1D1E9016526F0BE
:1007900010094FEA440C032309F1FF3703FA0CF365
:1007A000012F6FEA030305FA0CF577D9C7681F40DC
:1007B0003D43C560076806F003051F4005FA0CF3CA
:1007C0003B430360F300D6D55F4D002301936B6C70
:1007D00043F480436B646D6C24F0030305F480459F
:1007E00003F18043019503F59C3304F003054FEAC0
:1007F0008509564D019FD3F808C00F2707FA09F75E
:10080000A8422CEA07071FD005F58065A84276D0DC
:100810004F4DA84279D04F4DA8427CD04E4DA842B2
:100820007FD04E4DA84200F082804D4DA84200F08E
:100830008480DFF834C160450CBF4FF0070C4FF0E7
:10084000080C0CFA09F52F439F60DEF80030D54301
:10085000F70354BF2B401343CEF80030DEF80430CA
:10086000B70354BF2B401343CEF80430DEF80830F2
:10087000F70254BF2B401343CEF80830DEF80C309B
:10088000B60204F1010454BF2B401343102CCEF8E0
:100890000C307FF474AF03B0BDE8F08F876807EACF
:1008A000030ACF6807FA0CF747EA0A078760D0F80F
:1008B00004A0C6F300172AEA020AA74047EA0A077B
:1008C0004760C7681F403D43B9F1020FC5607FF420
:1008D00071AF4FEAD40900EB890904F00707D9F892
:1008E0002050BF004FF00F0B0BFA07FB25EA0B0A55
:1008F0000D69BD4045EA0A05C9F820505AE74FF096
:10090000010C0CFA09F52F439EE74FF0020C0CFA8C
:1009100009F52F4398E74FF0030C0CFA09F52F4324
:1009200092E74FF0040C0CFA09F52F438CE74FF0D7
:10093000050C0CFA09F52F4386E74FF0060C0CFA6C
:1009400009F52F4380E700BF003802400000024055
:1009500000080240000C0240001002400014024057
:1009600000180240003C0140001C02402DE9F04FFD
:100970000023DFF83C81DFF83CE1DFF83C91DFF851
:100980003CA102E00133102B6ED0012404FA03F5E0
:1009900005EA0106B542F5D123F0030707F18047C8
:1009A00007F59C3703F00302D7F808B092004FF028
:1009B0000F0C0CFA02FC40450CEA0B0B16D0484514
:1009C00011D0504552D0354CA04253D0344CA042A7
:1009D00054D0344CA04255D0334CA04256D0334C66
:1009E000A04257D0082404FA02F200E00022934506
:1009F00018D1DEF80020F6433240CEF80020DEF8B1
:100A000004203240CEF80420DEF808203240CEF830
:100A10000820DEF80C201640CEF80C60BA6822EAF6
:100A20000C02BA605C000322A2400468D243DE08D4
:100A3000144000EB8606046003F00704376AA40044
:100A40004FF00F0C0CFA04F427EA04043462C46873
:100A50001440C460446824EA050545608468013395
:100A60002240102B826090D1BDE8F08F022404FA5E
:100A700002F2BCE7032404FA02F2B8E7042404FA01
:100A800002F2B4E7052404FA02F2B0E7062404FAFD
:100A900002F2ACE7072404FA02F2A8E7000C0240D5
:100AA000001002400014024000180240001C0240E6
:100AB00000000240003C01400004024000080240E7
:100AC0000369194214BF01200020704702B90904CC
:100AD00081617047436931EA030308BF09048161FA
:100AE000704700BF036D5BB9C36C0268012B836C58
:100AF0000DD0C3F307231361036D01330365704702
:100B0000036D012B09D0036D022B0ED07047DBB2B1
:100B10001361036D023303657047836C0268DBB2B7
:100B20001361036D01330365704790F83D30222B4C
:100B30000ED090F83D30212BE8D1426A036812F8BC
:100B4000011B1961438D4262013B9BB24385DDE786
:100B50000268136843F4807313607047002800F044
:100B60009F80F8B590F83D30044603F0FF02002B5B
:100B700000F08F802368242284F83D201A6822F038
:100B800001021A601A6842F400421A601A6822F4DC
:100B900000421A6002F074F861684B4B99424BD8DE
:100BA0004A4B98427AD92268494B5568A3FB0063A7
:100BB0009B0C25F03F051D435560156A013325F058
:100BC0003F052B431362D5694900431EB3FBF1F384
:100BD0000133C3F30B0325F44F45042B38BF042323
:100BE00025F0FF052B43D361D4E90735106821694F
:100BF00020F0C0002B43034313609068E5686369ED
:100C000020F4034020F0FF00294301439160D168A4
:100C1000A06921F0FF0103430B43D3601168002357
:100C200041F00101202511601846236484F83D50ED
:100C3000236384F83E30F8BD264B98422ED92268B3
:100C4000234B5668244FA3FB00539D0C26F03F0610
:100C50002E434FF49673566003FB05F3A7FB035333
:100C6000156AA6689B0925F03F0501332B431362E3
:100C7000D56925F44F45013825F0FF0596B901EBFC
:100C80004101B0FBF1F00130C0F30B00C0B901230A
:100C9000A8E780F83C2004F089F86BE70120F8BD54
:100CA0000120704701EB810101EB8101B0FBF1F004
:100CB0000130C0F30B000028E9D040F4404391E735
:100CC00040F400438EE700BFA08601007F841E0031
:100CD00083DE1B43FF083D00D34D6210B0B10268B4
:100CE000242310B580F83D30136823F00103044637
:100CF000136004F0A5F80023236484F83C3084F8E2
:100D00003D301846236384F83E3010BD0120704703
:100D100090F83D30202B31D1002931D0002A2FD03E
:100D200090F83C30012B29D070B404682368012569
:100D3000DB0780F83C5002D423682B4323602368F0
:100D4000104E23F400632360212380F83D302023DC
:100D500080F83E30002303644285458DC6622268D8
:100D6000058542F4806241622260626880F83C300E
:100D700042F4E0621846626070BC7047022070471F
:100D8000012070470000FFFF90F83D30202B31D14B
:100D9000002931D0002A2FD090F83C30012B29D0E7
:100DA00070B4046823680125DB0780F83C5002D446
:100DB00023682B4323602368104E23F400632360D1
:100DC000222380F83D30202380F83E300023036446
:100DD0004285458DC6622268058542F48062416283
:100DE0002260626880F83C3042F4E062184662603B
:100DF00070BC704702207047012070470000FFFF61
:100E0000704700BF704700BF704700BF704700BF0A
:100E1000704700BF704700BF836BD3E90D0170B509
:100E200093F83D401A68E6B240B30024C463F1B1C0
:100E30001568CC6325F4806515605C850465002029
:100E40000865116821F00101116093F83D106029D7
:100E500029D006F02804282C18D02021002283F85D
:100E60003D1083F83E20184604F0F2FC70BD146873
:100E700024F48064146059850165E2E7F1B11468D7
:100E8000C86324F4806414605885D8E7116841F081
:100E9000010111601168002041F480611160186344
:100EA00083F83D40DFE70022202183F83D101846FB
:100EB00083F83E201A6404F0E9FC70BD106820F449
:100EC000806010605985BCE770B5036804465868B7
:100ED000E56A94F83E2094F83D10D2B2102A8CB006
:100EE00020D0402A1ED0226CC9B2002A00F0BB805C
:100EF0005A690026C2F34005002D78D085057BD5C0
:100F0000226C02B19E6994F83D2002F02802282A42
:100F100000F01C826FF002010022596184F83C202D
:100F20000CB070BD99695A69D6073AD4B5F52A0F45
:100F3000F6D0B5F12A4FF3D0160740F19A80850517
:100F400000F1F58111F0040F596800F0FF800905E8
:100F5000E6D41606C2F3800140F1A081450540F1B8
:100F60009D81002940F09D8194F83D20208D94F8CA
:100F70003E10E56AD2B2C9B2002840F07883212A37
:100F800000F018844029CBD1222AC9D1628D92B2B7
:100F9000002A00F0098494F83E20402A40F0B680F0
:100FA0008DE1850562D5E26AB2F52A0F00F0E9818C
:100FB000E26AB2F12A4F04BF0822E26294F83E20AE
:100FC000402A00F0D7812269B2F5804F00F0978166
:100FD000226D002A00F0D881226D012AA0D1626C16
:100FE000D21102F0060242F0F1021A6198E7D60629
:100FF00002D5860500F1D78001F0F7012129C2F35F
:1010000080054ED0510640F18B80420540F188802A
:10101000002D40F0888094F83D10628D92B2C9B2E4
:10102000002A3FF47DAF626A1B691370638D626AA8
:10103000013B9BB26385638D01329BB26262002BE0
:101040007FF46EAF2A297FF46BAF226853682225A4
:1010500023F48063282153602046256384F83D10E3
:1010600004F0AAFB5CE79E695A6943E715073FF560
:1010700069AF96077FF566AF85057FF563AF94F896
:101080003E20E06A256B94F83D102229D2B200F090
:101090000B8200220A925A690A929B690A930A9B60
:1010A0003EE7120627D5460525D53DBB94F83D0001
:1010B000628D92B2C0B2002A3FF432AF656A15F871
:1010C000012B1A61628D6562013A92B26285628D6E
:1010D00092B2002A7FF424AF29287FF421AF5A6806
:1010E000282522F480625A602046216384F83D500E
:1010F00004F088FB14E7002D3FF412AF80057FF564
:101100000FAF628D92B2002A3FF40AAF626A12F802
:10111000011B1961638D6262013B9BB26385FFE62F
:10112000002D3FF4FDAE86057FF5FAAE628D92B2DA
:10113000002A3FF4F5AE626A1B691370638D626A20
:10114000013B9BB2013263856262E9E60E053FF521
:10115000E7AE5506C2F3800140F1B780420540F189
:10116000B480002940F0B48094F83D20222A7FF416
:10117000D7AE628D92B2032A40F2E982626A1B699D
:101180001370638D626A013B9BB26385638D9BB272
:101190000132032B62627FF4C3AE2268536823F4EA
:1011A00080635360BCE694F83D105A6822F4E06214
:1011B0005A600B955A690B921A6842F001021A6044
:1011C0000B9A1A6822F480621A605A68CDB211052F
:1011D00021D505F0F702222A00F04181606B0268F8
:1011E000526892B26285628D92B21AB1226C42F05C
:1011F000040222645A6822F400625A60FFF7AEFAD1
:10120000012808D0606BA64B0365FFF795FA10B173
:10121000606B036D9847638D9BB213B323685A6963
:1012200052070AD5626A1B691370628D616A23686E
:10123000013A92B20131628561625A69560609D556
:10124000626A1B691370638D626A013B9BB2013253
:1012500063856262638D9BB21BB1236C43F0040310
:101260002364236C002B40F09D802A2D00F04F81D9
:1012700094F83D30282B00F0E080236B222B02D025
:10128000222D7FF44DAE002320222363204684F8D4
:101290003D2084F83E3004F08FFA41E600293FF407
:1012A0003FAE82057FF53CAEE16A94F83D20212AED
:1012B00000F06E8194F83E30402B7FF431AE204632
:1012C0000CB0BDE87040FFF70DBC00293FF428AE1C
:1012D00086057FF525AEE06A628D616A92B2042AC6
:1012E00000F07B81628D92B2032A00F0B181628DA1
:1012F00092B2022A00F0D4811B690B701EE794F8A9
:101300003D20212A626C16BF42F0010202F0FE026B
:10131000D2B21A61626B002A00F0E380D26B002A1D
:1013200000F0DF805A6842F400625A60F8E5626CAF
:10133000616BD2B21A61002900F08C80CA6B002A5E
:10134000F0D1A26BD26B002AECD1E9E55A6822F405
:1013500080625A606FEA960133064FF0000301F095
:10136000010154BFA289228B84F83C302046FFF74C
:101370004BFDD5E5226D7AB9626C02F0FE021A616E
:10138000CEE50122E26219E6626CD21102F0060299
:1013900042F0F0021A61C3E5626C42F00102D2B27F
:1013A0001A61BDE594F83D2094F83E102368102999
:1013B000D2B200F0B98002F02801282900F0AF80F5
:1013C0005968090504D4602A02D0202284F83D20FF
:1013D0000022226384F83E205A6812F4006200F072
:1013E00085805A68606B22F400625A6090F835304C
:1013F000012B00F00F812A4B0365FFF79DF950B1D7
:101400002268606B1368016D23F0010320251360CF
:1014100084F83D508847236C180704D0226853682D
:1014200023F4E063536094F83D30226C5107DBB243
:101430007FF576AD282B7FF473AD1A4BE362202243
:1014400000232363204684F83D2084F83E30FFF7D4
:10145000DDFC65E5A26B002A7FF470AF60E5A06B50
:101460000268526892B26285628D92B21AB1226CA1
:1014700042F0040222645A6822F400625A60FFF7C4
:101480006DF901283FF4C7AEA06B054B0365FFF76C
:1014900053F900283FF4BFAEA06B036D9847BAE63E
:1014A000190E00080000FFFF216D11B9402A00F05D
:1014B000E280226D22B92169B1F5404F00F0E2804F
:1014C000628D92B2002A3BD103925A6903929A69C3
:1014D0000392039A1A6842F400721A60002323658B
:1014E0001EE5A26B002A7FF42DAF19E594F83D109C
:1014F000602979D05A69550605D5626A1B6913704F
:10150000636A01336362204604F0A2F983E728226C
:101510002363204684F83D2004F04EF9A8E600221B
:10152000226384F83D1057E7222A7FF444AF1A68FB
:1015300022F400621A605A6810057FF546AF47E74B
:10154000628D92B2012A00F0E180628D92B2022A8D
:1015500000F056811A6842F480621A605A681505D4
:101560000ED510F5803F07D001381F2808D8A14AB2
:1015700022FA00F0C00703D55A6842F480525A603C
:10158000002209925A6909929B690993099BA5E770
:10159000628D92B2002A7FF4B9AD082905D02029C6
:1015A00003D011F5803F40F07E815A6822F4E0625A
:1015B0005A6019680022202041F4007119602263EA
:1015C00084F83D0094F83E3084F83E20402B2046BD
:1015D00000F00B81FFF714FCA2E45A6822F4806249
:1015E0005A601B690B70A9E5202184F83D10226424
:1015F0005A69560606D5626A1B691370626A2368C7
:10160000013262621A6822F001021A60204604F078
:101610003DF900E7A06B784B0365FFF78DF80028D4
:101620003FF4F9AE23685A69520606D5626A1B690F
:101630001370626A2368013262621A68A06B22F03A
:10164000010220211A60036D84F83D109847E2E6FC
:101650005A68042822F480625A603FF44DAE022892
:101660003FF44AAE1A6822F480621A6044E6212AE6
:101670003FF48CAC86E401915A6901929B69019315
:10168000019B4DE402925A6902929A690292029A6F
:101690001A6842F480721A60236D013323653FE4B7
:1016A00001281A687CD010287AD0042800F008811C
:1016B000022800F0058142F400721A601B690B7069
:1016C000638D626A2168013B9BB263850B69511C83
:1016D00061625370638D2168626A013B9BB26385CE
:1016E0004B68013223F44073202062624B6084F81F
:1016F0003D0094F83E30402B49D00022122384F85C
:101700003E2020462363FFF77DFB09E410F5803F70
:1017100000F0B580082800F0A280202800F09F800B
:10172000122D00F09980102805D8344A22FA00F0D2
:10173000C00700F1D4801A6822F480621A60002287
:1017400006925A6906929B690693069BC6E6E16A71
:1017500002293FF4E5AB012A3FF6E2AB1A68616A61
:1017600022F480621A605A6822F4E0625A601B69AF
:101770000B70638D626A013B9BB22021638584F804
:101780003D1094F83E300132402B6262B5D1002307
:1017900084F83E3020462363FFF73CFBFFF7C0BBD5
:1017A00022F480621A6089E75A6822F480625A60E3
:1017B000FFF7B6BB082D3FF4F8AE202D3FF4F5AE91
:1017C00015F5803F3FF4F1AE5A68112622F4E0622D
:1017D000002520215A602046266384F83E5084F874
:1017E0003D10FFF70DFBFFF79BBBFFF711FBFFF76A
:1017F00097BB00BF81800080190E00081400010013
:10180000102820D91A6822F480621A601A6842F4FB
:1018100000621A605A6812050DD510F5803F06D097
:1018200001381F2807D8304AC240D60703D55A6866
:1018300042F480525A60002208925A6908929B69C9
:101840000893089B4AE6294AC240D107DAD51A68AC
:1018500042F480621A60DDE701283FF46CAF1A6839
:10186000002122F480621A6007915A6907929A69EE
:101870000792079A1A6842F400721A602EE61A68F4
:1018800022F480621A605A6812F400621CD01A684E
:10189000002122F480621A6004915A6904929B69C3
:1018A0000493049B1AE65968112621F4E06120256F
:1018B00059602046266384F83E2084F83D5089E62E
:1018C00042F480621A60F9E605925A6905929A69B3
:1018D0000592059A1A6842F400721A60FEE51A68C9
:1018E00042F480621A602AE78180008014000100BF
:1018F000F8B503685D695A6890F83E10CEB2E90504
:1019000004469C46C5F3402078D5110ACF0775D50B
:101910006FF480725A6100287FD1690540F1D5804B
:101920000127628D94F83D10206B202E92B2C9B22F
:1019300000F0AA806FF48062102E47F004075A610D
:1019400001D0402E03D11A6842F400721A602D05AE
:101950009C4605D56FF4006347F00807CCF81430B7
:10196000236C1F43276494F83D3094F83E20102ADE
:10197000DBB27CD003F02802282A73D0DCF80420E4
:10198000100504D4602B02D0202384F83D300023BE
:10199000236384F83E30DCF8043013F400634ED047
:1019A000DCF80430606B23F40063CCF8043090F86A
:1019B0003530012B00F0AB80824B0365FEF7BCFE97
:1019C00050B12268606B1368016D23F0010320257C
:1019D000136084F83D508847236C1F0704D02268A9
:1019E000536823F4E063536094F83D30226C56074B
:1019F000DBB202D5282B00F0A880F8BD10B1110A87
:101A0000CF071AD4C5F380271FB1D105F5D500271C
:101A100087E72B05F1D5110A08E003276FF4007260
:101A200068055A613FF57DAF2A0504D5CE0791D4EC
:101A3000002FE2D023689C4692E70227EEE794F855
:101A40003D20602A48D0DCF814305B0606D5636A76
:101A5000DCF810201A70636A01336362204603F0D9
:101A6000F7FEB9E70023236384F83D2093E7222B98
:101A700080D1DCF8003023F40063CCF80030DCF8CF
:101A800004301D0580D582E7CAB901F0F702212A8A
:101A900003D0282913D1212811D194F83D20E16ADF
:101AA0000829D2B25ED020295CD0212A73D06FF4ED
:101AB00080625A612805BBD5D4F800C04AE76FF4AC
:101AC000806247F004075A6141E72A054FF0010799
:101AD0003FF540AF9C4643E7202284F83D20236435
:101AE000DCF814305A0608D5636ADCF810201A7046
:101AF000636AD4F800C001336362DCF8003023F07D
:101B00000103CCF80030204603F0C0FE64E7A06B70
:101B10002C4B0365FEF710FE00283FF45DAF2368F1
:101B20005A69510606D5626A1B691370626A236896
:101B3000013262621A68A06B22F0010220211A6051
:101B4000036D84F83D10984746E71F4BE36220225F
:101B500000232363204684F83D2084F83E30FFF7BD
:101B600055F9F8BD282AA0D1174AE2625A686FF4E5
:101B7000806122F4E0625A6059611A680A401A6072
:101B8000002120232163204684F83D3084F83E1054
:101B9000FFF73CF98EE70C49E16220200021226327
:101BA00084F83D0084F83E105A686FF4806122F496
:101BB000E0625A6059611A680A401A60204603F0D0
:101BC00021FE77E7190E00080000FFFF006C704748
:101BD000E8B138B5D0E9003182684CF6CC4504460E
:101BE00045F255501D60186059609A60FEF708FD77
:101BF000054604E0FEF704FD401B302809D82368A1
:101C0000D8680028F6D14AF6AA221A6038BD012009
:101C10007047032038BD00BF03684AF6AA221A6045
:101C200000207047F0B58BB0002800F0838090F85A
:101C3000BD330568044603F0FF0233B3284603238F
:101C400084F8BD33EB6B254613F4807308BF236122
:101C500001F096FB55F810CB2F460FCF6E460FC6FE
:101C60000FCF0FC697E8030086E80300261D6046E5
:101C700096E80E0001F096FA074660B1022384F858
:101C8000BD33012528460BB0F0BD80F8BC2303F01E
:101C9000B7FA2068D3E70146206801F079FB606855
:101CA00060B339463A464FF0010CC1EBC10304EB77
:101CB00083034F1C83F83C10A3F84210F9B2814211
:101CC00083F83DC083F83F20C3E911221A65ECD3A5
:101CD00000221146C2EBC20304EB8303571C83F8B6
:101CE000FC21FAB2824283F8FD1183F8FF11C3F898
:101CF0000412C3F80812C3F81012EBD30FCD6F46CD
:101D0000D4F800C00FC70FCD0FC795E8030087E8D0
:101D10000300604696E80E0001F052FB05460028DD
:101D2000ACD1012384F83800206884F8BD3301F079
:101D300013FFA7E7012528460BB0F0BD90F8BC3390
:101D4000012B1AD0826A036801218A4210B580F8FB
:101D5000BC130AD00446184601F0F2FE206801F0D8
:101D600007FB002084F8BC0310BD82698A42F1D0D1
:101D70009A6B42F480329A63ECE70220704700BF0E
:101D80002DE9F04F066889B00446304601F022FF85
:101D900010B109B0BDE8F08F0546206801F0E8FEFB
:101DA0000028F6D0206801F0E3FE10F0020F206852
:101DB0001EBF436903F00203436101F0D9FE10F432
:101DC000002F206840F0C38101F0D2FE10F4802F74
:101DD000206840F01C8101F0CBFE00287DDB2068EC
:101DE00001F0C6FE010549D4206801F0C1FEC3041C
:101DF00000F18780206801F0BBFE10F4005F2068CE
:101E000040F0C88001F0B4FE10F0100F206811D02F
:101E1000836923F010038361356AC5F34343022BC2
:101E200005F00F0739D0062B00F09D82836943F03F
:101E30001003836101F09CFE070700F1DF8020683A
:101E400001F096FEC60200F1CF80206801F090FEFE
:101E5000850200F1BF80206801F08AFE400000F199
:101E6000B080206801F084FE410792D523685D6848
:101E70006A070DD45A682A435A608AE7D6F80838A8
:101E8000DA0726D42068436903F400634361ACE7B2
:101E9000204603F04FFA2368ECE747F6F0731D4243
:101EA000C4D0C7EBC70704EB8707C5F30A15D7F8FB
:101EB00008122A46304601F0C7FDD7F80812D7F8B5
:101EC0001422206829442A44C7F80812C7F81422AB
:101ED000ACE7204603F006FAD4E794F8F413D6F8FA
:101EE0000428012922F00102C6F8042800F0F68136
:101EF000204603F00FFA2068436903F00043436172
:101F00006EE706F500677B68206823F00103102167
:101F10007B6001F055FBD4F804C0BCF1000F15D074
:101F200006F510634FF67F3199601A6822F40012AB
:101F30001A60C3F80812D3F80022013522F4001207
:101F40006545C3F8002203F12003EDD1FB69226B44
:101F500043F00113FB61002A00F0B581D7F884300B
:101F600043F00B03C7F884307B6C43F00B037B64B6
:101F7000D6F80038217C206823F4FE63C6F80038C8
:101F800004F5717201F046FE2068436903F4805342
:101F9000436130E701F022FE206801F023FBE0609E
:101FA000256800F067FE227B0146284601F064F9AF
:101FB000204603F081F92068436903F4005343612C
:101FC00020E7204603F0B2F92068436903F080431C
:101FD000436147E72046002103F0A0F920684369E8
:101FE00003F40013436137E72046002103F09AF918
:101FF0002068436903F48013436127E7204603F018
:1020000057F92068436903F00803436118E701F0BA
:10201000BBFD81462068B9F1000F3FF4DCAE06F548
:102020001063CDE90365A3464FF0000A1E4607E0A2
:102030005FEA59090AF1010A0BF11C0B00F0F98063
:1020400019F0010FF4D05FFA8AF7394601F0AEFDBE
:10205000C207054600F1B880206880462B0703D5EB
:1020600006EB4A1308229A60E90603D506EB4A13E9
:1020700010229A606A0603D506EB4A1340229A6042
:10208000AB0703D506EB4A1302229A602D06CFD583
:10209000DBE914138B42CBD808EB4A1202F510622D
:1020A0001046DBF844200590CD1A95428069CDF8A2
:1020B0001880AC4628BF944680B20CF1030CB0EBFC
:1020C0009C0F32D38B4234D299B3CDF81C90DBF8FD
:1020D0004810DDF8149007E0DBF850509D4240F2C4
:1020E0009081DBF84420ED1A954228BF1546237CE9
:1020F00000933A46ABB2404601F090FCD9F8182064
:10210000DBF84810DBF8543029442B4492B20335F5
:10211000B2EB950FCBF84810CBF85430DCD2DDF899
:102120001C90D4F80080DBF85010994240463FF6EE
:102130007FAF069B0120D3F834280AF00F0100FA84
:1021400001F122EA01024046C3F8342870E701F0A9
:1021500013FD07462068002F3FF436AE4FF000080D
:1021600006F5306BCDE9036503E07F0808F101084F
:1021700062D0FD07F9D55FFA88F6314601F00CFD13
:1021800010F0010F81465AD100F00803002B7DD1D9
:10219000206819F0100F03D00BEB481310229A603F
:1021A00019F0200F07D02169012900F0EF800BEB17
:1021B000481320229A6019F4005FD6D00BEB481325
:1021C0004FF400529A60D0E7039B2069D3F834188B
:1021D0004FF0010C0AF00F020CFA02F221EA0201A0
:1021E00006EB4A12C3F8341813466045C3F808C01A
:1021F00004D1DBE911231344CBF84830394620469B
:1022000003F04CF82169D4F80080012940467FF49E
:1022100025AFBAF1000F7FF421AF236D002B7FF4BF
:102220001DAF04F5717201F0F5FCD4F80080404652
:1022300014E7DDE90365CEE5DDE90365C4E5206863
:10224000D4F810C04FEA48130BEB030500F5306AD1
:1022500001219A44A9608C45026CDAF808E009F083
:10226000080364D071498A4209D11EF4004F40F03E
:10227000CD801EF0200F1CBF2021CAF80810314667
:102280002046059303F000F8059B7FE7236821694A
:102290001A6C03F5306A4FEA48139A4401290BEB94
:1022A0000305DAF808303BD060498A421DD0204649
:1022B000059202F0E3FF5E4B059A9A421ED808236E
:1022C0002068AB6065E77B6943F4005343F02B0360
:1022D0007B613B6943F00B033B6149E6002184F8D5
:1022E000F413204600F018FA05E6190403D54FF45C
:1022F0000043CAF80830204602F0C0FF21690129D6
:10230000DDD104F57172206801F084FCD7E720224A
:10231000CAF80820002B3FF43CAF026CDAF8083012
:1023200043498A42E1D8204602F0A8FFC7E71EF0E1
:10233000080F31D03E498A4206D91EF4004F1CBF17
:102340004FF40042CAF808202046059302F096FF99
:1023500004F571720121206801F05CFC0822CAF8C2
:102360000820059B12E7082204F571713046C7EB7F
:10237000C70701F069FB04EB8702C5F30A13D2F823
:10238000141220680B44C2F814324FE504F5717240
:1023900001F040FC20680AE71EF0200FB7D11EF0C4
:1023A000280FB7D122498A4202D91EF4004F38D1F2
:1023B0001C2000FB0840DAF810C0D0F80812D0F852
:1023C00004E20593CCF3120CAEEB0C0C8E44C0F877
:1023D00014C2C0F808E23146204602F055FF059BC2
:1023E000B8F1000F7FF4D2AED4F81022002A7FF4A7
:1023F000CDAE04F571720121206801F00BFC059B44
:10240000C4E6DDF81C90D4F8008092E64FF4004258
:10241000CAF80820002B3FF4BCAE026CDAF8083092
:1024200042E74FF40042CAF8082073E70A31544FDC
:102430000A30544F90F8BC23012A0DD010B5044641
:10244000012284F8381080F8BC23006801F068FB92
:10245000002084F8BC0310BD02207047F8B501F0DD
:102460000F05C5EBC504C5EBC50609064FEA840494
:1024700000EB86061ED404F5FE740027011986F8C9
:10248000FD714C780D708A60CB7004B1CD80022B49
:1024900004BF00230B7190F8BC33012B10D0012333
:1024A000044680F8BC33006801F0A8F8002084F8E6
:1024B000BC03F8BD3C340127011986F83D70E0E704
:1024C0000220F8BD01F00F0238B50906C2EBC203C5
:1024D000C2EBC2044FEA830300EB840415D403F576
:1024E000FE73C118002584F8FD510A7090F8BC33C2
:1024F000012B14D00123044680F8BC33006801F09E
:10250000C1F8002084F8BC0338BD3C33C118012554
:1025100084F83D500A7090F8BC33012BEAD10220B8
:1025200038BD00BF38B501F00F05C5EBC50400EBA1
:1025300084040021C4F80822C4F8141284F8FD11A0
:10254000C4F8103284F8FC5103691C2101FB050119
:10255000012B08BFC4F80C2201F5FE710068DAB245
:102560001DB101F0C3F8002038BD01F0D1F9002001
:1025700038BD00BF01F00F01C1EBC10100EB8101CB
:10258000D1F81402704700BF70B501F00F05C5EB1C
:10259000C50400EB840401210026A26484F83D10E8
:1025A000236584F83C50666503691C2101FB050125
:1025B000012B08BFE2643C310068DAB21DB101F0C2
:1025C00095F8002070BD01F0A3F9002070BD00BF98
:1025D00038B5436801F00F059D421FD80B061FD484
:1025E000C1EBC1031C2404FB010100EB83030022A7
:1025F00001F5FE7183F8FD2101230D708B7090F8B9
:10260000BC239A421ED0044680F8BC33006801F017
:102610002FFACDB1002084F8BC0338BD012038BDAD
:10262000C5EBC5031C2101FB050100EB830301225F
:102630003C3183F83D2001230D708B7090F8BC2352
:102640009A42E0D1022038BD04F57172217C2068E5
:1026500001F0E0FADEE700BF38B5436801F00F0291
:102660009A4221D8C2EBC203C2EBC20409064FEA68
:10267000830300EB840419D403F5FE73C11800250D
:1026800084F8FD5100250A708D7090F8BC33012B41
:1026900018D00446012380F8BC33006801F014FA16
:1026A00084F8BC53284638BD012038BD3C33C118DE
:1026B000012584F83D5000250A708D7090F8BC33D8
:1026C000012BE6D1022038BD30B4056812046C6AD3
:1026D000C1B1AB6A013904EB13440BD0002303F101
:1026E000400005EB800001334068DBB28B4204EB15
:1026F0001044F4D3403105EB810114434C600020B9
:1027000030BC70471443AC62002030BC704700BF3F
:102710000368002059627047704700BF002800F02E
:1027200032812DE9F0410368DD0782B004462FD5E0
:10273000AC498A6802F00C02042A00F0EA808A6838
:1027400002F00C02082A00F0E0806368B3F5803FD5
:1027500000F0E980B3F5A02F00F07881A14D2A6840
:1027600022F480322A602A6822F480222A60002B18
:1027700040F0DE80FDF744FF064605E0FDF740FF30
:10278000801B642800F2F2802B689B03F6D4236838
:102790009F0775D41A0715D56369002B00F0A58033
:1027A000914B904D01221A60FDF72AFF064605E085
:1027B000FDF726FF801B022800F2D8806B6F9B0775
:1027C000F6D5236858073BD5864A136C13F080531F
:1027D00040F0DB800193136C43F080531364136C5F
:1027E00003F080530193019B0126804D2A68D10597
:1027F00040F1AC80A368012B00F0C980052B00F0EC
:102800002F81784D2A6F22F001022A672A6F22F069
:1028100004022A67002B40F0BF80FDF7F1FE41F271
:102820008837804606E0FDF7EBFEA0EB0800B842D3
:1028300000F29C802B6F9807F5D4002E40F0DC80CE
:10284000A069C8B1674DAA6802F00C02082A00F01E
:10285000D980674A00210228116000F00B81FDF742
:10286000CFFE2C46054604E0FDF7CAFE401B0228B9
:102870007CD823689B01F7D4002002B0BDE8F0812A
:10288000584A916811F00C0F24D0916801F00C01A6
:1028900008291CD0E368002B00F09280554B514D65
:1028A00001221A60FDF7ACFE064604E0FDF7A8FE23
:1028B000801B02285AD82B689807F7D52B68226905
:1028C00023F0F80343EAC2032B60236862E75268EF
:1028D0005602DFD4434A126895074BD5E268012AB5
:1028E00048D0012002B0BDE8F0813F4A3D4D136061
:1028F000FDF786FE064604E0FDF782FE801B0228F7
:1029000034D86B6F9F07F7D45BE74A6850027FF5B6
:102910001CAF344A126891037FF53AAF6268002A0F
:102920007FF436AFDDE72F4A136843F4803313603A
:10293000FDF766FE2B4D064604E0FDF761FE801BA9
:10294000642813D82B689A03F7D520E72A6842F445
:1029500080722A60FDF754FE07462B68DA053FF5C2
:1029600049AFFDF74DFEC01B0228F6D9032002B087
:10297000BDE8F0811B4920690A6822F0F80242EAAA
:10298000C0020A6006E70120704700262DE7154ABD
:10299000136F43F001031367FDF732FE114D8046BC
:1029A00041F2883705E0FDF72BFEA0EB0800B842A6
:1029B000DCD82B6F9B07F6D5002E3FF441AF1BE010
:1029C0000C4A084D1360FDF71BFE064604E0FDF7B8
:1029D00017FE801B0228C9D82B689907F7D42368F3
:1029E000D8E600BF00380240800E47420070004029
:1029F0006000474200004742354A136C23F0805381
:102A000013641DE701283FF46DAFAB68E26903F47E
:102A1000800191427FF465AF226A03F03F01914249
:102A20007FF45FAF47F6C072616A1A408A427FF452
:102A300058AFA26A03F4403191427FF452AFE06A8A
:102A400003F07063181A18BF01204BE7204B1A6877
:102A500042F480221A601A6842F480321A6067E7F2
:102A60001B4B1A6F42F004021A671A6F42F0010200
:102A70001A6791E7FDF7C4FD064605E0FDF7C0FDC6
:102A8000801B02283FF672AF2B689901F6D4D4E977
:102A90000736D4E90902E16A0D4C334343EA801357
:102AA000520843EA0163013A0A4943EA0243012218
:102AB0006B600A60FDF7A4FD054605E0FDF7A0FD8B
:102AC000401B02283FF652AF23689A01F6D5D3E6A1
:102AD0000038024060004742154908B58B6803F092
:102AE0000C03082B01D0134808BD4A684B6813F447
:102AF000800302F03F0210D149680E48C1F38811EB
:102B0000A1FB0001FDF764FB094B5B68C3F30143C4
:102B100001335B00B0FBF3F008BD4B680548C3F31D
:102B20008813A3FB00010023FDF752FBECE700BF75
:102B3000003802400024F40060B1494A136803F0F1
:102B40000F038B4208D2CBB21370136803F00F034C
:102B50008B4201D00120704703682DE9F0419D07A9
:102B600014D55C0704D53F4CA26842F4E052A26041
:102B70001A0704D53B4CA26842F46042A260394C6B
:102B80008568A26822F0F0022A43A260DF070446AB
:102B90000D4622D54268012A57D0931E012B314B96
:102BA0001B6859D9990725D52E4EB36823F0030326
:102BB0001343B360FDF724FD41F28837804605E0FA
:102BC000FDF71EFDA0EB0800B84243D8B368626869
:102BD00003F00C03B3EB820FF2D1214A136803F028
:102BE0000F03AB4209D9EBB21370136803F00F0364
:102BF000AB4202D00120BDE8F08123685A0706D518
:102C00001849E0688A6822F4E05202438A601B0790
:102C100012D4FFF761FF134B134C9B681349144AFE
:102C2000C3F30313E35C20FA03F308681360FDF7B2
:102C30009FFC0020BDE8F0810A4A2169936823F4D3
:102C4000604343EAC1039360E3E7064B1B689E03BE
:102C5000AAD4CFE70320EDE79801A5D4CAE700BFC7
:102C6000003C0240003802403469000804000020A3
:102C700018010020014B1868704700BF18010020A0
:102C8000044B054A9B680549C3F382230868D35C5B
:102C9000D8407047003802404469000818010020FD
:102CA000044B054A9B680549C3F342330868D35C6B
:102CB000D8407047003802404469000818010020DD
:102CC00000283BD090F85120002370B502F0FF019E
:102CD0000446836262B31846D4E90135D4E903217E
:102CE0002B4313436269E569266A0B431343A269C8
:102CF00021682B43022584F85150334302F40075B8
:102D00000E682B43120C656A02F0040203432A4347
:102D100026F040060E600B604A60CB69002223F467
:102D200000630125CB611046626584F8515070BD87
:102D300080F8501002F0A2F8A06ACDE70120704799
:102D400000285CD0F8B590F83D30044603F0FF024F
:102D5000BBB322683A4EA569E0686168022384F833
:102D60003D30B24213684CD0B2F1804F58D0A6F536
:102D70007C46B2422AD006F58066B24226D006F5DD
:102D80008066B24222D006F57846B2421ED006F5E1
:102D90007056B24213D006F58066B2420FD006F5E7
:102DA0008066B2420BD0A6F59836B24207D006F53F
:102DB0008066B24203D006F58066B24238D12669F9
:102DC00033E080F83C2002F08FF8C2E7A6681D4F80
:102DD00023F070033343266923F44073334323F015
:102DE00080032B43BA421360D062916201D16369C0
:102DF000136301235361002084F83D30F8BD0120A6
:102E00007047A768266923F070033B4323F440739F
:102E1000334323F080032B431360D0629162E6E7D3
:102E2000A768266923F070033B4323F440733343C0
:102E300023F080032B431360D0629162D9E700BF77
:102E400000000140000401400368DA6842F001021A
:102E5000DA609A6802F00702062A03D01A6842F084
:102E600001021A6000207047704700BF704700BF22
:102E7000704700BF704700BF03681A69910710B51B
:102E8000044602D5DA6892075FD41A69500702D562
:102E9000DA68510746D41A69120702D5DA681007B2
:102EA0002ED41A69D20602D5DA68D00618D41A6967
:102EB000D10702D5DA68D2075DD41A69100602D5A7
:102EC000DA6811065FD41A69520602D5DA6850062C
:102ED00061D41A69910602D5DA68920643D410BD0E
:102EE0006FF010021A61DB69082213F4407F227729
:102EF000204664D0FFF7BAFF002223682277D6E786
:102F00006FF008021A61DB690422990722772046D4
:102F100052D1FFF7A9FF2046FFF7AAFF002223683E
:102F20002277BEE76FF004021A619B69022213F454
:102F3000407F227720463CD1FFF796FF2046FFF7DF
:102F400097FF002223682277A5E76FF002021A613B
:102F50009B6901229B07027725D0FFF787FF00229C
:102F60002368227791E76FF0200220461A61BDE8BE
:102F7000104000F071B86FF001021A61204602F0B3
:102F800083FB236899E76FF080021A61204600F006
:102F900065F8236897E76FF040021A612046FFF753
:102FA00069FF236895E7FFF75FFF2046FFF760FFA3
:102FB000D5E7FFF75BFFC4E7FFF758FFAEE7FFF782
:102FC00053FF2046FFF754FF96E700BF90F83C30D0
:102FD000012B3AD00368022270B480F83D205A6871
:102FE0000E681B4D9C6822F070023243AB424FF0DA
:102FF000010680F83C605A6019D0B3F1804F16D0BA
:10300000144A934213D002F5806293420FD002F526
:10301000806293420BD002F57842934207D002F5CA
:103020007052934203D0A2F59432934204D14A687D
:1030300024F0800414439C600023012280F83D208A
:1030400080F83C3070BC184670470220704700BFC3
:103050000000014000040040704700BF704700BFFF
:10306000002800F0938090F8393070B503F0FF022B
:103070000446002B00F0858023682669242284F80A
:103080003920D86820F40050D4E90225D8601969A5
:10309000E06921F4405129431961D96865693243D7
:1030A00021F416412A4321F00C0102430A43DA605D
:1030B0005A69A16922F440720A43B0F5004F5A617F
:1030C000364A34D0934263D002F5806293425FD097
:1030D000FFF7D6FD6368324D1922A0FB02019A006A
:1030E0009B0FFDF775F8A5FB00214909642202FB3F
:1030F0001102120132322368A5FB0202090101EB21
:1031000052129A601A6922F490421A615A6922F0A6
:103110002A025A61DA680025202142F40052DA605E
:103120002846E56384F8391084F83A1070BD93425C
:1031300031D002F5806293422DD0FFF7A1FD626885
:10314000002692184FF0190146EB0603A0FB01017F
:10315000FDF73EF8124E2368A6FB00214D096422BC
:1031600002FB1502D2003232A6FB0212520902F013
:103170000701520001EB051102F4F8720A449A604B
:10318000C0E780F8382001F0CFFE75E701207047D6
:10319000FFF786FD9EE7FFF783FDD0E700100140B3
:1031A0001F85EB5184B030B4089D03AC012D84E839
:1031B0000E0032D1836B0F9A23F480338363C3688C
:1031C00023F4840323F04003C360C368012A23F47B
:1031D0004013C36044D0274B01E0013B45D0026956
:1031E000002AFADA0369234A43F00103036101E08C
:1031F000013A3AD0036913F00103F9D1069A012A82
:1032000007D1826842F006028260826842F02002A2
:10321000826030BC184604B07047C268154B42F05B
:103220004002C26001E0013B21D00269002AFADAC3
:103230000369104A43F00103036101E0013A16D02B
:10324000036913F00103F9D10C9A22B9826B42F49D
:1032500080328263D2E7826B22F480328263CDE7D0
:10326000C36843F48013C360B5E70323C6E70323B1
:10327000EAE700BF400D0300022A0AD04FF41051C4
:10328000C26822F47052C260C3680B43C36000205E
:1032900070472D4B2D4A0B44934243D92C4B2D4A5A
:1032A0000B4493423BD9A1F574032B4AA3F5105369
:1032B00093423AD9A1F1837302F5C332A032A3F548
:1032C000E743934234D9254B254A0B44934232D9E4
:1032D000244B02F5922202F578720B4493422DD9C9
:1032E000214B02F5C32202F520720B449342C5D94B
:1032F000A1F1B77302F5B71202F55872A3F558534E
:1033000093421ED9194B02F5122202F5F8620B44C2
:1033100093428CBF4FF4C0514FF4E051B0E74FF4EB
:103320006051ADE74FF47051AAE74FF45051A7E751
:103330004FF44051A4E74FF43051A1E74FF420512E
:103340009EE74FF400519BE7405327FFFF340C00EA
:10335000401E1BFF3F420F007F4F120060B6E5FE8C
:103360005FE3160000D3CEFEC05BB3FEE05459FE0F
:1033700002460020936843F001039360704700BF4A
:1033800002460020936823F001039360704700BF5A
:1033900008B5C368012923F0C043C3600BD041B90D
:1033A000C36843F08043C3603220FDF72FF900204B
:1033B00008BD012008BDC36843F00053C360F3E7B4
:1033C00084B02DE9F04709AC84E80E00139D0C9EF3
:1033D0000022C0F804210346C0F808210C46C0F8BA
:1033E0000C21C0F81021C0F81421C0F81821C0F831
:1033F0001C21C0F82021C0F82421C0F82821C0F8E1
:103400002C21C0F83021C0F83421C0F83821C0F890
:103410003C21002D40F09E80826B42F400128263BA
:10342000826B22F400228263826B22F48022826308
:103430000022C3F8002E0E9AD3F80018C3F8001823
:10344000012A03F5006700F08E80D3F8002842F0CF
:103450000302C3F800284FF484621A61554A02E05F
:10346000013A00F09C80186910F02000F8D1102279
:103470001A61504A02E0013A00F093801969C906C6
:10348000F9D4002139617961F961F4B18E4603F50F
:1034900010624FF090494FF0006A4FF67F380AE013
:1034A000C2F800E00131A142C2F810E0C2F8088081
:1034B00002F120022FD0D2F800C0BCF1000FEFDAE9
:1034C000002973D0C2F80090ECE73A69012E22F48B
:1034D00080723A614ED000216FF0804299615A614A
:1034E0001EB99A6942F010029A619C69324A0F999A
:1034F00022439A6119B19A6942F008029A61012D3A
:1035000005D19A6942F0804242F004029A61BDE816
:10351000F04704B070470024A64603F530624FF030
:1035200090494FF0006A4FF67F380AE0C2F800E099
:1035300001348C42C2F810E0C2F8088002F1200287
:10354000C3D0D2F800C0BCF1000FEFDA5CB3C2F810
:103550000090EDE7026822F400120260826B42F4F0
:103560000022826364E70B9A92B9D3F80028C3F86B
:10357000002870E7114A3A633A6B42F4803242F015
:1035800003023A6300216FF0804299615A61ACE70F
:10359000D3F8002842F00102C3F800285BE70120BD
:1035A00065E701206DE7C2F800A0C1E7C2F800A0FE
:1035B00078E700BF400D030000383C800001800028
:1035C000890141F020010161054A01E0013A05D07D
:1035D000036913F02003F9D11846704703207047A0
:1035E000400D0300D0F8083813F0060004D013F0A3
:1035F000020F14BF02200F20704700BF30B40A78BA
:103600004D7802F00F040123012D03FA04F300EBBF
:10361000421400F5006019D0C26942EA0343C36155
:10362000D4F8003B1B040ED48A68C878D4F8001B79
:10363000C2F30A0242F0805343F4004343EA80435A
:103640000B43C4F8003B002030BC7047C5692B43D6
:10365000C361D4F800391804F5D48B68C878D4F85D
:103660000019C3F30A0343F0805343F4004343EAD1
:10367000804343EA82520A43C4F80029002030BC48
:10368000704700BF10B40A78497802F00F0400EBCD
:10369000421200F500600123012903FA04F3C46B10
:1036A00010D06FEA03431C40C463C4690D49234032
:1036B000C361D2F8003B5DF8044B19400020C2F80A
:1036C000001B7047DB431C40C463C46906492340A8
:1036D000C361D2F800395DF8044B19400020C2F8EC
:1036E000001970470078F3EF007833EC2DE9F047CC
:1036F00091F801C00E784B69CF78BCF1010F00EB57
:1037000046154ED005F530642669D1F808C0F60C90
:10371000F6042661266926F0FF5626F4C0162661B7
:103720007BB3DFF8E8E1D4F8108003EB0C06013E30
:10373000B6FBFCF60EEAC64343EA08032361B6B2C1
:103740000CFB06F32669C3F312033343012A2361FA
:1037500022D0012F0CD1D0F8083813F4807FD5F88F
:10376000003B0CBF43F0005343F08053C5F8003BCF
:10377000D5F8003B43F00443C5F8003B0020BDE80A
:10378000F0872669CCF31203334323612369012AAE
:1037900043F400232361DCD1CB68002BD9D06361D3
:1037A000D7E705F51064F3B3D4F81080D1F808A07A
:1037B000DFF858E14FEAD8484FEAC848C4F810800B
:1037C000D4F8108028F0FF5828F4C018C4F81080EE
:1037D000D4F810900AEB030808F1FF38B8FBFAF8A8
:1037E0000EEAC84E4EEA090EC4F810E0D4F8108074
:1037F000C3F3120E4EEA080E012FC4F810E054D0A5
:10380000012A60D0D5F8003943F00443C5F80039E7
:10381000D0F8343806F00F060CFA06FC4CEA030325
:10382000C0F83438AAE7D4F810C02CF0FF5C2CF4B0
:10383000C01CC4F810C0D4F810C04CF4002CC4F85C
:1038400010C0D4F810C04FEADC4C4FEACC4C012A2F
:10385000C4F810C037D0D5F80049012F44F0044413
:10386000C5F800498AD1D0F8084814F4807FD5F80B
:1038700000490CBF44F0005444F08054C5F800499E
:10388000002A7FF47BAF9BB203339A083FF476AFF4
:10389000CB6800EB063003EB820200F5805053F852
:1038A000041B01609342FAD168E7D4F810C02CF0F1
:1038B000C04CC4F810C0D4F810C0012A4CF0005C11
:1038C000C4F810C01AD10B6903B16361012F0CD188
:1038D000D0F8083813F4807FD5F800390CBF43F0D6
:1038E000005343F08053C5F80039D5F8003943F050
:1038F0000443C5F800390020BDE8F087D5F8004939
:1039000044F00444C5F80049ADE700BF0000F81FCB
:103910004B78F0B40D784E69012B00EB451427D09D
:1039200004F530631D698868ED0CED041D611D69A7
:1039300025F0FF5525F4C0151D6106B148611D69CC
:1039400045F400251D611D69C0F312002843012ABA
:10395000186108D0D4F8003B43F00443C4F8003B9E
:103960000020F0BC7047CA68002AF3D05A61F1E722
:1039700004F510639EB31F69D1F808C0FF0CFF0463
:103980001F611F6927F0FF5727F4C0171F611F69C8
:10399000B44547F4002738BFC1F814C01F6138BFD1
:1039A0006646D3F810C0C6F3120747EA0C07012A8F
:1039B0001F612DD0D4F8003943F00443C4F8003916
:1039C000002ECDD0D0F8342805F00F05012303FADE
:1039D00005F51543C0F834580020F0BC704718694D
:1039E00020F0FF5020F4C0101861186940F4002046
:1039F00018611869C00CC004012A186108D0D4F8F5
:103A0000003943F00443C4F800390020F0BC70478B
:103A10000A69002AF3D05A61F1E700BF10B49DF89B
:103A200004406CB903339B080AD000EB023000F568
:103A3000805001EB830351F8042B02608B42FAD1D2
:103A400000205DF8044B7047033292080DD010B48B
:103A500001EB820200F580540846236840F8043BDD
:103A60008242FAD15DF8044B70470846704700BFA8
:103A70004A780B78012A00EB431012D0D0F8002BC3
:103A8000002A06DB2BB1D0F8003B23F08043C0F8BE
:103A9000003BD0F8003B43F40013C0F8003B00208B
:103AA0007047D0F80029002A06DB2BB1D0F8003986
:103AB00023F08043C0F80039D0F8003943F40013F4
:103AC000C0F8003900207047CB780A784978023B6B
:103AD0000129DBB200EB421011D0D0F8002B012BF2
:103AE00022F40012C0F8002B01D900207047D0F852
:103AF000003B43F08053C0F8003B00207047D0F8F3
:103B00000029012B22F40012C0F80029EDD8D0F8CA
:103B1000003943F08053C0F800390020704700BFDF
:103B2000D0F8003823F4FE63C0F80038D0F800382D
:103B3000090101F4FE611943C0F800180020704724
:103B400000F5006208B5536823F0020303205360B8
:103B5000FCF75CFD002008BD00F5006208B5536865
:103B600043F0020303205360FCF750FD002008BD22
:103B70004269806910407047D0F8183800F500603D
:103B8000C0691840000C7047D0F8183800F5006084
:103B9000C069184080B2704700EB411100F5006029
:103BA000D1F8082B40691040704700BF10B4D0F81E
:103BB0001048D0F8343800EB411001F00F0100F547
:103BC0001060CB40DB01DBB28068234318405DF816
:103BD000044B7047406900F001007047D0F800398D
:103BE00023F4FF6323F0070300F50062C0F80039F7
:103BF000936803F00603042B05D1D0F8003943F095
:103C00000303C0F80039536843F480735360002005
:103C1000704700BF30B4124C056CA54200F530630C
:103C200003D9D0F8004B002C16DB00241C611C6962
:103C300044F400241C611C6944F018041C611C69D4
:103C4000012944F0C0441C6106D15A61D0F8003B00
:103C500043F08023C0F8003B002030BC704700BF19
:103C60000A30544FD0F8943283B110B5D0F8904256
:103C700094F80002FF2807D09B6894F8012221469F
:103C80009847FF2384F80032002010BD00207047C1
:103C9000432303800048704708000020432303802B
:103CA000004870474C0000204323038000487047C1
:103CB000900000200A23038000487047D4000020B1
:103CC00038B50446D0F8905201F0F0FBD4F89032A9
:103CD000C5F80C024BB1D4F89432D5F80402DB6875
:103CE00005F503719847002038BD022038BD00BF9C
:103CF000F8B5D0F89062E6B101EB810200EB8202E8
:103D0000D7695FB1D0F89842C1EBC10304EB8303DC
:103D10005B6CB7FBF3F403FB14741CB10020C6F812
:103D20001402F8BDD4612346224601F0A3FB2046CD
:103D3000F8BD0220F8BD00BF2DE9F0410B78D0F8A6
:103D4000908282B0002713F060040D4606468DF87D
:103D50000570ADF806700FD0202C17D1CC8891F8E3
:103D600001C064BBD0F89432224660469B689847F5
:103D7000204602B0BDE8F0814F780A2F14D00B2FF7
:103D80000CD01FB990F87432032B28D03046294646
:103D900000F096FC022002B0BDE8F08190F8743289
:103DA000032BF3D12046F6E790F87432032BEDD1C4
:103DB00001220DF1050100F0B5FC2046EBE71B06E2
:103DC00014D5D0F89432224660469B684146984705
:103DD000EA884146304600F0A5FC3846DBE702227F
:103DE0000DF1060100F09EFC3846D4E788F800C2C9
:103DF00088F801422246414600F0AAFC3846CAE74C
:103E000038B504460025812101F0E8FA0121E56278
:103E1000204601F0E3FAC4F858512046822101F00F
:103E2000DDFAD4F8903225644BB1D4F894325B6853
:103E30009847D4F8900201F019FEC4F8905200207F
:103E400038BD00BF037C2DE9F0410446C3BB01250A
:103E50004FF400730222812101F0B0FAE562294695
:103E60004FF400730222204601F0A8FAC4F858511A
:103E70000823032282212046012701F09FFA2764AC
:103E80004FF4077001F0EAFD0546C4F8900270B3E4
:103E9000D4F894321B68984794F81080D5F804221F
:103EA0000026C5F814623946C5F818622046B8F1F4
:103EB000000F15D0402301F0EBFA3046BDE8F08149
:103EC000012540230222812101F078FAE56229468A
:103ED00040230222204601F071FAC4F85851C7E786
:103EE0004FF4007301F0D4FA4046BDE8F081384643
:103EF000E4E700BF19B1C0F8941200207047022017
:103F0000704700BFD0F890320020C3F80812C3F801
:103F100010227047D0F890320020C3F80412704786
:103F2000D0F890228AB110B5047CD2F804222CB1CA
:103F30004023012101F0ACFA002010BD4FF40073C2
:103F4000012101F0A5FA204610BD0220704700BFF4
:103F500088B108B5D0F88C3213B10023C0F88C3288
:103F600009B1C0F888120123027080F8743201F0A0
:103F7000E5F9002008BD0220704700BF19B1C0F864
:103F80008C12002070470220704700BF08B501F076
:103F900007FA002008BD00BF08B5D0F88C321BB16D
:103FA0001B68984700B908BD022008BD08B5D0F8C5
:103FB0008C325B689847002008BD00BF38B50446C6
:103FC00000F52075284600F067FB94F88012B4F8DD
:103FD0008632C4F87032012201F01F039342C4F804
:103FE0006C2215D00ED3022B06D001F080012046A2
:103FF00001F002FA002038BD2946204600F0B8FA48
:10400000002038BD2946204600F008F9002038BDC0
:104010002946204600F080FA002038BD70B50546DC
:1040200041B9D0F86C32032B0FD0052B0C462ED0A3
:10403000002070BDD0F88C329B69C3B190F8742217
:10404000032A14D19847002070BD1646D0F84C3191
:10405000D0F8502193420CD99B1A9A42C0F84C31A7
:104060008CBF9AB292B2314600F082FBE0E70220A8
:1040700070BDD0F88C321B6923B190F87422032AEA
:1040800000D19847284600F07BFB002070BDC5F8A2
:104090006C1201F0B1F9204670BD00BF70B5044646
:1040A00089B91346D0F86C22022A1AD032F00403E0
:1040B00002D1802101F0A0F994F87832012B4FF061
:1040C00000000BD070BDD0F88C325B696BB390F8F8
:1040D0007422032A29D19847002070BD84F8780201
:1040E00070BDD0E90862964221D8C369B3FBF2F5EE
:1040F00002FB15350DB99A4227D9D4F88C32DB680A
:104100002BB194F87422032A01D1204698478021CC
:10411000204601F071F9204600F03EFB94F8783219
:10412000012B4FF00000CDD1D8E7022070BDB21AAC
:104130000D460262194692B200F002FB2B462A4657
:104140002946204601F0A4F9B6E7D0F87022934240
:10415000D3D22A4600F0F4FAC4F87052EEE700BF5A
:1041600070B50022044640231E461146012501F089
:1041700025F933468021C4F84451C4F850612046E3
:10418000002201F01BF9D4F89032A561002166628B
:1041900084F87452C4F86C126160C4F87C1223B1C4
:1041A000D4F88C3220465B689847002070BD00BF71
:1041B00001740020704700BF90F8742280F87522C7
:1041C000042380F874320020704700BF03460020AB
:1041D00093F8752283F87422704700BF90F8742218
:1041E000032A01D00020704708B5D0F88C32DB6973
:1041F00003B19847002008BD002070470020704799
:104200000020704708B50121D0F88C2280F8741284
:10421000526801799047002008BD00BF30B50B7887
:1042200003F06003202B83B00D46044628D0402BBA
:1042300026D053B18021204601F0DEF8204600212F
:1042400001F0DAF8002003B030BD4B78092BF1D82B
:1042500001A252F823F000BFD54200080343000832
:10426000354200081B43000835420008234300087C
:104270005F430008354200088D4300089342000860
:10428000D4F88C3229469B6820469847002003B01A
:1042900030BD89789F4D01292970CBD890F87432B0
:1042A000022B00F00C81032B40F0FD80002900F070
:1042B00026814168012909D0C9B2FFF777FE297824
:1042C00061602046FFF768FE0228B3D0204600F068
:1042D00057FAB7E790F87432013B022B4FF0030214
:1042E000A8D8CB88022BA5D1D0F87C320121C1609F
:1042F00003B1C260022204F10C01204600F012FA60
:10430000A0E790F87432013B022B93D84B88012B25
:1043100098D10023C4F87C32D8E74B88012B91D187
:10432000F8E78B88002B85D1CB88002B82D14D8874
:104330007F2D3FF67FAF90F87432032B3FF47AAFB6
:10434000E9B280F8761201F087F8204600F018FAFA
:10435000002D00F0D080022384F8743272E74A887E
:10436000130A013B062B3FF665AF01A151F823F07C
:10437000254400080D440008354400083542000873
:1043800035420008F7430008B3430008CA88012AF1
:104390007FF450AF90F87432002B3FF44BAF022BF8
:1043A00040F29B80032B7FF445AF011D00F0BAF96A
:1043B00048E7037C002B7FF43DAFD0F88C320DF141
:1043C00006001B6B984707234370BDF80630EA8848
:1043D0006BB1002A3FF47AAF934228BF13461A46C6
:1043E00001462046ADF8063000F09CF9EA88002A24
:1043F0007FF428AF6AE7037C002B7FF41BAFD0F873
:104400008C320DF106005B6B9847DEE7027CD0F83A
:104410008C32002A68D19B6A0DF10600984702236E
:104420004370D2E7D0F88832007C1B680DF106019A
:104430009847CAE7D2B2052A3FF6FCAEDFE802F0A1
:104440002B231B130B03D0F88832007C9B690DF1E2
:1044500006019847B9E7D0F88832007C5B690DF116
:1044600006019847B1E7D0F88832007C1B690DF14E
:1044700006019847A9E7D0F88832007CDB680DF187
:1044800006019847A1E7D0F88832007C9B680DF1BF
:104490000601984799E7D0F88832007C5B680DF1F7
:1044A0000601984791E7802100F0A6FF00212046F1
:1044B00000F0A2FF29782046FFF778FDC2E6002928
:1044C0003FF404AF01210323416080F87432FFF709
:1044D00063FD02287FF4FAAEACE60146002341F802
:1044E000083F00F01FF9ADE6DB6A0DF106009847C2
:1044F0000223437069E7012384F87432A2E60223A1
:10450000416080F87432FFF751FD204600F038F921
:1045100098E600BF0C02002038B50B7803F060036A
:10452000202B0D4604460CD0402B0AD04BB18021E5
:10453000204600F061FF2046002100F05DFF0020D2
:1045400038BD94F87432013B022BF0D82B79012B43
:10455000EDD8D4F88C3229469B6820469847EB88E2
:10456000002BECD10028EAD1204600F009F9E6E75B
:1045700070B50B7803F06003202B04460CD0402B61
:104580000AD083B18021204600F036FF204600216A
:1045900000F032FF002070BDD4F88C3220469B68BA
:1045A0009847002070BD4B788A88012BD5B23DD04A
:1045B00014D3032BE6D190F87432022B45D0032B91
:1045C000E0D14B8833B96A0604D0CB8813B92946A9
:1045D00000F012FF204600F0D3F8DBE790F87432C9
:1045E000022B3CD0032BCDD105F00F0303EB83034B
:1045F000120600EB830341D4D3F84431002BC1D021
:1046000005F07F03142606FB030606F5A07633B1FA
:104610002946204600F00CFF00283AD001233360E1
:1046200031462046022200F07DF8B3E790F874325C
:10463000022B0AD0032BA5D14B88002BAAD16E06E2
:10464000C8D0294600F0E6FEC4E76B069AD029469A
:1046500000F0D2FE2046802100F0CEFE9AE76806E8
:1046600090D111064CBF04F1140104F5A071002390
:1046700020460B60022200F055F88BE79B69002B67
:1046800080D005F07F035E1C06EB860600EB8606F5
:10469000BDE73060C4E700BF0B7803704B78437010
:1046A000CA788B7803EB022343804A790B7903EBBA
:1046B00002238380CA798B7903EB0223C38070477E
:1046C00010B58021044600F097FE20460021BDE889
:1046D000104000F091BE00BF00B3037830B4F3B1D6
:1046E0000446002314F8015F0133DBB2002DF9D139
:1046F0005B000233032413800B704C7004785CB1B0
:10470000022300255A1CD2B2CC548D5410F8014F0C
:104710000233DBB2002CF5D130BC70477047022366
:10472000E8E700BF38B5134602250A46C0E907335B
:10473000C0F86C52002100F09DFE002038BD00BF83
:1047400008B513460A46002100F094FE002008BD7B
:1047500038B5134603250A46C0F84831C0F84C3135
:10476000C0F86C52002100F093FE002038BD00BF5D
:1047700008B513460A46002100F08AFE002008BD55
:1047800008B504220023C0F86C2219461A4600F02E
:1047900071FE002008BD00BF08B505220023C0F847
:1047A0006C2219461A4600F073FE002008BD00BFB7
:1047B000101E17DDF0B40C4DD5F80074D5F8044484
:1047C0000E183B19FF2C01F10101DBB206D811F8DC
:1047D000012C45F823200134C5F80444B142F0D13E
:1047E000F0BC7047704700BF100200201F2808D897
:1047F000044A0123D2F8081403FA00F00843C2F86F
:1048000008047047100200202DE9F041DFF8C48051
:10481000264FD8F80834264E264D0024E1B2D3B1F5
:104820000122A2401A423CD023EA0203C8F808340D
:104830000B2936D8DFE801F0312D29252135351D2A
:1048400019151106384601F03DFAD8F8083401343C
:10485000E1B2002BE4D1BDE8F081304601F032FA3C
:10486000F3E7284601F02EFAEFE7134801F02AFAA1
:10487000EBE7124801F0B2F9E7E7114801F022FA3C
:10488000E3E7104801F01EFADFE70F4801F01AFADB
:10489000DBE70E4801F016FAD7E70D4801F012FAEF
:1048A000D3E71F29D3D1BDE8F08100BF246A0008F7
:1048B000106A0008006A0008E8690008CC6900086E
:1048C000B0690008986900088069000868690008F4
:1048D00050690008100200204FF06043D3F8802E8A
:1048E000D1071AD5D3F8002ED20716D51A68A2B16F
:1048F0000A4AD2F8040480B1D2F8001410B452F875
:1049000021400131E4B20138C9B2C2F804041C707C
:10491000C2F800145DF8044B704770471002002085
:10492000034B0022C3F80024C3F80424704700BFDF
:104930001002002030B5002395B0CDE90A33CDE94F
:104940000433CDE90633234901930C930393086C98
:10495000214A40F080500864096C01F080510191B7
:1049600001990293136843F480431360136803F4BE
:104970008043029309204FF48031012202234FF437
:104980008005029C0890082409910D924821032279
:1049900008A80E931293CDE90F5411911392FDF7CD
:1049A000BDFE98B9022200230F254FF4805403A8BE
:1049B0001146CDE903520593CDE90643FEF7BCF855
:1049C00010B1064801F07EF915B030BD034801F082
:1049D00079F9E7E70038024000700040306A0008CB
:1049E00000B500248BB0FBF7E5FDFFF7A3FFCDE991
:1049F0000544CDE90744B34B009409941A6BB248BF
:104A000042F004021A631A6B02F004020092009A48
:104A100001941A6B42F080021A631A6B02F0800252
:104A20000192019A02941A6B42F001021A631A6B06
:104A300002F001020292029A03941A6B42F00202FF
:104A40001A631A6B02F002020392039A04941A6B1F
:104A500042F008021A631B6B03F00803049301225F
:104A60000221049BFCF732F822464FF220119648AF
:104A7000FCF72CF822464FF490519448FCF726F8A6
:104A800022464FF407419248FCF720F822460421C1
:104A90009048FCF71BF8012542F20F0305A98B484B
:104AA0000795CDE90534FBF75DFE032305A988488A
:104AB0000593CDE90645FBF755FE302305A983484C
:104AC00005931126CDE90644FBF74CFE05A97E4867
:104AD0000596CDE90644FBF745FE46F2221305A9EB
:104AE00079480593CDE906540894FBF73BFE4FF453
:104AF000017305A974480593CDE90645FBF732FE1D
:104B00004FF48052022305A96F4805920893CDE91E
:104B10000654FBF727FE4FF4004305A96A480593A6
:104B2000CDE906640894FBF71DFE4FF4905305A9E8
:104B300066480593CDE906540894FBF713FE4FF43D
:104B4000074305A962480593CDE906540894FBF78D
:104B500009FE042305A95F480593CDE9065408948E
:104B6000FBF700FE5C4B5D495C6040F6FF72184647
:104B700019609A60FDF72CF8002840F0CF80584B60
:104B8000584A1A604FF482704FF4802208240A2198
:104B900058609A6118460022DC61D962C3E902229A
:104BA000C3E90422C3E908229A62FEF789F80028C3
:104BB00040F0D4804C4B4D4A1A604FF4E13400224F
:104BC0000C2118465C605961C3E902221A61C3E9ED
:104BD0000622FEF745FA002840F0BC80444B454AC7
:104BE0001A604FF4E13400220C2118465C605961D0
:104BF000C3E902221A61C3E90622FEF731FA00284E
:104C000040F0A4803C4B3D4A1A604FF4E13400224E
:104C10000C2118465C605961C3E902221A61C3E99C
:104C20000622FEF71DFA002840F08C80344B354AEE
:104C30001A604FF4E13400220C2118465C6059617F
:104C4000C3E902221A61C3E90622FEF709FA002825
:104C500074D12D4B2D4A1A6041F61F420924802140
:104C60005A6018460022DC6099619A60CDE90522FD
:104C7000FEF766F800285DD1002305A92248CDE99A
:104C80000533FEF7A3F9002850D100F067FA204B56
:104C9000204A21481A607A224FF4804501247C2161
:104CA0005860DA6018460022C3E9045499619A609A
:104CB000C3E90722FBF752FFA0BB00F0F1FD00F0B3
:104CC0000BFEFCE7003802400004024000080240EE
:104CD00000000240000C0240BC06002000300040F2
:104CE000DC070020003001401C07002000100140BC
:104CF00034080020004400407C06002000480040AA
:104D00009C070020001401405C07002000100040B8
:104D1000C806002000580040A0860100114800F09D
:104D2000D1FF2CE70F4800F0CDFFC6E70D4800F09B
:104D3000C9FFAAE70B4800F0C5FF9DE7094800F04E
:104D4000C1FF86E7074800F0BDFF6FE7054800F0A8
:104D5000B9FF57E7034800F0B5FF3FE7014800F00F
:104D6000B1FF27E7306A0008014800F0ABBF00BF81
:104D7000306A000882B00C4B002100915A6C42F45A
:104D800080425A645A6C02F480420092009A019167
:104D90001A6C42F080521A641B6C03F0805301932A
:104DA000019B02B0704700BF0038024070B5026836
:104DB000204B88B000249A42CDE90344CDE9054454
:104DC000079401D008B070BD1B4D01942B6B1B489C
:104DD00043F002032B632B6B03F0020301934FF4A8
:104DE000406303931222012303A904920593032233
:104DF0000423CDE90623019EFBF7B4FC02942B6C3F
:104E000043F480032B642B6C03F480032246214679
:104E100002932120029BFBF71DFC2120FBF750FC95
:104E2000224621462220FBF715FC2220FBF748FCF6
:104E300008B070BD00580040003802400004024035
:104E400008B502680A4B9A4200D008BD094A0A48D0
:104E5000136C23F4800313644FF44061FBF786FD69
:104E60002120FBF73BFC2220BDE80840FBF736BCC5
:104E700000580040003802400004024070B501684C
:104E8000174A88B000239142CDE90333CDE90533B9
:104E9000079301D008B070BD02F584320193516CC4
:104EA000104841F480515164516C01F480510191DA
:104EB00001990293136B43F001031363136B03F027
:104EC000010302930322052303A9F0250224029E75
:104ED000CDE90354CDE90623FBF744FC08B070BDCF
:104EE000003001400000024002680E4B9A4200D0A0
:104EF000704700B583B0002203F50A330192196CA4
:104F000041F0100119641B6C03F01003019311466A
:104F10003620019BFBF79EFB362003B05DF804EBC7
:104F2000FBF7CEBB0010004070B502684A498EB056
:104F300000238A42CDE90933CDE90B330D932FD0FD
:104F400046498A424AD046498A4265D045498A4202
:104F500001D00EB070BD444A0793516C434841F0F4
:104F600020015164516C01F02001079107990893C9
:104F7000136B43F004031363136B03F004030893F0
:104F8000089EC023099309A90225012403220823AE
:104F9000CDE90A54CDE90C23FBF7E4FB0EB070BD5C
:104FA000314A0193516C324841F010015164516C07
:104FB00001F01001019101990293136B43F0020378
:104FC0001363136B03F002030293C023099309A92F
:104FD000022501240322029E0723D9E7224A0393D4
:104FE000116C244841F400311164116C01F400315A
:104FF000039103990493136B43F001031363136B41
:1050000003F0010304930C23099309A90225012449
:105010000322049E0723BBE7134A0593116C134830
:1050200041F480211164116C01F4802105910599EE
:105030000693136B43F004031363136B03F0040331
:1050400006934FF44063099309A902250124032222
:10505000069E07239CE700BF00100140004400406B
:10506000004800400014014000380240000802409F
:105070000004024000000240704700BFFEE700BF8E
:10508000FEE700BFFEE700BFFEE700BF704700BFBE
:10509000704700BF704700BFFBF7A6BA0148FBF797
:1050A00013BF00BFC80600200148FCF721BC00BFA9
:1050B000C80600200148FDF7DFBE00BF5C070020E6
:1050C0000148FCF75DBE00BF101B002070B5161E26
:1050D00007DD0C468D19AFF3008004F8010BA542E3
:1050E000F9D1304670BD00BF0C4A08B5136833B122
:1050F00018446946884208D81060184608BD084B15
:105100001360184469468842F6D900F07DFC0C23F0
:1051100003604FF0FF33184608BD00BF1C06002097
:10512000202100204FF0FF30704700BF4FF40053A4
:105130004B600020704700BF01207047002070477F
:10514000054BD3F888204FF0006142F47002C3F899
:1051500088209960704700BF00ED00E008B500228C
:1051600010491148FEF7F4FEC0B910490E48FEF789
:1051700005FF80B90E490C48FEF7BCFE40B90A484D
:10518000FEF704FF00B908BDBDE80840FFF7ECBD1D
:10519000FFF7EAFDF3E7FFF7E7FDEBE7FFF7E4FDD5
:1051A000E3E700BF6001002074080020E000002059
:1051B0001C010020002070470020704710B5054CEE
:1051C00001462046FEF7A6FE2046FEF7A9FE002077
:1051D00010BD00BF7408002010B5064C064900221F
:1051E0002046FEF78FFE20460449FEF793FE00207E
:1051F00010BD00BF7408002010130020100B002009
:105200000368B3F1A04F00D0704770B588B0194C57
:10521000194800250195236B43F001032363236B99
:10522000059503F00103019302214FF4C0530322BB
:10523000039304910A2303A9CDE90623019EFBF7FA
:1052400091FA636B43F0800363630295636C43F4EC
:1052500080436364636C03F4804302932A462946C7
:105260004320029BFBF7F6F94320FBF729FA08B02D
:1052700070BD00BF003802400000024000F57171AF
:10528000D0F80404FEF79ABEC1EBC10300EB830320
:10529000D0F80404D3F80822FEF7C0BEC1EBC10366
:1052A00000EB8303D0F804049A6CFEF7F7BE00BF4E
:1052B000D0F80404FEF792BFC16810B5044621B1CE
:1052C00002290CD0FFF750FD0121D4F80404FEF7A9
:1052D0006FFFD4F80404BDE81040FEF741BF012180
:1052E000F3E700BF10B50446D0F80404FEF764FFEE
:1052F0002268D2F8003E43F00103C2F8003E236A60
:1053000023B1034A136943F00603136110BD00BFC4
:1053100000ED00E0D0F80404FEF758BFD0F8040414
:10532000FEF76CBFD0F80404FEF766BFD0F80404A3
:10533000FEF766BFD0F80404FEF764BF02780AB136
:105340000020704738B5154B0221C3F804044FF014
:10535000A0450424C0F8983218461A61C3E9072210
:105360005A62C3E90B22C3E90054D9609961FCF782
:1053700059FC78B980210948FDF7CAF9402200217B
:105380000648FDF7A1F9802201210448FDF79CF9A8
:10539000002038BDFFF7E8FCECE700BF101B002041
:1053A00008B5D0F89802FCF7C9FC032896BF024B59
:1053B0000220185C08BD00BF4C69000810B51C46EF
:1053C000D0F8980213462246FDF748F8032896BF06
:1053D000014B0220185C10BD4C69000808B5D0F8DC
:1053E0009802FDF76FF8032896BF024B0220185C65
:1053F00008BD00BF4C69000808B5D0F89802FDF759
:10540000E7F8032896BF024B0220185C08BD00BFD6
:105410004C69000808B5D0F89802FDF71DF903287B
:1054200096BF024B0220185C08BD00BF4C69000803
:105430000A06D0F8983206D4C1EBC10103EB810112
:1054400091F8FE01704701F07F01C1EBC10103EB50
:10545000810191F83E00704708B5D0F89802FCF73A
:10546000E9FF032896BF024B0220185C08BD00BF6D
:105470004C69000808B5D0F89802FDF785F80328B4
:1054800096BF024B0220185C08BD00BF4C690008A3
:1054900008B5D0F89802FDF745F8032896BF024BEF
:1054A0000220185C08BD00BF4C690008D0F89802C3
:1054B000FDF760B812230B80004870472C010020D4
:1054C00004230B80004870474001002010B5044CB5
:1054D00004480A462146FFF7FFF8204610BD00BFEA
:1054E000181F0020406A000810B5044C04480A4602
:1054F0002146FFF7F1F8204610BD00BF181F00201D
:10550000546A000810B5044C04480A462146FFF7C7
:10551000E3F8204610BD00BF181F00206C6A000889
:1055200010B5044C04480A462146FFF7D5F820463A
:1055300010BD00BF181F0020786A00084D4A4E4B6E
:1055400012681B681A20D218088001D14B48704796
:10555000130FD8B2092B4A494A4B096894BF30301F
:10556000373010B498760024C2F303600928DC7643
:10557000C4B294BF30343734C2F303501C770024D4
:1055800009285C77C4B294BF30343734C2F3034087
:105590009C7700240928DC77C4B294BF30343734B8
:1055A000C2F3033083F820400024092883F8214007
:1055B000C4B294BF30343734C2F3032083F822409E
:1055C0000024092883F82340C4B294BF3034373410
:1055D000C2F3031083F824400024092802F00F02CC
:1055E00083F82540C4B298BF3034D0B288BF373476
:1055F000092A94BF303037300A0F83F82800002082
:10560000092A83F82900D0B294BF30303730C1F373
:10561000036283F82A000020092A83F82B00D0B205
:1056200094BF30303730C1F3035283F82C00002090
:10563000092A83F82D00C1F30341D0B298BF30305E
:10564000CAB288BF3730092994BF3032373283F865
:10565000264083F82E000024002083F8302000220A
:1056600083F82F0083F8274083F8312003485DF842
:10567000044B7047107AFF1F187AFF1F4401002067
:10568000147AFF1F2C010020464B834200D0704744
:1056900070B5454C45484FF40051FBF71BFA227892
:1056A000424882F001024FF40041FBF70FFA638891
:1056B00001339BB2B3F57A7F63804DD23C4D2B68AA
:1056C000002B34D10020FFF791F8642300223948E1
:1056D0002B60A3602271FBF701FB3648FBF73EFA13
:1056E000A66816B12279002A40D16B681BB1013B34
:1056F0006B60002B4CD004212C48FBF7E1F901280A
:1057000027D00820FFF772F8AB68ABB9002202215E
:105710002648FBF7DBF900230B202370FFF766F820
:1057200047F23053AB60BDE87040FFF7D5B8013B9E
:105730002B60002BD4D1C5E7013BAB60002BE5D03B
:10574000012202211948FBF7C1F9BDE87040FFF7BB
:10575000C3B864236B60D7E74FF480411348FBF76D
:10576000B9F9FFF751F800236380A7E7013EA6606F
:10577000002EBAD10120FFF739F864230D482671B5
:105780002B60A360FBF7AAFA0A48FBF7E7F9ACE73E
:1057900001224FF480510548FBF798F90920FFF7E3
:1057A00025F8A8E75C070020280600200004024036
:1057B0007C010020C806002038B50F4B834200D082
:1057C00038BD0E4C6423002504F10C012422A36093
:1057D0002571FBF79DFA022818BF0123084A18BF5C
:1057E00023714FF4FA656423012000219560136052
:1057F000A3602070217138BDC80600202806002053
:105800007C01002038B50F4B834200D038BD0E4CD0
:105810006423002504F10C012422A3602571FBF709
:10582000B3FA022818BF0123084A18BF23714FF4A6
:10583000FA6564230120002195601360A360207045
:10584000217138BDC8060020280600207C010020F8
:105850000C4B834200D0704710B5FCF7B7F90446F3
:105860000220FEF7C3FF630708D4074B1A6B002022
:10587000013264211A631871996010BD0320FEF78C
:10588000B5FFF2E7C806002028060020034B83423C
:1058900000D070470420FEF7A9BF00BFC806002053
:1058A00010B5094B094C642200210A2022609A603D
:1058B0001971FAF7ABFE064800F004FA0548BDE896
:1058C0001040FDF7C1BA00BF280600207C0100206F
:1058D000886A00085C07002038B52D482D4CFCF77D
:1058E0009BF94FF400712C48FBF7EAF82378002B62
:1058F00048D002464FF400712848294DFBF7E6F8DE
:105900004FF400512548FBF7DBF84FF40041024605
:105910002448FBF7DBF801212048FBF7D1F84FF4CE
:10592000007102461F48FBF7D1F802211B48FBF724
:10593000C7F84FF4806102461A48FBF7C7F8082100
:105940001648FBF7BDF8042102461748FBF7BEF8DE
:1059500001211448FBF7B4F84FF4807102460E4859
:10596000FBF7B4F8284624221049FBF70DFA022869
:1059700007D06A680E4BB3FBF2F301220533A36034
:10598000227138BD0A20FEF731FF0122B2E700BFC5
:10599000BC06002028060020000402400008024047
:1059A000C806002000000240000C0240340600201F
:1059B000A0F10400DFF834D0002103E00C4B5B5869
:1059C000435004310B480C4B42189A42F6D30B4A11
:1059D00002E0002342F8043B094B9A42F9D3FFF757
:1059E000AFFB00F017F8FEF7FBFF70470000022046
:1059F000406B000800000020F0010020F0010020B2
:105A00001C210020FEE70000014B1868704700BF12
:105A10008C01002070B50D4E0D4CA41BA410002568
:105A2000A54209D10B4E0C4C00F078FFA41BA4102A
:105A30000025A54205D170BD56F82530984701359F
:105A4000EEE756F8253098470135F2E7346B000849
:105A5000346B0008346B00083C6B0008024B0146B5
:105A6000186800F061B800BF8C010020024B0146AD
:105A7000186800F00BB800BF8C01002002440346F8
:105A8000934200D1704703F8011BF9E738B505468A
:105A9000002945D051F8043C0C1F002BB8BFE41876
:105AA00000F0C6FB1F4A1368104633B963601460E8
:105AB0002846BDE8384000F0BCBBA3420CD92168A1
:105AC0006218934204BF1A685B68636004BF52188F
:105AD00022600460ECE713465A680AB1A242FAD980
