:020000040800F2
:1000000000000220115B0008CD550008CF55000804
:10001000D1550008D3550008D55500080000000050
:10002000000000000000000000000000D75500089C
:10003000D955000800000000DB550008DD55000818
:10004000615B0008615B0008615B0008615B0008A0
:10005000615B0008615B0008615B0008615B000890
:10006000615B0008615B0008615B0008615B000880
:10007000615B0008615B0008615B0008615B000870
:10008000615B0008615B0008615B0008615B000860
:10009000615B0008615B0008615B0008615B000850
:1000A000615B0008615B0008615B0008615B000840
:1000B000615B0008615B0008615B0008615B000830
:1000C000615B0008E5550008F5550008615B000814
:1000D000615B0008615B0008615B0008615B000810
:1000E000615B0008615B0008615B0008615B000800
:1000F000615B0008615B0008615B0008615B0008F0
:10010000615B0008615B0008615B0008615B0008DF
:10011000615B0008615B000805560008615B000830
:10012000615B0008615B0008615B0008615B0008BF
:10013000615B00080000000000000000615B000837
:10014000615B0008615B0008615B000815560008F0
:10015000615B0008615B0008615B0008615B00088F
:10016000615B0008615B0008615B0008615B00087F
:10017000615B0008615B00080000000000000000F7
:08018000615B0008615B0008EF
:1001900010B5054C237833B9044B13B10448AFF3C1
:1001A00000800123237010BDE0010020000000004A
:1001B000786A000808B5034B1BB103490348AFF345
:1001C000008008BD00000000E4010020786A0008FB
:1001D00053B94AB9002908BF00281CBF4FF0FF31AE
:1001E0004FF0FF3000F072B9ADF1080C6DE904CEAC
:1001F00000F006F8DDF804E0DDE9022304B0704702
:100200002DE9F047089E04468846002B4BD18A42D0
:10021000154667D9B2FA82F24AB1C2F1200701FA53
:1002200002F320FA07F7954047EA030894404FEAA3
:10023000154E230CB8FBFEF71FFA85FC0EFB178842
:1002400043EA084307FB0CF1994209D9EB1807F17F
:10025000FF3080F01B81994240F21881023F2B440D
:100260005B1AA4B2B3FBFEF00EFB103344EA034466
:1002700000FB0CFCA44509D92C1900F1FF3380F0D8
:100280000781A44540F2048102382C4440EA07402B
:10029000A4EB0C0400271EB1D4400023C6E90043A0
:1002A0003946BDE8F0878B4209D9002E00F0EB807B
:1002B0000027C6E9000138463946BDE8F087B3FAA1
:1002C00083F7002F47D18B4202D3824200F2FA809B
:1002D000841A61EB030301209846002EE0D0C6E9A2
:1002E0000048DDE702B9FFDEB2FA82F2002A40F0F0
:1002F0008F80491B4FEA154E1FFA85F80127B1FB85
:10030000FEFC230C0EFB1C1143EA014308FB0CF11D
:10031000994207D9EB180CF1FF3002D2994200F252
:10032000CD808446591AA3B2B1FBFEF00EFB101427
:1003300043EA044408FB00F8A04507D92C1900F152
:10034000FF3302D2A04500F2B6801846A4EB0804A1
:1003500040EA0C409FE7C7F1200CBB4022FA0CFE9C
:100360004EEA030E01FA07F420FA0CF521FA0CF319
:100370004FEA1E482543B3FBF8F92C0C08FB193350
:100380001FFA8EFA44EA034309FB0AF49C4202FA7C
:1003900007F200FA07F10BD91EEB030309F1FF3056
:1003A00080F087809C4240F28480A9F10209734466
:1003B0001B1BADB2B3FBF8F008FB103345EA034456
:1003C00000FB0AFAA24508D91EEB040400F1FF3332
:1003D0006BD2A24569D90238744440EA0940A0FBB7
:1003E0000289A4EB0A044C45C2464B4654D351D073
:1003F000002E69D0B1EB0A0564EB030404FA0CFC8F
:10040000FD40FC404CEA0505C6E90054002747E7DB
:10041000C2F1200320FA03F7954001FA02F021FA15
:1004200003F34FEA154E3843010CB3FBFEF71FFAF6
:1004300085F80EFB173341EA034107FB08F38B42B3
:1004400004FA02F407D9691807F1FF3C2FD28B4256
:100450002DD9023F2944CB1A81B2B3FBFEF00EFB2B
:10046000103341EA034100FB08F38B4207D96918B6
:1004700000F1FF3C17D28B4215D902382944C91A22
:1004800040EA07473BE73746304609E70746E7E6D5
:100490001846FBE64145ABD2B8EB020A69EB0E0207
:1004A00001381346A4E76046E9E7184695E7674632
:1004B000D1E781467CE702382C4447E7ACF1020CD7
:1004C0002B442FE7384608E73746E9E6704700BF78
:1004D00001F0FF01102A2BDB10F0070F08D010F8F5
:1004E000013B013A8B422DD010F0070F42B3F6D1F9
:1004F000F0B441EA012141EA014122F007047FF012
:1005000000070023F0E80256083C85EA010586EA68
:10051000010685FA47F5A3FA87F586FA47F6A5FAA4
:1005200087F68EB9EED1F0BC01F0FF0102F00702B0
:1005300032B110F8013B013A83EA010313B1F8D15B
:100540000020704701387047002D06BF354603383C
:10055000073815F0010F07D1013015F4807F02BF75
:10056000013015F4C03F0130F0BC0138704700BFC6
:1005700010B504460E4B18784FF47A73B3FBF0F3C2
:100580000C4A1068B0FBF3F000F0BCF868B90F2C0F
:1005900001D901200AE0002221464FF0FF3000F08F
:1005A0005DF8034B5C60002000E0012010BD00BF3F
:1005B000000000201801002008B50B4B1A6842F417
:1005C00000721A601A6842F480621A601A6842F473
:1005D00080721A60032000F02FF80020FFF7C8FF98
:1005E00004F05AFE002008BD003C0240034A116896
:1005F000034B1B780B441360704700BF1C020020A4
:1006000000000020014B1868704700BF1C0200204A
:1006100038B50446FFF7F6FF0546B4F1FF3F02D0B8
:10062000044B1B781C44FFF7EDFF401BA042FAD39C
:1006300038BD00BF00000020074AD36823F4E06300
:100640001B041B0C000200F4E060184340F0BF6084
:1006500040F40030D060704700ED00E030B4174B3C
:10066000DB68C3F30223C3F10704042C28BF04246E
:100670001D1D062D18D9033B4FF0FF3505FA04F474
:1006800021EA0401994005FA03F322EA030319431E
:1006900000280BDB0901C9B200F1604000F56140A0
:1006A00080F8001330BC70470023E5E700F00F002E
:1006B0000901C9B2024B1954F4E700BF00ED00E094
:1006C00014ED00E0002807DB00F01F0240090123C1
:1006D0009340024A42F82030704700BF00E100E03A
:1006E00000280CDB00F01F0240090123934020305A
:1006F000034A42F82030BFF34F8FBFF36F8F70472C
:1007000000E100E00138B0F1807F0AD2064B58606A
:10071000064AF02182F823100020986007221A6010
:1007200070470120704700BF10E000E000ED00E0DE
:1007300090F83530DBB2022B03D0802343650120D3
:100740007047052380F835300268136823F00103F1
:1007500013600020704790F83500704700230F2B7E
:1007600000F2D780F0B583B039E0072200E0002224
:10077000AA403A430234674D45F82420664A14687B
:10078000F24302EA04054F6817F4803F01D046EABD
:100790000405614C2560646802EA04054F6817F49B
:1007A000003F01D046EA04055B4C6560A46802EA9C
:1007B00004054F6817F4801F01D046EA0405564C23
:1007C000A560E46822404D6815F4001F01D046EA98
:1007D0000402514CE26001330F2B00F29880012299
:1007E0009A400C6804EA0206B242F4D14C68651ED5
:1007F000012D03D9112C01D0122C12D185685F0074
:100800000324BC4025EA0405CC68BC402C4384602A
:10081000456825EA02054C68C4F300129A402A4351
:100820004260C4685F000322BA40D24314408D681E
:10083000BD402543C5604C68022C01D0122C13D159
:10084000DD08083550F825E003F007044FEA840C72
:100850000F2404FA0CF42EEA040E0C6904FA0CF4CA
:1008600044EA0E0440F82540046822404C6804F035
:100870000304BC40224302604A6812F0805FAAD0A1
:1008800000220192254A546C44F480445464526C12
:1008900002F480420192019A9C08A51C1D4A52F85C
:1008A000257003F0030295000F22AA4027EA0207F1
:1008B0001B4A90423FF45BAF02F5806290421AD02F
:1008C00002F58062904218D002F58062904216D004
:1008D00002F58062904214D002F58062904212D0FC
:1008E00002F58062904210D002F5806290423FF49F
:1008F0003CAF08223CE701223AE7022238E7032214
:1009000036E7042234E7052232E7062230E703B057
:10091000F0BD704700380140003C01400038024003
:100920000000024000230F2B00F28880F0B529E080
:10093000072700E0002707FA05F5B54265D00568EE
:100940005E000324B440E44325400560DD0808351B
:1009500050F8256003F007074FEA870C0F2707FAC6
:100960000CF726EA070640F82560C5682540C560F3
:10097000456825EA020242608268144084600133BF
:100980000F2B5AD801229A4002EA0104A242F6D162
:100990004FEA930E0EF10206294D55F8266003F03A
:1009A0000305AD004FF00F0C0CFA05FC0CEA06062F
:1009B000244FB842BED007F58067B84219D007F57A
:1009C0008067B84217D007F58067B84215D007F5A1
:1009D0008067B84213D007F58067B84211D007F599
:1009E0008067B8420FD007F58067B842A0D00827CB
:1009F000A1E701279FE702279DE703279BE704273D
:100A000099E7052797E7062795E70F4D2E68E443FA
:100A100026402E606E6826406E60AE682640AE604E
:100A2000EE683440EC60064E0EF1020456F8245095
:100A300025EA0C0546F8245081E7F0BD704700BF59
:100A40000038014000000240003C014003691942A7
:100A500001D1002070470120704712B9090481615B
:100A6000704781617047436931EA030301D08161B6
:100A70007047090481617047036D9BB9C36C012BFA
:100A800008D0836CC3F3072302681361036D01333D
:100A900003657047836C0268DBB21361036D023338
:100AA00003657047036D012B03D0036D022B08D043
:100AB0007047836C0268DBB21361036D0133036519
:100AC000704790F83D30DBB2222B10D090F83D30CB
:100AD000DBB2212BECD1426A036812781A61436AB7
:100AE00001334362438D013B9BB24385E0E70268DB
:100AF000136843F480731360704790F83E30DBB2A4
:100B0000402B0AD00369B3F5804F15D0036D002B3D
:100B100034D0036D012B3BD07047036D2BB9436C70
:100B2000026803F0FE0313617047436C026843F0F0
:100B30000103DBB21361704790F83D30DBB2212B2B
:100B40000FD0436C026843F00103DBB21361436BC7
:100B50006BB1DB6B5BB10268536843F400635360B5
:100B60007047436C026803F0FE031361EFE7836B89
:100B7000002BD1D0DB6B002BEDD1CDE7436CC3F361
:100B8000C813026803F0060343F0F00313617047D3
:100B9000436CC3F3C813026803F0060343F0F10388
:100BA0001361B9E7436C0268DBB21361436B3BB17D
:100BB000DB6B4BB10268536843F4006353607047CA
:100BC000826B002AF4D1FAE7836BDB6B002BF1D147
:100BD000F5E710B48BB090F83E30DAB2C16A046B1E
:100BE00090F83D30DBB2222B0BD000230993036831
:100BF0005A6909929B690993099B0BB05DF8044BF4
:100C00007047036D0BB9402A17D0036D1BB90369F8
:100C1000B3F5404F19D0438D9BB2002B25D10293E1
:100C200003685A6902929A690292029A1A6842F417
:100C300000721A6000230365DFE7009303685A69B6
:100C400000929B690093009BD7E700230193036800
:100C50005A6901929A690192019A1A6842F4807263
:100C60001A60036D01330365C7E7438D9BB2012B07
:100C700025D0438D9BB2022B7BD00268136843F4CE
:100C80008063136003685A6812F4006F0ED011F588
:100C9000803F07D0012905D0082903D0102901D0B1
:100CA000202903D15A6842F480525A6000230893E5
:100CB00003685A6908929B690893089BBAE711F583
:100CC000803F11D0082934D0202932D0122C2ED0C8
:100CD000042940D002293ED010293CD00268136874
:100CE00023F4806313603BE00268136823F480639D
:100CF000136003685A6812F4006F0CD01A6822F46B
:100D000080621A600023039303685A6903929B6907
:100D10000393039B8EE7002204925A6904929A6916
:100D20000492049A1A6842F400721A6082E7012958
:100D3000CED00268136823F4806313600023069307
:100D400003685A6906929A690692069A1A6842F4EA
:100D500000721A606EE70268136843F480631360E0
:100D60000023059303685A6905929B690593059BC7
:100D700060E704290ED002290CD010290AD002689D
:100D8000136823F4806313600268136843F40063FC
:100D9000136004E00268136843F48063136003681F
:100DA0005A6812F4006F0ED011F5803F07D0012968
:100DB00005D0082903D0102901D0202903D15A6871
:100DC00042F480525A600023079303685A690792DD
:100DD0009B690793079B2DE7438D9BB253B1426AF2
:100DE000036812781A61436A01334362438D013B01
:100DF0009BB243857047438D9BB253B103681A6918
:100E0000436A1A70436A01334362438D013B9BB2CC
:100E100043857047C36AB3F52A0F04D0C36AB3F1A0
:100E20002A4F03D070470123C36270470823C3626F
:100E3000F8E70000002800F0C880F8B5044690F8F4
:100E40003D30002B75D0242384F83D302268136890
:100E500023F0010313602268136843F40043136016
:100E60002268136823F40043136001F0C3FF626833
:100E7000584B9A4262D8584B98428CBF00230123AA
:100E8000002B40F0A480554BA3FB00239B0C216852
:100E90004A6822F03F021A434A6025682A6A22F013
:100EA0003F0266684B498E424ED8013313432B6292
:100EB0002568E96921F44F4121F0FF016368454A43
:100EC00093424BD801385B00B0FBF3F30133C3F31B
:100ED0000B03042B38BF04230B43EB6121680B6821
:100EE00023F0C003E269206A024313430B602168C8
:100EF0008B6823F4034323F0FF032269E068024375
:100F000013438B602168CB6823F0FF036269A069FB
:100F100002431343CB602268136843F0010313605C
:100F200000202064202384F83D30206384F83E00B4
:100F3000F8BD80F83C3004F0CBF984E7284B9842A8
:100F40008CBF002301239BE74FF4967101FB03F351
:100F50002449A1FB03139B090133A7E7A268BAB98F
:100F6000461E03EB4307B6FBF7F60136C6F30B0646
:100F7000B6FA86F6760936BBC2B9013803EB4303ED
:100F8000B0FBF3F30133C3F30B0242F40043A3E7D6
:100F9000461E03EB830707EB8707B6FBF7F6013620
:100FA000C6F30B06B6FA86F67609E4E7013803EBDA
:100FB000830303EB8303B0FBF3F20132C2F30B02B2
:100FC00042F4404388E7012386E70120704701206F
:100FD000AEE700BFA08601007F841E0083DE1B43B6
:100FE000FF083D00D34D6210A8B110B5044624237C
:100FF00080F83D300268136823F00103136004F0A9
:10100000B1F90020206484F83D00206384F83E009C
:1010100084F83C0010BD0120704730B482B090F8D5
:101020003D4004F02804282C34D1002936D0002A71
:1010300036D090F83C40012C34D0012480F83C405C
:101040000468256815F0010F03D1256845F00105F6
:10105000256005682C6824F400642C60292480F83D
:101060003D40202480F83E400024046441624285D3
:10107000428D0285C362019403685A6901929A699C
:101080000192019A80F83C405A6842F4E0625A604A
:10109000204600E0022002B030BC70470120FAE791
:1010A0000120F8E70220F6E730B482B090F83D4026
:1010B00004F02804282C34D1002936D0002A36D058
:1010C00090F83C40012C34D0012480F83C40046866
:1010D000256815F0010F03D1256845F0010525604D
:1010E00005682C6824F400642C602A2480F83D40B4
:1010F000202480F83E400024046441624285428DF1
:101100000285C362019403685A6901929A69019247
:10111000019A80F83C405A6842F4E0625A602046E6
:1011200000E0022002B030BC70470120FAE7012045
:10113000F8E70220F6E790F83D30DBB2202B17D11C
:10114000282380F83D3003681A6812F0010F03D19C
:101150001A6842F001021A600268136843F480635F
:1011600013600268536843F4407353600020704773
:10117000022070477047704708B590F83D30DAB2EA
:10118000438D9BB27BB1416A036809781961436A58
:1011900001334362438D013B9BB24385438D9BB238
:1011A0000BB9292A00D008BD0268536823F4806374
:1011B000536021230363282380F83D3003F044FE6D
:1011C000F1E708B590F83D30DAB2438D9BB27BB1C0
:1011D00003681969436A1970436A01334362438D96
:1011E000013B9BB24385438D9BB20BB92A2A00D0A9
:1011F00008BD0268536823F48063536022230363AD
:10120000282380F83D3003F005FEF1E708B590F89B
:101210003D3003F02803282B07D003686FF002024B
:101220005A61002380F83C3008BD0268536823F4FB
:101230008063536011F0040F0BD0002311F0800F76
:1012400009D18289002180F83C10194603F0BCFDC9
:10125000EAE70123F2E7028BF4E7704708B590F85C
:101260003D30DBB2C26A082A01D0202A01D1282BE6
:1012700006D0212B1ED003686FF480625A6108BD2E
:101280001A4BC3620268536823F4E0635360036837
:101290006FF480625A610268136823F480631360FC
:1012A00000230363202280F83D2080F83E30FFF7C2
:1012B000D4FFE4E70D4BC36221230363202380F8AE
:1012C0003D30002380F83E300268536823F4E06329
:1012D000536003686FF480625A610268136823F4F4
:1012E0008063136003F0B0FDC9E700BF0000FFFF9B
:1012F000704710B590F83D30DBB290F83E20D2B286
:10130000C46A018D09B9212B04D0212B3BD0402A7E
:1013100037D010BD082C04D0202C02D014F5803F0B
:1013200019D10268536823F4E063536002681368BC
:1013300043F40073136000230363202380F83D30DF
:1013400090F83E30DBB2402B15D0002380F83E30C1
:10135000FFF710FFDDE70268536823F4E063536092
:1013600011230363002380F83E30202380F83D30B2
:10137000FFF700FFCDE7002380F83E30FFF7B8FF0E
:10138000C7E7222BC5D1438D9BB283B190F83E3085
:10139000DBB2402B11D0426A036812781A61436AAB
:1013A00001334362438D013B9BB24385B1E7026841
:1013B000536823F480635360ABE7FFF75DFBA8E756
:1013C00008B5C26A90F83D30DBB2212B05D090F809
:1013D0003E30DBB2402B46D008BD438D9BB203BBF1
:1013E000082A04D0202A02D012F5803F25D10268B5
:1013F000536823F4E06353600268136843F4007396
:10140000136000230363202380F83D3090F83E30C2
:10141000DBB2402B21D0002380F83E30FFF7AAFE3C
:10142000DAE7426A036812781A61436A0133436259
:10143000438D013B9BB24385CEE70268536823F49A
:10144000E063536011230363002380F83E302023C0
:1014500080F83D30FFF78EFEBEE7002380F83E3077
:10146000FFF746FFB8E7FFF707FBB5E7704708B59A
:1014700090F83D30DBB2222B00D008BD438D9BB2EB
:10148000032B14D903681A69436A1A70436A01333B
:101490004362438D013B9BB24385438D9BB2032B3B
:1014A000EBD10268536823F480635360E5E7C26AB6
:1014B000022AE2D0012BE0D80268136823F480638B
:1014C00013600268536823F4E063536003681A6989
:1014D000436A1A70436A01334362438D013B9BB2F6
:1014E0004385202380F83D3090F83E30DBB2402B1E
:1014F00007D0002380F83E3012230363FFF73BFE42
:10150000BBE7002380F83E300363FFF7AFFFB4E78B
:1015100008B5C26A438D9BB2042B13D0438D9BB296
:10152000032B20D0438D9BB2022B36D003681A695F
:10153000436A1A70436A01334362438D013B9BB295
:1015400043850FE00268536823F4806353600368A7
:101550001A69436A1A70436A01334362438D013B3F
:101560009BB2438508BD01684B6823F480634B60E0
:10157000042A06D0022A04D00268136823F4806388
:10158000136003681A69436A1A70436A013343623D
:10159000438D013B9BB24385E4E7012A0BD0102A1F
:1015A00009D0042A36D0022A34D00268136843F4E2
:1015B0000073136004E00268136823F4806313600F
:1015C00003681A69436A1A70426A531C4362438D66
:1015D000013B9BB2438503681B695370436A013327
:1015E0004362438D013B9BB243850268536823F4F9
:1015F00040735360202380F83D3090F83E30DBB2DA
:10160000402B0DD0002380F83E3012230363FFF7F8
:10161000B2FDA7E70268136843F480631360CFE765
:10162000002380F83E300363FFF720FF9AE708B5F8
:10163000806B90F83D30DBB2426B0AB10021D16380
:10164000826B0AB10021D16301680A6822F48062CA
:101650000A6000224285426B0AB100211165826B4B
:101660000AB10021116501680A6822F001020A60CE
:1016700090F83D20D2B2602A0CD003F02803282B2A
:1016800012D0202380F83D30002380F83E3003F054
:10169000E9FB08BD202380F83D30002380F83E3070
:1016A000036403F0F9FBF4E70268136843F00103F5
:1016B00013600268136843F48063136000230363BC
:1016C000282380F83D30E2E710B5044690F83D301D
:1016D000DBB290F83E20D2B2102A33D003F02802B9
:1016E000282A37D02268526812F4006F04D1602B88
:1016F00002D0202384F83D300023236384F83E3059
:1017000023685A6812F4006F48D05A6822F40062C5
:101710005A60626B92F83530DBB2012B20D0444B1B
:101720001365606BFFF704F8002849D0226813683E
:1017300023F001031360202384F83D30606B036DB8
:1017400098473DE0222BC9D101680A6822F4006263
:101750000A60C3E700232363282384F83D30CFE7E2
:10176000A36B334A1A65A06BFEF7E2FF40B3236810
:101770005A6912F0400F05D01A69636A1A70636AD9
:10178000013363622268136823F00103136020238E
:1017900084F83D30A06B036D984711E094F83D202C
:1017A000D2B2602A1FD05A6912F0400F05D01A69D0
:1017B000636A1A70636A01336362204603F052FB66
:1017C000236C13F00F0F04D02268536823F4E063F6
:1017D000536094F83D30DBB2226C12F0040F01D05C
:1017E000282B18D010BD202284F83D20002222642E
:1017F0005A6912F0400F05D01A69636A1A70636A59
:10180000013363622268136823F0010313602046EA
:1018100003F042FBD4E7074BE3620023236320225B
:1018200084F83D2084F83E302046FFF716FDD9E7C6
:101830002F1600080000FFFF30B583B0044690F873
:101840003D50EDB20268536823F4E0635360002317
:10185000019303685A6901921A6842F001021A6002
:10186000019B0268136823F48063136003685A685D
:1018700012F4006F38D0222D21D02A2D1FD0426BB8
:101880001268526892B24285428D92B21AB1026CCD
:1018900042F0040202645A6822F400625A60606BEB
:1018A000FEF759FF01281FD0636B434A1A65606B2E
:1018B000FEF73EFFC0B1606B036D984714E0A26B6A
:1018C0001268526892B26285628D92B21AB1226C2D
:1018D00042F0040222645A6822F400625A60A06B4B
:1018E000FEF739FF012840D1638D9BB223B32368F3
:1018F0005A6912F0040F09D01A69636A1A70636A90
:1019000001336362638D013B9BB2638523685A692F
:1019100012F0400F09D01A69636A1A70636A0133C2
:101920006362638D013B9BB26385638D9BB21BB188
:10193000236C43F004032364236C13BB2A2D25D0AE
:1019400094F83D30DBB2282B29D0236B222B01D019
:10195000222D19D100232363202284F83D2084F80E
:101960003E30204603F056FA0EE0A36B124A1A6589
:10197000A06BFEF7DDFE0028B6D0A06B036D984784
:10198000B2E72046FFF7A0FE03B030BD002323637B
:10199000282384F83D30204603F03CFAD0E7074B7B
:1019A000E36200232363202284F83D2084F83E3044
:1019B0002046FFF752FCE7E72F1600080000FFFF64
:1019C00070B5044602685568C66A90F83E30DBB2CE
:1019D00090F83D10102B14D0C8B2402B11D0236CBE
:1019E000002B71D05369002113F0020F6FD015F452
:1019F000007F6CD0236C03B191692046FFF706FC91
:101A000070BD9069536913F0010105D1B6F52A0F35
:101A1000F6D0B6F12A4FF3D011B115F4007F25D1DD
:101A200013F0080F02D015F4007F26D113F0020F37
:101A300002D015F4007F24D110F0040F29D0526891
:101A400012F4006FDCD113F0800F05D015F4806F15
:101A500002D013F0040F18D013F0040FD0D015F4F7
:101A6000007FCDD02046FFF7ABFCC9E72046FFF74B
:101A7000D1F92046FFF741F8C2E72046FFF792F878
:101A8000BEE72046FFF7A5F8BAE72046FFF731FC8E
:101A9000B6E7526812F4006FB2D113F0400F05D0D0
:101AA00015F4806F02D013F0040F09D013F0040F67
:101AB000A6D015F4007FA3D02046FFF729FD9FE7AD
:101AC0002046FFF7D4FC9BE7916953698CE713F03C
:101AD000100F02D015F4007F17D1212819D0292822
:101AE00017D013F0400F05D015F4806F02D013F01B
:101AF000040F27D013F0040F82D015F4007F3FF4B9
:101B00007FAF2046FFF777F97AE72046FFF794FE8C
:101B100076E713F0800F05D015F4806F02D013F034
:101B2000040F0BD013F0040F3FF46AAF15F4007FDD
:101B30003FF466AF2046FFF74FF961E72046FFF715
:101B40001BFB5DE72046FFF73CFB59E7F8B5044671
:101B500003685D695F6890F83E20D2B215F4807F1B
:101B600007D017F4807F3CD06FF480715961012653
:101B700000E0002615F4007F08D017F4807F05D020
:101B800046F0020623686FF40071596115F4806F06
:101B900019D017F4807F16D0638D99B294F83D3038
:101BA000DBB2206B202A1ED023686FF4806159615C
:101BB00046F00406102A01D0402A04D12268136896
:101BC00043F40073136015F4006F08D017F4807F9E
:101BD00005D046F0080623686FF400625A6186B9A2
:101BE000F8BD0026C6E70029DED1212B05D0292B20
:101BF00003D0282BD8D12128D6D12046FFF72EFBA1
:101C0000E1E7236C1E4326642046FFF75DFDE7E70E
:101C100090F83D00704790F83E007047006C7047A8
:101C200008B338B5044603684CF6CC421A60036822
:101C300045F255521A60036842685A600368826828
:101C40009A60FEF7DFFC05462368DA6832B1FEF7DA
:101C5000D9FC401B3028F7D9032003E04AF6AA221A
:101C60001A60002038BD0120704703684AF6AA2296
:101C70001A60002070472DE9F04782B00768CA005B
:101C8000521A930003445A6D1B6D9A4257D8B846B6
:101C90009B1AC1EBC104A2000244526C9A4200D3C9
:101CA0001A460C46064602F1030A4FEA9A0A16E063
:101CB00009F1030A4FEA9A0AE3001B1B9D00354411
:101CC000A96C337C00931FFA89F3E2B2384601F025
:101CD000F1FEAB6C4B44AB646B6D4B446B6508EB36
:101CE000441303F510639B699BB2534513D3E30080
:101CF0001B1B9A003244516D136D99420BD253B1A4
:101D00005B1AC4EBC4018A003244D2F8449099456E
:101D1000CED39946CCE7E3001B1B98000644326DF6
:101D2000736D9A420FD804F00F040121A140D7F837
:101D3000344824EA0104C7F83448002000E00120B8
:101D400002B0BDE8F0870020FAE7F0B58BB00028BC
:101D500000F08A800446056890F8BD3323B303235E
:101D600084F8BD33EB6B13F4807F01D10023236132
:101D7000206801F051FC254655F8107B6E460FCDCA
:101D80000FC60FCD0FC695E8030086E80300231D9C
:101D90000ECB384601F07EFB58B1022384F8BD33E8
:101DA000012528460BB0F0BD80F8BC3303F0D0FC11
:101DB000D5E70021206801F035FC002315E0D900AB
:101DC000C81A82002244012082F83D0082F83C308B
:101DD000A2F84230002082F83F0050649064CA1A92
:101DE0009100214408650133DBB26568AB42E6D35C
:101DF000002315E0D800C11A8A002244002182F88D
:101E0000FD1182F8FC3182F8FF11C2F80412C2F809
:101E10000812C21A90002044C0F810120133DBB23D
:101E20009D42E7D8254655F8107B6E460FCD0FC66C
:101E30000FCD0FC695E8030086E80300231D0ECBE7
:101E4000384601F035FC054620B1022384F8BD3345
:101E50000125A6E7002384F83830012384F8BD3338
:101E6000206801F0D4FF9CE701259AE7026890F80A
:101E7000BC33012B19D010B5012380F8BC33836A21
:101E8000012B0AD00446006801F0B5FF206801F07C
:101E9000BDFB002084F8BC0310BD8369012BF1D089
:101EA000936B43F480339363ECE7022070470000A8
:101EB00070B505460E460368196C03EB461303F52F
:101EC0003064A3680269012A0FD0354A914261D17A
:101ED00013F4004F5AD113F0200F01D02023A36038
:101EE000F1B2284603F07AFC57E013F0080F14D043
:101EF0002C4A914205D913F4004F02D04FF400430D
:101F0000A360284603F062FC05F571720121286880
:101F100001F0DAFF0823A3603FE013F0200F2ED179
:101F200013F0280F39D11F4A914202D913F4004F00
:101F300028D1F200921B93002B44D3F8042221698C
:101F4000C1F31201521AC3F81422D3F80412D3F8C1
:101F500008220A44C3F80822F1B2284603F03EFCE6
:101F6000DEB9C6EBC606B3002B44D3F81032A3B9D2
:101F700005F571720121286801F0A6FF0DE020230C
:101F8000A3600AE04FF40043A36006E04FF400436F
:101F9000A36002E0F1B203F021FC002070BD00BF9D
:101FA0000A31544F0A30544F38B5044603681D6C4B
:101FB00003EB411101F530618A680369012B0DD0F3
:101FC000124B9D4214D0204603F000FC104B9D4262
:101FD00002D92369012B12D0002038BD0C4B9D4241
:101FE000F1D912F4004FEED04FF400438B60EAE7D2
:101FF00012F4004FE7D04FF400438B60E3E704F5A1
:1020000071720121206801F05FFFE5E70A31544F4A
:102010000A30544F2DE9F84F04460568284601F070
:1020200033FF08B1BDE8F88F2F460646206801F05F
:10203000FAFE0028F6D0206801F0F5FE10F0020F3D
:1020400004D02268536903F002035361206801F051
:10205000EAFE10F4002F74D1206801F0E4FE10F4C1
:10206000802F40F0C280206801F0DDFE0028C0F221
:102070003481206801F0D7FE10F4006F0AD0D5F843
:10208000083813F0010F40F042812268536903F4CD
:1020900000635361206801F0C6FE10F4805F40F0D9
:1020A0003A81206801F0BFFE10F4005F40F08D819E
:1020B000206801F0B8FE10F0100F14D02268936968
:1020C00023F0100393612E6A06F00F07C6F3434313
:1020D000022B00F09281062B00F0B08122689369F8
:1020E00043F010039361206801F09DFE10F0080F8B
:1020F00040F0B681206801F096FE10F4801F40F099
:10210000B881206801F08FFE10F4001F40F0BB8101
:10211000206801F088FE10F0804F40F0BE812068FA
:1021200001F081FE10F0040F3FF47CAF23685D687E
:1021300015F0040F40F0BA81226853682B435360B6
:1021400070E7206801F073FE8046B14625E007EB9A
:1021500049130122C3F8082B49462046FFF7A8FE81
:102160002BE049462046FFF71FFF07EB49130822E3
:10217000C3F8082B24E007EB49132022C3F8082BEF
:102180001AF4005F05D007EB49134FF40052C3F86F
:10219000082B09F101094FEA5808B8F1000F3FF484
:1021A0005BAF18F0010FF4D05FFA89F1206801F0FD
:1021B0004EFE824610F0010FC9D11AF0080FD0D19F
:1021C0001AF0100F04D007EB49131022C3F8082BA4
:1021D0001AF0200FD4D02369012BCCD104F57172F1
:1021E0000121206801F070FEC5E7206801F027FE9C
:1021F0008046B14631E04FEAC902A2EB09029300E2
:102200002344596C9A6C0A449A6449E01AF0080F06
:1022100004D007EB49130822C3F808291AF0100F5D
:1022200004D007EB49131022C3F808291AF0400F15
:1022300004D007EB49134022C3F808291AF0020F13
:1022400004D007EB49130222C3F808291AF0800FC3
:102250003ED109F101094FEA5808B8F1000F3FF4E7
:1022600002AF18F0010FF4D05FFA89FB59462068DD
:1022700001F0F6FD824610F0010FC7D009F00F0300
:10228000012101FA03F2D7F8343823EA0203C7F830
:10229000343807EB4913C3F8081923698B42AAD0D5
:1022A0005946204603F0A6FA2369012BAED1B9F1B5
:1022B000000FABD1C9EBC902930023441B6D002B67
:1022C000A4D104F571720121206801F0FDFD9DE7A4
:1022D00049462046FFF7CFFCBBE7D5F8043823F08A
:1022E0000103C5F8043894F8F433012B08D02046D4
:1022F00003F0C0FA2268536903F000435361B8E663
:10230000002184F8F413204600F061FAF2E7204639
:1023100003F098FAB9E605F50068D8F8043023F020
:102320000103C8F804301021206801F093F914E08B
:1023300007EB46134FF67F31C3F80819D3F800298D
:1023400022F40012C3F80029C3F8081BD3F8002BAD
:1023500022F40012C3F8002B01366368B342E7D8B9
:10236000D8F81C3043F00113C8F81C30236BEBB1D4
:10237000D8F8843043F00B03C8F88430D8F84430E0
:1023800043F00B03C8F84430D5F8003823F4FE635B
:10239000C5F8003804F57172217C206801F094FDC5
:1023A0002268536903F4805353617AE6D8F81430F5
:1023B00043F4005343F02B03C8F81430D8F810301E
:1023C00043F00B03C8F81030DEE7206801F060FD31
:1023D000206801F03DFAE060266800F005FD227BF0
:1023E0000146304601F09CF8204603F014FA2268BA
:1023F000536903F4005353615AE647F6F0731E42E3
:102400003FF46CAE4FEAC709A9EB07034FEA830814
:10241000A0443609C6F30A02D8F80812284601F08B
:102420006BFCC6F30A06D8F808323344C8F8083201
:10243000D8F814321E44C8F814624FE6082204F596
:102440007171284601F058FCC6F30A16FB00D91B2F
:102450008A002244D2F814321E44C2F814623DE6C7
:10246000204603F0D2F92268536903F00803536150
:1024700040E60021204603F009FA2268536903F47C
:10248000801353613DE60021204603F0F9F92268EC
:10249000536903F4001353613AE6204603F0FCF954
:1024A0002268536903F08043536138E6204603F005
:1024B000F9F941E690F8BC33012B0DD010B5044674
:1024C000012380F8BC3380F83810006801F083FCE9
:1024D000002084F8BC0310BD02207047F8B511F04D
:1024E000800F28D101F00F06F500AF1BBC00274676
:1024F00004F5FC74044404343E460644002586F882
:10250000FD5101F00F012170A260E370627802B109
:10251000E180022B1ED090F8BC33012B1DD0054664
:10252000012380F8BC332146006801F0A2F90020A5
:1025300085F8BC03F8BD01F00F06F500AF1BBC0029
:1025400027463834044404343E460644012586F8C0
:102550003D50D6E700232371DDE70220EAE738B5D6
:1025600011F0800F21D101F00F05EA00541BA300E8
:102570001C4603F5FC73034404332546054400223E
:1025800085F8FD2101F00F01197090F8BC23012A94
:102590001AD00446012280F8BC231946006801F0D5
:1025A000B3F9002084F8BC0338BD01F00F04E20049
:1025B000151BAB001D463833034404332C4604443A
:1025C000012284F83D20DDE70220EDE770B501F03F
:1025D0000F05EE00711B8C0004F5FC740444211DF2
:1025E000761BB4000444C4F80822C4F81032002357
:1025F000C4F8143284F8FD3184F8FC510369012BCE
:1026000006D065B1DAB2006801F068FA002070BD4A
:10261000C5EBC506B4000444C4F80C22F1E7DAB2F5
:10262000006801F0B9F9F1E701F00F01C1EBC10158
:102630008B001844D0F81402704770B501F00F05F4
:10264000EE00711B8C0038340444211D761BB4004D
:102650000444A264236500236365012384F83D30AC
:1026600084F83C500369012B06D05DB1DAB20068F2
:1026700001F034FA002070BDC5EBC506B400044477
:10268000E264F2E7DAB2006801F086F9F2E738B501
:1026900001F00F0543689D4236D811F0800F20D11C
:1026A000CA00541AA3001C4603F5FC730344043308
:1026B00022460244002182F8FD1101229A701D7009
:1026C00090F8BC23012A21D00446012280F8BC23C3
:1026D0001946006801F024FB7DB1002084F8BC039A
:1026E00013E0EA00511B8B001946383303440433CE
:1026F0000144012281F83D20DFE704F57172217C5D
:10270000206801F0E1FBE8E7012038BD0220FCE78A
:1027100010B501F00F0443689C422CD811F0800FD3
:102720001DD1E3001A1B91000A4601F5FC7101441A
:1027300004310244002382F8FD3100238B700C70B9
:1027400090F8BC33012B18D00446012380F8BC3329
:10275000006801F012FB002084F8BC030CE0E300E9
:102760001A1B91000A463831014404310244012306
:1027700082F83D30E1E7012010BD0220FCE730B4D3
:102780000468606A29B10D46A36A00EB1340002378
:102790000CE040EA0240A06212E003F1400104EBC9
:1027A0008101496800EB11400133DBB2691E8B42A5
:1027B000F3D340EA024005F13F0104EB8101486098
:1027C000002030BC70470368596200207047704792
:1027D000002800F0E48170B582B00446036813F06D
:1027E000010F3BD0A74B9B6803F00C03042B2CD0AC
:1027F000A44B9B6803F00C03082B21D06368B3F54E
:10280000803F4FD0B3F5A02F52D09E4B1A6822F4D0
:1028100080321A601A6822F480221A606368002BE2
:1028200050D0FDF7EFFE0546964B1B6813F4003FB2
:1028300014D1FDF7E7FE401B6428F5D90320B3E16E
:10284000904B5B6813F4800FD8D08E4B1B6813F449
:10285000003F03D06368002B00F0A381236813F0CE
:10286000020F55D0874B9B6813F00C0F3ED0854B61
:102870009B6803F00C03082B33D0E368002B68D06F
:10288000814B01221A60FDF7BDFE05467D4B1B689A
:1028900013F0020F54D1FDF7B5FE401B0228F5D905
:1028A000032081E1774A136843F480331360B5E76E
:1028B000744B1A6842F480221A601A6842F480321B
:1028C0001A60ABE7FDF79EFE05466E4B1B6813F4DE
:1028D000003FC3D0FDF796FE401B6428F5D90320C6
:1028E00062E1684B5B6813F4800FC6D1654B1B68CF
:1028F00013F0020F04D0E368012B01D0012053E153
:10290000604A136823F0F803216943EAC1031360A6
:10291000236813F0080F40D0636963B35B4B012257
:102920001A60FDF76FFE0546564B5B6F13F0020F02
:1029300033D1FDF767FE401B0228F5D9032033E1B0
:10294000504A136823F0F803216943EAC103136076
:10295000DEE74D4B00221A60FDF754FE0546494B59
:102960001B6813F0020FD3D0FDF74CFE401B02286A
:10297000F5D9032018E1454B00221A60FDF742FE0D
:102980000546404B5B6F13F0020F06D0FDF73AFE91
:10299000401B0228F5D9032006E1236813F0040F39
:1029A00079D0384B1B6C13F0805F33D10023019337
:1029B000344B1A6C42F080521A641B6C03F0805343
:1029C0000193019B0125324B1B6813F4807F23D0B8
:1029D000A368012B34D0052B38D02A4B1A6F22F074
:1029E00001021A671A6F22F004021A67A368002B0B
:1029F00036D0FDF707FE0646224B1B6F13F0020F81
:102A000048D1FDF7FFFD801B41F288339842F3D98E
:102A10000320C9E00025D6E71D4A136843F48073FC
:102A20001360FDF7EFFD0646194B1B6813F4807F1A
:102A3000CED1FDF7E7FD801B0228F5D90320B3E0D6
:102A4000104A136F43F001031367CFE70D4B1A6F62
:102A500042F004021A671A6F42F001021A67C5E7D2
:102A6000FDF7D0FD0646074B1B6F13F0020F11D088
:102A7000FDF7C8FD801B41F288339842F3D903204B
:102A800092E000BF0038024000004742800E4742FB
:102A900000700040EDB9A369002B00F08480454A26
:102AA000926802F00C02082A51D0022B17D0424B38
:102AB00000221A60FDF7A6FD04463E4B1B6813F08A
:102AC000007F42D0FDF79EFD001B0228F5D90320B0
:102AD0006AE0384A136C23F080531364DBE7364B0B
:102AE00000221A60FDF78EFD0546324B1B6813F07D
:102AF000007F06D0FDF786FD401B0228F5D9032094
:102B000052E0E369226A1343626A43EA8213A26ACB
:102B10005208013A43EA0243E26A43EA0263254A61
:102B20005360254B01221A60FDF76CFD0446214BD2
:102B30001B6813F0007F06D1FDF764FD001B02281F
:102B4000F5D9032030E000202EE000202CE0012BFE
:102B50002CD0184B9B6803F48001E269914201D0AC
:102B6000012021E003F03F02216A8A4201D00120C6
:102B70001AE0616A47F6C0721A408A4201D0012009
:102B800012E003F44032A16A8A4201D001200BE036
:102B900003F07063E26A93420AD0012004E001204E
:102BA0007047012000E0002002B070BD0120FBE76B
:102BB0000020F9E70038024060004742304B9B6834
:102BC00003F00C03082B58D12DE9F04B2C4B5A681D
:102BD00002F03F025B6813F4800F2BD0284B5B6838
:102BE000C3F388131E4600275C010025E41A65EB39
:102BF0000705A90141EA9461A001001B61EB0501F1
:102C0000CB0043EA5073C400A01943EB07018B02C9
:102C100043EA90538402204619460023FDF7D8FA70
:102C2000174B5B68C3F3014301335B00B0FBF3F068
:102C3000BDE8F08B124B5B68C3F388131E46002778
:102C40005C010025E41A65EB0705A90141EA9461DE
:102C5000A001001B61EB0501CB0043EA5073C400E7
:102C6000A01943EB07018B0243EA905384022046EC
:102C700019460023FDF7ACFAD2E70248704700BFBF
:102C8000003802400024F400002800F09E8070B557
:102C90000446504B1B6803F00F038B4209D2CBB2A2
:102CA0004C4A1370136803F00F038B4201D00120CC
:102CB00070BD236813F0020F17D013F0040F04D077
:102CC000454A936843F4E0539360236813F0080F78
:102CD00004D0414A936843F4604393603E4A93684A
:102CE00023F0F003A068034393600D46236813F0BC
:102CF000010F32D06368012B21D09A1E012A25D9F9
:102D0000354A126812F0020F61D033498A6822F006
:102D1000030213438B60FDF775FC06462E4B9B6840
:102D200003F00C036268B3EB820F16D0FDF76AFC68
:102D3000801B41F288339842F0D90320B8E7264A35
:102D4000126812F4003FE0D10120B1E7224A126874
:102D500012F0007FD9D10120AAE71E4B1B6803F0B7
:102D60000F03AB4209D9EAB21A4B1A701B6803F081
:102D70000F03AB4201D001209AE7236813F0040F40
:102D800006D0154A936823F4E053E1680B4393603F
:102D9000236813F0080F07D00F4A936823F46043A9
:102DA000216943EAC1039360FFF708FF0A4B9B6860
:102DB000C3F30313094AD35CD840094B1860094B8D
:102DC0001868FDF7D5FB002072E70120704701204D
:102DD0006EE700BF003C024000380240906A0008E5
:102DE0001801002004000020014B1868704700BF44
:102DF0001801002008B5FFF7F7FF044B9B68C3F3E9
:102E00008223034AD35CD84008BD00BF003802408B
:102E1000A06A000808B5FFF7E7FF044B9B68C3F3FF
:102E20004233034AD35CD84008BD00BF003802409B
:102E3000A06A000800283BD010B504460023836236
:102E400090F85130002B2ED0022384F851302268A4
:102E5000136823F0400313606368A2681343E268B9
:102E600013432269134362691343A26902F4007297
:102E70001343E2691343226A1343A16A22680B4396
:102E80001360638B03F00403616A22680B43536091
:102E90002268D36923F40063D361002060650123B5
:102EA00084F8513010BD80F8503002F079FACBE749
:102EB000012070470268D36843F00103D3600268C1
:102EC000936803F00703062B03D0136843F0010354
:102ED000136000207047704770477047704710B507
:102EE000044603681A6912F0020F11D0DA6812F072
:102EF000020F0DD06FF002021A61012303770368FD
:102F00009B6913F0030F70D0FFF7E6FF00232377D0
:102F100023681A6912F0040F12D0DA6812F0040F55
:102F20000ED06FF004021A610223237723689B6995
:102F300013F4407F5FD02046FFF7CEFF00232377B6
:102F400023681A6912F0080F12D0DA6812F0080F1D
:102F50000ED06FF008021A61042323772368DB691F
:102F600013F0030F4ED02046FFF7B6FF0023237760
:102F700023681A6912F0100F12D0DA6812F0100FDD
:102F80000ED06FF010021A61082323772368DB69E3
:102F900013F4407F3DD02046FFF79EFF00232377A8
:102FA00023681A6912F0010F03D0DA6812F0010FDA
:102FB00036D123681A6912F0800F03D0DA6812F054
:102FC000800F34D123681A6912F0400F03D0DA68F9
:102FD00012F0400F32D123681A6912F0200F03D08B
:102FE000DA6812F0200F30D110BDFFF774FF2046D1
:102FF000FFF773FF8AE72046FFF76DFF2046FFF7D4
:103000006CFF9BE72046FFF766FF2046FFF765FF52
:10301000ACE72046FFF75FFF2046FFF75EFFBDE706
:103020006FF001021A61204601F086FEC1E76FF0E1
:1030300080021A61204600F0D2F8C3E76FF0400228
:103040001A612046FFF74AFFC5E76FF020021A61B8
:10305000204600F0C3F8C7E70368304A904212D018
:10306000B0F1804F0FD0A2F57C4290420BD002F518
:103070008062904207D002F58062904203D002F550
:103080007842904203D123F070034A681343234AE5
:1030900090422AD0B0F1804F27D0A2F57C429042D6
:1030A00023D002F5806290421FD002F580629042E8
:1030B0001BD002F57842904217D002F57052904230
:1030C00013D002F5806290420FD002F580629042E8
:1030D0000BD0A2F59832904207D002F58062904260
:1030E00003D002F58062904203D123F44073CA6892
:1030F000134323F080034A69134303608B68C36260
:103100000B688362054B984203D003F580639842B5
:1031100001D10B6903630123436170470000014043
:10312000A8B110B5044690F83D305BB1022384F895
:103130003D30211D2068FFF78FFF012384F83D30CB
:10314000002010BD80F83C3002F062F9EEE701206B
:103150007047000090F83C30012B3BD030B4012385
:1031600080F83C30022380F83D3003685C689D683D
:1031700024F070040A6822435A600368164A934296
:103180001AD0B3F1804F17D0A2F57C42934213D0EE
:1031900002F5806293420FD002F5806293420BD019
:1031A00002F57842934207D002F57052934203D061
:1031B000A2F59432934204D125F080054A68154364
:1031C0009D60012380F83D30002380F83C30184694
:1031D00030BC7047022070470000014070477047C4
:1031E0002DE9F04B04460268136923F44053C1688B
:1031F0000B43136183680269134342691343C26935
:103200001A430168CB6823F4164323F00C031343DD
:10321000CB600268536923F4407381690B435361A7
:10322000C369B3F5004F3BD00368714A934200F085
:10323000AB8002F58062934200F0A680FFF7DAFDD2
:103240004FF00009061849EB090716EB000B47EB96
:10325000090C4FEACC0343EA5B734FEACB02934677
:103260009C4663689A009B0F10EB0B0049EB0C0126
:10327000FCF7AEFF5F4DA5FB00325109642202FB53
:10328000110213013233A5FB03235B0903F0F002A3
:1032900002EB011203F00F03216813448B60A4E0DA
:1032A0000368534A934239D002F58062934235D085
:1032B000FFF7A0FD83464FF0000C06184CEB0C07FF
:1032C00016EB000847EB0C094FEAC90343EA5873B1
:1032D0004FEAC8029046994662680021921841EB75
:1032E00001031BEB08004CEB0901FCF771FF414D9A
:1032F000A5FB00325109642202FB1102D3003233D4
:10330000A5FB03235B095A0002F4F87202EB0112D9
:1033100003F00703216813448B6066E0FFF77AFD32
:1033200080464FF00009061849EB090716EB000B21
:1033300047EB090C4FEACC0343EA5B734FEACB023D
:1033400093469C4662680021921841EB010318EBFA
:103350000B0049EB0C01FCF73BFF264DA5FB0032AF
:103360005109642202FB1102D3003233A5FB03236F
:103370005B095A0002F4F87202EB011203F0070332
:10338000216813448B6030E0FFF744FD4FF00009E3
:10339000061849EB090716EB000B47EB090C4FEA3F
:1033A000CC0343EA5B734FEACB0293469C466368C7
:1033B0009A009B0F10EB0B0049EB0C01FCF708FF88
:1033C0000C4DA5FB00325109642202FB11021301CE
:1033D0003233A5FB03235B0903F0F00202EB011279
:1033E00003F00F03216813448B60BDE8F08B00BF2E
:1033F000001001401F85EB5158B310B5044690F8FA
:1034000039300BB3242384F839302268D36823F48D
:103410000053D3602046FFF7E3FE2268136923F4CC
:10342000904313612268536923F02A035361226891
:10343000D36843F40053D3600020E063202384F872
:10344000393084F83A3010BD80F8383002F000F896
:10345000D8E7012070470000002301330C4A934253
:1034600011D80269002AF8DA036943F00103036105
:1034700000230133064A934207D8026912F0010F74
:10348000F7D100207047032070470320704700BF2A
:10349000400D030084B010B5044603A880E80E0078
:1034A000089B012B1FD1A36B23F48033A363E36834
:1034B00023F4840323F04003E360E36823F4401320
:1034C000E3600F9B012B09D02046FFF7C5FF069B49
:1034D000012B1BD0BDE8104004B07047E36843F4F3
:1034E0008013E360F0E7E36843F04003E3602046C5
:1034F000FFF7B2FF0C9B23B9A36B43F48033A363A4
:10350000E5E7A36B23F48033A363E0E7A36843F00C
:103510000603A360A36843F02003A360DAE700007A
:10352000022A0AD00921C26822F47052C260C3681C
:1035300043EA8123C360002070472A4B0B442A4A88
:1035400093423FD9294B0B44294A93423CD9A1F5D8
:103550007403A3F51053274A934237D9A1F183731B
:10356000A3F5E74302F5C332A032934230D9224B90
:103570000B44224A93422DD9214B0B4402F592224F
:1035800002F57872934227D91E4B0B4402F5C322F1
:1035900002F52072934221D9A1F1B773A3F55853D4
:1035A00002F5B71202F55872934219D9164B0B4423
:1035B00002F5122202F5F862934201D90621B2E720
:1035C0000721B0E70F21AEE70E21ACE70D21AAE7F6
:1035D0000C21A8E70B21A6E70A21A4E70921A2E70D
:1035E0000821A0E7405327FFFF340C00401E1BFFBB
:1035F0003F420F007F4F120060B6E5FE5FE316000A
:1036000000D3CEFEC05BB3FEE05459FE836843F0A6
:103610000103836000207047836823F00103836007
:103620000020704708B5C36823F0C043C360012978
:1036300009D069B9C36843F08043C3603220FCF706
:10364000E7FF002008BDC36843F00053C360F5E7FF
:103650000120F7E7890141F02001016100230133D6
:10366000054A934205D8026912F0200FF7D10020D5
:1036700070470320704700BF400D03001023036113
:1036800000230133054A934205D8026912F0100F56
:10369000F7D1002070470320704700BF400D0300A2
:1036A000D0F800381943C0F8001800207047000017
:1036B00084B02DE9F041044607A880E80E002546B5
:1036C000002306E003F1400204EB82020021516076
:1036D00001330E2BF6D9119BF3B9A36B43F40013FE
:1036E000A363A36B23F40023A363A36B23F48023BE
:1036F000A3630023C4F8003E04F50066D4F8003844
:10370000C4F800380C9B012B14D1099B6BB9002124
:103710002046FFF7C5FF11E0236823F40013236060
:10372000A36B43F40023A363E3E701212046FFF7E3
:10373000B7FF03E003212046FFF7B2FF1021204628
:10374000FFF788FF804608B14FF001082046FFF7D9
:1037500095FF08B14FF00108002333617361F361F5
:103760000AE0C3B94FF00060C2F8000900220A6104
:103770004FF67F328A6001330799994210D905EBE1
:10378000431202F51061D2F800090028E9DB00209D
:10379000C2F80009EAE74FF09040C2F80009E5E7F7
:1037A00000230AE0BBB14FF09047C2F8007B002233
:1037B00002614FF67F3282600133994210D905EBE6
:1037C000431202F53060D2F8007B002FEADB0027BD
:1037D000C2F8007BEBE74FF00067C2F8007BE6E73A
:1037E000336923F4807333610A9B012B1BD00022C1
:1037F000A2616FF0804262611BB9A36943F01003BC
:10380000A361A269104B1343A3610D9B1BB1A36974
:1038100043F00803A361119B012B0DD04046BDE886
:10382000F04104B07047094A3263326B42F480328F
:1038300042F003023263DAE7A36943F0804343F0C6
:103840000403A361EAE700BF00383C800001800068
:10385000D0F8083813F0060307D0022B07D0062B48
:1038600001D00F20704702207047002070470220CF
:10387000704770B40B784A78012A22D0D0F81C28FF
:1038800003F00F060124B44042EA0442C0F81C28A9
:1038900000EB4310D0F8003B13F4004F0ED1D0F8EA
:1038A000003B8A68C2F30A02C97842EA81421343A4
:1038B00043F0805343F40043C0F8003B002070BC49
:1038C0007047D0F81C4803F00F06B24092B2224372
:1038D000C0F81C2800EB4310D0F8002912F4004F68
:1038E000ECD1D0F800298C68C4F30A04C97844EA02
:1038F000814444EA8353134343F0805343F4004329
:10390000C0F80039DAE7000070B40B784A78012A71
:103910001FD0D0F83C5803F00F06012404FA06F635
:1039200025EA0645C0F83C58D0F81C58097801F043
:103930000F018C4025EA0444C0F81C4800EB4310FA
:10394000D0F8002B124B1340C0F8003B002070BC95
:103950007047D0F83C6803F00F0402FA04F4A4B2F4
:1039600026EA0404C0F83C48D0F81C48097801F065
:103970000F018A4092B224EA0202C0F81C2800EB30
:103980004310D0F80039034A1A40C0F80029DDE797
:103990000078F3EF007833EC70B40B784C78012C9E
:1039A00026D000EB431000F530631C69E40CE404FE
:1039B0001C611C6924F0FF5424F4C0141C614C6980
:1039C0000CB18C684C611C6944F400241C611C69B6
:1039D0008D68C5F312052C431C61012A65D0D0F80F
:1039E000003B43F00443C0F8003B002070BC70472C
:1039F0004C696CBB00EB4314D4F8105925F0FF550B
:103A000025F4C015C4F81059D4F8105945F4002510
:103A1000C4F81059D4F81059ED0CED04C4F810593D
:103A2000012A33D000EB4313D3F8002942F00442BB
:103A3000C3F800294B69002BD7D0D0F83428097877
:103A400001F00F040121A1400A43C0F83428CCE75B
:103A500000EB431404F510642569ED0CED042561B9
:103A6000256925F0FF5525F4C01525614E698D683F
:103A7000AE4200D94D61256945F4002525612569CF
:103A80004E69C6F3120635432561C9E70A691AB1C2
:103A900000EB4311C1F8142900EB4310D0F80029C2
:103AA00042F00442C0F800299FE7CA68002A96D075
:103AB0005A6194E770B49DF80C4064B903339D08D3
:103AC00007E000EB023303F5805351F8046B1E60EE
:103AD0000134AC42F5D3002070BC7047F0B583B020
:103AE0000B784C78012C2BD000EB431303F530649A
:103AF0002569ED0CED042561256925F0FF5525F4B8
:103B0000C01525614D69002D40F0C58025698E687E
:103B1000C6F3120635432561256945F40025256164
:103B2000012A00F0CD80CA78012A00F0CF80D3F8B6
:103B3000002B42F00442C3F8002B002003B0F0BD7C
:103B40004C6984BB00EB4314D4F8105925F0FF55A1
:103B500025F4C015C4F81059D4F8105945F40025BF
:103B6000C4F81059D4F81059ED0CED04C4F81059EC
:103B7000012A4CD000EB4313D3F8004944F004442D
:103B8000C3F80049CC78012C6AD04B69002BD4D003
:103B9000D0F83428097801F00F040121A1400A432C
:103BA000C0F83428C9E700EB4314D4F81059ED0CE1
:103BB000ED04C4F81059D4F8105925F0FF5525F438
:103BC000C015C4F81059D4F810694D698F683D4488
:103BD000013DB5FBF7F5474F07EAC5453543C4F846
:103BE0001059D4F810594E69C6F312063543C4F87B
:103BF000105904F51064CD78012DB9D1256925F04F
:103C0000C0452561256945F000552561B0E70A6981
:103C10001AB100EB4314C4F81429CA78012A08D059
:103C200000EB4313D3F8002942F00442C3F8002903
:103C300083E7D0F8082812F4807F08D100EB431105
:103C4000D1F8002942F00052C1F80029E8E700EB62
:103C50004311D1F8002942F08052C1F80029DFE772
:103C6000D0F8084814F4807F0ED1D3F8004944F00E
:103C70000054C3F8004914460B46C9681A789B8A59
:103C80000094FFF717FF58E7D3F8004944F0805439
:103C9000C3F80049EFE78E683544013DB5FBF6F502
:103CA0002669144F07EAC5473E43266127698E6897
:103CB000ADB206FB05F5C5F312053D4325612FE7BF
:103CC000CA68002A3FF42FAF62612CE7D0F80828B9
:103CD00012F4807F06D1D3F8002B42F00052C3F8D3
:103CE000002B24E7D3F8002B42F08052C3F8002BBE
:103CF0001DE700BF0000F81F033292080023934223
:103D00000CD210B400F58054246841F8044B013300
:103D10009342F7D308465DF8044B70470846704756
:103D20000B784A78012A14D000EB4310D0F8002B0E
:103D3000002A06DB2BB1D0F8003B23F08043C0F80B
:103D4000003BD0F8003B43F40013C0F8003B0020D8
:103D5000704700EB4310D0F80029002A06DB2BB196
:103D6000D0F8003923F08043C0F80039D0F800398A
:103D700043F40013C0F80039E9E70B784A78012AC8
:103D80000ED000EB4310D0F8003B23F40013C0F832
:103D9000003BCB78023BDBB2012B15D900207047EA
:103DA00000EB4310D0F8003923F40013C0F80039B9
:103DB000CB78023BDBB2012BF0D8D0F8003943F0CE
:103DC0008053C0F80039E9E7D0F8003B43F0805356
:103DD000C0F8003BE2E7D0F8003823F4FE63C0F8F7
:103DE0000038D0F80038090101F4FE610B43C0F837
:103DF00000380020704708B5D0F8043823F00203DB
:103E0000C0F804380320FCF703FC002008BD08B507
:103E1000D0F8043843F00203C0F804380320FCF75C
:103E2000F7FB002008BD4269806910407047D0F858
:103E3000183800F50060C0691840000C7047D0F8D1
:103E4000183800F50060C069184080B2704700EB78
:103E50004111D1F8082B00F500604069104070470F
:103E600010B4D0F81048D0F8343801F00F02D34025
:103E7000DB01DBB2234300EB411000F510608068EA
:103E800018405DF8044B7047406900F0010070472E
:103E9000D0F8003923F4FF6323F00703C0F800399A
:103EA00000F500639A6802F00602042A05D05A68F9
:103EB00042F480725A6000207047D0F8002942F026
:103EC0000302C0F80029F2E710B4046C154B9C42C1
:103ED00003D9D0F8003B002B16DB0024C0F8104BB0
:103EE000D0F8104B44F40024C0F8104BD0F8104B1D
:103EF00044F01804C0F8104BD0F8104B44F0C04404
:103F0000C0F8104B012903D000205DF8044B704726
:103F1000C0F8142BD0F8003B43F08023C0F8003BDE
:103F2000F2E700BF0A30544F10B5D0F89042D0F8F5
:103F300094325BB194F80002FF2807D09B6894F894
:103F4000012221469847FF2384F80032002010BD4B
:103F50004323038000487047080000204323038068
:103F6000004870474C0000204323038000487047FE
:103F7000900000200A23038000487047D4000020EE
:103F800038B50446D0F8905201F0DDFCC5F80C02BB
:103F9000D4F890324BB1D4F89432DB6805F5037154
:103FA000D5F804029847002038BD0220FCE770B520
:103FB000D0F89022D0F89852FAB101EB8104A30016
:103FC0000344DB694BB1C1EBC106B40025446D6C01
:103FD000B3FBF5F405FB14331BB10020C2F8140247
:103FE00070BD01EB8102930003440024DC61234691
:103FF000224601F0EAFC2046F2E70220F0E770B525
:1040000082B005460C46D0F8906200238DF8073048
:10401000ADF804300B7813F0600227D0202A56D177
:10402000CA883AB9D0F894329B68002248789847F9
:1040300000204FE013F0800F0CD0D0F894329B6832
:10404000314660789847E2883146284600F07AFD8C
:1040500000203FE04B7886F800328B7986F80132F9
:10406000CA88314600F083FD002033E04B780A2BEC
:1040700014D00B2B21D01BB100F069FA022029E0EB
:1040800090F87432032B05D1022201A900F05AFDE9
:1040900000201FE000F05BFA02201BE090F8743271
:1040A000032B06D101220DF1070100F04BFD00208A
:1040B00010E000F04CFA02200CE090F87432032B70
:1040C00001D1002006E000F042FA022002E000F0F8
:1040D0003EFA022002B070BD38B50446812101F0DD
:1040E00054FC0025E5620121204601F04EFCC4F895
:1040F00058518221204601F048FC2564D4F89032C2
:104100004BB1D4F894325B689847D4F8900201F030
:104110005BFDC4F89052002038BD38B50446037CDE
:10412000A3BB4FF400730222812101F023FC01257F
:10413000E5624FF4007302222946204601F01AFC82
:10414000C4F85851082303228221204601F012FCB2
:10415000012323644FF4077001F02EFD0546C4F8D7
:10416000900268B3D4F894321B6898470023C5F8CE
:104170001432C5F81832237CC3B14023D5F8042289
:104180000121204601F029FC002038BD40230222F5
:10419000812101F0EFFB0125E5624023022229463F
:1041A000204601F0E7FBC4F85851CBE74FF4007309
:1041B000D5F804220121204601F00FFC0020E4E79D
:1041C0000120E2E719B1C0F89412002070470220E4
:1041D0007047D0F89032C3F80812C3F810220020BC
:1041E0007047D0F89032C3F8041200207047D0F81E
:1041F00090229AB108B5037C3BB14023D2F8042247
:10420000012101F0EAFB002008BD4FF40073D2F851
:104210000422012101F0E1FB0020F5E702207047B4
:1042200098B108B50346D0F88C0210B10020C3F84D
:104230008C0209B1C3F888121846012380F8743241
:10424000027001F035FB002008BD0220704719B153
:10425000C0F88C12002070470220704708B501F0AA
:1042600081FB002008BD08B5D0F88C3233B11B6843
:10427000984708B9002008BD0220FCE70220FAE7B1
:1042800008B5D0F88C325B689847002008BD38B577
:10429000044600F52075284600F045F90123C4F8CE
:1042A0006C32B4F88632C4F8703294F8801201F09F
:1042B0001F03012B0ED03BB1022B10D001F0800167
:1042C000204601F06AFB03E02946204600F0B5FADB
:1042D000002038BD2946204600F0E3FAF8E72946D9
:1042E000204600F00EFBF3E738B50446A1BB1046AC
:1042F000D4F86C32032B03D0052B24D0002037E0F8
:10430000D4F84C31D4F8502193420DD99B1AC4F8FB
:104310004C319A4206D99AB20146204600F036FC4A
:10432000002025E092B2F7E7D4F88C321B692BB15C
:1043300094F87422032A01D120469847204600F0C1
:104340002DFC002014E00025C4F86C5229462046BC
:1043500001F023FB28460BE00A46D0F88C329B691B
:104360003BB190F87412032905D1114698470020FB
:1043700038BD0220FCE70220FAE710B50446002908
:1043800053D11046D4F86C32022B0CD0042B00D041
:104390001BB98021204601F000FB94F87832012BF4
:1043A0003FD000204DE0236A626A93421DD8E16944
:1043B000B1FBF2F302FB13132BB98A4203D8D4F8F2
:1043C000703299421FD3D4F88C32DB682BB194F849
:1043D0007422032A01D1204698478021204601F00B
:1043E000DCFA204600F0E5FBD7E79A1A226292B287
:1043F0000146204600F0B3FB00231A46194620462A
:1044000001F0EBFAC9E700221146204600F0A7FBB5
:104410000021C4F870120B460A46204601F0DDFA6E
:10442000BBE7002084F878020BE00A46D0F88C3213
:104430005B693BB190F87412032905D11146984786
:10444000002010BD0220FCE70220FAE770B5044608
:1044500040230022114601F08DFA0125C4F8445191
:104460004026C4F85061334600228021204601F0E6
:1044700081FAA561666284F874520023C4F86C3234
:104480006360C4F87C32D4F890322BB1D4F88C320B
:104490005B68002120469847002070BD0174002011
:1044A000704790F8743280F87532042380F87432C3
:1044B0000020704790F8753280F874320020704701
:1044C00008B590F87432032B01D0002008BDD0F855
:1044D0008C32DB69002BF8D09847F6E70020704754
:1044E000002070470020704708B5012280F8742230
:1044F000D0F88C22526801799047002008BD002333
:1045000002E00133DBB201300278002AF9D118460B
:10451000704708B54B88012B00D008BDC0F87C322D
:1045200000F03CFBF9E70B7803704B7843708B7815
:10453000CA7803EB022343800B794A7903EB022309
:1045400083808B79CA7903EB0223C380704710B54F
:104550000446802101F021FA0021204601F01DFAD5
:1045600010BD30B583B005460C464A88130A013B9E
:10457000062B00F28480DFE803F004162A828266AC
:104580007300D0F888321B680DF10601007C984753
:10459000BDF8062012B1E388002B74D1E388002B0C
:1045A0007BD003B030BD037C43B9D0F88C329B6A1A
:1045B0000DF10600984702234370E9E7D0F88C32EA
:1045C000DB6A0DF10600984702234370E0E7D2B2A0
:1045D000052A34D8DFE802F0030B131B232BD0F895
:1045E00088325B680DF10601007C9847D0E7D0F86F
:1045F00088329B680DF10601007C9847C8E7D0F827
:104600008832DB680DF10601007C9847C0E7D0F8DE
:1046100088321B690DF10601007C9847B8E7D0F895
:1046200088325B690DF10601007C9847B0E7D0F84D
:1046300088329B690DF10601007C9847A8E7214666
:10464000FFF785FFADE7037C33B9D0F88C325B6BA5
:104650000DF1060098479BE72146FFF778FFA0E79A
:10466000037C43B9D0F88C321B6B0DF106009847E0
:10467000072343708CE72146FFF769FF91E7214646
:10468000FFF765FF8DE79A4228BF1A46ADF806206E
:104690000146284600F056FA80E7284600F07EFAE8
:1046A0007FE738B504468B88F3B9CB88E3B94B88EC
:1046B0007F2B19D803F07F0590F87432032B0CD0B0
:1046C00080F87652294601F078F9204600F066FA23
:1046D00035B1022384F8743209E0FFF738FF06E0B1
:1046E000012384F8743202E02046FFF730FF38BD22
:1046F00038B504460D468978284B197001290ED823
:1047000090F87432022B0ED0032B21D02946FFF7EC
:104710001EFF224B19782046FFF7B2FD02E0294622
:10472000FFF715FF38BD81B14160032380F8743273
:10473000FFF799FD022803D0204600F02FFAF1E799
:1047400029462046FFF703FFECE700F027FAE9E7E8
:1047500089B1436899421DD0D9B2FFF791FD0F4B43
:10476000197861602046FFF77EFD02280DD02046B3
:1047700000F014FAD6E7022380F874324160FFF7A4
:104780007FFD204600F00AFACCE729462046FFF7D5
:10479000DEFEC7E700F002FAC4E700BFFC0100201C
:1047A00008B5CB88012B0BD190F874329BB1022B4A
:1047B00009D9032B0FD10122011D00F0C3F901E03B
:1047C000FFF7C5FE08BD0146002341F8083F01225E
:1047D00000F0B8F9F6E7FFF7BAFEF3E708B590F88E
:1047E0007432013B022B12D8CB88022B0CD101234F
:1047F000C360D0F87C320BB10323C360022200F106
:104800000C0100F09FF908BDFFF7A1FEFBE7FFF7E1
:104810009EFEF8E708B590F87432013B022B09D8E8
:104820004B88012B00D008BD0023C0F87C3200F07B
:10483000B5F9F8E7FFF78BFEF5E708B50B7803F05D
:104840006003202B05D0402B03D043B1FFF77FFE40
:1048500003E0D0F88C329B689847002008BD4B7865
:10486000092B1BD8DFE803F011171A141A08051AD0
:104870000E0BFFF776FEF0E7FFF713FFEDE7FFF70C
:1048800037FFEAE7FFF78CFFE7E7FFF7A7FFE4E76B
:10489000FFF73FFEE1E7FFF7BDFFDEE7FFF757FE5B
:1048A000DBE738B505460C460B7803F06003202B98
:1048B00006D0402B04D01BB1FFF749FE002038BDC5
:1048C00095F87432013B022B16D82379012B0ED8B0
:1048D000D5F88C329B68214628469847E388002B00
:1048E000ECD10028EAD1284600F058F9E6E7214645
:1048F0002846FFF72CFEE1E721462846FFF727FE72
:10490000DCE738B504468A880B7803F06003202B77
:1049100008D0D0B2402B05D05BB12046FFF717FE80
:10492000002005E0D4F88C329B6820469847002090
:1049300038BD202B05D1D4F88C329B68204698478F
:10494000F6E74B78012B32D0002B5ED0032B40F0E2
:10495000D68094F87432022B06D0032B16D0204652
:10496000FFF7F5FD0020E3E708B1802804D12046D9
:10497000FFF7EDFD0020DBE70146204601F00DF8D2
:104980008021204601F009F80020D1E74B8823B9A7
:1049900018B1802801D0CB8823B1204600F0FEF862
:1049A0000020C5E70146204600F0F7FFF5E794F840
:1049B0007432022B06D0032B16D02046FFF7C7FD1A
:1049C0000020B5E708B1802804D12046FFF7BFFDDD
:1049D0000020ADE70146204600F0DFFF80212046A1
:1049E00000F0DBFF0020A3E74B88002B40F08C8019
:1049F00010F07F0F04D1204600F0D0F8002097E798
:104A00000146204600F0D1FFF5E794F87432022BFE
:104A100006D0032B29D02046FFF799FD002087E719
:104A200008B1802812D112F0800F14D100F07F005D
:104A300000EB8000830003F5A073E11800250D60F2
:104A40000222204600F07EF8284671E72046FFF754
:104A50007EFD00206CE700F07F0000EB800083000B
:104A600003F1100121440431E8E752B2002A1EDBB1
:104A700000F00F0303EB83039D002544D5F8443178
:104A80001BB3002A26DB00F07F0202EB82029300B8
:104A900003F5A073E51808B1802825D100232B6009
:104AA00002222946204600F04DF8002040E700F0A1
:104AB0000F0303EB83039D002544AB69002BE0D17A
:104AC0002046FFF744FD002032E72046FFF73FFD78
:104AD00000202DE700F07F0202EB8202930003F139
:104AE000100525440435D6E70146204600F014FFA2
:104AF00010B101232B60D3E700232B60D0E72046C1
:104B0000FFF725FD002013E7002011E7C8B170B5BD
:104B10000D4616460446FFF7F2FC01304000308097
:104B2000287003236B70022307E001345A1CD2B2B1
:104B3000E9540233DBB20021A95421780029F4D1D1
:104B400070BD704710B513460222C0F86C22C361D5
:104B500003620A46002100F038FF002010BD08B5AE
:104B600013460A46002100F030FF002008BD10B5B2
:104B700013460322C0F86C22C0F84831C0F84C310B
:104B80000A46002100F029FF002010BD08B5134699
:104B90000A46002100F021FF002008BD08B50423CB
:104BA000C0F86C3200231A46194600F00EFF0020B0
:104BB00008BD08B50523C0F86C3200231A46194613
:104BC00000F00BFF002008BD2DE9F0438BB000245E
:104BD000059406940794089409940094514B1A6B19
:104BE00042F004021A631A6B02F004020092009A67
:104BF00001941A6B42F080021A631A6B02F0800271
:104C00000192019A02941A6B42F001021A631A6B24
:104C100002F001020292029A03941A6B42F002021D
:104C20001A631A6B02F002020392039A04941A6B3D
:104C300042F008021A631B6B03F008030493049B01
:104C4000394D012202212846FBF707FF22464FF289
:104C500020112846FBF701FFDFF8D48022464FF4ED
:104C600090514046FBF7F9FE304F22464FF4074182
:104C70003846FBF7F2FEDFF8BC9022460421484696
:104C8000FBF7EBFE42F23F0305930694079405A958
:104C90004046FBF763FD032305930694079405A99B
:104CA0003846FBF75BFD40F2112305930694079409
:104CB00005A92846FBF752FD47F22213059301266A
:104CC00006960794089405A92846FBF747FD4FF47C
:104CD00000430593112306930794089405A92846D9
:104CE000FBF73CFD4FF49053059306960794089408
:104CF00005A94046FBF732FD4FF40743059306969E
:104D00000794089405A93846FBF728FD042305936A
:104D100006960794089405A94846FBF71FFD0BB0BB
:104D2000BDE8F08300380240000402400000024069
:104D300000080240000C02401E4B834200D0704726
:104D400070B54FF480511C48FBF78DFE1B4A138849
:104D500001339BB21380B3F57A7F07D2174B5B68A0
:104D60001BB1013B154A5360DBB170BD4FF480416C
:104D70001148FBF778FE124C2046FCF749FF054628
:104D80002046FCF74BFF06462046FCF744FF03464F
:104D9000324629460B4800F0CFFF084B00221A800C
:104DA000DCE7074C2046FCF71FF92046FCF742F8E9
:104DB000DBE700BF000300200004024000020020E7
:104DC0006C020020A86A000838B50E4B984200D04B
:104DD00038BD0D4604464FF400410B48FBF743FE37
:104DE0000A4B1D7235B12023232209492046FCF7C6
:104DF0005BF9EDE70123022205492046FCF754F94F
:104E0000E6E700BF6C020020000402400002002020
:104E10008003002008B5084B984200D008BD074B1E
:104E20001B7A1BB1064800F0FBFFF7E72023212285
:104E30000449FCF7F2F8F5E76C02002000020020BC
:104E4000D06A00088003002008B5044B834200D0DC
:104E500008BD034800F0E4FFFAE700BF6C02002041
:104E6000F46A000838B50A4B984200D038BD0446B1
:104E7000FCF7D4FE05460146064800F05DFF15F03C
:104E8000040FF3D023686FF004025A61EEE700BF0D
:104E90006C020020186B000808B5044B834200D058
:104EA00008BD034800F0BCFFFAE700BF6C02002019
:104EB0002C6B00084FF06043D3F8803E13F0010FD5
:104EC00011D04FF06043D3F8003E13F0010F01D131
:104ED000704700BF4FF060431B68002BF9D0C3B28E
:104EE0004FF060421370704770B51646002405E01D
:104EF0004D1C0878FFF7DEFF01342946B442F7DB8A
:104F0000304670BD08B5024800F08AFF08BD00BFFA
:104F1000506B000808B50748074B03600023436047
:104F200040F6FF738360FCF77BFE00B908BDFFF716
:104F3000E9FFFBE7600200200030004008B50E48A2
:104F40000E4B03604FF48273436000238360C360A1
:104F5000036143614FF4802282610822C2610362CF
:104F6000436283620A23C362FDF764FF00B908BD90
:104F7000FFF7C8FFFBE700BFA0030020003001409F
:104F800008B50A480A4B03604FF4E133436000233D
:104F90008360C36003610C2242618361C361FEF7D9
:104FA0002BFA00B908BDFFF7ADFFFBE7C0020020F8
:104FB0000010014008B50A480A4B03604FF4E13382
:104FC000436000238360C36003610C2242618361FC
:104FD000C361FEF711FA00B908BDFFF793FFFBE7C5
:104FE000F80300200044004008B50A480A4B03605B
:104FF0004FF4E133436000238360C36003610C22FC
:1050000042618361C361FEF7F7F900B908BDFFF79C
:1050100079FFFBE7200200200048004008B50A485D
:105020000A4B03604FF4E133436000238360C360A5
:1050300003610C2242618361C361FEF7DDF900B9AF
:1050400008BDFFF75FFFFBE74003002000140140AD
:1050500000B583B00023009301930F480F4A02600C
:1050600041F61F42426083600923C360802383614D
:10507000FEF756F850B9002300930193694606489D
:10508000FEF768F828B903B05DF804FBFFF73AFFB4
:10509000F1E7FFF737FFF6E70003002000100040BC
:1050A00008B50C480C4B03600C4B43600023836035
:1050B0007A22C2604FF480420261012242617C2266
:1050C0008261C3610362FBF7B5FE00B908BDFFF75B
:1050D00019FFFBE76C02002000580040A086010089
:1050E00000B595B03022002108A800F075FD00231E
:1050F000039304930593069307930193214A116C3C
:1051000041F080511164126C02F080520192019AB8
:1051100002931D4B1A6842F480421A601B6803F424
:1051200080430293029B092308934FF48033099331
:1051300001230D9302230E934FF480020F92082255
:1051400010924822119212930323139308A8FDF79B
:105150003FFB80B90F2303930221049100230593A1
:105160004FF480520692079303A8FDF78DFD28B9EE
:1051700015B05DF804FBFFF7C5FEEBE7FFF7C2FED5
:10518000F6E700BF003802400070004070B5FBF742
:1051900013FAFFF7A5FFFFF717FDFFF7BBFEFFF7B9
:1051A000CDFEFFF7EDFEFFF705FFFFF71DFFFFF751
:1051B00035FFFFF74DFF00F07BFAFFF771FF2D4839
:1051C00000F02EFE2C48FDF775FE01224FF4004141
:1051D0002A48FBF742FC2A48FCF747FD274E4FF4CC
:1051E00000713046FBF732FC264C02464FF400714A
:1051F0002046FBF732FC4FF400512046FBF726FC1B
:10520000214D02464FF400412846FBF726FC0121C0
:105210002046FBF71BFC02464FF400712846FBF7C3
:105220001CFC02212046FBF711FC02464FF4806172
:105230002846FBF712FC08212046FBF707FC024634
:1052400004211248FBF709FC01212846FBF7FEFB6D
:1052500002464FF480713046FBF7FFFB0C48FCF729
:10526000D7FC2028B7D10B4BFA225A600848FBF72D
:1052700062FFB0E7606B00080003002000040240FA
:10528000600200200008024000000240000C0240C2
:105290006C0200200002002082B0002100910B4B24
:1052A0005A6C42F480425A645A6C02F48042009272
:1052B000009A01911A6C42F080521A641B6C03F040
:1052C00080530193019B02B0704700BF0038024039
:1052D00030B589B000230393049305930693079395
:1052E00002681D4B9A4201D009B030BD00240194E0
:1052F0001A4D2B6B43F002032B632B6B03F002035D
:105300000193019B4FF44063039312230493012301
:105310000593032306930423079303A91048FBF77F
:105320001DFA02942B6C43F480032B642B6C03F462
:1053300080030293029B224621462120FBF78EF92F
:105340002120FBF7BFF9224621462220FBF786F9F0
:105350002220FBF7B7F9C7E70058004000380240A9
:105360000004024008B502680A4B9A4200D008BD0A
:10537000094A136C23F4800313644FF44061074817
:10538000FBF7D0FA2120FBF7ABF92220FBF7A8F9B5
:10539000EDE700BF00580040003802400004024022
:1053A00000B589B0002303930493059306930793F4
:1053B0000268154B9A4202D009B05DF804FB002147
:1053C000019103F584335A6C42F480525A645A6C4A
:1053D00002F480520192019A02911A6B42F001028A
:1053E0001A631B6B03F001030293029BF0230393E8
:1053F00002230493032306930523079303A9034879
:10540000FBF7ACF9D8E700BF0030014000000240D4
:1054100002680E4B9A4200D0704700B583B000215D
:10542000019103F50A331A6C42F010021A641B6CE6
:1054300003F010030193019B0A463620FBF70EF997
:105440003620FBF73FF903B05DF804FB0010004085
:1054500000B58FB0002309930A930B930C930D931F
:105460000368524A93420BD0514A93422DD0514A7D
:1054700093424FD0504A934272D00FB05DF804FB74
:10548000002101914D4B5A6C42F010025A645A6C43
:1054900002F010020192019A02911A6B42F002028C
:1054A0001A631B6B03F002030293029BC023099350
:1054B00002230A9301230B9303230C9307230D93D9
:1054C00009A93F48FBF74AF9D7E7002103913B4B75
:1054D0001A6C42F400321A641A6C02F4003203921D
:1054E000039A04911A6B42F001021A631B6B03F0DA
:1054F00001030493049B0C23099302230A930123C1
:105500000B9303230C9307230D9309A92D48FBF755
:1055100025F9B2E700210591284B1A6C42F480224C
:105520001A641A6C02F480220592059A06911A6B8D
:1055300042F004021A631B6B03F004030693069BFC
:105540004FF44063099302230A9301230B9303232F
:105550000C9307230D9309A91B48FBF7FFF88CE771
:1055600000210791154B5A6C42F020025A645A6C84
:1055700002F020020792079A08911A6B42F0040287
:105580001A631B6B03F004030893089BC023099361
:1055900002230A9301230B9303230C9308230D93F7
:1055A00009A90948FBF7DAF867E700BF00100140D6
:1055B0000044004000480040001401400038024010
:1055C0000004024000000240000802407047FEE76D
:1055D000FEE7FEE7FEE770477047704708B5FBF748
:1055E00005F808BD08B50248FCF7EAF908BD00BF98
:1055F0006C02002008B50248FCF7A8FA08BD00BFFD
:105600006C02002008B50248FDF769FC08BD00BF28
:105610000003002008B50248FCF7FCFC08BD00BFF1
:10562000D416002070B50D461646002404E0AFF3F2
:105630000080287001340135B442F8DB304670BD7B
:1056400008B503460B4A126842B10A4A106803447F
:105650006A46934206D8074A136008BD054A0649C0
:105660001160F2E700F07EFA0C2303604FF0FF3088
:10567000F3E700BF0C020020E01C00204FF0FF30D9
:1056800070474FF400534B60002070470120704773
:1056900000207047054BD3F8882042F47002C3F80D
:1056A00088204FF000629A60704700BF00ED00E074
:1056B00008B500220F491048FEF7B2FD70B90F4936
:1056C0000D48FEF7C4FD60B90D490B48FEF77AFDA1
:1056D00050B90948FEF7C2FD48B908BDFFF712FCF2
:1056E000EDE7FFF70FFCEFE7FFF70CFCF1E7FFF743
:1056F00009FCF2E76001002038040020E0000020EF
:105700001C010020002070470020704710B5054C98
:1057100001462046FEF765FD2046FEF768FD0020A5
:1057200010BD00BF3804002010B5064C0022064909
:105730002046FEF74EFD05492046FEF752FD0020AB
:1057400010BD00BF38040020D40E0020D406002075
:105750000368B3F1A04F00D0704730B589B0002581
:105760000195184C236B43F001032363236B03F073
:1057700001030193019B4FF4C0530393022304934D
:105780000595032306930A23079303A90E48FAF706
:10579000E5FF636B43F0800363630295636C43F43E
:1057A00080436364636C03F480430293029B2A4644
:1057B00029464320FAF752FF4320FAF783FF09B046
:1057C00030BD00BF003802400000024008B500F5BF
:1057D0007171D0F80404FEF75AFD08BD08B5C1EB9D
:1057E000C10293000344D3F80822D0F80404FEF762
:1057F0007BFD08BD08B5C1EBC102930003449A6C60
:10580000D0F80404FEF7B9FD08BD08B5D0F80404CB
:10581000FEF756FE08BD10B50446C3682BB1022B37
:105820000DD0FFF76FFB012100E00021D4F8040444
:10583000FEF734FED4F80404FEF708FE10BD012183
:10584000F4E7000010B50446D0F80404FEF729FE82
:105850002268D2F8003E43F00103C2F8003E236AFA
:1058600023B1034A136943F00603136110BD00BF5F
:1058700000ED00E008B5D0F80404FEF71BFE08BDFB
:1058800008B5D0F80404FEF72BFE08BD08B5D0F823
:105890000404FEF723FE08BD08B5D0F80404FEF7A3
:1058A00021FE08BD08B5D0F80404FEF71DFE08BDB2
:1058B00003780BB10020704710B503461548C0F8B7
:1058C0000434C3F898024FF0A043036004234360FC
:1058D0000222C260002303618261C36103624362EA
:1058E000C3620363FCF731FA80B90A4C8021204679
:1058F000FCF769FF402200212046FCF740FF802290
:1059000001212046FCF73BFF002010BDFFF7FAFA0B
:10591000EBE700BFD4160020D0F8983211F0800FCA
:1059200008D101F07F01C1EBC1018A00134493F853
:10593000FE01704701F07F01C1EBC1018A001344F1
:1059400093F83E00704708B5D0F89802FCF76CFE5B
:1059500008BD18B1022803D002207047002070470C
:105960000120704708B5D0F89802FCF77FFAFFF7DE
:10597000F0FF08BD10B51C4613462246D0F8980229
:10598000FCF7ACFDFFF7E5FF10BD08B5D0F89802B5
:10599000FCF7E5FDFFF7DDFF08BD08B5D0F898027C
:1059A000FCF775FEFFF7D5FF08BD08B5D0F89802E3
:1059B000FCF7AEFEFFF7CDFF08BD08B5D0F89802A2
:1059C000FCF778FDFFF7C5FF08BD08B5D0F89802D1
:1059D000FCF733FEFFF7BDFF08BD08B5D0F898020D
:1059E000FCF7F4FDFFF7B5FF08BD000012230B80A4
:1059F000004870472C01002004230B8000487047AA
:105A0000400100200023934216D230B40BE037341B
:105A100001F8134000015C00013400250D550133ED
:105A2000DBB2934206D2040F092CF0D8303401F8CF
:105A30001340EFE730BC70477047000038B50B4BA0
:105A4000186804331C6804331B68C01800D138BDC3
:105A5000074D082205F11A01FFF7D4FF042205F1D2
:105A60002A012046FFF7CEFFF1E700BF107AFF1FA3
:105A70002C01002008B51A230B80FFF7DFFF014837
:105A800008BD00BF4401002008B50A4628B10549F9
:105A90000548FFF73BF8034808BD02490248FFF7F5
:105AA00035F8F8E7DC1A00206C6B000810B5044CE0
:105AB0000A4621460348FFF729F8204610BD00BFDB
:105AC000DC1A0020846B000808B50A4628B1054995
:105AD0000548FFF71BF8034808BD02490248FFF7D5
